ARM GAS  /tmp/cc2NSyh9.s 			page 1


   1              		.cpu cortex-m3
   2              		.eabi_attribute 20, 1
   3              		.eabi_attribute 21, 1
   4              		.eabi_attribute 23, 3
   5              		.eabi_attribute 24, 1
   6              		.eabi_attribute 25, 1
   7              		.eabi_attribute 26, 1
   8              		.eabi_attribute 30, 4
   9              		.eabi_attribute 34, 1
  10              		.eabi_attribute 18, 4
  11              		.file	"stm32l1xx_ll_rcc.c"
  12              		.section	.text.LL_RCC_DeInit,"ax",%progbits
  13              		.align	1
  14              		.global	LL_RCC_DeInit
  15              		.syntax unified
  16              		.thumb
  17              		.thumb_func
  18              		.fpu softvfp
  20              	LL_RCC_DeInit:
  21              		@ args = 0, pretend = 0, frame = 0
  22              		@ frame_needed = 0, uses_anonymous_args = 0
  23              		@ link register save eliminated.
  24 0000 174B     		ldr	r3, .L4
  25 0002 1A68     		ldr	r2, [r3]
  26 0004 42F48072 		orr	r2, r2, #256
  27 0008 1A60     		str	r2, [r3]
  28              	.L2:
  29 000a 1A68     		ldr	r2, [r3]
  30 000c 9205     		lsls	r2, r2, #22
  31 000e 24D5     		bpl	.L3
  32 0010 5A68     		ldr	r2, [r3, #4]
  33 0012 4FF07F41 		mov	r1, #-16777216
  34 0016 22F46042 		bic	r2, r2, #57344
  35 001a 42F42042 		orr	r2, r2, #40960
  36 001e 5A60     		str	r2, [r3, #4]
  37 0020 5A68     		ldr	r2, [r3, #4]
  38 0022 22F07F42 		bic	r2, r2, #-16777216
  39              		.syntax unified
  40              	@ 531 "Drivers/CMSIS/Include/cmsis_gcc.h" 1
  41 0026 91FAA1F1 		rbit r1, r1
  42              	@ 0 "" 2
  43              		.thumb
  44              		.syntax unified
  45 002a 0021     		movs	r1, #0
  46 002c 5A60     		str	r2, [r3, #4]
  47 002e 5A68     		ldr	r2, [r3, #4]
  48 0030 0120     		movs	r0, #1
  49 0032 22F4F852 		bic	r2, r2, #7936
  50 0036 42F48052 		orr	r2, r2, #4096
  51 003a 5A60     		str	r2, [r3, #4]
  52 003c 094A     		ldr	r2, .L4+4
  53 003e 9A60     		str	r2, [r3, #8]
  54 0040 094A     		ldr	r2, .L4+8
  55 0042 1A60     		str	r2, [r3]
  56 0044 1A68     		ldr	r2, [r3]
  57 0046 22F48022 		bic	r2, r2, #262144
  58 004a 1A60     		str	r2, [r3]
ARM GAS  /tmp/cc2NSyh9.s 			page 2


  59 004c 9960     		str	r1, [r3, #8]
  60 004e DA68     		ldr	r2, [r3, #12]
  61 0050 42F47F02 		orr	r2, r2, #16711680
  62 0054 DA60     		str	r2, [r3, #12]
  63 0056 D960     		str	r1, [r3, #12]
  64 0058 7047     		bx	lr
  65              	.L3:
  66              		.syntax unified
  67              	@ 375 "Drivers/CMSIS/Include/cmsis_gcc.h" 1
  68 005a 00BF     		nop
  69              	@ 0 "" 2
  70              		.thumb
  71              		.syntax unified
  72 005c D5E7     		b	.L2
  73              	.L5:
  74 005e 00BF     		.align	2
  75              	.L4:
  76 0060 00380240 		.word	1073887232
  77 0064 0CC0FFF8 		.word	-117456884
  78 0068 FEFFFEEE 		.word	-285278210
  80              		.section	.text.RCC_GetHCLKClockFreq,"ax",%progbits
  81              		.align	1
  82              		.global	RCC_GetHCLKClockFreq
  83              		.syntax unified
  84              		.thumb
  85              		.thumb_func
  86              		.fpu softvfp
  88              	RCC_GetHCLKClockFreq:
  89              		@ args = 0, pretend = 0, frame = 0
  90              		@ frame_needed = 0, uses_anonymous_args = 0
  91              		@ link register save eliminated.
  92 0000 034B     		ldr	r3, .L7
  93 0002 044A     		ldr	r2, .L7+4
  94 0004 9B68     		ldr	r3, [r3, #8]
  95 0006 C3F30313 		ubfx	r3, r3, #4, #4
  96 000a D35C     		ldrb	r3, [r2, r3]	@ zero_extendqisi2
  97 000c D840     		lsrs	r0, r0, r3
  98 000e 7047     		bx	lr
  99              	.L8:
 100              		.align	2
 101              	.L7:
 102 0010 00380240 		.word	1073887232
 103 0014 00000000 		.word	AHBPrescTable
 105              		.section	.text.RCC_GetPCLK1ClockFreq,"ax",%progbits
 106              		.align	1
 107              		.global	RCC_GetPCLK1ClockFreq
 108              		.syntax unified
 109              		.thumb
 110              		.thumb_func
 111              		.fpu softvfp
 113              	RCC_GetPCLK1ClockFreq:
 114              		@ args = 0, pretend = 0, frame = 0
 115              		@ frame_needed = 0, uses_anonymous_args = 0
 116              		@ link register save eliminated.
 117 0000 034B     		ldr	r3, .L10
 118 0002 044A     		ldr	r2, .L10+4
 119 0004 9B68     		ldr	r3, [r3, #8]
ARM GAS  /tmp/cc2NSyh9.s 			page 3


 120 0006 C3F30223 		ubfx	r3, r3, #8, #3
 121 000a D35C     		ldrb	r3, [r2, r3]	@ zero_extendqisi2
 122 000c D840     		lsrs	r0, r0, r3
 123 000e 7047     		bx	lr
 124              	.L11:
 125              		.align	2
 126              	.L10:
 127 0010 00380240 		.word	1073887232
 128 0014 00000000 		.word	APBPrescTable
 130              		.section	.text.RCC_GetPCLK2ClockFreq,"ax",%progbits
 131              		.align	1
 132              		.global	RCC_GetPCLK2ClockFreq
 133              		.syntax unified
 134              		.thumb
 135              		.thumb_func
 136              		.fpu softvfp
 138              	RCC_GetPCLK2ClockFreq:
 139              		@ args = 0, pretend = 0, frame = 0
 140              		@ frame_needed = 0, uses_anonymous_args = 0
 141              		@ link register save eliminated.
 142 0000 034B     		ldr	r3, .L13
 143 0002 044A     		ldr	r2, .L13+4
 144 0004 9B68     		ldr	r3, [r3, #8]
 145 0006 C3F3C223 		ubfx	r3, r3, #11, #3
 146 000a D35C     		ldrb	r3, [r2, r3]	@ zero_extendqisi2
 147 000c D840     		lsrs	r0, r0, r3
 148 000e 7047     		bx	lr
 149              	.L14:
 150              		.align	2
 151              	.L13:
 152 0010 00380240 		.word	1073887232
 153 0014 00000000 		.word	APBPrescTable
 155              		.section	.text.RCC_PLL_GetFreqDomain_SYS,"ax",%progbits
 156              		.align	1
 157              		.global	RCC_PLL_GetFreqDomain_SYS
 158              		.syntax unified
 159              		.thumb
 160              		.thumb_func
 161              		.fpu softvfp
 163              	RCC_PLL_GetFreqDomain_SYS:
 164              		@ args = 0, pretend = 0, frame = 0
 165              		@ frame_needed = 0, uses_anonymous_args = 0
 166 0000 124B     		ldr	r3, .L19
 167 0002 1349     		ldr	r1, .L19+4
 168 0004 9A68     		ldr	r2, [r3, #8]
 169 0006 1348     		ldr	r0, .L19+8
 170 0008 02F48032 		and	r2, r2, #65536
 171 000c 10B5     		push	{r4, lr}
 172 000e 002A     		cmp	r2, #0
 173 0010 08BF     		it	eq
 174 0012 0846     		moveq	r0, r1
 175 0014 4FF47014 		mov	r4, #3932160
 176 0018 9968     		ldr	r1, [r3, #8]
 177              		.syntax unified
 178              	@ 531 "Drivers/CMSIS/Include/cmsis_gcc.h" 1
 179 001a 94FAA4F4 		rbit r4, r4
 180              	@ 0 "" 2
ARM GAS  /tmp/cc2NSyh9.s 			page 4


 181              		.thumb
 182              		.syntax unified
 183 001e 4FF44002 		mov	r2, #12582912
 184 0022 B4FA84F4 		clz	r4, r4
 185 0026 9B68     		ldr	r3, [r3, #8]
 186              		.syntax unified
 187              	@ 531 "Drivers/CMSIS/Include/cmsis_gcc.h" 1
 188 0028 92FAA2F2 		rbit r2, r2
 189              	@ 0 "" 2
 190              		.thumb
 191              		.syntax unified
 192 002c B2FA82F2 		clz	r2, r2
 193 0030 01F47011 		and	r1, r1, #3932160
 194 0034 E140     		lsrs	r1, r1, r4
 195 0036 084C     		ldr	r4, .L19+12
 196 0038 03F44003 		and	r3, r3, #12582912
 197 003c 615C     		ldrb	r1, [r4, r1]	@ zero_extendqisi2
 198 003e D340     		lsrs	r3, r3, r2
 199 0040 4843     		muls	r0, r1, r0
 200 0042 0133     		adds	r3, r3, #1
 201 0044 B0FBF3F0 		udiv	r0, r0, r3
 202 0048 10BD     		pop	{r4, pc}
 203              	.L20:
 204 004a 00BF     		.align	2
 205              	.L19:
 206 004c 00380240 		.word	1073887232
 207 0050 0024F400 		.word	16000000
 208 0054 00127A00 		.word	8000000
 209 0058 00000000 		.word	PLLMulTable
 211              		.section	.text.RCC_GetSystemClockFreq,"ax",%progbits
 212              		.align	1
 213              		.global	RCC_GetSystemClockFreq
 214              		.syntax unified
 215              		.thumb
 216              		.thumb_func
 217              		.fpu softvfp
 219              	RCC_GetSystemClockFreq:
 220              		@ args = 0, pretend = 0, frame = 0
 221              		@ frame_needed = 0, uses_anonymous_args = 0
 222              		@ link register save eliminated.
 223 0000 114B     		ldr	r3, .L29
 224 0002 9A68     		ldr	r2, [r3, #8]
 225 0004 02F00C02 		and	r2, r2, #12
 226 0008 0C2A     		cmp	r2, #12
 227 000a 0CD8     		bhi	.L22
 228 000c DFE802F0 		tbb	[pc, r2]
 229              	.L24:
 230 0010 0B       		.byte	(.L22-.L24)/2
 231 0011 0B       		.byte	(.L22-.L24)/2
 232 0012 0B       		.byte	(.L22-.L24)/2
 233 0013 0B       		.byte	(.L22-.L24)/2
 234 0014 1A       		.byte	(.L28-.L24)/2
 235 0015 0B       		.byte	(.L22-.L24)/2
 236 0016 0B       		.byte	(.L22-.L24)/2
 237 0017 0B       		.byte	(.L22-.L24)/2
 238 0018 07       		.byte	(.L26-.L24)/2
 239 0019 0B       		.byte	(.L22-.L24)/2
ARM GAS  /tmp/cc2NSyh9.s 			page 5


 240 001a 0B       		.byte	(.L22-.L24)/2
 241 001b 0B       		.byte	(.L22-.L24)/2
 242 001c 09       		.byte	(.L27-.L24)/2
 243 001d 00       		.p2align 1
 244              	.L26:
 245 001e 0B48     		ldr	r0, .L29+4
 246 0020 7047     		bx	lr
 247              	.L27:
 248 0022 FFF7FEBF 		b	RCC_PLL_GetFreqDomain_SYS
 249              	.L22:
 250 0026 5868     		ldr	r0, [r3, #4]
 251 0028 4FF46043 		mov	r3, #57344
 252              		.syntax unified
 253              	@ 531 "Drivers/CMSIS/Include/cmsis_gcc.h" 1
 254 002c 93FAA3F3 		rbit r3, r3
 255              	@ 0 "" 2
 256              		.thumb
 257              		.syntax unified
 258 0030 B3FA83F3 		clz	r3, r3
 259 0034 00F46040 		and	r0, r0, #57344
 260 0038 D840     		lsrs	r0, r0, r3
 261 003a 431C     		adds	r3, r0, #1
 262 003c 4FF40040 		mov	r0, #32768
 263 0040 9840     		lsls	r0, r0, r3
 264 0042 7047     		bx	lr
 265              	.L28:
 266 0044 0248     		ldr	r0, .L29+8
 267 0046 7047     		bx	lr
 268              	.L30:
 269              		.align	2
 270              	.L29:
 271 0048 00380240 		.word	1073887232
 272 004c 00127A00 		.word	8000000
 273 0050 0024F400 		.word	16000000
 275              		.section	.text.LL_RCC_GetSystemClocksFreq,"ax",%progbits
 276              		.align	1
 277              		.global	LL_RCC_GetSystemClocksFreq
 278              		.syntax unified
 279              		.thumb
 280              		.thumb_func
 281              		.fpu softvfp
 283              	LL_RCC_GetSystemClocksFreq:
 284              		@ args = 0, pretend = 0, frame = 0
 285              		@ frame_needed = 0, uses_anonymous_args = 0
 286 0000 10B5     		push	{r4, lr}
 287 0002 0446     		mov	r4, r0
 288 0004 FFF7FEFF 		bl	RCC_GetSystemClockFreq
 289 0008 2060     		str	r0, [r4]
 290 000a FFF7FEFF 		bl	RCC_GetHCLKClockFreq
 291 000e 6060     		str	r0, [r4, #4]
 292 0010 FFF7FEFF 		bl	RCC_GetPCLK1ClockFreq
 293 0014 A060     		str	r0, [r4, #8]
 294 0016 6068     		ldr	r0, [r4, #4]
 295 0018 FFF7FEFF 		bl	RCC_GetPCLK2ClockFreq
 296 001c E060     		str	r0, [r4, #12]
 297 001e 10BD     		pop	{r4, pc}
 299              		.ident	"GCC: (GNU Tools for Arm Embedded Processors 7-2017-q4-major) 7.2.1 20170904 (release) [ARM
ARM GAS  /tmp/cc2NSyh9.s 			page 6


ARM GAS  /tmp/cc2NSyh9.s 			page 7


DEFINED SYMBOLS
                            *ABS*:0000000000000000 stm32l1xx_ll_rcc.c
     /tmp/cc2NSyh9.s:13     .text.LL_RCC_DeInit:0000000000000000 $t
     /tmp/cc2NSyh9.s:20     .text.LL_RCC_DeInit:0000000000000000 LL_RCC_DeInit
     /tmp/cc2NSyh9.s:76     .text.LL_RCC_DeInit:0000000000000060 $d
     /tmp/cc2NSyh9.s:81     .text.RCC_GetHCLKClockFreq:0000000000000000 $t
     /tmp/cc2NSyh9.s:88     .text.RCC_GetHCLKClockFreq:0000000000000000 RCC_GetHCLKClockFreq
     /tmp/cc2NSyh9.s:102    .text.RCC_GetHCLKClockFreq:0000000000000010 $d
     /tmp/cc2NSyh9.s:106    .text.RCC_GetPCLK1ClockFreq:0000000000000000 $t
     /tmp/cc2NSyh9.s:113    .text.RCC_GetPCLK1ClockFreq:0000000000000000 RCC_GetPCLK1ClockFreq
     /tmp/cc2NSyh9.s:127    .text.RCC_GetPCLK1ClockFreq:0000000000000010 $d
     /tmp/cc2NSyh9.s:131    .text.RCC_GetPCLK2ClockFreq:0000000000000000 $t
     /tmp/cc2NSyh9.s:138    .text.RCC_GetPCLK2ClockFreq:0000000000000000 RCC_GetPCLK2ClockFreq
     /tmp/cc2NSyh9.s:152    .text.RCC_GetPCLK2ClockFreq:0000000000000010 $d
     /tmp/cc2NSyh9.s:156    .text.RCC_PLL_GetFreqDomain_SYS:0000000000000000 $t
     /tmp/cc2NSyh9.s:163    .text.RCC_PLL_GetFreqDomain_SYS:0000000000000000 RCC_PLL_GetFreqDomain_SYS
     /tmp/cc2NSyh9.s:206    .text.RCC_PLL_GetFreqDomain_SYS:000000000000004c $d
     /tmp/cc2NSyh9.s:212    .text.RCC_GetSystemClockFreq:0000000000000000 $t
     /tmp/cc2NSyh9.s:219    .text.RCC_GetSystemClockFreq:0000000000000000 RCC_GetSystemClockFreq
     /tmp/cc2NSyh9.s:230    .text.RCC_GetSystemClockFreq:0000000000000010 $d
     /tmp/cc2NSyh9.s:271    .text.RCC_GetSystemClockFreq:0000000000000048 $d
     /tmp/cc2NSyh9.s:276    .text.LL_RCC_GetSystemClocksFreq:0000000000000000 $t
     /tmp/cc2NSyh9.s:283    .text.LL_RCC_GetSystemClocksFreq:0000000000000000 LL_RCC_GetSystemClocksFreq
     /tmp/cc2NSyh9.s:243    .text.RCC_GetSystemClockFreq:000000000000001d $d
     /tmp/cc2NSyh9.s:243    .text.RCC_GetSystemClockFreq:000000000000001e $t

UNDEFINED SYMBOLS
AHBPrescTable
APBPrescTable
PLLMulTable
