Archive member included to satisfy reference by file (symbol)

/home/me/gcc-arm-none-eabi-7-2017-q4-major/bin/../lib/gcc/arm-none-eabi/7.2.1/../../../../arm-none-eabi/lib/thumb/v7-m/libc_nano.a(lib_a-exit.o)
                              /home/me/gcc-arm-none-eabi-7-2017-q4-major/bin/../lib/gcc/arm-none-eabi/7.2.1/../../../../arm-none-eabi/lib/thumb/v7-m/crt0.o (exit)
/home/me/gcc-arm-none-eabi-7-2017-q4-major/bin/../lib/gcc/arm-none-eabi/7.2.1/../../../../arm-none-eabi/lib/thumb/v7-m/libc_nano.a(lib_a-impure.o)
                              /home/me/gcc-arm-none-eabi-7-2017-q4-major/bin/../lib/gcc/arm-none-eabi/7.2.1/../../../../arm-none-eabi/lib/thumb/v7-m/libc_nano.a(lib_a-exit.o) (_global_impure_ptr)
/home/me/gcc-arm-none-eabi-7-2017-q4-major/bin/../lib/gcc/arm-none-eabi/7.2.1/../../../../arm-none-eabi/lib/thumb/v7-m/libc_nano.a(lib_a-init.o)
                              /home/me/gcc-arm-none-eabi-7-2017-q4-major/bin/../lib/gcc/arm-none-eabi/7.2.1/../../../../arm-none-eabi/lib/thumb/v7-m/crt0.o (__libc_init_array)
/home/me/gcc-arm-none-eabi-7-2017-q4-major/bin/../lib/gcc/arm-none-eabi/7.2.1/../../../../arm-none-eabi/lib/thumb/v7-m/libc_nano.a(lib_a-memset.o)
                              /home/me/gcc-arm-none-eabi-7-2017-q4-major/bin/../lib/gcc/arm-none-eabi/7.2.1/../../../../arm-none-eabi/lib/thumb/v7-m/crt0.o (memset)
/home/me/gcc-arm-none-eabi-7-2017-q4-major/bin/../lib/gcc/arm-none-eabi/7.2.1/../../../../arm-none-eabi/lib/thumb/v7-m/libnosys.a(_exit.o)
                              /home/me/gcc-arm-none-eabi-7-2017-q4-major/bin/../lib/gcc/arm-none-eabi/7.2.1/../../../../arm-none-eabi/lib/thumb/v7-m/libc_nano.a(lib_a-exit.o) (_exit)

Allocating common symbols
Common symbol       size              file

RTC_alarm_status    0x1               build/main.o
RTC_century         0x1               build/main.o
RTC_day             0x1               build/main.o
RTC_year            0x1               build/main.o
RTC_leapyear        0x1               build/main.o
RTC_dayofweek       0x1               build/main.o
RTC_hours           0x1               build/main.o
RTC_minutes         0x1               build/main.o
RTC_alarm_type      0x1               build/main.o
s                   0x4               build/main.o
RTC_month           0x1               build/main.o
RTC_seconds         0x1               build/main.o
LCD_POS             0x1               build/main.o

Discarded input sections

 .text          0x0000000000000000        0x0 /home/me/gcc-arm-none-eabi-7-2017-q4-major/bin/../lib/gcc/arm-none-eabi/7.2.1/thumb/v7-m/crti.o
 .data          0x0000000000000000        0x0 /home/me/gcc-arm-none-eabi-7-2017-q4-major/bin/../lib/gcc/arm-none-eabi/7.2.1/thumb/v7-m/crti.o
 .bss           0x0000000000000000        0x0 /home/me/gcc-arm-none-eabi-7-2017-q4-major/bin/../lib/gcc/arm-none-eabi/7.2.1/thumb/v7-m/crti.o
 .data          0x0000000000000000        0x4 /home/me/gcc-arm-none-eabi-7-2017-q4-major/bin/../lib/gcc/arm-none-eabi/7.2.1/thumb/v7-m/crtbegin.o
 .text          0x0000000000000000       0x74 /home/me/gcc-arm-none-eabi-7-2017-q4-major/bin/../lib/gcc/arm-none-eabi/7.2.1/../../../../arm-none-eabi/lib/thumb/v7-m/crt0.o
 .data          0x0000000000000000        0x0 /home/me/gcc-arm-none-eabi-7-2017-q4-major/bin/../lib/gcc/arm-none-eabi/7.2.1/../../../../arm-none-eabi/lib/thumb/v7-m/crt0.o
 .bss           0x0000000000000000        0x0 /home/me/gcc-arm-none-eabi-7-2017-q4-major/bin/../lib/gcc/arm-none-eabi/7.2.1/../../../../arm-none-eabi/lib/thumb/v7-m/crt0.o
 .ARM.extab     0x0000000000000000        0x0 /home/me/gcc-arm-none-eabi-7-2017-q4-major/bin/../lib/gcc/arm-none-eabi/7.2.1/../../../../arm-none-eabi/lib/thumb/v7-m/crt0.o
 .ARM.exidx     0x0000000000000000        0x8 /home/me/gcc-arm-none-eabi-7-2017-q4-major/bin/../lib/gcc/arm-none-eabi/7.2.1/../../../../arm-none-eabi/lib/thumb/v7-m/crt0.o
 .ARM.attributes
                0x0000000000000000       0x1b /home/me/gcc-arm-none-eabi-7-2017-q4-major/bin/../lib/gcc/arm-none-eabi/7.2.1/../../../../arm-none-eabi/lib/thumb/v7-m/crt0.o
 .text          0x0000000000000000        0x0 build/stm32l1xx_ll_gpio.o
 .data          0x0000000000000000        0x0 build/stm32l1xx_ll_gpio.o
 .bss           0x0000000000000000        0x0 build/stm32l1xx_ll_gpio.o
 .text.LL_AHB1_GRP1_ForceReset
                0x0000000000000000       0x10 build/stm32l1xx_ll_gpio.o
 .text.LL_AHB1_GRP1_ReleaseReset
                0x0000000000000000       0x10 build/stm32l1xx_ll_gpio.o
Memory Configuration

Name             Origin             Length             Attributes
RAM              0x0000000020000000 0x0000000000014000 xrw
FLASH            0x0000000008000000 0x0000000000080000 xr
*default*        0x0000000000000000 0xffffffffffffffff

Linker script and memory map

LOAD /home/me/gcc-arm-none-eabi-7-2017-q4-major/bin/../lib/gcc/arm-none-eabi/7.2.1/thumb/v7-m/crti.o
LOAD /home/me/gcc-arm-none-eabi-7-2017-q4-major/bin/../lib/gcc/arm-none-eabi/7.2.1/thumb/v7-m/crtbegin.o
LOAD /home/me/gcc-arm-none-eabi-7-2017-q4-major/bin/../lib/gcc/arm-none-eabi/7.2.1/../../../../arm-none-eabi/lib/thumb/v7-m/crt0.o
LOAD build/stm32l1xx_ll_gpio.o
LOAD build/stm32l1xx_ll_utils.o
LOAD build/stm32l1xx_it.o
LOAD build/main.o
LOAD build/stm32l1xx_ll_exti.o
LOAD build/stm32l1xx_ll_rcc.o
LOAD build/system_stm32l1xx.o
LOAD build/stm32l1xx_ll_pwr.o
LOAD build/startup_stm32l152xe.o
LOAD /home/me/gcc-arm-none-eabi-7-2017-q4-major/bin/../lib/gcc/arm-none-eabi/7.2.1/../../../../arm-none-eabi/lib/thumb/v7-m/libc_nano.a
LOAD /home/me/gcc-arm-none-eabi-7-2017-q4-major/bin/../lib/gcc/arm-none-eabi/7.2.1/../../../../arm-none-eabi/lib/thumb/v7-m/libm.a
LOAD /home/me/gcc-arm-none-eabi-7-2017-q4-major/bin/../lib/gcc/arm-none-eabi/7.2.1/../../../../arm-none-eabi/lib/thumb/v7-m/libnosys.a
START GROUP
LOAD /home/me/gcc-arm-none-eabi-7-2017-q4-major/bin/../lib/gcc/arm-none-eabi/7.2.1/thumb/v7-m/libgcc.a
LOAD /home/me/gcc-arm-none-eabi-7-2017-q4-major/bin/../lib/gcc/arm-none-eabi/7.2.1/../../../../arm-none-eabi/lib/thumb/v7-m/libc_nano.a
END GROUP
START GROUP
LOAD /home/me/gcc-arm-none-eabi-7-2017-q4-major/bin/../lib/gcc/arm-none-eabi/7.2.1/thumb/v7-m/libgcc.a
LOAD /home/me/gcc-arm-none-eabi-7-2017-q4-major/bin/../lib/gcc/arm-none-eabi/7.2.1/../../../../arm-none-eabi/lib/thumb/v7-m/libc_nano.a
END GROUP
LOAD /home/me/gcc-arm-none-eabi-7-2017-q4-major/bin/../lib/gcc/arm-none-eabi/7.2.1/thumb/v7-m/crtend.o
LOAD /home/me/gcc-arm-none-eabi-7-2017-q4-major/bin/../lib/gcc/arm-none-eabi/7.2.1/thumb/v7-m/crtn.o
                0x0000000020014000                _estack = 0x20014000
                0x0000000000000200                _Min_Heap_Size = 0x200
                0x0000000000000400                _Min_Stack_Size = 0x400

.isr_vector     0x0000000008000000      0x13c
                0x0000000008000000                . = ALIGN (0x4)
 *(.isr_vector)
 .isr_vector    0x0000000008000000      0x13c build/startup_stm32l152xe.o
                0x0000000008000000                g_pfnVectors
                0x000000000800013c                . = ALIGN (0x4)

.text           0x000000000800013c     0x10ac
                0x000000000800013c                . = ALIGN (0x4)
 *(.text)
 .text          0x000000000800013c       0x40 /home/me/gcc-arm-none-eabi-7-2017-q4-major/bin/../lib/gcc/arm-none-eabi/7.2.1/thumb/v7-m/crtbegin.o
 *(.text*)
 .text.LL_GPIO_Init
                0x000000000800017c      0x146 build/stm32l1xx_ll_gpio.o
                0x000000000800017c                LL_GPIO_Init
 *fill*         0x00000000080002c2        0x2 
 .text.LL_Init1msTick
                0x00000000080002c4       0x1c build/stm32l1xx_ll_utils.o
                0x00000000080002c4                LL_Init1msTick
 .text.LL_mDelay
                0x00000000080002e0       0x28 build/stm32l1xx_ll_utils.o
                0x00000000080002e0                LL_mDelay
 .text.LL_SetSystemCoreClock
                0x0000000008000308        0xc build/stm32l1xx_ll_utils.o
                0x0000000008000308                LL_SetSystemCoreClock
 .text.SysTick_Handler
                0x0000000008000314        0x2 build/stm32l1xx_it.o
                0x0000000008000314                SysTick_Handler
 *fill*         0x0000000008000316        0x2 
 .text.NVIC_GetPriorityGrouping
                0x0000000008000318       0x10 build/main.o
 .text.LL_AHB1_GRP1_EnableClock
                0x0000000008000328       0x1c build/main.o
 .text.NVIC_EncodePriority.constprop.9
                0x0000000008000344        0x4 build/main.o
 .text.dectobcd
                0x0000000008000348       0x12 build/main.o
                0x0000000008000348                dectobcd
 .text.bcdtodec
                0x000000000800035a       0x12 build/main.o
                0x000000000800035a                bcdtodec
 .text.byte2dec
                0x000000000800036c       0x60 build/main.o
                0x000000000800036c                byte2dec
 .text.my_delay_us
                0x00000000080003cc        0xc build/main.o
                0x00000000080003cc                my_delay_us
 .text.__lcd_write_nibble
                0x00000000080003d8       0x50 build/main.o
                0x00000000080003d8                __lcd_write_nibble
 .text.__lcd_write
                0x0000000008000428       0x1a build/main.o
                0x0000000008000428                __lcd_write
 *fill*         0x0000000008000442        0x2 
 .text._lcd_write_data
                0x0000000008000444       0x10 build/main.o
                0x0000000008000444                _lcd_write_data
 .text._lcd_write_command
                0x0000000008000454       0x10 build/main.o
                0x0000000008000454                _lcd_write_command
 .text._lcd_line2index
                0x0000000008000464        0xa build/main.o
                0x0000000008000464                _lcd_line2index
 *fill*         0x000000000800046e        0x2 
 .text._lcd_restore_cursor
                0x0000000008000470       0x10 build/main.o
                0x0000000008000470                _lcd_restore_cursor
 .text.lcd_cursor_position
                0x0000000008000480       0x18 build/main.o
                0x0000000008000480                lcd_cursor_position
 .text.lcd_clear_screen
                0x0000000008000498       0x1a build/main.o
                0x0000000008000498                lcd_clear_screen
 *fill*         0x00000000080004b2        0x2 
 .text.lcd_init
                0x00000000080004b4      0x118 build/main.o
                0x00000000080004b4                lcd_init
 .text.I2C_SDA_RD
                0x00000000080005cc       0x20 build/main.o
                0x00000000080005cc                I2C_SDA_RD
 .text.I2C_SDA_WR
                0x00000000080005ec       0x28 build/main.o
                0x00000000080005ec                I2C_SDA_WR
 .text.sw_i2c_stop
                0x0000000008000614       0x28 build/main.o
                0x0000000008000614                sw_i2c_stop
 .text.sw_i2c_write
                0x000000000800063c       0x7c build/main.o
                0x000000000800063c                sw_i2c_write
 .text.sw_i2c_read
                0x00000000080006b8       0x84 build/main.o
                0x00000000080006b8                sw_i2c_read
 .text.I2C_SCL_WR
                0x000000000800073c       0x28 build/main.o
                0x000000000800073c                I2C_SCL_WR
 .text.sw_i2c_start
                0x0000000008000764       0x38 build/main.o
                0x0000000008000764                sw_i2c_start
 .text.pcf8583_getyear
                0x000000000800079c       0x38 build/main.o
                0x000000000800079c                pcf8583_getyear
 .text.pcf8583_setyear
                0x00000000080007d4       0x2a build/main.o
                0x00000000080007d4                pcf8583_setyear
 .text.pcf8583_set_datetime
                0x00000000080007fe       0xce build/main.o
                0x00000000080007fe                pcf8583_set_datetime
 .text.pcf8583_get_datetime
                0x00000000080008cc       0xca build/main.o
                0x00000000080008cc                pcf8583_get_datetime
 .text.pcf8583_read_reg
                0x0000000008000996       0x2e build/main.o
                0x0000000008000996                pcf8583_read_reg
 .text.pcf8583_en_dis_alarm
                0x00000000080009c4       0x74 build/main.o
                0x00000000080009c4                pcf8583_en_dis_alarm
 .text.pcf8583_set_alarm_weekdays
                0x0000000008000a38       0x4c build/main.o
                0x0000000008000a38                pcf8583_set_alarm_weekdays
 .text.pcf8583_set_alarm_time
                0x0000000008000a84       0x44 build/main.o
                0x0000000008000a84                pcf8583_set_alarm_time
 .text.pcf8583_stop_alarm
                0x0000000008000ac8       0x30 build/main.o
                0x0000000008000ac8                pcf8583_stop_alarm
 .text.SystemClock_Config
                0x0000000008000af8       0xd0 build/main.o
                0x0000000008000af8                SystemClock_Config
 .text.startup.main
                0x0000000008000bc8      0x480 build/main.o
                0x0000000008000bc8                main
 .text.LL_EXTI_Init
                0x0000000008001048       0xac build/stm32l1xx_ll_exti.o
                0x0000000008001048                LL_EXTI_Init
 .text.SystemInit
                0x00000000080010f4       0x48 build/system_stm32l1xx.o
                0x00000000080010f4                SystemInit
 .text.Reset_Handler
                0x000000000800113c       0x48 build/startup_stm32l152xe.o
                0x000000000800113c                Reset_Handler
 .text.Default_Handler
                0x0000000008001184        0x2 build/startup_stm32l152xe.o
                0x0000000008001184                RTC_Alarm_IRQHandler
                0x0000000008001184                EXTI2_IRQHandler
                0x0000000008001184                COMP_ACQ_IRQHandler
                0x0000000008001184                DebugMon_Handler
                0x0000000008001184                HardFault_Handler
                0x0000000008001184                TIM10_IRQHandler
                0x0000000008001184                USB_HP_IRQHandler
                0x0000000008001184                TIM6_IRQHandler
                0x0000000008001184                PVD_IRQHandler
                0x0000000008001184                PendSV_Handler
                0x0000000008001184                NMI_Handler
                0x0000000008001184                EXTI3_IRQHandler
                0x0000000008001184                EXTI0_IRQHandler
                0x0000000008001184                I2C2_EV_IRQHandler
                0x0000000008001184                UsageFault_Handler
                0x0000000008001184                SPI1_IRQHandler
                0x0000000008001184                USB_FS_WKUP_IRQHandler
                0x0000000008001184                DMA2_Channel2_IRQHandler
                0x0000000008001184                DMA1_Channel4_IRQHandler
                0x0000000008001184                ADC1_IRQHandler
                0x0000000008001184                USART3_IRQHandler
                0x0000000008001184                DMA1_Channel7_IRQHandler
                0x0000000008001184                LCD_IRQHandler
                0x0000000008001184                UART5_IRQHandler
                0x0000000008001184                TIM4_IRQHandler
                0x0000000008001184                DMA2_Channel1_IRQHandler
                0x0000000008001184                I2C1_EV_IRQHandler
                0x0000000008001184                DMA1_Channel6_IRQHandler
                0x0000000008001184                UART4_IRQHandler
                0x0000000008001184                DMA2_Channel4_IRQHandler
                0x0000000008001184                TIM3_IRQHandler
                0x0000000008001184                RCC_IRQHandler
                0x0000000008001184                DMA1_Channel1_IRQHandler
                0x0000000008001184                Default_Handler
                0x0000000008001184                EXTI15_10_IRQHandler
                0x0000000008001184                TIM7_IRQHandler
                0x0000000008001184                TIM5_IRQHandler
                0x0000000008001184                EXTI9_5_IRQHandler
                0x0000000008001184                TIM9_IRQHandler
                0x0000000008001184                TAMPER_STAMP_IRQHandler
                0x0000000008001184                RTC_WKUP_IRQHandler
                0x0000000008001184                SPI2_IRQHandler
                0x0000000008001184                MemManage_Handler
                0x0000000008001184                SVC_Handler
                0x0000000008001184                DMA2_Channel5_IRQHandler
                0x0000000008001184                DMA1_Channel5_IRQHandler
                0x0000000008001184                USB_LP_IRQHandler
                0x0000000008001184                EXTI4_IRQHandler
                0x0000000008001184                DMA1_Channel3_IRQHandler
                0x0000000008001184                COMP_IRQHandler
                0x0000000008001184                WWDG_IRQHandler
                0x0000000008001184                TIM2_IRQHandler
                0x0000000008001184                DAC_IRQHandler
                0x0000000008001184                EXTI1_IRQHandler
                0x0000000008001184                TIM11_IRQHandler
                0x0000000008001184                USART2_IRQHandler
                0x0000000008001184                I2C2_ER_IRQHandler
                0x0000000008001184                DMA1_Channel2_IRQHandler
                0x0000000008001184                FLASH_IRQHandler
                0x0000000008001184                BusFault_Handler
                0x0000000008001184                USART1_IRQHandler
                0x0000000008001184                SPI3_IRQHandler
                0x0000000008001184                I2C1_ER_IRQHandler
                0x0000000008001184                DMA2_Channel3_IRQHandler
 *fill*         0x0000000008001186        0x2 
 .text.__libc_init_array
                0x0000000008001188       0x48 /home/me/gcc-arm-none-eabi-7-2017-q4-major/bin/../lib/gcc/arm-none-eabi/7.2.1/../../../../arm-none-eabi/lib/thumb/v7-m/libc_nano.a(lib_a-init.o)
                0x0000000008001188                __libc_init_array
 *(.glue_7)
 .glue_7        0x00000000080011d0        0x0 linker stubs
 *(.glue_7t)
 .glue_7t       0x00000000080011d0        0x0 linker stubs
 *(.eh_frame)
 .eh_frame      0x00000000080011d0        0x0 /home/me/gcc-arm-none-eabi-7-2017-q4-major/bin/../lib/gcc/arm-none-eabi/7.2.1/thumb/v7-m/crtbegin.o
 *(.init)
 .init          0x00000000080011d0        0x4 /home/me/gcc-arm-none-eabi-7-2017-q4-major/bin/../lib/gcc/arm-none-eabi/7.2.1/thumb/v7-m/crti.o
                0x00000000080011d0                _init
 .init          0x00000000080011d4        0x8 /home/me/gcc-arm-none-eabi-7-2017-q4-major/bin/../lib/gcc/arm-none-eabi/7.2.1/thumb/v7-m/crtn.o
 *(.fini)
 .fini          0x00000000080011dc        0x4 /home/me/gcc-arm-none-eabi-7-2017-q4-major/bin/../lib/gcc/arm-none-eabi/7.2.1/thumb/v7-m/crti.o
                0x00000000080011dc                _fini
 .fini          0x00000000080011e0        0x8 /home/me/gcc-arm-none-eabi-7-2017-q4-major/bin/../lib/gcc/arm-none-eabi/7.2.1/thumb/v7-m/crtn.o
                0x00000000080011e8                . = ALIGN (0x4)
                0x00000000080011e8                _etext = .

.vfp11_veneer   0x00000000080011e8        0x0
 .vfp11_veneer  0x00000000080011e8        0x0 linker stubs

.v4_bx          0x00000000080011e8        0x0
 .v4_bx         0x00000000080011e8        0x0 linker stubs

.iplt           0x00000000080011e8        0x0
 .iplt          0x00000000080011e8        0x0 /home/me/gcc-arm-none-eabi-7-2017-q4-major/bin/../lib/gcc/arm-none-eabi/7.2.1/thumb/v7-m/crtbegin.o

.rel.dyn        0x00000000080011e8        0x0
 .rel.iplt      0x00000000080011e8        0x0 /home/me/gcc-arm-none-eabi-7-2017-q4-major/bin/../lib/gcc/arm-none-eabi/7.2.1/thumb/v7-m/crtbegin.o

.rodata         0x00000000080011e8        0x0
                0x00000000080011e8                . = ALIGN (0x4)
 *(.rodata)
 *(.rodata*)
                0x00000000080011e8                . = ALIGN (0x4)

.ARM.extab
 *(.ARM.extab* .gnu.linkonce.armextab.*)

.ARM            0x00000000080011e8        0x0
                0x00000000080011e8                __exidx_start = .
 *(.ARM.exidx*)
                0x00000000080011e8                __exidx_end = .

.preinit_array  0x00000000080011e8        0x0
                0x00000000080011e8                PROVIDE (__preinit_array_start, .)
 *(.preinit_array*)
                0x00000000080011e8                PROVIDE (__preinit_array_end, .)

.init_array     0x00000000080011e8        0x4
                0x00000000080011e8                PROVIDE (__init_array_start, .)
 *(SORT_BY_NAME(.init_array.*))
 *(.init_array*)
 .init_array    0x00000000080011e8        0x4 /home/me/gcc-arm-none-eabi-7-2017-q4-major/bin/../lib/gcc/arm-none-eabi/7.2.1/thumb/v7-m/crtbegin.o
                0x00000000080011ec                PROVIDE (__init_array_end, .)

.fini_array     0x00000000080011ec        0x4
                [!provide]                        PROVIDE (__fini_array_start, .)
 *(SORT_BY_NAME(.fini_array.*))
 *(.fini_array*)
 .fini_array    0x00000000080011ec        0x4 /home/me/gcc-arm-none-eabi-7-2017-q4-major/bin/../lib/gcc/arm-none-eabi/7.2.1/thumb/v7-m/crtbegin.o
                [!provide]                        PROVIDE (__fini_array_end, .)
                0x00000000080011f0                _sidata = LOADADDR (.data)

.data           0x0000000020000000        0x4 load address 0x00000000080011f0
                0x0000000020000000                . = ALIGN (0x4)
                0x0000000020000000                _sdata = .
 *(.data)
 *(.data*)
 .data.SystemCoreClock
                0x0000000020000000        0x4 build/system_stm32l1xx.o
                0x0000000020000000                SystemCoreClock
                0x0000000020000004                . = ALIGN (0x4)
                0x0000000020000004                _edata = .

.igot.plt       0x0000000020000004        0x0 load address 0x00000000080011f4
 .igot.plt      0x0000000020000004        0x0 /home/me/gcc-arm-none-eabi-7-2017-q4-major/bin/../lib/gcc/arm-none-eabi/7.2.1/thumb/v7-m/crtbegin.o
                0x0000000020000004                . = ALIGN (0x4)

.bss            0x0000000020000004       0x2c load address 0x00000000080011f4
                0x0000000020000004                _sbss = .
                0x0000000020000004                __bss_start__ = _sbss
 *(.bss)
 .bss           0x0000000020000004       0x1c /home/me/gcc-arm-none-eabi-7-2017-q4-major/bin/../lib/gcc/arm-none-eabi/7.2.1/thumb/v7-m/crtbegin.o
 *(.bss*)
 *(COMMON)
 COMMON         0x0000000020000020       0x10 build/main.o
                0x0000000020000020                RTC_alarm_status
                0x0000000020000021                RTC_century
                0x0000000020000022                RTC_day
                0x0000000020000023                RTC_year
                0x0000000020000024                RTC_leapyear
                0x0000000020000025                RTC_dayofweek
                0x0000000020000026                RTC_hours
                0x0000000020000027                RTC_minutes
                0x0000000020000028                RTC_alarm_type
                0x0000000020000029                s
                0x000000002000002d                RTC_month
                0x000000002000002e                RTC_seconds
                0x000000002000002f                LCD_POS
                0x0000000020000030                . = ALIGN (0x4)
                0x0000000020000030                _ebss = .
                0x0000000020000030                __bss_end__ = _ebss

._user_heap_stack
                0x0000000020000030      0x600 load address 0x00000000080011f4
                0x0000000020000030                . = ALIGN (0x8)
                [!provide]                        PROVIDE (end, .)
                [!provide]                        PROVIDE (_end, .)
                0x0000000020000230                . = (. + _Min_Heap_Size)
 *fill*         0x0000000020000030      0x200 
                0x0000000020000630                . = (. + _Min_Stack_Size)
 *fill*         0x0000000020000230      0x400 
                0x0000000020000630                . = ALIGN (0x8)

/DISCARD/
 libc.a(*)
 libm.a(*)
 libgcc.a(*)

.ARM.attributes
                0x0000000000000000       0x29
 *(.ARM.attributes)
 .ARM.attributes
                0x0000000000000000       0x1d /home/me/gcc-arm-none-eabi-7-2017-q4-major/bin/../lib/gcc/arm-none-eabi/7.2.1/thumb/v7-m/crti.o
 .ARM.attributes
                0x000000000000001d       0x2d /home/me/gcc-arm-none-eabi-7-2017-q4-major/bin/../lib/gcc/arm-none-eabi/7.2.1/thumb/v7-m/crtbegin.o
 .ARM.attributes
                0x000000000000004a       0x33 build/stm32l1xx_ll_gpio.o
 .ARM.attributes
                0x000000000000007d       0x33 build/stm32l1xx_ll_utils.o
 .ARM.attributes
                0x00000000000000b0       0x33 build/stm32l1xx_it.o
 .ARM.attributes
                0x00000000000000e3       0x33 build/main.o
 .ARM.attributes
                0x0000000000000116       0x33 build/stm32l1xx_ll_exti.o
 .ARM.attributes
                0x0000000000000149       0x33 build/system_stm32l1xx.o
 .ARM.attributes
                0x000000000000017c       0x21 build/startup_stm32l152xe.o
 .ARM.attributes
                0x000000000000019d       0x2d /home/me/gcc-arm-none-eabi-7-2017-q4-major/bin/../lib/gcc/arm-none-eabi/7.2.1/../../../../arm-none-eabi/lib/thumb/v7-m/libc_nano.a(lib_a-init.o)
 .ARM.attributes
                0x00000000000001ca       0x1d /home/me/gcc-arm-none-eabi-7-2017-q4-major/bin/../lib/gcc/arm-none-eabi/7.2.1/thumb/v7-m/crtn.o
OUTPUT(build/ll_pcf8583_weekdays_alarm_lcd_sw_i2c.elf elf32-littlearm)

.comment        0x0000000000000000       0x7e
 .comment       0x0000000000000000       0x7e build/stm32l1xx_ll_gpio.o
                                         0x7f (size before relaxing)
 .comment       0x000000000000007e       0x7f build/stm32l1xx_ll_utils.o
 .comment       0x000000000000007e       0x7f build/stm32l1xx_it.o
 .comment       0x000000000000007e       0x7f build/main.o
 .comment       0x000000000000007e       0x7f build/stm32l1xx_ll_exti.o
 .comment       0x000000000000007e       0x7f build/system_stm32l1xx.o

.debug_frame    0x0000000000000000       0x2c
 .debug_frame   0x0000000000000000       0x2c /home/me/gcc-arm-none-eabi-7-2017-q4-major/bin/../lib/gcc/arm-none-eabi/7.2.1/../../../../arm-none-eabi/lib/thumb/v7-m/libc_nano.a(lib_a-init.o)

Cross Reference Table

Symbol                                            File
ADC1_IRQHandler                                   build/startup_stm32l152xe.o
AHBPrescTable                                     build/system_stm32l1xx.o
                                                  build/stm32l1xx_ll_rcc.o
                                                  build/stm32l1xx_ll_utils.o
APBPrescTable                                     build/system_stm32l1xx.o
                                                  build/stm32l1xx_ll_rcc.o
BusFault_Handler                                  build/startup_stm32l152xe.o
COMP_ACQ_IRQHandler                               build/startup_stm32l152xe.o
COMP_IRQHandler                                   build/startup_stm32l152xe.o
DAC_IRQHandler                                    build/startup_stm32l152xe.o
DMA1_Channel1_IRQHandler                          build/startup_stm32l152xe.o
DMA1_Channel2_IRQHandler                          build/startup_stm32l152xe.o
DMA1_Channel3_IRQHandler                          build/startup_stm32l152xe.o
DMA1_Channel4_IRQHandler                          build/startup_stm32l152xe.o
DMA1_Channel5_IRQHandler                          build/startup_stm32l152xe.o
DMA1_Channel6_IRQHandler                          build/startup_stm32l152xe.o
DMA1_Channel7_IRQHandler                          build/startup_stm32l152xe.o
DMA2_Channel1_IRQHandler                          build/startup_stm32l152xe.o
DMA2_Channel2_IRQHandler                          build/startup_stm32l152xe.o
DMA2_Channel3_IRQHandler                          build/startup_stm32l152xe.o
DMA2_Channel4_IRQHandler                          build/startup_stm32l152xe.o
DMA2_Channel5_IRQHandler                          build/startup_stm32l152xe.o
DebugMon_Handler                                  build/startup_stm32l152xe.o
Default_Handler                                   build/startup_stm32l152xe.o
EXTI0_IRQHandler                                  build/startup_stm32l152xe.o
EXTI15_10_IRQHandler                              build/startup_stm32l152xe.o
EXTI1_IRQHandler                                  build/startup_stm32l152xe.o
EXTI2_IRQHandler                                  build/startup_stm32l152xe.o
EXTI3_IRQHandler                                  build/startup_stm32l152xe.o
EXTI4_IRQHandler                                  build/startup_stm32l152xe.o
EXTI9_5_IRQHandler                                build/startup_stm32l152xe.o
FLASH_IRQHandler                                  build/startup_stm32l152xe.o
HardFault_Handler                                 build/startup_stm32l152xe.o
I2C1_ER_IRQHandler                                build/startup_stm32l152xe.o
I2C1_EV_IRQHandler                                build/startup_stm32l152xe.o
I2C2_ER_IRQHandler                                build/startup_stm32l152xe.o
I2C2_EV_IRQHandler                                build/startup_stm32l152xe.o
I2C_SCL_H                                         build/main.o
I2C_SCL_L                                         build/main.o
I2C_SCL_WR                                        build/main.o
I2C_SDA_H                                         build/main.o
I2C_SDA_L                                         build/main.o
I2C_SDA_RD                                        build/main.o
I2C_SDA_WR                                        build/main.o
LCD_IRQHandler                                    build/startup_stm32l152xe.o
LCD_POS                                           build/main.o
LL_EXTI_DeInit                                    build/stm32l1xx_ll_exti.o
LL_EXTI_Init                                      build/stm32l1xx_ll_exti.o
                                                  build/main.o
LL_EXTI_StructInit                                build/stm32l1xx_ll_exti.o
LL_GPIO_DeInit                                    build/stm32l1xx_ll_gpio.o
LL_GPIO_Init                                      build/stm32l1xx_ll_gpio.o
                                                  build/main.o
LL_GPIO_StructInit                                build/stm32l1xx_ll_gpio.o
LL_Init1msTick                                    build/stm32l1xx_ll_utils.o
                                                  build/main.o
LL_PLL_ConfigSystemClock_HSE                      build/stm32l1xx_ll_utils.o
LL_PLL_ConfigSystemClock_HSI                      build/stm32l1xx_ll_utils.o
LL_PWR_DeInit                                     build/stm32l1xx_ll_pwr.o
LL_RCC_DeInit                                     build/stm32l1xx_ll_rcc.o
LL_RCC_GetSystemClocksFreq                        build/stm32l1xx_ll_rcc.o
LL_SetSystemCoreClock                             build/stm32l1xx_ll_utils.o
                                                  build/main.o
LL_mDelay                                         build/stm32l1xx_ll_utils.o
                                                  build/main.o
MemManage_Handler                                 build/startup_stm32l152xe.o
NMI_Handler                                       build/startup_stm32l152xe.o
PLLMulTable                                       build/system_stm32l1xx.o
                                                  build/stm32l1xx_ll_rcc.o
                                                  build/stm32l1xx_ll_utils.o
PVD_IRQHandler                                    build/startup_stm32l152xe.o
PendSV_Handler                                    build/startup_stm32l152xe.o
RCC_GetHCLKClockFreq                              build/stm32l1xx_ll_rcc.o
RCC_GetPCLK1ClockFreq                             build/stm32l1xx_ll_rcc.o
RCC_GetPCLK2ClockFreq                             build/stm32l1xx_ll_rcc.o
RCC_GetSystemClockFreq                            build/stm32l1xx_ll_rcc.o
RCC_IRQHandler                                    build/startup_stm32l152xe.o
RCC_PLL_GetFreqDomain_SYS                         build/stm32l1xx_ll_rcc.o
RTC_Alarm_IRQHandler                              build/startup_stm32l152xe.o
RTC_WKUP_IRQHandler                               build/startup_stm32l152xe.o
RTC_alarm_status                                  build/main.o
RTC_alarm_type                                    build/main.o
RTC_century                                       build/main.o
RTC_day                                           build/main.o
RTC_dayofweek                                     build/main.o
RTC_hours                                         build/main.o
RTC_leapyear                                      build/main.o
RTC_minutes                                       build/main.o
RTC_month                                         build/main.o
RTC_seconds                                       build/main.o
RTC_year                                          build/main.o
Reset_Handler                                     build/startup_stm32l152xe.o
SPI1_IRQHandler                                   build/startup_stm32l152xe.o
SPI2_IRQHandler                                   build/startup_stm32l152xe.o
SPI3_IRQHandler                                   build/startup_stm32l152xe.o
SVC_Handler                                       build/startup_stm32l152xe.o
SysTick_Handler                                   build/stm32l1xx_it.o
SystemClock_Config                                build/main.o
SystemCoreClock                                   build/system_stm32l1xx.o
                                                  build/stm32l1xx_ll_utils.o
SystemCoreClockUpdate                             build/system_stm32l1xx.o
SystemInit                                        build/system_stm32l1xx.o
                                                  build/startup_stm32l152xe.o
TAMPER_STAMP_IRQHandler                           build/startup_stm32l152xe.o
TIM10_IRQHandler                                  build/startup_stm32l152xe.o
TIM11_IRQHandler                                  build/startup_stm32l152xe.o
TIM2_IRQHandler                                   build/startup_stm32l152xe.o
TIM3_IRQHandler                                   build/startup_stm32l152xe.o
TIM4_IRQHandler                                   build/startup_stm32l152xe.o
TIM5_IRQHandler                                   build/startup_stm32l152xe.o
TIM6_IRQHandler                                   build/startup_stm32l152xe.o
TIM7_IRQHandler                                   build/startup_stm32l152xe.o
TIM9_IRQHandler                                   build/startup_stm32l152xe.o
UART4_IRQHandler                                  build/startup_stm32l152xe.o
UART5_IRQHandler                                  build/startup_stm32l152xe.o
USART1_IRQHandler                                 build/startup_stm32l152xe.o
USART2_IRQHandler                                 build/startup_stm32l152xe.o
USART3_IRQHandler                                 build/startup_stm32l152xe.o
USB_FS_WKUP_IRQHandler                            build/startup_stm32l152xe.o
USB_HP_IRQHandler                                 build/startup_stm32l152xe.o
USB_LP_IRQHandler                                 build/startup_stm32l152xe.o
UsageFault_Handler                                build/startup_stm32l152xe.o
WWDG_IRQHandler                                   build/startup_stm32l152xe.o
_Error_Handler                                    build/main.o
__bss_end__                                       /home/me/gcc-arm-none-eabi-7-2017-q4-major/bin/../lib/gcc/arm-none-eabi/7.2.1/../../../../arm-none-eabi/lib/thumb/v7-m/crt0.o
__bss_start__                                     /home/me/gcc-arm-none-eabi-7-2017-q4-major/bin/../lib/gcc/arm-none-eabi/7.2.1/../../../../arm-none-eabi/lib/thumb/v7-m/crt0.o
__call_exitprocs                                  /home/me/gcc-arm-none-eabi-7-2017-q4-major/bin/../lib/gcc/arm-none-eabi/7.2.1/../../../../arm-none-eabi/lib/thumb/v7-m/libc_nano.a(lib_a-exit.o)
__deregister_frame_info                           /home/me/gcc-arm-none-eabi-7-2017-q4-major/bin/../lib/gcc/arm-none-eabi/7.2.1/thumb/v7-m/crtbegin.o
__dso_handle                                      /home/me/gcc-arm-none-eabi-7-2017-q4-major/bin/../lib/gcc/arm-none-eabi/7.2.1/thumb/v7-m/crtbegin.o
__init_array_end                                  /home/me/gcc-arm-none-eabi-7-2017-q4-major/bin/../lib/gcc/arm-none-eabi/7.2.1/../../../../arm-none-eabi/lib/thumb/v7-m/libc_nano.a(lib_a-init.o)
__init_array_start                                /home/me/gcc-arm-none-eabi-7-2017-q4-major/bin/../lib/gcc/arm-none-eabi/7.2.1/../../../../arm-none-eabi/lib/thumb/v7-m/libc_nano.a(lib_a-init.o)
__lcd_write                                       build/main.o
__lcd_write_nibble                                build/main.o
__libc_fini_array                                 /home/me/gcc-arm-none-eabi-7-2017-q4-major/bin/../lib/gcc/arm-none-eabi/7.2.1/../../../../arm-none-eabi/lib/thumb/v7-m/crt0.o
__libc_init_array                                 /home/me/gcc-arm-none-eabi-7-2017-q4-major/bin/../lib/gcc/arm-none-eabi/7.2.1/../../../../arm-none-eabi/lib/thumb/v7-m/libc_nano.a(lib_a-init.o)
                                                  build/startup_stm32l152xe.o
                                                  /home/me/gcc-arm-none-eabi-7-2017-q4-major/bin/../lib/gcc/arm-none-eabi/7.2.1/../../../../arm-none-eabi/lib/thumb/v7-m/crt0.o
__preinit_array_end                               /home/me/gcc-arm-none-eabi-7-2017-q4-major/bin/../lib/gcc/arm-none-eabi/7.2.1/../../../../arm-none-eabi/lib/thumb/v7-m/libc_nano.a(lib_a-init.o)
__preinit_array_start                             /home/me/gcc-arm-none-eabi-7-2017-q4-major/bin/../lib/gcc/arm-none-eabi/7.2.1/../../../../arm-none-eabi/lib/thumb/v7-m/libc_nano.a(lib_a-init.o)
__register_frame_info                             /home/me/gcc-arm-none-eabi-7-2017-q4-major/bin/../lib/gcc/arm-none-eabi/7.2.1/thumb/v7-m/crtbegin.o
__sf_fake_stderr                                  /home/me/gcc-arm-none-eabi-7-2017-q4-major/bin/../lib/gcc/arm-none-eabi/7.2.1/../../../../arm-none-eabi/lib/thumb/v7-m/libc_nano.a(lib_a-impure.o)
__sf_fake_stdin                                   /home/me/gcc-arm-none-eabi-7-2017-q4-major/bin/../lib/gcc/arm-none-eabi/7.2.1/../../../../arm-none-eabi/lib/thumb/v7-m/libc_nano.a(lib_a-impure.o)
__sf_fake_stdout                                  /home/me/gcc-arm-none-eabi-7-2017-q4-major/bin/../lib/gcc/arm-none-eabi/7.2.1/../../../../arm-none-eabi/lib/thumb/v7-m/libc_nano.a(lib_a-impure.o)
__stack                                           /home/me/gcc-arm-none-eabi-7-2017-q4-major/bin/../lib/gcc/arm-none-eabi/7.2.1/../../../../arm-none-eabi/lib/thumb/v7-m/crt0.o
_ebss                                             build/startup_stm32l152xe.o
_edata                                            build/startup_stm32l152xe.o
_estack                                           build/startup_stm32l152xe.o
_exit                                             /home/me/gcc-arm-none-eabi-7-2017-q4-major/bin/../lib/gcc/arm-none-eabi/7.2.1/../../../../arm-none-eabi/lib/thumb/v7-m/libnosys.a(_exit.o)
                                                  /home/me/gcc-arm-none-eabi-7-2017-q4-major/bin/../lib/gcc/arm-none-eabi/7.2.1/../../../../arm-none-eabi/lib/thumb/v7-m/libc_nano.a(lib_a-exit.o)
_fini                                             /home/me/gcc-arm-none-eabi-7-2017-q4-major/bin/../lib/gcc/arm-none-eabi/7.2.1/thumb/v7-m/crti.o
_global_impure_ptr                                /home/me/gcc-arm-none-eabi-7-2017-q4-major/bin/../lib/gcc/arm-none-eabi/7.2.1/../../../../arm-none-eabi/lib/thumb/v7-m/libc_nano.a(lib_a-impure.o)
                                                  /home/me/gcc-arm-none-eabi-7-2017-q4-major/bin/../lib/gcc/arm-none-eabi/7.2.1/../../../../arm-none-eabi/lib/thumb/v7-m/libc_nano.a(lib_a-exit.o)
_impure_ptr                                       /home/me/gcc-arm-none-eabi-7-2017-q4-major/bin/../lib/gcc/arm-none-eabi/7.2.1/../../../../arm-none-eabi/lib/thumb/v7-m/libc_nano.a(lib_a-impure.o)
_init                                             /home/me/gcc-arm-none-eabi-7-2017-q4-major/bin/../lib/gcc/arm-none-eabi/7.2.1/thumb/v7-m/crti.o
                                                  /home/me/gcc-arm-none-eabi-7-2017-q4-major/bin/../lib/gcc/arm-none-eabi/7.2.1/../../../../arm-none-eabi/lib/thumb/v7-m/libc_nano.a(lib_a-init.o)
_lcd_line2index                                   build/main.o
_lcd_restore_cursor                               build/main.o
_lcd_write_command                                build/main.o
_lcd_write_data                                   build/main.o
_mainCRTStartup                                   /home/me/gcc-arm-none-eabi-7-2017-q4-major/bin/../lib/gcc/arm-none-eabi/7.2.1/../../../../arm-none-eabi/lib/thumb/v7-m/crt0.o
_sbss                                             build/startup_stm32l152xe.o
_sdata                                            build/startup_stm32l152xe.o
_sidata                                           build/startup_stm32l152xe.o
_start                                            /home/me/gcc-arm-none-eabi-7-2017-q4-major/bin/../lib/gcc/arm-none-eabi/7.2.1/../../../../arm-none-eabi/lib/thumb/v7-m/crt0.o
atexit                                            /home/me/gcc-arm-none-eabi-7-2017-q4-major/bin/../lib/gcc/arm-none-eabi/7.2.1/../../../../arm-none-eabi/lib/thumb/v7-m/crt0.o
bcdtodec                                          build/main.o
byte2dec                                          build/main.o
byte2hex                                          build/main.o
dectobcd                                          build/main.o
double2dec                                        build/main.o
double2hex                                        build/main.o
exit                                              /home/me/gcc-arm-none-eabi-7-2017-q4-major/bin/../lib/gcc/arm-none-eabi/7.2.1/../../../../arm-none-eabi/lib/thumb/v7-m/libc_nano.a(lib_a-exit.o)
                                                  /home/me/gcc-arm-none-eabi-7-2017-q4-major/bin/../lib/gcc/arm-none-eabi/7.2.1/../../../../arm-none-eabi/lib/thumb/v7-m/crt0.o
g_pfnVectors                                      build/startup_stm32l152xe.o
hardware_init_hook                                /home/me/gcc-arm-none-eabi-7-2017-q4-major/bin/../lib/gcc/arm-none-eabi/7.2.1/../../../../arm-none-eabi/lib/thumb/v7-m/crt0.o
lcd_clear_line                                    build/main.o
lcd_clear_screen                                  build/main.o
lcd_cursor_blink_display                          build/main.o
lcd_cursor_position                               build/main.o
lcd_cursor_shift_left                             build/main.o
lcd_cursor_shift_right                            build/main.o
lcd_home                                          build/main.o
lcd_init                                          build/main.o
lcd_progress                                      build/main.o
lcd_shift_left                                    build/main.o
lcd_shift_right                                   build/main.o
lcd_write_char                                    build/main.o
lcd_write_str                                     build/main.o
lcd_write_strF                                    build/main.o
main                                              build/main.o
                                                  build/startup_stm32l152xe.o
                                                  /home/me/gcc-arm-none-eabi-7-2017-q4-major/bin/../lib/gcc/arm-none-eabi/7.2.1/../../../../arm-none-eabi/lib/thumb/v7-m/crt0.o
memset                                            /home/me/gcc-arm-none-eabi-7-2017-q4-major/bin/../lib/gcc/arm-none-eabi/7.2.1/../../../../arm-none-eabi/lib/thumb/v7-m/libc_nano.a(lib_a-memset.o)
                                                  /home/me/gcc-arm-none-eabi-7-2017-q4-major/bin/../lib/gcc/arm-none-eabi/7.2.1/../../../../arm-none-eabi/lib/thumb/v7-m/crt0.o
my_delay_us                                       build/main.o
nibble2hex                                        build/main.o
pcf8583_en_dis_alarm                              build/main.o
pcf8583_get_datetime                              build/main.o
pcf8583_getyear                                   build/main.o
pcf8583_read_reg                                  build/main.o
pcf8583_set_alarm_time                            build/main.o
pcf8583_set_alarm_weekdays                        build/main.o
pcf8583_set_datetime                              build/main.o
pcf8583_setyear                                   build/main.o
pcf8583_stop_alarm                                build/main.o
s                                                 build/main.o
software_init_hook                                /home/me/gcc-arm-none-eabi-7-2017-q4-major/bin/../lib/gcc/arm-none-eabi/7.2.1/../../../../arm-none-eabi/lib/thumb/v7-m/crt0.o
sw_i2c_init                                       build/main.o
sw_i2c_read                                       build/main.o
sw_i2c_start                                      build/main.o
sw_i2c_stop                                       build/main.o
sw_i2c_write                                      build/main.o
word2dec                                          build/main.o
word2hex                                          build/main.o
