ARM GAS  /tmp/cc49tyeU.s 			page 1


   1              		.cpu cortex-m3
   2              		.eabi_attribute 20, 1
   3              		.eabi_attribute 21, 1
   4              		.eabi_attribute 23, 3
   5              		.eabi_attribute 24, 1
   6              		.eabi_attribute 25, 1
   7              		.eabi_attribute 26, 1
   8              		.eabi_attribute 30, 4
   9              		.eabi_attribute 34, 1
  10              		.eabi_attribute 18, 4
  11              		.file	"main.c"
  12              		.section	.text.NVIC_GetPriorityGrouping,"ax",%progbits
  13              		.align	1
  14              		.syntax unified
  15              		.thumb
  16              		.thumb_func
  17              		.fpu softvfp
  19              	NVIC_GetPriorityGrouping:
  20              		@ args = 0, pretend = 0, frame = 0
  21              		@ frame_needed = 0, uses_anonymous_args = 0
  22              		@ link register save eliminated.
  23 0000 024B     		ldr	r3, .L2
  24 0002 D868     		ldr	r0, [r3, #12]
  25 0004 C0F30220 		ubfx	r0, r0, #8, #3
  26 0008 7047     		bx	lr
  27              	.L3:
  28 000a 00BF     		.align	2
  29              	.L2:
  30 000c 00ED00E0 		.word	-536810240
  32              		.section	.text.LL_AHB1_GRP1_EnableClock,"ax",%progbits
  33              		.align	1
  34              		.syntax unified
  35              		.thumb
  36              		.thumb_func
  37              		.fpu softvfp
  39              	LL_AHB1_GRP1_EnableClock:
  40              		@ args = 0, pretend = 0, frame = 8
  41              		@ frame_needed = 0, uses_anonymous_args = 0
  42              		@ link register save eliminated.
  43 0000 054B     		ldr	r3, .L5
  44 0002 82B0     		sub	sp, sp, #8
  45 0004 DA69     		ldr	r2, [r3, #28]
  46 0006 0243     		orrs	r2, r2, r0
  47 0008 DA61     		str	r2, [r3, #28]
  48 000a DB69     		ldr	r3, [r3, #28]
  49 000c 1840     		ands	r0, r0, r3
  50 000e 0190     		str	r0, [sp, #4]
  51 0010 019B     		ldr	r3, [sp, #4]
  52 0012 02B0     		add	sp, sp, #8
  53              		@ sp needed
  54 0014 7047     		bx	lr
  55              	.L6:
  56 0016 00BF     		.align	2
  57              	.L5:
  58 0018 00380240 		.word	1073887232
  60              		.section	.text.NVIC_EncodePriority.constprop.9,"ax",%progbits
  61              		.align	1
ARM GAS  /tmp/cc49tyeU.s 			page 2


  62              		.syntax unified
  63              		.thumb
  64              		.thumb_func
  65              		.fpu softvfp
  67              	NVIC_EncodePriority.constprop.9:
  68              		@ args = 0, pretend = 0, frame = 0
  69              		@ frame_needed = 0, uses_anonymous_args = 0
  70              		@ link register save eliminated.
  71 0000 0020     		movs	r0, #0
  72 0002 7047     		bx	lr
  74              		.section	.text.dectobcd,"ax",%progbits
  75              		.align	1
  76              		.global	dectobcd
  77              		.syntax unified
  78              		.thumb
  79              		.thumb_func
  80              		.fpu softvfp
  82              	dectobcd:
  83              		@ args = 0, pretend = 0, frame = 0
  84              		@ frame_needed = 0, uses_anonymous_args = 0
  85              		@ link register save eliminated.
  86 0000 0A23     		movs	r3, #10
  87 0002 B0FBF3F2 		udiv	r2, r0, r3
  88 0006 03FB1200 		mls	r0, r3, r2, r0
  89 000a 40EA0210 		orr	r0, r0, r2, lsl #4
  90 000e C0B2     		uxtb	r0, r0
  91 0010 7047     		bx	lr
  93              		.section	.text.bcdtodec,"ax",%progbits
  94              		.align	1
  95              		.global	bcdtodec
  96              		.syntax unified
  97              		.thumb
  98              		.thumb_func
  99              		.fpu softvfp
 101              	bcdtodec:
 102              		@ args = 0, pretend = 0, frame = 0
 103              		@ frame_needed = 0, uses_anonymous_args = 0
 104              		@ link register save eliminated.
 105 0000 0309     		lsrs	r3, r0, #4
 106 0002 03EB8303 		add	r3, r3, r3, lsl #2
 107 0006 00F00F00 		and	r0, r0, #15
 108 000a 00EB4300 		add	r0, r0, r3, lsl #1
 109 000e C0B2     		uxtb	r0, r0
 110 0010 7047     		bx	lr
 112              		.section	.text.nibble2hex,"ax",%progbits
 113              		.align	1
 114              		.global	nibble2hex
 115              		.syntax unified
 116              		.thumb
 117              		.thumb_func
 118              		.fpu softvfp
 120              	nibble2hex:
 121              		@ args = 0, pretend = 0, frame = 0
 122              		@ frame_needed = 0, uses_anonymous_args = 0
 123              		@ link register save eliminated.
 124 0000 00F00F03 		and	r3, r0, #15
 125 0004 03F13000 		add	r0, r3, #48
ARM GAS  /tmp/cc49tyeU.s 			page 3


 126 0008 3928     		cmp	r0, #57
 127 000a 88BF     		it	hi
 128 000c 03F13700 		addhi	r0, r3, #55
 129 0010 7047     		bx	lr
 131              		.section	.text.byte2dec,"ax",%progbits
 132              		.align	1
 133              		.global	byte2dec
 134              		.syntax unified
 135              		.thumb
 136              		.thumb_func
 137              		.fpu softvfp
 139              	byte2dec:
 140              		@ args = 0, pretend = 0, frame = 0
 141              		@ frame_needed = 0, uses_anonymous_args = 0
 142 0000 6328     		cmp	r0, #99
 143 0002 10B5     		push	{r4, lr}
 144 0004 14D9     		bls	.L13
 145 0006 0A23     		movs	r3, #10
 146 0008 B0FBF3F2 		udiv	r2, r0, r3
 147 000c 03FB1204 		mls	r4, r3, r2, r0
 148 0010 3034     		adds	r4, r4, #48
 149 0012 8C70     		strb	r4, [r1, #2]
 150 0014 B2FBF3F4 		udiv	r4, r2, r3
 151 0018 04FB1323 		mls	r3, r4, r3, r2
 152 001c 3033     		adds	r3, r3, #48
 153 001e 4B70     		strb	r3, [r1, #1]
 154 0020 6423     		movs	r3, #100
 155 0022 B0FBF3F0 		udiv	r0, r0, r3
 156 0026 0023     		movs	r3, #0
 157 0028 3030     		adds	r0, r0, #48
 158 002a 0870     		strb	r0, [r1]
 159 002c CB70     		strb	r3, [r1, #3]
 160              	.L12:
 161 002e 10BD     		pop	{r4, pc}
 162              	.L13:
 163 0030 0928     		cmp	r0, #9
 164 0032 0DD9     		bls	.L15
 165 0034 0A23     		movs	r3, #10
 166 0036 B0FBF3F2 		udiv	r2, r0, r3
 167 003a 03FB1200 		mls	r0, r3, r2, r0
 168 003e 2023     		movs	r3, #32
 169 0040 0B70     		strb	r3, [r1]
 170 0042 0023     		movs	r3, #0
 171 0044 3030     		adds	r0, r0, #48
 172 0046 3032     		adds	r2, r2, #48
 173 0048 8870     		strb	r0, [r1, #2]
 174 004a 4A70     		strb	r2, [r1, #1]
 175 004c CB70     		strb	r3, [r1, #3]
 176 004e EEE7     		b	.L12
 177              	.L15:
 178 0050 2023     		movs	r3, #32
 179 0052 4B70     		strb	r3, [r1, #1]
 180 0054 0B70     		strb	r3, [r1]
 181 0056 0023     		movs	r3, #0
 182 0058 3030     		adds	r0, r0, #48
 183 005a 8870     		strb	r0, [r1, #2]
 184 005c CB70     		strb	r3, [r1, #3]
ARM GAS  /tmp/cc49tyeU.s 			page 4


 185 005e E6E7     		b	.L12
 187              		.section	.text.word2dec,"ax",%progbits
 188              		.align	1
 189              		.global	word2dec
 190              		.syntax unified
 191              		.thumb
 192              		.thumb_func
 193              		.fpu softvfp
 195              	word2dec:
 196              		@ args = 0, pretend = 0, frame = 0
 197              		@ frame_needed = 0, uses_anonymous_args = 0
 198 0000 42F20F73 		movw	r3, #9999
 199 0004 9842     		cmp	r0, r3
 200 0006 10B5     		push	{r4, lr}
 201 0008 28D9     		bls	.L17
 202 000a 0A23     		movs	r3, #10
 203 000c B0FBF3F4 		udiv	r4, r0, r3
 204 0010 03FB1402 		mls	r2, r3, r4, r0
 205 0014 3032     		adds	r2, r2, #48
 206 0016 0A71     		strb	r2, [r1, #4]
 207 0018 B4FBF3F2 		udiv	r2, r4, r3
 208 001c 02FB1342 		mls	r2, r2, r3, r4
 209 0020 3032     		adds	r2, r2, #48
 210 0022 CA70     		strb	r2, [r1, #3]
 211 0024 6422     		movs	r2, #100
 212 0026 B0FBF2F4 		udiv	r4, r0, r2
 213 002a B4FBF3F2 		udiv	r2, r4, r3
 214 002e 03FB1242 		mls	r2, r3, r2, r4
 215 0032 4FF47A74 		mov	r4, #1000
 216 0036 B0FBF4F4 		udiv	r4, r0, r4
 217 003a 3032     		adds	r2, r2, #48
 218 003c 8A70     		strb	r2, [r1, #2]
 219 003e B4FBF3F2 		udiv	r2, r4, r3
 220 0042 03FB1243 		mls	r3, r3, r2, r4
 221 0046 3033     		adds	r3, r3, #48
 222 0048 4B70     		strb	r3, [r1, #1]
 223 004a 42F21073 		movw	r3, #10000
 224 004e B0FBF3F0 		udiv	r0, r0, r3
 225 0052 0023     		movs	r3, #0
 226 0054 3030     		adds	r0, r0, #48
 227 0056 0870     		strb	r0, [r1]
 228 0058 4B71     		strb	r3, [r1, #5]
 229              	.L16:
 230 005a 10BD     		pop	{r4, pc}
 231              	.L17:
 232 005c B0F57A7F 		cmp	r0, #1000
 233 0060 20D3     		bcc	.L19
 234 0062 0A23     		movs	r3, #10
 235 0064 B0FBF3F4 		udiv	r4, r0, r3
 236 0068 03FB1402 		mls	r2, r3, r4, r0
 237 006c 3032     		adds	r2, r2, #48
 238 006e 0A71     		strb	r2, [r1, #4]
 239 0070 B4FBF3F2 		udiv	r2, r4, r3
 240 0074 02FB1342 		mls	r2, r2, r3, r4
 241 0078 6424     		movs	r4, #100
 242 007a B0FBF4F4 		udiv	r4, r0, r4
 243 007e 3032     		adds	r2, r2, #48
ARM GAS  /tmp/cc49tyeU.s 			page 5


 244 0080 CA70     		strb	r2, [r1, #3]
 245 0082 B4FBF3F2 		udiv	r2, r4, r3
 246 0086 03FB1243 		mls	r3, r3, r2, r4
 247 008a 3033     		adds	r3, r3, #48
 248 008c 8B70     		strb	r3, [r1, #2]
 249 008e 4FF47A73 		mov	r3, #1000
 250 0092 B0FBF3F0 		udiv	r0, r0, r3
 251 0096 2023     		movs	r3, #32
 252 0098 0B70     		strb	r3, [r1]
 253 009a 0023     		movs	r3, #0
 254 009c 3030     		adds	r0, r0, #48
 255 009e 4870     		strb	r0, [r1, #1]
 256 00a0 4B71     		strb	r3, [r1, #5]
 257 00a2 DAE7     		b	.L16
 258              	.L19:
 259 00a4 6328     		cmp	r0, #99
 260 00a6 17D9     		bls	.L20
 261 00a8 0A23     		movs	r3, #10
 262 00aa B0FBF3F2 		udiv	r2, r0, r3
 263 00ae 03FB1204 		mls	r4, r3, r2, r0
 264 00b2 3034     		adds	r4, r4, #48
 265 00b4 0C71     		strb	r4, [r1, #4]
 266 00b6 B2FBF3F4 		udiv	r4, r2, r3
 267 00ba 04FB1323 		mls	r3, r4, r3, r2
 268 00be 3033     		adds	r3, r3, #48
 269 00c0 CB70     		strb	r3, [r1, #3]
 270 00c2 6423     		movs	r3, #100
 271 00c4 B0FBF3F0 		udiv	r0, r0, r3
 272 00c8 2023     		movs	r3, #32
 273 00ca 4B70     		strb	r3, [r1, #1]
 274 00cc 0B70     		strb	r3, [r1]
 275 00ce 0023     		movs	r3, #0
 276 00d0 3030     		adds	r0, r0, #48
 277 00d2 8870     		strb	r0, [r1, #2]
 278 00d4 4B71     		strb	r3, [r1, #5]
 279 00d6 C0E7     		b	.L16
 280              	.L20:
 281 00d8 0928     		cmp	r0, #9
 282 00da 0FD9     		bls	.L21
 283 00dc 0A23     		movs	r3, #10
 284 00de B0FBF3F2 		udiv	r2, r0, r3
 285 00e2 03FB1200 		mls	r0, r3, r2, r0
 286 00e6 2023     		movs	r3, #32
 287 00e8 3030     		adds	r0, r0, #48
 288 00ea 3032     		adds	r2, r2, #48
 289 00ec 0871     		strb	r0, [r1, #4]
 290 00ee CA70     		strb	r2, [r1, #3]
 291              	.L22:
 292 00f0 8B70     		strb	r3, [r1, #2]
 293 00f2 4B70     		strb	r3, [r1, #1]
 294 00f4 0B70     		strb	r3, [r1]
 295 00f6 0023     		movs	r3, #0
 296 00f8 4B71     		strb	r3, [r1, #5]
 297 00fa AEE7     		b	.L16
 298              	.L21:
 299 00fc 2023     		movs	r3, #32
 300 00fe 3030     		adds	r0, r0, #48
ARM GAS  /tmp/cc49tyeU.s 			page 6


 301 0100 0871     		strb	r0, [r1, #4]
 302 0102 CB70     		strb	r3, [r1, #3]
 303 0104 F4E7     		b	.L22
 305              		.section	.text.double2dec,"ax",%progbits
 306              		.align	1
 307              		.global	double2dec
 308              		.syntax unified
 309              		.thumb
 310              		.thumb_func
 311              		.fpu softvfp
 313              	double2dec:
 314              		@ args = 0, pretend = 0, frame = 0
 315              		@ frame_needed = 0, uses_anonymous_args = 0
 316 0000 E94B     		ldr	r3, .L40
 317 0002 10B5     		push	{r4, lr}
 318 0004 9842     		cmp	r0, r3
 319 0006 55D9     		bls	.L24
 320 0008 0A23     		movs	r3, #10
 321 000a B0FBF3F4 		udiv	r4, r0, r3
 322 000e 03FB1402 		mls	r2, r3, r4, r0
 323 0012 3032     		adds	r2, r2, #48
 324 0014 4A72     		strb	r2, [r1, #9]
 325 0016 B4FBF3F2 		udiv	r2, r4, r3
 326 001a 03FB1242 		mls	r2, r3, r2, r4
 327 001e 3032     		adds	r2, r2, #48
 328 0020 0A72     		strb	r2, [r1, #8]
 329 0022 6422     		movs	r2, #100
 330 0024 B0FBF2F4 		udiv	r4, r0, r2
 331 0028 B4FBF3F2 		udiv	r2, r4, r3
 332 002c 03FB1242 		mls	r2, r3, r2, r4
 333 0030 3032     		adds	r2, r2, #48
 334 0032 CA71     		strb	r2, [r1, #7]
 335 0034 4FF47A72 		mov	r2, #1000
 336 0038 B0FBF2F4 		udiv	r4, r0, r2
 337 003c B4FBF3F2 		udiv	r2, r4, r3
 338 0040 03FB1242 		mls	r2, r3, r2, r4
 339 0044 3032     		adds	r2, r2, #48
 340 0046 8A71     		strb	r2, [r1, #6]
 341 0048 42F21072 		movw	r2, #10000
 342 004c B0FBF2F4 		udiv	r4, r0, r2
 343 0050 B4FBF3F2 		udiv	r2, r4, r3
 344 0054 03FB1242 		mls	r2, r3, r2, r4
 345 0058 D44C     		ldr	r4, .L40+4
 346 005a 3032     		adds	r2, r2, #48
 347 005c B0FBF4F4 		udiv	r4, r0, r4
 348 0060 4A71     		strb	r2, [r1, #5]
 349 0062 B4FBF3F2 		udiv	r2, r4, r3
 350 0066 03FB1242 		mls	r2, r3, r2, r4
 351 006a D14C     		ldr	r4, .L40+8
 352 006c 3032     		adds	r2, r2, #48
 353 006e B0FBF4F4 		udiv	r4, r0, r4
 354 0072 0A71     		strb	r2, [r1, #4]
 355 0074 B4FBF3F2 		udiv	r2, r4, r3
 356 0078 03FB1242 		mls	r2, r3, r2, r4
 357 007c CD4C     		ldr	r4, .L40+12
 358 007e 3032     		adds	r2, r2, #48
 359 0080 B0FBF4F4 		udiv	r4, r0, r4
ARM GAS  /tmp/cc49tyeU.s 			page 7


 360 0084 CA70     		strb	r2, [r1, #3]
 361 0086 B4FBF3F2 		udiv	r2, r4, r3
 362 008a 03FB1242 		mls	r2, r3, r2, r4
 363 008e CA4C     		ldr	r4, .L40+16
 364 0090 3032     		adds	r2, r2, #48
 365 0092 B0FBF4F4 		udiv	r4, r0, r4
 366 0096 8A70     		strb	r2, [r1, #2]
 367 0098 B4FBF3F2 		udiv	r2, r4, r3
 368 009c 03FB1243 		mls	r3, r3, r2, r4
 369 00a0 3033     		adds	r3, r3, #48
 370 00a2 4B70     		strb	r3, [r1, #1]
 371 00a4 C54B     		ldr	r3, .L40+20
 372 00a6 B0FBF3F0 		udiv	r0, r0, r3
 373 00aa 0023     		movs	r3, #0
 374 00ac 3030     		adds	r0, r0, #48
 375 00ae 0870     		strb	r0, [r1]
 376 00b0 8B72     		strb	r3, [r1, #10]
 377              	.L23:
 378 00b2 10BD     		pop	{r4, pc}
 379              	.L24:
 380 00b4 C24B     		ldr	r3, .L40+24
 381 00b6 9842     		cmp	r0, r3
 382 00b8 4ED9     		bls	.L26
 383 00ba 0A23     		movs	r3, #10
 384 00bc B0FBF3F4 		udiv	r4, r0, r3
 385 00c0 03FB1402 		mls	r2, r3, r4, r0
 386 00c4 3032     		adds	r2, r2, #48
 387 00c6 4A72     		strb	r2, [r1, #9]
 388 00c8 B4FBF3F2 		udiv	r2, r4, r3
 389 00cc 03FB1242 		mls	r2, r3, r2, r4
 390 00d0 3032     		adds	r2, r2, #48
 391 00d2 0A72     		strb	r2, [r1, #8]
 392 00d4 6422     		movs	r2, #100
 393 00d6 B0FBF2F4 		udiv	r4, r0, r2
 394 00da B4FBF3F2 		udiv	r2, r4, r3
 395 00de 03FB1242 		mls	r2, r3, r2, r4
 396 00e2 3032     		adds	r2, r2, #48
 397 00e4 CA71     		strb	r2, [r1, #7]
 398 00e6 4FF47A72 		mov	r2, #1000
 399 00ea B0FBF2F4 		udiv	r4, r0, r2
 400 00ee B4FBF3F2 		udiv	r2, r4, r3
 401 00f2 03FB1242 		mls	r2, r3, r2, r4
 402 00f6 3032     		adds	r2, r2, #48
 403 00f8 8A71     		strb	r2, [r1, #6]
 404 00fa 42F21072 		movw	r2, #10000
 405 00fe B0FBF2F4 		udiv	r4, r0, r2
 406 0102 B4FBF3F2 		udiv	r2, r4, r3
 407 0106 03FB1242 		mls	r2, r3, r2, r4
 408 010a A84C     		ldr	r4, .L40+4
 409 010c 3032     		adds	r2, r2, #48
 410 010e B0FBF4F4 		udiv	r4, r0, r4
 411 0112 4A71     		strb	r2, [r1, #5]
 412 0114 B4FBF3F2 		udiv	r2, r4, r3
 413 0118 03FB1242 		mls	r2, r3, r2, r4
 414 011c A44C     		ldr	r4, .L40+8
 415 011e 3032     		adds	r2, r2, #48
 416 0120 B0FBF4F4 		udiv	r4, r0, r4
ARM GAS  /tmp/cc49tyeU.s 			page 8


 417 0124 0A71     		strb	r2, [r1, #4]
 418 0126 B4FBF3F2 		udiv	r2, r4, r3
 419 012a 03FB1242 		mls	r2, r3, r2, r4
 420 012e A14C     		ldr	r4, .L40+12
 421 0130 3032     		adds	r2, r2, #48
 422 0132 B0FBF4F4 		udiv	r4, r0, r4
 423 0136 CA70     		strb	r2, [r1, #3]
 424 0138 B4FBF3F2 		udiv	r2, r4, r3
 425 013c 03FB1243 		mls	r3, r3, r2, r4
 426 0140 3033     		adds	r3, r3, #48
 427 0142 8B70     		strb	r3, [r1, #2]
 428 0144 9C4B     		ldr	r3, .L40+16
 429 0146 B0FBF3F0 		udiv	r0, r0, r3
 430 014a 2023     		movs	r3, #32
 431 014c 0B70     		strb	r3, [r1]
 432 014e 0023     		movs	r3, #0
 433 0150 3030     		adds	r0, r0, #48
 434 0152 4870     		strb	r0, [r1, #1]
 435 0154 8B72     		strb	r3, [r1, #10]
 436 0156 ACE7     		b	.L23
 437              	.L26:
 438 0158 9A4B     		ldr	r3, .L40+28
 439 015a 9842     		cmp	r0, r3
 440 015c 46D9     		bls	.L27
 441 015e 0A23     		movs	r3, #10
 442 0160 B0FBF3F4 		udiv	r4, r0, r3
 443 0164 03FB1402 		mls	r2, r3, r4, r0
 444 0168 3032     		adds	r2, r2, #48
 445 016a 4A72     		strb	r2, [r1, #9]
 446 016c B4FBF3F2 		udiv	r2, r4, r3
 447 0170 03FB1242 		mls	r2, r3, r2, r4
 448 0174 3032     		adds	r2, r2, #48
 449 0176 0A72     		strb	r2, [r1, #8]
 450 0178 6422     		movs	r2, #100
 451 017a B0FBF2F4 		udiv	r4, r0, r2
 452 017e B4FBF3F2 		udiv	r2, r4, r3
 453 0182 03FB1242 		mls	r2, r3, r2, r4
 454 0186 3032     		adds	r2, r2, #48
 455 0188 CA71     		strb	r2, [r1, #7]
 456 018a 4FF47A72 		mov	r2, #1000
 457 018e B0FBF2F4 		udiv	r4, r0, r2
 458 0192 B4FBF3F2 		udiv	r2, r4, r3
 459 0196 03FB1242 		mls	r2, r3, r2, r4
 460 019a 3032     		adds	r2, r2, #48
 461 019c 8A71     		strb	r2, [r1, #6]
 462 019e 42F21072 		movw	r2, #10000
 463 01a2 B0FBF2F4 		udiv	r4, r0, r2
 464 01a6 B4FBF3F2 		udiv	r2, r4, r3
 465 01aa 03FB1242 		mls	r2, r3, r2, r4
 466 01ae 7F4C     		ldr	r4, .L40+4
 467 01b0 3032     		adds	r2, r2, #48
 468 01b2 B0FBF4F4 		udiv	r4, r0, r4
 469 01b6 4A71     		strb	r2, [r1, #5]
 470 01b8 B4FBF3F2 		udiv	r2, r4, r3
 471 01bc 03FB1242 		mls	r2, r3, r2, r4
 472 01c0 7B4C     		ldr	r4, .L40+8
 473 01c2 3032     		adds	r2, r2, #48
ARM GAS  /tmp/cc49tyeU.s 			page 9


 474 01c4 B0FBF4F4 		udiv	r4, r0, r4
 475 01c8 0A71     		strb	r2, [r1, #4]
 476 01ca B4FBF3F2 		udiv	r2, r4, r3
 477 01ce 03FB1243 		mls	r3, r3, r2, r4
 478 01d2 3033     		adds	r3, r3, #48
 479 01d4 CB70     		strb	r3, [r1, #3]
 480 01d6 774B     		ldr	r3, .L40+12
 481 01d8 B0FBF3F0 		udiv	r0, r0, r3
 482 01dc 2023     		movs	r3, #32
 483 01de 4B70     		strb	r3, [r1, #1]
 484 01e0 0B70     		strb	r3, [r1]
 485 01e2 0023     		movs	r3, #0
 486 01e4 3030     		adds	r0, r0, #48
 487 01e6 8870     		strb	r0, [r1, #2]
 488 01e8 8B72     		strb	r3, [r1, #10]
 489 01ea 62E7     		b	.L23
 490              	.L27:
 491 01ec 764B     		ldr	r3, .L40+32
 492 01ee 9842     		cmp	r0, r3
 493 01f0 3ED9     		bls	.L28
 494 01f2 0A23     		movs	r3, #10
 495 01f4 B0FBF3F4 		udiv	r4, r0, r3
 496 01f8 03FB1402 		mls	r2, r3, r4, r0
 497 01fc 3032     		adds	r2, r2, #48
 498 01fe 4A72     		strb	r2, [r1, #9]
 499 0200 B4FBF3F2 		udiv	r2, r4, r3
 500 0204 03FB1242 		mls	r2, r3, r2, r4
 501 0208 3032     		adds	r2, r2, #48
 502 020a 0A72     		strb	r2, [r1, #8]
 503 020c 6422     		movs	r2, #100
 504 020e B0FBF2F4 		udiv	r4, r0, r2
 505 0212 B4FBF3F2 		udiv	r2, r4, r3
 506 0216 03FB1242 		mls	r2, r3, r2, r4
 507 021a 3032     		adds	r2, r2, #48
 508 021c CA71     		strb	r2, [r1, #7]
 509 021e 4FF47A72 		mov	r2, #1000
 510 0222 B0FBF2F4 		udiv	r4, r0, r2
 511 0226 B4FBF3F2 		udiv	r2, r4, r3
 512 022a 03FB1242 		mls	r2, r3, r2, r4
 513 022e 3032     		adds	r2, r2, #48
 514 0230 8A71     		strb	r2, [r1, #6]
 515 0232 42F21072 		movw	r2, #10000
 516 0236 B0FBF2F4 		udiv	r4, r0, r2
 517 023a B4FBF3F2 		udiv	r2, r4, r3
 518 023e 03FB1242 		mls	r2, r3, r2, r4
 519 0242 5A4C     		ldr	r4, .L40+4
 520 0244 3032     		adds	r2, r2, #48
 521 0246 B0FBF4F4 		udiv	r4, r0, r4
 522 024a 4A71     		strb	r2, [r1, #5]
 523 024c B4FBF3F2 		udiv	r2, r4, r3
 524 0250 03FB1243 		mls	r3, r3, r2, r4
 525 0254 3033     		adds	r3, r3, #48
 526 0256 0B71     		strb	r3, [r1, #4]
 527 0258 554B     		ldr	r3, .L40+8
 528 025a B0FBF3F0 		udiv	r0, r0, r3
 529 025e 2023     		movs	r3, #32
 530 0260 3030     		adds	r0, r0, #48
ARM GAS  /tmp/cc49tyeU.s 			page 10


 531 0262 C870     		strb	r0, [r1, #3]
 532              	.L39:
 533 0264 8B70     		strb	r3, [r1, #2]
 534 0266 4B70     		strb	r3, [r1, #1]
 535 0268 0B70     		strb	r3, [r1]
 536 026a 0023     		movs	r3, #0
 537 026c 8B72     		strb	r3, [r1, #10]
 538 026e 20E7     		b	.L23
 539              	.L28:
 540 0270 564B     		ldr	r3, .L40+36
 541 0272 9842     		cmp	r0, r3
 542 0274 31D9     		bls	.L29
 543 0276 0A23     		movs	r3, #10
 544 0278 B0FBF3F4 		udiv	r4, r0, r3
 545 027c 03FB1402 		mls	r2, r3, r4, r0
 546 0280 3032     		adds	r2, r2, #48
 547 0282 4A72     		strb	r2, [r1, #9]
 548 0284 B4FBF3F2 		udiv	r2, r4, r3
 549 0288 03FB1242 		mls	r2, r3, r2, r4
 550 028c 3032     		adds	r2, r2, #48
 551 028e 0A72     		strb	r2, [r1, #8]
 552 0290 6422     		movs	r2, #100
 553 0292 B0FBF2F4 		udiv	r4, r0, r2
 554 0296 B4FBF3F2 		udiv	r2, r4, r3
 555 029a 03FB1242 		mls	r2, r3, r2, r4
 556 029e 3032     		adds	r2, r2, #48
 557 02a0 CA71     		strb	r2, [r1, #7]
 558 02a2 4FF47A72 		mov	r2, #1000
 559 02a6 B0FBF2F4 		udiv	r4, r0, r2
 560 02aa B4FBF3F2 		udiv	r2, r4, r3
 561 02ae 03FB1242 		mls	r2, r3, r2, r4
 562 02b2 42F21074 		movw	r4, #10000
 563 02b6 B0FBF4F4 		udiv	r4, r0, r4
 564 02ba 3032     		adds	r2, r2, #48
 565 02bc 8A71     		strb	r2, [r1, #6]
 566 02be B4FBF3F2 		udiv	r2, r4, r3
 567 02c2 03FB1243 		mls	r3, r3, r2, r4
 568 02c6 3033     		adds	r3, r3, #48
 569 02c8 4B71     		strb	r3, [r1, #5]
 570 02ca 384B     		ldr	r3, .L40+4
 571 02cc B0FBF3F0 		udiv	r0, r0, r3
 572 02d0 2023     		movs	r3, #32
 573 02d2 3030     		adds	r0, r0, #48
 574 02d4 0871     		strb	r0, [r1, #4]
 575              	.L38:
 576 02d6 CB70     		strb	r3, [r1, #3]
 577 02d8 C4E7     		b	.L39
 578              	.L29:
 579 02da 42F20F73 		movw	r3, #9999
 580 02de 9842     		cmp	r0, r3
 581 02e0 28D9     		bls	.L30
 582 02e2 0A23     		movs	r3, #10
 583 02e4 B0FBF3F4 		udiv	r4, r0, r3
 584 02e8 03FB1402 		mls	r2, r3, r4, r0
 585 02ec 3032     		adds	r2, r2, #48
 586 02ee 4A72     		strb	r2, [r1, #9]
 587 02f0 B4FBF3F2 		udiv	r2, r4, r3
ARM GAS  /tmp/cc49tyeU.s 			page 11


 588 02f4 03FB1242 		mls	r2, r3, r2, r4
 589 02f8 3032     		adds	r2, r2, #48
 590 02fa 0A72     		strb	r2, [r1, #8]
 591 02fc 6422     		movs	r2, #100
 592 02fe B0FBF2F4 		udiv	r4, r0, r2
 593 0302 B4FBF3F2 		udiv	r2, r4, r3
 594 0306 03FB1242 		mls	r2, r3, r2, r4
 595 030a 4FF47A74 		mov	r4, #1000
 596 030e B0FBF4F4 		udiv	r4, r0, r4
 597 0312 3032     		adds	r2, r2, #48
 598 0314 CA71     		strb	r2, [r1, #7]
 599 0316 B4FBF3F2 		udiv	r2, r4, r3
 600 031a 03FB1243 		mls	r3, r3, r2, r4
 601 031e 3033     		adds	r3, r3, #48
 602 0320 8B71     		strb	r3, [r1, #6]
 603 0322 42F21073 		movw	r3, #10000
 604 0326 B0FBF3F0 		udiv	r0, r0, r3
 605 032a 2023     		movs	r3, #32
 606 032c 3030     		adds	r0, r0, #48
 607 032e 4871     		strb	r0, [r1, #5]
 608              	.L37:
 609 0330 0B71     		strb	r3, [r1, #4]
 610 0332 D0E7     		b	.L38
 611              	.L30:
 612 0334 B0F57A7F 		cmp	r0, #1000
 613 0338 1ED3     		bcc	.L31
 614 033a 0A23     		movs	r3, #10
 615 033c B0FBF3F4 		udiv	r4, r0, r3
 616 0340 03FB1402 		mls	r2, r3, r4, r0
 617 0344 3032     		adds	r2, r2, #48
 618 0346 4A72     		strb	r2, [r1, #9]
 619 0348 B4FBF3F2 		udiv	r2, r4, r3
 620 034c 03FB1242 		mls	r2, r3, r2, r4
 621 0350 6424     		movs	r4, #100
 622 0352 B0FBF4F4 		udiv	r4, r0, r4
 623 0356 3032     		adds	r2, r2, #48
 624 0358 0A72     		strb	r2, [r1, #8]
 625 035a B4FBF3F2 		udiv	r2, r4, r3
 626 035e 03FB1243 		mls	r3, r3, r2, r4
 627 0362 3033     		adds	r3, r3, #48
 628 0364 CB71     		strb	r3, [r1, #7]
 629 0366 4FF47A73 		mov	r3, #1000
 630 036a B0FBF3F0 		udiv	r0, r0, r3
 631 036e 2023     		movs	r3, #32
 632 0370 3030     		adds	r0, r0, #48
 633 0372 8871     		strb	r0, [r1, #6]
 634              	.L36:
 635 0374 4B71     		strb	r3, [r1, #5]
 636 0376 DBE7     		b	.L37
 637              	.L31:
 638 0378 6328     		cmp	r0, #99
 639 037a 29D9     		bls	.L32
 640 037c 0A22     		movs	r2, #10
 641 037e B0FBF2F4 		udiv	r4, r0, r2
 642 0382 02FB1403 		mls	r3, r2, r4, r0
 643 0386 3033     		adds	r3, r3, #48
 644 0388 4B72     		strb	r3, [r1, #9]
ARM GAS  /tmp/cc49tyeU.s 			page 12


 645 038a B4FBF2F3 		udiv	r3, r4, r2
 646 038e 02FB1343 		mls	r3, r2, r3, r4
 647 0392 3033     		adds	r3, r3, #48
 648 0394 0B72     		strb	r3, [r1, #8]
 649 0396 6423     		movs	r3, #100
 650 0398 B0FBF3F0 		udiv	r0, r0, r3
 651 039c 2023     		movs	r3, #32
 652 039e 3030     		adds	r0, r0, #48
 653 03a0 C871     		strb	r0, [r1, #7]
 654              	.L34:
 655 03a2 8B71     		strb	r3, [r1, #6]
 656 03a4 E6E7     		b	.L36
 657              	.L41:
 658 03a6 00BF     		.align	2
 659              	.L40:
 660 03a8 FFC99A3B 		.word	999999999
 661 03ac A0860100 		.word	100000
 662 03b0 40420F00 		.word	1000000
 663 03b4 80969800 		.word	10000000
 664 03b8 00E1F505 		.word	100000000
 665 03bc 00CA9A3B 		.word	1000000000
 666 03c0 FFE0F505 		.word	99999999
 667 03c4 7F969800 		.word	9999999
 668 03c8 3F420F00 		.word	999999
 669 03cc 9F860100 		.word	99999
 670              	.L32:
 671 03d0 0928     		cmp	r0, #9
 672 03d2 0BD9     		bls	.L33
 673 03d4 0A23     		movs	r3, #10
 674 03d6 B0FBF3F2 		udiv	r2, r0, r3
 675 03da 03FB1200 		mls	r0, r3, r2, r0
 676 03de 2023     		movs	r3, #32
 677 03e0 3030     		adds	r0, r0, #48
 678 03e2 3032     		adds	r2, r2, #48
 679 03e4 4872     		strb	r0, [r1, #9]
 680 03e6 0A72     		strb	r2, [r1, #8]
 681              	.L35:
 682 03e8 CB71     		strb	r3, [r1, #7]
 683 03ea DAE7     		b	.L34
 684              	.L33:
 685 03ec 2023     		movs	r3, #32
 686 03ee 3030     		adds	r0, r0, #48
 687 03f0 4872     		strb	r0, [r1, #9]
 688 03f2 0B72     		strb	r3, [r1, #8]
 689 03f4 F8E7     		b	.L35
 691 03f6 00BF     		.section	.text.double2hex,"ax",%progbits
 692              		.align	1
 693              		.global	double2hex
 694              		.syntax unified
 695              		.thumb
 696              		.thumb_func
 697              		.fpu softvfp
 699              	double2hex:
 700              		@ args = 0, pretend = 0, frame = 0
 701              		@ frame_needed = 0, uses_anonymous_args = 0
 702 0000 0246     		mov	r2, r0
 703 0002 08B5     		push	{r3, lr}
ARM GAS  /tmp/cc49tyeU.s 			page 13


 704 0004 000F     		lsrs	r0, r0, #28
 705 0006 FFF7FEFF 		bl	nibble2hex
 706 000a 0870     		strb	r0, [r1]
 707 000c 100E     		lsrs	r0, r2, #24
 708 000e FFF7FEFF 		bl	nibble2hex
 709 0012 4870     		strb	r0, [r1, #1]
 710 0014 C2F30750 		ubfx	r0, r2, #20, #8
 711 0018 FFF7FEFF 		bl	nibble2hex
 712 001c 8870     		strb	r0, [r1, #2]
 713 001e C2F30740 		ubfx	r0, r2, #16, #8
 714 0022 FFF7FEFF 		bl	nibble2hex
 715 0026 C870     		strb	r0, [r1, #3]
 716 0028 C2F30730 		ubfx	r0, r2, #12, #8
 717 002c FFF7FEFF 		bl	nibble2hex
 718 0030 0871     		strb	r0, [r1, #4]
 719 0032 C2F30720 		ubfx	r0, r2, #8, #8
 720 0036 FFF7FEFF 		bl	nibble2hex
 721 003a 4871     		strb	r0, [r1, #5]
 722 003c C2F30710 		ubfx	r0, r2, #4, #8
 723 0040 FFF7FEFF 		bl	nibble2hex
 724 0044 8871     		strb	r0, [r1, #6]
 725 0046 D0B2     		uxtb	r0, r2
 726 0048 FFF7FEFF 		bl	nibble2hex
 727 004c 0023     		movs	r3, #0
 728 004e C871     		strb	r0, [r1, #7]
 729 0050 0B72     		strb	r3, [r1, #8]
 730 0052 08BD     		pop	{r3, pc}
 732              		.section	.text.word2hex,"ax",%progbits
 733              		.align	1
 734              		.global	word2hex
 735              		.syntax unified
 736              		.thumb
 737              		.thumb_func
 738              		.fpu softvfp
 740              	word2hex:
 741              		@ args = 0, pretend = 0, frame = 0
 742              		@ frame_needed = 0, uses_anonymous_args = 0
 743 0000 0246     		mov	r2, r0
 744 0002 08B5     		push	{r3, lr}
 745 0004 000B     		lsrs	r0, r0, #12
 746 0006 FFF7FEFF 		bl	nibble2hex
 747 000a 0870     		strb	r0, [r1]
 748 000c 100A     		lsrs	r0, r2, #8
 749 000e FFF7FEFF 		bl	nibble2hex
 750 0012 4870     		strb	r0, [r1, #1]
 751 0014 C2F30710 		ubfx	r0, r2, #4, #8
 752 0018 FFF7FEFF 		bl	nibble2hex
 753 001c 8870     		strb	r0, [r1, #2]
 754 001e D0B2     		uxtb	r0, r2
 755 0020 FFF7FEFF 		bl	nibble2hex
 756 0024 0023     		movs	r3, #0
 757 0026 C870     		strb	r0, [r1, #3]
 758 0028 0B71     		strb	r3, [r1, #4]
 759 002a 08BD     		pop	{r3, pc}
 761              		.section	.text.byte2hex,"ax",%progbits
 762              		.align	1
 763              		.global	byte2hex
ARM GAS  /tmp/cc49tyeU.s 			page 14


 764              		.syntax unified
 765              		.thumb
 766              		.thumb_func
 767              		.fpu softvfp
 769              	byte2hex:
 770              		@ args = 0, pretend = 0, frame = 0
 771              		@ frame_needed = 0, uses_anonymous_args = 0
 772 0000 0246     		mov	r2, r0
 773 0002 08B5     		push	{r3, lr}
 774 0004 0009     		lsrs	r0, r0, #4
 775 0006 FFF7FEFF 		bl	nibble2hex
 776 000a 0870     		strb	r0, [r1]
 777 000c 1046     		mov	r0, r2
 778 000e FFF7FEFF 		bl	nibble2hex
 779 0012 0023     		movs	r3, #0
 780 0014 4870     		strb	r0, [r1, #1]
 781 0016 8B70     		strb	r3, [r1, #2]
 782 0018 08BD     		pop	{r3, pc}
 784              		.section	.text.my_delay_us,"ax",%progbits
 785              		.align	1
 786              		.global	my_delay_us
 787              		.syntax unified
 788              		.thumb
 789              		.thumb_func
 790              		.fpu softvfp
 792              	my_delay_us:
 793              		@ args = 0, pretend = 0, frame = 0
 794              		@ frame_needed = 0, uses_anonymous_args = 0
 795              		@ link register save eliminated.
 796 0000 4001     		lsls	r0, r0, #5
 797 0002 431E     		subs	r3, r0, #1
 798              		.syntax unified
 799              	@ 49 "../ll_library/ll_my_delay_us.h" 1
 800 0004 1846     		   mov r0, r3     
 801 0006 0538     		1: subs r0, #5            
 802 0008 FDD8     		   bhi 1b                 
 803              		
 804              	@ 0 "" 2
 805              		.thumb
 806              		.syntax unified
 807 000a 7047     		bx	lr
 809              		.section	.text.__lcd_write_nibble,"ax",%progbits
 810              		.align	1
 811              		.global	__lcd_write_nibble
 812              		.syntax unified
 813              		.thumb
 814              		.thumb_func
 815              		.fpu softvfp
 817              	__lcd_write_nibble:
 818              		@ args = 0, pretend = 0, frame = 0
 819              		@ frame_needed = 0, uses_anonymous_args = 0
 820 0000 08B5     		push	{r3, lr}
 821 0002 2023     		movs	r3, #32
 822 0004 104A     		ldr	r2, .L56
 823 0006 10F0010F 		tst	r0, #1
 824 000a 14BF     		ite	ne
 825 000c 9361     		strne	r3, [r2, #24]
ARM GAS  /tmp/cc49tyeU.s 			page 15


 826 000e 9362     		streq	r3, [r2, #40]
 827 0010 1023     		movs	r3, #16
 828 0012 10F0020F 		tst	r0, #2
 829 0016 14BF     		ite	ne
 830 0018 9361     		strne	r3, [r2, #24]
 831 001a 9362     		streq	r3, [r2, #40]
 832 001c 4FF48063 		mov	r3, #1024
 833 0020 4FF48071 		mov	r1, #256
 834 0024 10F0040F 		tst	r0, #4
 835 0028 14BF     		ite	ne
 836 002a 9361     		strne	r3, [r2, #24]
 837 002c 9362     		streq	r3, [r2, #40]
 838 002e 074B     		ldr	r3, .L56+4
 839 0030 10F0080F 		tst	r0, #8
 840 0034 14BF     		ite	ne
 841 0036 9961     		strne	r1, [r3, #24]
 842 0038 9962     		streq	r1, [r3, #40]
 843 003a 0821     		movs	r1, #8
 844 003c 0120     		movs	r0, #1
 845 003e 9161     		str	r1, [r2, #24]
 846 0040 FFF7FEFF 		bl	my_delay_us
 847 0044 9162     		str	r1, [r2, #40]
 848 0046 08BD     		pop	{r3, pc}
 849              	.L57:
 850              		.align	2
 851              	.L56:
 852 0048 00040240 		.word	1073873920
 853 004c 00000240 		.word	1073872896
 855              		.section	.text.__lcd_write,"ax",%progbits
 856              		.align	1
 857              		.global	__lcd_write
 858              		.syntax unified
 859              		.thumb
 860              		.thumb_func
 861              		.fpu softvfp
 863              	__lcd_write:
 864              		@ args = 0, pretend = 0, frame = 0
 865              		@ frame_needed = 0, uses_anonymous_args = 0
 866 0000 10B5     		push	{r4, lr}
 867 0002 0446     		mov	r4, r0
 868 0004 0009     		lsrs	r0, r0, #4
 869 0006 FFF7FEFF 		bl	__lcd_write_nibble
 870 000a 2046     		mov	r0, r4
 871 000c FFF7FEFF 		bl	__lcd_write_nibble
 872 0010 BDE81040 		pop	{r4, lr}
 873 0014 2620     		movs	r0, #38
 874 0016 FFF7FEBF 		b	my_delay_us
 876              		.section	.text._lcd_write_data,"ax",%progbits
 877              		.align	1
 878              		.global	_lcd_write_data
 879              		.syntax unified
 880              		.thumb
 881              		.thumb_func
 882              		.fpu softvfp
 884              	_lcd_write_data:
 885              		@ args = 0, pretend = 0, frame = 0
 886              		@ frame_needed = 0, uses_anonymous_args = 0
ARM GAS  /tmp/cc49tyeU.s 			page 16


 887              		@ link register save eliminated.
 888 0000 4FF48062 		mov	r2, #1024
 889 0004 014B     		ldr	r3, .L60
 890 0006 9A61     		str	r2, [r3, #24]
 891 0008 FFF7FEBF 		b	__lcd_write
 892              	.L61:
 893              		.align	2
 894              	.L60:
 895 000c 00000240 		.word	1073872896
 897              		.section	.text._lcd_write_command,"ax",%progbits
 898              		.align	1
 899              		.global	_lcd_write_command
 900              		.syntax unified
 901              		.thumb
 902              		.thumb_func
 903              		.fpu softvfp
 905              	_lcd_write_command:
 906              		@ args = 0, pretend = 0, frame = 0
 907              		@ frame_needed = 0, uses_anonymous_args = 0
 908              		@ link register save eliminated.
 909 0000 4FF48062 		mov	r2, #1024
 910 0004 014B     		ldr	r3, .L63
 911 0006 9A62     		str	r2, [r3, #40]
 912 0008 FFF7FEBF 		b	__lcd_write
 913              	.L64:
 914              		.align	2
 915              	.L63:
 916 000c 00000240 		.word	1073872896
 918              		.section	.text._lcd_line2index,"ax",%progbits
 919              		.align	1
 920              		.global	_lcd_line2index
 921              		.syntax unified
 922              		.thumb
 923              		.thumb_func
 924              		.fpu softvfp
 926              	_lcd_line2index:
 927              		@ args = 0, pretend = 0, frame = 0
 928              		@ frame_needed = 0, uses_anonymous_args = 0
 929              		@ link register save eliminated.
 930 0000 0128     		cmp	r0, #1
 931 0002 0CBF     		ite	eq
 932 0004 4020     		moveq	r0, #64
 933 0006 0020     		movne	r0, #0
 934 0008 7047     		bx	lr
 936              		.section	.text._lcd_restore_cursor,"ax",%progbits
 937              		.align	1
 938              		.global	_lcd_restore_cursor
 939              		.syntax unified
 940              		.thumb
 941              		.thumb_func
 942              		.fpu softvfp
 944              	_lcd_restore_cursor:
 945              		@ args = 0, pretend = 0, frame = 0
 946              		@ frame_needed = 0, uses_anonymous_args = 0
 947              		@ link register save eliminated.
 948 0000 024B     		ldr	r3, .L69
 949 0002 1878     		ldrb	r0, [r3]	@ zero_extendqisi2
ARM GAS  /tmp/cc49tyeU.s 			page 17


 950 0004 40F08000 		orr	r0, r0, #128
 951 0008 FFF7FEBF 		b	_lcd_write_command
 952              	.L70:
 953              		.align	2
 954              	.L69:
 955 000c 00000000 		.word	LCD_POS
 957              		.section	.text.lcd_write_char,"ax",%progbits
 958              		.align	1
 959              		.global	lcd_write_char
 960              		.syntax unified
 961              		.thumb
 962              		.thumb_func
 963              		.fpu softvfp
 965              	lcd_write_char:
 966              		@ args = 0, pretend = 0, frame = 0
 967              		@ frame_needed = 0, uses_anonymous_args = 0
 968              		@ link register save eliminated.
 969 0000 FFF7FEBF 		b	_lcd_write_data
 971              		.section	.text.lcd_write_str,"ax",%progbits
 972              		.align	1
 973              		.global	lcd_write_str
 974              		.syntax unified
 975              		.thumb
 976              		.thumb_func
 977              		.fpu softvfp
 979              	lcd_write_str:
 980              		@ args = 0, pretend = 0, frame = 0
 981              		@ frame_needed = 0, uses_anonymous_args = 0
 982 0000 10B5     		push	{r4, lr}
 983 0002 0446     		mov	r4, r0
 984              	.L73:
 985 0004 14F8010B 		ldrb	r0, [r4], #1	@ zero_extendqisi2
 986 0008 00B9     		cbnz	r0, .L74
 987 000a 10BD     		pop	{r4, pc}
 988              	.L74:
 989 000c FFF7FEFF 		bl	_lcd_write_data
 990 0010 F8E7     		b	.L73
 992              		.section	.text.lcd_write_strF,"ax",%progbits
 993              		.align	1
 994              		.global	lcd_write_strF
 995              		.syntax unified
 996              		.thumb
 997              		.thumb_func
 998              		.fpu softvfp
 1000              	lcd_write_strF:
 1001              		@ args = 0, pretend = 0, frame = 0
 1002              		@ frame_needed = 0, uses_anonymous_args = 0
 1003              		@ link register save eliminated.
 1004 0000 FFF7FEBF 		b	lcd_write_str
 1006              		.section	.text.lcd_cursor_position,"ax",%progbits
 1007              		.align	1
 1008              		.global	lcd_cursor_position
 1009              		.syntax unified
 1010              		.thumb
 1011              		.thumb_func
 1012              		.fpu softvfp
 1014              	lcd_cursor_position:
ARM GAS  /tmp/cc49tyeU.s 			page 18


 1015              		@ args = 0, pretend = 0, frame = 0
 1016              		@ frame_needed = 0, uses_anonymous_args = 0
 1017 0000 08B5     		push	{r3, lr}
 1018 0002 FFF7FEFF 		bl	_lcd_line2index
 1019 0006 034B     		ldr	r3, .L77
 1020 0008 0144     		add	r1, r1, r0
 1021 000a 1970     		strb	r1, [r3]
 1022 000c BDE80840 		pop	{r3, lr}
 1023 0010 FFF7FEBF 		b	_lcd_restore_cursor
 1024              	.L78:
 1025              		.align	2
 1026              	.L77:
 1027 0014 00000000 		.word	LCD_POS
 1029              		.section	.text.lcd_shift_left,"ax",%progbits
 1030              		.align	1
 1031              		.global	lcd_shift_left
 1032              		.syntax unified
 1033              		.thumb
 1034              		.thumb_func
 1035              		.fpu softvfp
 1037              	lcd_shift_left:
 1038              		@ args = 0, pretend = 0, frame = 0
 1039              		@ frame_needed = 0, uses_anonymous_args = 0
 1040 0000 38B5     		push	{r3, r4, r5, lr}
 1041 0002 0546     		mov	r5, r0
 1042 0004 38B9     		cbnz	r0, .L83
 1043              	.L79:
 1044 0006 38BD     		pop	{r3, r4, r5, pc}
 1045              	.L81:
 1046 0008 1820     		movs	r0, #24
 1047 000a FFF7FEFF 		bl	_lcd_write_command
 1048 000e 0134     		adds	r4, r4, #1
 1049              	.L80:
 1050 0010 A542     		cmp	r5, r4
 1051 0012 F9D8     		bhi	.L81
 1052 0014 F7E7     		b	.L79
 1053              	.L83:
 1054 0016 0024     		movs	r4, #0
 1055 0018 FAE7     		b	.L80
 1057              		.section	.text.lcd_shift_right,"ax",%progbits
 1058              		.align	1
 1059              		.global	lcd_shift_right
 1060              		.syntax unified
 1061              		.thumb
 1062              		.thumb_func
 1063              		.fpu softvfp
 1065              	lcd_shift_right:
 1066              		@ args = 0, pretend = 0, frame = 0
 1067              		@ frame_needed = 0, uses_anonymous_args = 0
 1068 0000 38B5     		push	{r3, r4, r5, lr}
 1069 0002 0546     		mov	r5, r0
 1070 0004 38B9     		cbnz	r0, .L88
 1071              	.L84:
 1072 0006 38BD     		pop	{r3, r4, r5, pc}
 1073              	.L86:
 1074 0008 1C20     		movs	r0, #28
 1075 000a FFF7FEFF 		bl	_lcd_write_command
ARM GAS  /tmp/cc49tyeU.s 			page 19


 1076 000e 0134     		adds	r4, r4, #1
 1077              	.L85:
 1078 0010 A542     		cmp	r5, r4
 1079 0012 F9D8     		bhi	.L86
 1080 0014 F7E7     		b	.L84
 1081              	.L88:
 1082 0016 0024     		movs	r4, #0
 1083 0018 FAE7     		b	.L85
 1085              		.section	.text.lcd_cursor_shift_left,"ax",%progbits
 1086              		.align	1
 1087              		.global	lcd_cursor_shift_left
 1088              		.syntax unified
 1089              		.thumb
 1090              		.thumb_func
 1091              		.fpu softvfp
 1093              	lcd_cursor_shift_left:
 1094              		@ args = 0, pretend = 0, frame = 0
 1095              		@ frame_needed = 0, uses_anonymous_args = 0
 1096 0000 38B5     		push	{r3, r4, r5, lr}
 1097 0002 0546     		mov	r5, r0
 1098 0004 38B9     		cbnz	r0, .L93
 1099              	.L89:
 1100 0006 38BD     		pop	{r3, r4, r5, pc}
 1101              	.L91:
 1102 0008 1020     		movs	r0, #16
 1103 000a FFF7FEFF 		bl	_lcd_write_command
 1104 000e 0134     		adds	r4, r4, #1
 1105              	.L90:
 1106 0010 A542     		cmp	r5, r4
 1107 0012 F9D8     		bhi	.L91
 1108 0014 F7E7     		b	.L89
 1109              	.L93:
 1110 0016 0024     		movs	r4, #0
 1111 0018 FAE7     		b	.L90
 1113              		.section	.text.lcd_cursor_shift_right,"ax",%progbits
 1114              		.align	1
 1115              		.global	lcd_cursor_shift_right
 1116              		.syntax unified
 1117              		.thumb
 1118              		.thumb_func
 1119              		.fpu softvfp
 1121              	lcd_cursor_shift_right:
 1122              		@ args = 0, pretend = 0, frame = 0
 1123              		@ frame_needed = 0, uses_anonymous_args = 0
 1124 0000 38B5     		push	{r3, r4, r5, lr}
 1125 0002 0546     		mov	r5, r0
 1126 0004 38B9     		cbnz	r0, .L98
 1127              	.L94:
 1128 0006 38BD     		pop	{r3, r4, r5, pc}
 1129              	.L96:
 1130 0008 1420     		movs	r0, #20
 1131 000a FFF7FEFF 		bl	_lcd_write_command
 1132 000e 0134     		adds	r4, r4, #1
 1133              	.L95:
 1134 0010 A542     		cmp	r5, r4
 1135 0012 F9D8     		bhi	.L96
 1136 0014 F7E7     		b	.L94
ARM GAS  /tmp/cc49tyeU.s 			page 20


 1137              	.L98:
 1138 0016 0024     		movs	r4, #0
 1139 0018 FAE7     		b	.L95
 1141              		.section	.text.lcd_clear_screen,"ax",%progbits
 1142              		.align	1
 1143              		.global	lcd_clear_screen
 1144              		.syntax unified
 1145              		.thumb
 1146              		.thumb_func
 1147              		.fpu softvfp
 1149              	lcd_clear_screen:
 1150              		@ args = 0, pretend = 0, frame = 0
 1151              		@ frame_needed = 0, uses_anonymous_args = 0
 1152 0000 08B5     		push	{r3, lr}
 1153 0002 0120     		movs	r0, #1
 1154 0004 FFF7FEFF 		bl	_lcd_write_command
 1155 0008 0120     		movs	r0, #1
 1156 000a FFF7FEFF 		bl	LL_mDelay
 1157 000e BDE80840 		pop	{r3, lr}
 1158 0012 4FF44870 		mov	r0, #800
 1159 0016 FFF7FEBF 		b	my_delay_us
 1161              		.section	.text.lcd_cursor_blink_display,"ax",%progbits
 1162              		.align	1
 1163              		.global	lcd_cursor_blink_display
 1164              		.syntax unified
 1165              		.thumb
 1166              		.thumb_func
 1167              		.fpu softvfp
 1169              	lcd_cursor_blink_display:
 1170              		@ args = 0, pretend = 0, frame = 0
 1171              		@ frame_needed = 0, uses_anonymous_args = 0
 1172              		@ link register save eliminated.
 1173 0000 002A     		cmp	r2, #0
 1174 0002 0CBF     		ite	eq
 1175 0004 0823     		moveq	r3, #8
 1176 0006 0C23     		movne	r3, #12
 1177 0008 00B1     		cbz	r0, .L102
 1178 000a 0233     		adds	r3, r3, #2
 1179              	.L102:
 1180 000c 09B1     		cbz	r1, .L103
 1181 000e 0133     		adds	r3, r3, #1
 1182 0010 DBB2     		uxtb	r3, r3
 1183              	.L103:
 1184 0012 1846     		mov	r0, r3
 1185 0014 FFF7FEBF 		b	_lcd_write_command
 1187              		.section	.text.lcd_home,"ax",%progbits
 1188              		.align	1
 1189              		.global	lcd_home
 1190              		.syntax unified
 1191              		.thumb
 1192              		.thumb_func
 1193              		.fpu softvfp
 1195              	lcd_home:
 1196              		@ args = 0, pretend = 0, frame = 0
 1197              		@ frame_needed = 0, uses_anonymous_args = 0
 1198 0000 08B5     		push	{r3, lr}
 1199 0002 0220     		movs	r0, #2
ARM GAS  /tmp/cc49tyeU.s 			page 21


 1200 0004 FFF7FEFF 		bl	_lcd_write_command
 1201 0008 0120     		movs	r0, #1
 1202 000a FFF7FEFF 		bl	LL_mDelay
 1203 000e BDE80840 		pop	{r3, lr}
 1204 0012 4FF44870 		mov	r0, #800
 1205 0016 FFF7FEBF 		b	my_delay_us
 1207              		.section	.text.lcd_clear_line,"ax",%progbits
 1208              		.align	1
 1209              		.global	lcd_clear_line
 1210              		.syntax unified
 1211              		.thumb
 1212              		.thumb_func
 1213              		.fpu softvfp
 1215              	lcd_clear_line:
 1216              		@ args = 0, pretend = 0, frame = 0
 1217              		@ frame_needed = 0, uses_anonymous_args = 0
 1218 0000 10B5     		push	{r4, lr}
 1219 0002 FFF7FEFF 		bl	_lcd_line2index
 1220 0006 074B     		ldr	r3, .L115
 1221 0008 1024     		movs	r4, #16
 1222 000a 1870     		strb	r0, [r3]
 1223 000c FFF7FEFF 		bl	_lcd_restore_cursor
 1224              	.L113:
 1225 0010 2020     		movs	r0, #32
 1226 0012 FFF7FEFF 		bl	_lcd_write_data
 1227 0016 013C     		subs	r4, r4, #1
 1228 0018 FAD1     		bne	.L113
 1229 001a BDE81040 		pop	{r4, lr}
 1230 001e FFF7FEBF 		b	_lcd_restore_cursor
 1231              	.L116:
 1232 0022 00BF     		.align	2
 1233              	.L115:
 1234 0024 00000000 		.word	LCD_POS
 1236              		.section	.text.lcd_progress,"ax",%progbits
 1237              		.align	1
 1238              		.global	lcd_progress
 1239              		.syntax unified
 1240              		.thumb
 1241              		.thumb_func
 1242              		.fpu softvfp
 1244              	lcd_progress:
 1245              		@ args = 0, pretend = 0, frame = 0
 1246              		@ frame_needed = 0, uses_anonymous_args = 0
 1247 0000 70B5     		push	{r4, r5, r6, lr}
 1248 0002 0C46     		mov	r4, r1
 1249 0004 1646     		mov	r6, r2
 1250 0006 FFF7FEFF 		bl	_lcd_line2index
 1251 000a 0B4B     		ldr	r3, .L122
 1252 000c 0025     		movs	r5, #0
 1253 000e 1870     		strb	r0, [r3]
 1254 0010 FFF7FEFF 		bl	_lcd_restore_cursor
 1255              	.L118:
 1256 0014 AC42     		cmp	r4, r5
 1257 0016 05D8     		bhi	.L119
 1258 0018 0025     		movs	r5, #0
 1259 001a C4F11004 		rsb	r4, r4, #16
 1260              	.L120:
ARM GAS  /tmp/cc49tyeU.s 			page 22


 1261 001e AC42     		cmp	r4, r5
 1262 0020 05D8     		bhi	.L121
 1263 0022 70BD     		pop	{r4, r5, r6, pc}
 1264              	.L119:
 1265 0024 3046     		mov	r0, r6
 1266 0026 FFF7FEFF 		bl	_lcd_write_data
 1267 002a 0135     		adds	r5, r5, #1
 1268 002c F2E7     		b	.L118
 1269              	.L121:
 1270 002e 2020     		movs	r0, #32
 1271 0030 FFF7FEFF 		bl	_lcd_write_data
 1272 0034 0135     		adds	r5, r5, #1
 1273 0036 F2E7     		b	.L120
 1274              	.L123:
 1275              		.align	2
 1276              	.L122:
 1277 0038 00000000 		.word	LCD_POS
 1279              		.section	.text.lcd_init,"ax",%progbits
 1280              		.align	1
 1281              		.global	lcd_init
 1282              		.syntax unified
 1283              		.thumb
 1284              		.thumb_func
 1285              		.fpu softvfp
 1287              	lcd_init:
 1288              		@ args = 0, pretend = 0, frame = 0
 1289              		@ frame_needed = 0, uses_anonymous_args = 0
 1290 0000 38B5     		push	{r3, r4, r5, lr}
 1291 0002 0025     		movs	r5, #0
 1292 0004 4FF48062 		mov	r2, #1024
 1293 0008 414B     		ldr	r3, .L127
 1294 000a 0446     		mov	r4, r0
 1295 000c 1D70     		strb	r5, [r3]
 1296 000e 414B     		ldr	r3, .L127+4
 1297 0010 9A62     		str	r2, [r3, #40]
 1298 0012 68BB     		cbnz	r0, .L125
 1299 0014 1020     		movs	r0, #16
 1300 0016 FFF7FEFF 		bl	LL_mDelay
 1301 001a 0320     		movs	r0, #3
 1302 001c FFF7FEFF 		bl	__lcd_write_nibble
 1303 0020 0420     		movs	r0, #4
 1304 0022 FFF7FEFF 		bl	LL_mDelay
 1305 0026 C820     		movs	r0, #200
 1306 0028 FFF7FEFF 		bl	my_delay_us
 1307 002c 0320     		movs	r0, #3
 1308 002e FFF7FEFF 		bl	__lcd_write_nibble
 1309 0032 6920     		movs	r0, #105
 1310 0034 FFF7FEFF 		bl	my_delay_us
 1311 0038 0320     		movs	r0, #3
 1312 003a FFF7FEFF 		bl	__lcd_write_nibble
 1313 003e 2620     		movs	r0, #38
 1314 0040 FFF7FEFF 		bl	my_delay_us
 1315 0044 0220     		movs	r0, #2
 1316 0046 FFF7FEFF 		bl	__lcd_write_nibble
 1317 004a 2620     		movs	r0, #38
 1318 004c FFF7FEFF 		bl	my_delay_us
 1319 0050 2820     		movs	r0, #40
ARM GAS  /tmp/cc49tyeU.s 			page 23


 1320 0052 FFF7FEFF 		bl	_lcd_write_command
 1321 0056 1C20     		movs	r0, #28
 1322 0058 FFF7FEFF 		bl	_lcd_write_command
 1323 005c 0C20     		movs	r0, #12
 1324 005e FFF7FEFF 		bl	_lcd_write_command
 1325 0062 0620     		movs	r0, #6
 1326 0064 FFF7FEFF 		bl	_lcd_write_command
 1327 0068 BDE83840 		pop	{r3, r4, r5, lr}
 1328 006c FFF7FEBF 		b	lcd_clear_screen
 1329              	.L125:
 1330 0070 0128     		cmp	r0, #1
 1331 0072 4BD1     		bne	.L124
 1332 0074 0320     		movs	r0, #3
 1333 0076 FFF7FEFF 		bl	__lcd_write_nibble
 1334 007a 2820     		movs	r0, #40
 1335 007c FFF7FEFF 		bl	my_delay_us
 1336 0080 0220     		movs	r0, #2
 1337 0082 FFF7FEFF 		bl	__lcd_write_nibble
 1338 0086 0C20     		movs	r0, #12
 1339 0088 FFF7FEFF 		bl	__lcd_write_nibble
 1340 008c 2820     		movs	r0, #40
 1341 008e FFF7FEFF 		bl	my_delay_us
 1342 0092 0220     		movs	r0, #2
 1343 0094 FFF7FEFF 		bl	__lcd_write_nibble
 1344 0098 0C20     		movs	r0, #12
 1345 009a FFF7FEFF 		bl	__lcd_write_nibble
 1346 009e 2620     		movs	r0, #38
 1347 00a0 FFF7FEFF 		bl	my_delay_us
 1348 00a4 2846     		mov	r0, r5
 1349 00a6 FFF7FEFF 		bl	__lcd_write_nibble
 1350 00aa 0C20     		movs	r0, #12
 1351 00ac FFF7FEFF 		bl	__lcd_write_nibble
 1352 00b0 2620     		movs	r0, #38
 1353 00b2 FFF7FEFF 		bl	my_delay_us
 1354 00b6 2846     		mov	r0, r5
 1355 00b8 FFF7FEFF 		bl	__lcd_write_nibble
 1356 00bc 2046     		mov	r0, r4
 1357 00be FFF7FEFF 		bl	__lcd_write_nibble
 1358 00c2 2046     		mov	r0, r4
 1359 00c4 FFF7FEFF 		bl	LL_mDelay
 1360 00c8 4FF4FA70 		mov	r0, #500
 1361 00cc FFF7FEFF 		bl	my_delay_us
 1362 00d0 2820     		movs	r0, #40
 1363 00d2 FFF7FEFF 		bl	my_delay_us
 1364 00d6 2846     		mov	r0, r5
 1365 00d8 FFF7FEFF 		bl	__lcd_write_nibble
 1366 00dc 0620     		movs	r0, #6
 1367 00de FFF7FEFF 		bl	__lcd_write_nibble
 1368 00e2 2620     		movs	r0, #38
 1369 00e4 FFF7FEFF 		bl	my_delay_us
 1370 00e8 2846     		mov	r0, r5
 1371 00ea FFF7FEFF 		bl	__lcd_write_nibble
 1372 00ee 2046     		mov	r0, r4
 1373 00f0 FFF7FEFF 		bl	__lcd_write_nibble
 1374 00f4 2046     		mov	r0, r4
 1375 00f6 FFF7FEFF 		bl	LL_mDelay
 1376 00fa 4FF4FA70 		mov	r0, #500
ARM GAS  /tmp/cc49tyeU.s 			page 24


 1377 00fe FFF7FEFF 		bl	my_delay_us
 1378 0102 BDE83840 		pop	{r3, r4, r5, lr}
 1379 0106 2820     		movs	r0, #40
 1380 0108 FFF7FEBF 		b	my_delay_us
 1381              	.L124:
 1382 010c 38BD     		pop	{r3, r4, r5, pc}
 1383              	.L128:
 1384 010e 00BF     		.align	2
 1385              	.L127:
 1386 0110 00000000 		.word	LCD_POS
 1387 0114 00000240 		.word	1073872896
 1389              		.section	.text.sw_i2c_init,"ax",%progbits
 1390              		.align	1
 1391              		.global	sw_i2c_init
 1392              		.syntax unified
 1393              		.thumb
 1394              		.thumb_func
 1395              		.fpu softvfp
 1397              	sw_i2c_init:
 1398              		@ args = 0, pretend = 0, frame = 0
 1399              		@ frame_needed = 0, uses_anonymous_args = 0
 1400              		@ link register save eliminated.
 1401 0000 7047     		bx	lr
 1403              		.section	.text.I2C_SDA_RD,"ax",%progbits
 1404              		.align	1
 1405              		.global	I2C_SDA_RD
 1406              		.syntax unified
 1407              		.thumb
 1408              		.thumb_func
 1409              		.fpu softvfp
 1411              	I2C_SDA_RD:
 1412              		@ args = 0, pretend = 0, frame = 24
 1413              		@ frame_needed = 0, uses_anonymous_args = 0
 1414 0000 7FB5     		push	{r0, r1, r2, r3, r4, r5, r6, lr}
 1415 0002 0023     		movs	r3, #0
 1416 0004 4FF40072 		mov	r2, #512
 1417 0008 6946     		mov	r1, sp
 1418 000a 0448     		ldr	r0, .L131
 1419 000c CDE90023 		strd	r2, r3, [sp]
 1420 0010 0493     		str	r3, [sp, #16]
 1421 0012 FFF7FEFF 		bl	LL_GPIO_Init
 1422 0016 07B0     		add	sp, sp, #28
 1423              		@ sp needed
 1424 0018 5DF804FB 		ldr	pc, [sp], #4
 1425              	.L132:
 1426              		.align	2
 1427              	.L131:
 1428 001c 00040240 		.word	1073873920
 1430              		.section	.text.I2C_SDA_WR,"ax",%progbits
 1431              		.align	1
 1432              		.global	I2C_SDA_WR
 1433              		.syntax unified
 1434              		.thumb
 1435              		.thumb_func
 1436              		.fpu softvfp
 1438              	I2C_SDA_WR:
 1439              		@ args = 0, pretend = 0, frame = 24
ARM GAS  /tmp/cc49tyeU.s 			page 25


 1440              		@ frame_needed = 0, uses_anonymous_args = 0
 1441 0000 7FB5     		push	{r0, r1, r2, r3, r4, r5, r6, lr}
 1442 0002 0123     		movs	r3, #1
 1443 0004 4FF40072 		mov	r2, #512
 1444 0008 CDE90023 		strd	r2, r3, [sp]
 1445 000c 0322     		movs	r2, #3
 1446 000e CDE90223 		strd	r2, r3, [sp, #8]
 1447 0012 0023     		movs	r3, #0
 1448 0014 6946     		mov	r1, sp
 1449 0016 0348     		ldr	r0, .L134
 1450 0018 0493     		str	r3, [sp, #16]
 1451 001a FFF7FEFF 		bl	LL_GPIO_Init
 1452 001e 07B0     		add	sp, sp, #28
 1453              		@ sp needed
 1454 0020 5DF804FB 		ldr	pc, [sp], #4
 1455              	.L135:
 1456              		.align	2
 1457              	.L134:
 1458 0024 00040240 		.word	1073873920
 1460              		.section	.text.sw_i2c_stop,"ax",%progbits
 1461              		.align	1
 1462              		.global	sw_i2c_stop
 1463              		.syntax unified
 1464              		.thumb
 1465              		.thumb_func
 1466              		.fpu softvfp
 1468              	sw_i2c_stop:
 1469              		@ args = 0, pretend = 0, frame = 0
 1470              		@ frame_needed = 0, uses_anonymous_args = 0
 1471 0000 08B5     		push	{r3, lr}
 1472 0002 FFF7FEFF 		bl	I2C_SDA_WR
 1473 0006 4FF48073 		mov	r3, #256
 1474 000a 064A     		ldr	r2, .L137
 1475 000c 0A20     		movs	r0, #10
 1476 000e 9361     		str	r3, [r2, #24]
 1477 0010 FFF7FEFF 		bl	my_delay_us
 1478 0014 4FF40073 		mov	r3, #512
 1479 0018 0A20     		movs	r0, #10
 1480 001a 9361     		str	r3, [r2, #24]
 1481 001c BDE80840 		pop	{r3, lr}
 1482 0020 FFF7FEBF 		b	my_delay_us
 1483              	.L138:
 1484              		.align	2
 1485              	.L137:
 1486 0024 00040240 		.word	1073873920
 1488              		.section	.text.sw_i2c_write,"ax",%progbits
 1489              		.align	1
 1490              		.global	sw_i2c_write
 1491              		.syntax unified
 1492              		.thumb
 1493              		.thumb_func
 1494              		.fpu softvfp
 1496              	sw_i2c_write:
 1497              		@ args = 0, pretend = 0, frame = 0
 1498              		@ frame_needed = 0, uses_anonymous_args = 0
 1499 0000 70B5     		push	{r4, r5, r6, lr}
 1500 0002 0546     		mov	r5, r0
ARM GAS  /tmp/cc49tyeU.s 			page 26


 1501 0004 FFF7FEFF 		bl	I2C_SDA_WR
 1502 0008 0822     		movs	r2, #8
 1503 000a 4FF40071 		mov	r1, #512
 1504 000e 1A4C     		ldr	r4, .L150
 1505              	.L142:
 1506 0010 4FF48076 		mov	r6, #256
 1507 0014 2806     		lsls	r0, r5, #24
 1508 0016 4CBF     		ite	mi
 1509 0018 A161     		strmi	r1, [r4, #24]
 1510 001a A162     		strpl	r1, [r4, #40]
 1511 001c 0A20     		movs	r0, #10
 1512 001e FFF7FEFF 		bl	my_delay_us
 1513 0022 A661     		str	r6, [r4, #24]
 1514 0024 0A20     		movs	r0, #10
 1515 0026 FFF7FEFF 		bl	my_delay_us
 1516 002a 013A     		subs	r2, r2, #1
 1517 002c 6D00     		lsls	r5, r5, #1
 1518 002e 12F0FF02 		ands	r2, r2, #255
 1519 0032 A662     		str	r6, [r4, #40]
 1520 0034 EDB2     		uxtb	r5, r5
 1521 0036 EBD1     		bne	.L142
 1522 0038 FFF7FEFF 		bl	I2C_SDA_RD
 1523 003c 4FF40073 		mov	r3, #512
 1524 0040 0A20     		movs	r0, #10
 1525 0042 A361     		str	r3, [r4, #24]
 1526 0044 FFF7FEFF 		bl	my_delay_us
 1527 0048 A661     		str	r6, [r4, #24]
 1528 004a 0A20     		movs	r0, #10
 1529 004c FFF7FEFF 		bl	my_delay_us
 1530 0050 FF22     		movs	r2, #255
 1531              	.L144:
 1532 0052 2369     		ldr	r3, [r4, #16]
 1533 0054 9B05     		lsls	r3, r3, #22
 1534 0056 06D5     		bpl	.L143
 1535 0058 0A20     		movs	r0, #10
 1536 005a FFF7FEFF 		bl	my_delay_us
 1537 005e 013A     		subs	r2, r2, #1
 1538 0060 12F0FF02 		ands	r2, r2, #255
 1539 0064 F5D1     		bne	.L144
 1540              	.L143:
 1541 0066 4FF48073 		mov	r3, #256
 1542 006a 0A20     		movs	r0, #10
 1543 006c A362     		str	r3, [r4, #40]
 1544 006e FFF7FEFF 		bl	my_delay_us
 1545 0072 1046     		mov	r0, r2
 1546 0074 70BD     		pop	{r4, r5, r6, pc}
 1547              	.L151:
 1548 0076 00BF     		.align	2
 1549              	.L150:
 1550 0078 00040240 		.word	1073873920
 1552              		.section	.text.sw_i2c_read,"ax",%progbits
 1553              		.align	1
 1554              		.global	sw_i2c_read
 1555              		.syntax unified
 1556              		.thumb
 1557              		.thumb_func
 1558              		.fpu softvfp
ARM GAS  /tmp/cc49tyeU.s 			page 27


 1560              	sw_i2c_read:
 1561              		@ args = 0, pretend = 0, frame = 0
 1562              		@ frame_needed = 0, uses_anonymous_args = 0
 1563 0000 70B5     		push	{r4, r5, r6, lr}
 1564 0002 0646     		mov	r6, r0
 1565 0004 FFF7FEFF 		bl	I2C_SDA_RD
 1566 0008 4FF40073 		mov	r3, #512
 1567 000c 1C4C     		ldr	r4, .L161
 1568 000e 0A20     		movs	r0, #10
 1569 0010 A361     		str	r3, [r4, #24]
 1570 0012 FFF7FEFF 		bl	my_delay_us
 1571 0016 0025     		movs	r5, #0
 1572 0018 0822     		movs	r2, #8
 1573 001a 4FF48071 		mov	r1, #256
 1574              	.L154:
 1575 001e A161     		str	r1, [r4, #24]
 1576 0020 0A20     		movs	r0, #10
 1577 0022 FFF7FEFF 		bl	my_delay_us
 1578 0026 2369     		ldr	r3, [r4, #16]
 1579 0028 6D00     		lsls	r5, r5, #1
 1580 002a 9B05     		lsls	r3, r3, #22
 1581 002c EDB2     		uxtb	r5, r5
 1582 002e A162     		str	r1, [r4, #40]
 1583 0030 4FF00A00 		mov	r0, #10
 1584 0034 48BF     		it	mi
 1585 0036 45F00105 		orrmi	r5, r5, #1
 1586 003a FFF7FEFF 		bl	my_delay_us
 1587 003e 013A     		subs	r2, r2, #1
 1588 0040 12F0FF02 		ands	r2, r2, #255
 1589 0044 EBD1     		bne	.L154
 1590 0046 FFF7FEFF 		bl	I2C_SDA_WR
 1591 004a 4FF40073 		mov	r3, #512
 1592 004e AEB9     		cbnz	r6, .L155
 1593 0050 A362     		str	r3, [r4, #40]
 1594              	.L156:
 1595 0052 0A20     		movs	r0, #10
 1596 0054 FFF7FEFF 		bl	my_delay_us
 1597 0058 4FF48072 		mov	r2, #256
 1598 005c 0A20     		movs	r0, #10
 1599 005e A261     		str	r2, [r4, #24]
 1600 0060 FFF7FEFF 		bl	my_delay_us
 1601 0064 0A20     		movs	r0, #10
 1602 0066 A262     		str	r2, [r4, #40]
 1603 0068 FFF7FEFF 		bl	my_delay_us
 1604 006c 4FF40073 		mov	r3, #512
 1605 0070 0A20     		movs	r0, #10
 1606 0072 A362     		str	r3, [r4, #40]
 1607 0074 FFF7FEFF 		bl	my_delay_us
 1608 0078 2846     		mov	r0, r5
 1609 007a 70BD     		pop	{r4, r5, r6, pc}
 1610              	.L155:
 1611 007c A361     		str	r3, [r4, #24]
 1612 007e E8E7     		b	.L156
 1613              	.L162:
 1614              		.align	2
 1615              	.L161:
 1616 0080 00040240 		.word	1073873920
ARM GAS  /tmp/cc49tyeU.s 			page 28


 1618              		.section	.text.I2C_SCL_WR,"ax",%progbits
 1619              		.align	1
 1620              		.global	I2C_SCL_WR
 1621              		.syntax unified
 1622              		.thumb
 1623              		.thumb_func
 1624              		.fpu softvfp
 1626              	I2C_SCL_WR:
 1627              		@ args = 0, pretend = 0, frame = 24
 1628              		@ frame_needed = 0, uses_anonymous_args = 0
 1629 0000 7FB5     		push	{r0, r1, r2, r3, r4, r5, r6, lr}
 1630 0002 0123     		movs	r3, #1
 1631 0004 4FF48072 		mov	r2, #256
 1632 0008 CDE90023 		strd	r2, r3, [sp]
 1633 000c 0322     		movs	r2, #3
 1634 000e CDE90223 		strd	r2, r3, [sp, #8]
 1635 0012 0023     		movs	r3, #0
 1636 0014 6946     		mov	r1, sp
 1637 0016 0348     		ldr	r0, .L164
 1638 0018 0493     		str	r3, [sp, #16]
 1639 001a FFF7FEFF 		bl	LL_GPIO_Init
 1640 001e 07B0     		add	sp, sp, #28
 1641              		@ sp needed
 1642 0020 5DF804FB 		ldr	pc, [sp], #4
 1643              	.L165:
 1644              		.align	2
 1645              	.L164:
 1646 0024 00040240 		.word	1073873920
 1648              		.section	.text.sw_i2c_start,"ax",%progbits
 1649              		.align	1
 1650              		.global	sw_i2c_start
 1651              		.syntax unified
 1652              		.thumb
 1653              		.thumb_func
 1654              		.fpu softvfp
 1656              	sw_i2c_start:
 1657              		@ args = 0, pretend = 0, frame = 0
 1658              		@ frame_needed = 0, uses_anonymous_args = 0
 1659 0000 70B5     		push	{r4, r5, r6, lr}
 1660 0002 4FF48075 		mov	r5, #256
 1661 0006 4FF40076 		mov	r6, #512
 1662 000a 0A4C     		ldr	r4, .L167
 1663 000c A561     		str	r5, [r4, #24]
 1664 000e A661     		str	r6, [r4, #24]
 1665 0010 FFF7FEFF 		bl	I2C_SDA_WR
 1666 0014 FFF7FEFF 		bl	I2C_SCL_WR
 1667 0018 0A20     		movs	r0, #10
 1668 001a FFF7FEFF 		bl	my_delay_us
 1669 001e A662     		str	r6, [r4, #40]
 1670 0020 0A20     		movs	r0, #10
 1671 0022 FFF7FEFF 		bl	my_delay_us
 1672 0026 A562     		str	r5, [r4, #40]
 1673 0028 0A20     		movs	r0, #10
 1674 002a BDE87040 		pop	{r4, r5, r6, lr}
 1675 002e FFF7FEBF 		b	my_delay_us
 1676              	.L168:
 1677 0032 00BF     		.align	2
ARM GAS  /tmp/cc49tyeU.s 			page 29


 1678              	.L167:
 1679 0034 00040240 		.word	1073873920
 1681              		.section	.text.I2C_SDA_H,"ax",%progbits
 1682              		.align	1
 1683              		.global	I2C_SDA_H
 1684              		.syntax unified
 1685              		.thumb
 1686              		.thumb_func
 1687              		.fpu softvfp
 1689              	I2C_SDA_H:
 1690              		@ args = 0, pretend = 0, frame = 0
 1691              		@ frame_needed = 0, uses_anonymous_args = 0
 1692              		@ link register save eliminated.
 1693 0000 4FF40072 		mov	r2, #512
 1694 0004 014B     		ldr	r3, .L170
 1695 0006 9A61     		str	r2, [r3, #24]
 1696 0008 7047     		bx	lr
 1697              	.L171:
 1698 000a 00BF     		.align	2
 1699              	.L170:
 1700 000c 00040240 		.word	1073873920
 1702              		.section	.text.I2C_SDA_L,"ax",%progbits
 1703              		.align	1
 1704              		.global	I2C_SDA_L
 1705              		.syntax unified
 1706              		.thumb
 1707              		.thumb_func
 1708              		.fpu softvfp
 1710              	I2C_SDA_L:
 1711              		@ args = 0, pretend = 0, frame = 0
 1712              		@ frame_needed = 0, uses_anonymous_args = 0
 1713              		@ link register save eliminated.
 1714 0000 4FF40072 		mov	r2, #512
 1715 0004 014B     		ldr	r3, .L173
 1716 0006 9A62     		str	r2, [r3, #40]
 1717 0008 7047     		bx	lr
 1718              	.L174:
 1719 000a 00BF     		.align	2
 1720              	.L173:
 1721 000c 00040240 		.word	1073873920
 1723              		.section	.text.I2C_SCL_H,"ax",%progbits
 1724              		.align	1
 1725              		.global	I2C_SCL_H
 1726              		.syntax unified
 1727              		.thumb
 1728              		.thumb_func
 1729              		.fpu softvfp
 1731              	I2C_SCL_H:
 1732              		@ args = 0, pretend = 0, frame = 0
 1733              		@ frame_needed = 0, uses_anonymous_args = 0
 1734              		@ link register save eliminated.
 1735 0000 4FF48072 		mov	r2, #256
 1736 0004 014B     		ldr	r3, .L176
 1737 0006 9A61     		str	r2, [r3, #24]
 1738 0008 7047     		bx	lr
 1739              	.L177:
 1740 000a 00BF     		.align	2
ARM GAS  /tmp/cc49tyeU.s 			page 30


 1741              	.L176:
 1742 000c 00040240 		.word	1073873920
 1744              		.section	.text.I2C_SCL_L,"ax",%progbits
 1745              		.align	1
 1746              		.global	I2C_SCL_L
 1747              		.syntax unified
 1748              		.thumb
 1749              		.thumb_func
 1750              		.fpu softvfp
 1752              	I2C_SCL_L:
 1753              		@ args = 0, pretend = 0, frame = 0
 1754              		@ frame_needed = 0, uses_anonymous_args = 0
 1755              		@ link register save eliminated.
 1756 0000 4FF48072 		mov	r2, #256
 1757 0004 014B     		ldr	r3, .L179
 1758 0006 9A62     		str	r2, [r3, #40]
 1759 0008 7047     		bx	lr
 1760              	.L180:
 1761 000a 00BF     		.align	2
 1762              	.L179:
 1763 000c 00040240 		.word	1073873920
 1765              		.section	.text.pcf8583_getyear,"ax",%progbits
 1766              		.align	1
 1767              		.global	pcf8583_getyear
 1768              		.syntax unified
 1769              		.thumb
 1770              		.thumb_func
 1771              		.fpu softvfp
 1773              	pcf8583_getyear:
 1774              		@ args = 0, pretend = 0, frame = 0
 1775              		@ frame_needed = 0, uses_anonymous_args = 0
 1776 0000 38B5     		push	{r3, r4, r5, lr}
 1777 0002 0C46     		mov	r4, r1
 1778 0004 0546     		mov	r5, r0
 1779 0006 FFF7FEFF 		bl	sw_i2c_start
 1780 000a A220     		movs	r0, #162
 1781 000c FFF7FEFF 		bl	sw_i2c_write
 1782 0010 1020     		movs	r0, #16
 1783 0012 FFF7FEFF 		bl	sw_i2c_write
 1784 0016 FFF7FEFF 		bl	sw_i2c_start
 1785 001a A320     		movs	r0, #163
 1786 001c FFF7FEFF 		bl	sw_i2c_write
 1787 0020 0020     		movs	r0, #0
 1788 0022 FFF7FEFF 		bl	sw_i2c_read
 1789 0026 2870     		strb	r0, [r5]
 1790 0028 0120     		movs	r0, #1
 1791 002a FFF7FEFF 		bl	sw_i2c_read
 1792 002e 2070     		strb	r0, [r4]
 1793 0030 BDE83840 		pop	{r3, r4, r5, lr}
 1794 0034 FFF7FEBF 		b	sw_i2c_stop
 1796              		.section	.text.pcf8583_setyear,"ax",%progbits
 1797              		.align	1
 1798              		.global	pcf8583_setyear
 1799              		.syntax unified
 1800              		.thumb
 1801              		.thumb_func
 1802              		.fpu softvfp
ARM GAS  /tmp/cc49tyeU.s 			page 31


 1804              	pcf8583_setyear:
 1805              		@ args = 0, pretend = 0, frame = 0
 1806              		@ frame_needed = 0, uses_anonymous_args = 0
 1807 0000 38B5     		push	{r3, r4, r5, lr}
 1808 0002 0546     		mov	r5, r0
 1809 0004 0C46     		mov	r4, r1
 1810 0006 FFF7FEFF 		bl	sw_i2c_start
 1811 000a A220     		movs	r0, #162
 1812 000c FFF7FEFF 		bl	sw_i2c_write
 1813 0010 1020     		movs	r0, #16
 1814 0012 FFF7FEFF 		bl	sw_i2c_write
 1815 0016 2846     		mov	r0, r5
 1816 0018 FFF7FEFF 		bl	sw_i2c_write
 1817 001c 2046     		mov	r0, r4
 1818 001e FFF7FEFF 		bl	sw_i2c_write
 1819 0022 BDE83840 		pop	{r3, r4, r5, lr}
 1820 0026 FFF7FEBF 		b	sw_i2c_stop
 1822              		.section	.text.pcf8583_set_datetime,"ax",%progbits
 1823              		.align	1
 1824              		.global	pcf8583_set_datetime
 1825              		.syntax unified
 1826              		.thumb
 1827              		.thumb_func
 1828              		.fpu softvfp
 1830              	pcf8583_set_datetime:
 1831              		@ args = 20, pretend = 0, frame = 8
 1832              		@ frame_needed = 0, uses_anonymous_args = 0
 1833 0000 2DE9F74F 		push	{r0, r1, r2, r4, r5, r6, r7, r8, r9, r10, fp, lr}
 1834 0004 8246     		mov	r10, r0
 1835 0006 9DF83800 		ldrb	r0, [sp, #56]	@ zero_extendqisi2
 1836 000a 1C46     		mov	r4, r3
 1837 000c 0192     		str	r2, [sp, #4]
 1838 000e 8B46     		mov	fp, r1
 1839 0010 9DF83410 		ldrb	r1, [sp, #52]	@ zero_extendqisi2
 1840 0014 FFF7FEFF 		bl	dectobcd
 1841 0018 9DF83050 		ldrb	r5, [sp, #48]	@ zero_extendqisi2
 1842 001c 8146     		mov	r9, r0
 1843 001e 2846     		mov	r0, r5
 1844 0020 FFF7FEFF 		bl	dectobcd
 1845 0024 0546     		mov	r5, r0
 1846 0026 2046     		mov	r0, r4
 1847 0028 FFF7FEFF 		bl	dectobcd
 1848 002c 8046     		mov	r8, r0
 1849 002e 0846     		mov	r0, r1
 1850 0030 FFF7FEFF 		bl	dectobcd
 1851 0034 0446     		mov	r4, r0
 1852 0036 9DF83C60 		ldrb	r6, [sp, #60]	@ zero_extendqisi2
 1853 003a 9DF84070 		ldrb	r7, [sp, #64]	@ zero_extendqisi2
 1854 003e FFF7FEFF 		bl	sw_i2c_start
 1855 0042 A220     		movs	r0, #162
 1856 0044 FFF7FEFF 		bl	sw_i2c_write
 1857 0048 0020     		movs	r0, #0
 1858 004a FFF7FEFF 		bl	sw_i2c_write
 1859 004e 8020     		movs	r0, #128
 1860 0050 FFF7FEFF 		bl	sw_i2c_write
 1861 0054 FFF7FEFF 		bl	sw_i2c_stop
 1862 0058 FFF7FEFF 		bl	sw_i2c_start
ARM GAS  /tmp/cc49tyeU.s 			page 32


 1863 005c A220     		movs	r0, #162
 1864 005e FFF7FEFF 		bl	sw_i2c_write
 1865 0062 0120     		movs	r0, #1
 1866 0064 FFF7FEFF 		bl	sw_i2c_write
 1867 0068 0020     		movs	r0, #0
 1868 006a FFF7FEFF 		bl	sw_i2c_write
 1869 006e 019A     		ldr	r2, [sp, #4]
 1870 0070 1046     		mov	r0, r2
 1871 0072 FFF7FEFF 		bl	dectobcd
 1872 0076 FFF7FEFF 		bl	sw_i2c_write
 1873 007a 5846     		mov	r0, fp
 1874 007c FFF7FEFF 		bl	dectobcd
 1875 0080 FFF7FEFF 		bl	sw_i2c_write
 1876 0084 5046     		mov	r0, r10
 1877 0086 FFF7FEFF 		bl	dectobcd
 1878 008a FFF7FEFF 		bl	sw_i2c_write
 1879 008e 45EA8910 		orr	r0, r5, r9, lsl #6
 1880 0092 C0B2     		uxtb	r0, r0
 1881 0094 FFF7FEFF 		bl	sw_i2c_write
 1882 0098 44EA4810 		orr	r0, r4, r8, lsl #5
 1883 009c C0B2     		uxtb	r0, r0
 1884 009e FFF7FEFF 		bl	sw_i2c_write
 1885 00a2 FFF7FEFF 		bl	sw_i2c_stop
 1886 00a6 FFF7FEFF 		bl	sw_i2c_start
 1887 00aa A220     		movs	r0, #162
 1888 00ac FFF7FEFF 		bl	sw_i2c_write
 1889 00b0 0020     		movs	r0, #0
 1890 00b2 FFF7FEFF 		bl	sw_i2c_write
 1891 00b6 0020     		movs	r0, #0
 1892 00b8 FFF7FEFF 		bl	sw_i2c_write
 1893 00bc FFF7FEFF 		bl	sw_i2c_stop
 1894 00c0 3946     		mov	r1, r7
 1895 00c2 3046     		mov	r0, r6
 1896 00c4 03B0     		add	sp, sp, #12
 1897              		@ sp needed
 1898 00c6 BDE8F04F 		pop	{r4, r5, r6, r7, r8, r9, r10, fp, lr}
 1899 00ca FFF7FEBF 		b	pcf8583_setyear
 1901              		.section	.text.pcf8583_get_datetime,"ax",%progbits
 1902              		.align	1
 1903              		.global	pcf8583_get_datetime
 1904              		.syntax unified
 1905              		.thumb
 1906              		.thumb_func
 1907              		.fpu softvfp
 1909              	pcf8583_get_datetime:
 1910              		@ args = 20, pretend = 0, frame = 8
 1911              		@ frame_needed = 0, uses_anonymous_args = 0
 1912 0000 2DE9F74F 		push	{r0, r1, r2, r4, r5, r6, r7, r8, r9, r10, fp, lr}
 1913 0004 109C     		ldr	r4, [sp, #64]
 1914 0006 8846     		mov	r8, r1
 1915 0008 DDE90E65 		ldrd	r6, r5, [sp, #56]
 1916 000c DDE90C9A 		ldrd	r9, r10, [sp, #48]
 1917 0010 9B46     		mov	fp, r3
 1918 0012 0192     		str	r2, [sp, #4]
 1919 0014 0746     		mov	r7, r0
 1920 0016 FFF7FEFF 		bl	sw_i2c_start
 1921 001a A220     		movs	r0, #162
ARM GAS  /tmp/cc49tyeU.s 			page 33


 1922 001c FFF7FEFF 		bl	sw_i2c_write
 1923 0020 0220     		movs	r0, #2
 1924 0022 FFF7FEFF 		bl	sw_i2c_write
 1925 0026 FFF7FEFF 		bl	sw_i2c_start
 1926 002a A320     		movs	r0, #163
 1927 002c FFF7FEFF 		bl	sw_i2c_write
 1928 0030 0020     		movs	r0, #0
 1929 0032 FFF7FEFF 		bl	sw_i2c_read
 1930 0036 FFF7FEFF 		bl	bcdtodec
 1931 003a 019A     		ldr	r2, [sp, #4]
 1932 003c 1070     		strb	r0, [r2]
 1933 003e 0020     		movs	r0, #0
 1934 0040 FFF7FEFF 		bl	sw_i2c_read
 1935 0044 FFF7FEFF 		bl	bcdtodec
 1936 0048 88F80000 		strb	r0, [r8]
 1937 004c 0020     		movs	r0, #0
 1938 004e FFF7FEFF 		bl	sw_i2c_read
 1939 0052 00F03F00 		and	r0, r0, #63
 1940 0056 FFF7FEFF 		bl	bcdtodec
 1941 005a 3870     		strb	r0, [r7]
 1942 005c 0020     		movs	r0, #0
 1943 005e FFF7FEFF 		bl	sw_i2c_read
 1944 0062 0746     		mov	r7, r0
 1945 0064 0120     		movs	r0, #1
 1946 0066 FFF7FEFF 		bl	sw_i2c_read
 1947 006a 8046     		mov	r8, r0
 1948 006c FFF7FEFF 		bl	sw_i2c_stop
 1949 0070 C8F34710 		ubfx	r0, r8, #5, #8
 1950 0074 FFF7FEFF 		bl	bcdtodec
 1951 0078 8BF80000 		strb	r0, [fp]
 1952 007c 08F01F00 		and	r0, r8, #31
 1953 0080 FFF7FEFF 		bl	bcdtodec
 1954 0084 8AF80000 		strb	r0, [r10]
 1955 0088 C7F38710 		ubfx	r0, r7, #6, #8
 1956 008c FFF7FEFF 		bl	bcdtodec
 1957 0090 3070     		strb	r0, [r6]
 1958 0092 07F03F00 		and	r0, r7, #63
 1959 0096 FFF7FEFF 		bl	bcdtodec
 1960 009a 2146     		mov	r1, r4
 1961 009c 89F80000 		strb	r0, [r9]
 1962 00a0 2846     		mov	r0, r5
 1963 00a2 FFF7FEFF 		bl	pcf8583_getyear
 1964 00a6 2178     		ldrb	r1, [r4]	@ zero_extendqisi2
 1965 00a8 3278     		ldrb	r2, [r6]	@ zero_extendqisi2
 1966 00aa 01F00303 		and	r3, r1, #3
 1967 00ae 9A42     		cmp	r2, r3
 1968 00b0 08D0     		beq	.L184
 1969 00b2 0131     		adds	r1, r1, #1
 1970 00b4 C9B2     		uxtb	r1, r1
 1971 00b6 2170     		strb	r1, [r4]
 1972 00b8 2878     		ldrb	r0, [r5]	@ zero_extendqisi2
 1973 00ba 03B0     		add	sp, sp, #12
 1974              		@ sp needed
 1975 00bc BDE8F04F 		pop	{r4, r5, r6, r7, r8, r9, r10, fp, lr}
 1976 00c0 FFF7FEBF 		b	pcf8583_setyear
 1977              	.L184:
 1978 00c4 03B0     		add	sp, sp, #12
ARM GAS  /tmp/cc49tyeU.s 			page 34


 1979              		@ sp needed
 1980 00c6 BDE8F08F 		pop	{r4, r5, r6, r7, r8, r9, r10, fp, pc}
 1982              		.section	.text.pcf8583_read_reg,"ax",%progbits
 1983              		.align	1
 1984              		.global	pcf8583_read_reg
 1985              		.syntax unified
 1986              		.thumb
 1987              		.thumb_func
 1988              		.fpu softvfp
 1990              	pcf8583_read_reg:
 1991              		@ args = 0, pretend = 0, frame = 0
 1992              		@ frame_needed = 0, uses_anonymous_args = 0
 1993 0000 10B5     		push	{r4, lr}
 1994 0002 0446     		mov	r4, r0
 1995 0004 FFF7FEFF 		bl	sw_i2c_start
 1996 0008 A220     		movs	r0, #162
 1997 000a FFF7FEFF 		bl	sw_i2c_write
 1998 000e 2046     		mov	r0, r4
 1999 0010 FFF7FEFF 		bl	sw_i2c_write
 2000 0014 FFF7FEFF 		bl	sw_i2c_start
 2001 0018 A320     		movs	r0, #163
 2002 001a FFF7FEFF 		bl	sw_i2c_write
 2003 001e 0120     		movs	r0, #1
 2004 0020 FFF7FEFF 		bl	sw_i2c_read
 2005 0024 0446     		mov	r4, r0
 2006 0026 FFF7FEFF 		bl	sw_i2c_stop
 2007 002a 2046     		mov	r0, r4
 2008 002c 10BD     		pop	{r4, pc}
 2010              		.section	.text.pcf8583_en_dis_alarm,"ax",%progbits
 2011              		.align	1
 2012              		.global	pcf8583_en_dis_alarm
 2013              		.syntax unified
 2014              		.thumb
 2015              		.thumb_func
 2016              		.fpu softvfp
 2018              	pcf8583_en_dis_alarm:
 2019              		@ args = 0, pretend = 0, frame = 0
 2020              		@ frame_needed = 0, uses_anonymous_args = 0
 2021 0000 70B5     		push	{r4, r5, r6, lr}
 2022 0002 0546     		mov	r5, r0
 2023 0004 0020     		movs	r0, #0
 2024 0006 FFF7FEFF 		bl	pcf8583_read_reg
 2025 000a 0646     		mov	r6, r0
 2026 000c F5B9     		cbnz	r5, .L188
 2027 000e 65F38206 		bfi	r6, r5, #2, #1
 2028              	.L189:
 2029 0012 FFF7FEFF 		bl	sw_i2c_start
 2030 0016 A220     		movs	r0, #162
 2031 0018 FFF7FEFF 		bl	sw_i2c_write
 2032 001c 0020     		movs	r0, #0
 2033 001e FFF7FEFF 		bl	sw_i2c_write
 2034 0022 F0B2     		uxtb	r0, r6
 2035 0024 FFF7FEFF 		bl	sw_i2c_write
 2036 0028 FFF7FEFF 		bl	sw_i2c_stop
 2037 002c 0DB3     		cbz	r5, .L187
 2038 002e FFF7FEFF 		bl	sw_i2c_start
 2039 0032 A220     		movs	r0, #162
ARM GAS  /tmp/cc49tyeU.s 			page 35


 2040 0034 FFF7FEFF 		bl	sw_i2c_write
 2041 0038 0820     		movs	r0, #8
 2042 003a FFF7FEFF 		bl	sw_i2c_write
 2043 003e E0B2     		uxtb	r0, r4
 2044 0040 FFF7FEFF 		bl	sw_i2c_write
 2045 0044 BDE87040 		pop	{r4, r5, r6, lr}
 2046 0048 FFF7FEBF 		b	sw_i2c_stop
 2047              	.L188:
 2048 004c 4FF00004 		mov	r4, #0
 2049 0050 6B08     		lsrs	r3, r5, #1
 2050 0052 65F30414 		bfi	r4, r5, #4, #1
 2051 0056 63F34514 		bfi	r4, r3, #5, #1
 2052 005a 6FF30006 		bfc	r6, #0, #1
 2053 005e AB08     		lsrs	r3, r5, #2
 2054 0060 6FF34106 		bfc	r6, #1, #1
 2055 0064 63F38614 		bfi	r4, r3, #6, #1
 2056 0068 46F00406 		orr	r6, r6, #4
 2057 006c 64F07F04 		orn	r4, r4, #127
 2058 0070 CFE7     		b	.L189
 2059              	.L187:
 2060 0072 70BD     		pop	{r4, r5, r6, pc}
 2062              		.section	.text.pcf8583_set_alarm_weekdays,"ax",%progbits
 2063              		.align	1
 2064              		.global	pcf8583_set_alarm_weekdays
 2065              		.syntax unified
 2066              		.thumb
 2067              		.thumb_func
 2068              		.fpu softvfp
 2070              	pcf8583_set_alarm_weekdays:
 2071              		@ args = 12, pretend = 0, frame = 0
 2072              		@ frame_needed = 0, uses_anonymous_args = 0
 2073 0000 F8B5     		push	{r3, r4, r5, r6, r7, lr}
 2074 0002 4FF00004 		mov	r4, #0
 2075 0006 60F30004 		bfi	r4, r0, #0, #1
 2076 000a 61F34104 		bfi	r4, r1, #1, #1
 2077 000e 62F38204 		bfi	r4, r2, #2, #1
 2078 0012 9DF81870 		ldrb	r7, [sp, #24]	@ zero_extendqisi2
 2079 0016 63F3C304 		bfi	r4, r3, #3, #1
 2080 001a 9DF81C60 		ldrb	r6, [sp, #28]	@ zero_extendqisi2
 2081 001e 9DF82050 		ldrb	r5, [sp, #32]	@ zero_extendqisi2
 2082 0022 67F30414 		bfi	r4, r7, #4, #1
 2083 0026 FFF7FEFF 		bl	sw_i2c_start
 2084 002a 66F34514 		bfi	r4, r6, #5, #1
 2085 002e A220     		movs	r0, #162
 2086 0030 FFF7FEFF 		bl	sw_i2c_write
 2087 0034 65F38614 		bfi	r4, r5, #6, #1
 2088 0038 0E20     		movs	r0, #14
 2089 003a FFF7FEFF 		bl	sw_i2c_write
 2090 003e E0B2     		uxtb	r0, r4
 2091 0040 FFF7FEFF 		bl	sw_i2c_write
 2092 0044 BDE8F840 		pop	{r3, r4, r5, r6, r7, lr}
 2093 0048 FFF7FEBF 		b	sw_i2c_stop
 2095              		.section	.text.pcf8583_set_alarm_time,"ax",%progbits
 2096              		.align	1
 2097              		.global	pcf8583_set_alarm_time
 2098              		.syntax unified
 2099              		.thumb
ARM GAS  /tmp/cc49tyeU.s 			page 36


 2100              		.thumb_func
 2101              		.fpu softvfp
 2103              	pcf8583_set_alarm_time:
 2104              		@ args = 0, pretend = 0, frame = 0
 2105              		@ frame_needed = 0, uses_anonymous_args = 0
 2106 0000 70B5     		push	{r4, r5, r6, lr}
 2107 0002 1646     		mov	r6, r2
 2108 0004 0D46     		mov	r5, r1
 2109 0006 0446     		mov	r4, r0
 2110 0008 FFF7FEFF 		bl	sw_i2c_start
 2111 000c A220     		movs	r0, #162
 2112 000e FFF7FEFF 		bl	sw_i2c_write
 2113 0012 0920     		movs	r0, #9
 2114 0014 FFF7FEFF 		bl	sw_i2c_write
 2115 0018 0020     		movs	r0, #0
 2116 001a FFF7FEFF 		bl	sw_i2c_write
 2117 001e 3046     		mov	r0, r6
 2118 0020 FFF7FEFF 		bl	dectobcd
 2119 0024 FFF7FEFF 		bl	sw_i2c_write
 2120 0028 2846     		mov	r0, r5
 2121 002a FFF7FEFF 		bl	dectobcd
 2122 002e FFF7FEFF 		bl	sw_i2c_write
 2123 0032 2046     		mov	r0, r4
 2124 0034 FFF7FEFF 		bl	dectobcd
 2125 0038 FFF7FEFF 		bl	sw_i2c_write
 2126 003c BDE87040 		pop	{r4, r5, r6, lr}
 2127 0040 FFF7FEBF 		b	sw_i2c_stop
 2129              		.section	.text.pcf8583_stop_alarm,"ax",%progbits
 2130              		.align	1
 2131              		.global	pcf8583_stop_alarm
 2132              		.syntax unified
 2133              		.thumb
 2134              		.thumb_func
 2135              		.fpu softvfp
 2137              	pcf8583_stop_alarm:
 2138              		@ args = 0, pretend = 0, frame = 0
 2139              		@ frame_needed = 0, uses_anonymous_args = 0
 2140 0000 10B5     		push	{r4, lr}
 2141 0002 0020     		movs	r0, #0
 2142 0004 FFF7FEFF 		bl	pcf8583_read_reg
 2143 0008 0446     		mov	r4, r0
 2144 000a FFF7FEFF 		bl	sw_i2c_start
 2145 000e 6FF30004 		bfc	r4, #0, #1
 2146 0012 A220     		movs	r0, #162
 2147 0014 FFF7FEFF 		bl	sw_i2c_write
 2148 0018 6FF34104 		bfc	r4, #1, #1
 2149 001c 0020     		movs	r0, #0
 2150 001e FFF7FEFF 		bl	sw_i2c_write
 2151 0022 E0B2     		uxtb	r0, r4
 2152 0024 FFF7FEFF 		bl	sw_i2c_write
 2153 0028 BDE81040 		pop	{r4, lr}
 2154 002c FFF7FEBF 		b	sw_i2c_stop
 2156              		.section	.text.SystemClock_Config,"ax",%progbits
 2157              		.align	1
 2158              		.global	SystemClock_Config
 2159              		.syntax unified
 2160              		.thumb
ARM GAS  /tmp/cc49tyeU.s 			page 37


 2161              		.thumb_func
 2162              		.fpu softvfp
 2164              	SystemClock_Config:
 2165              		@ args = 0, pretend = 0, frame = 0
 2166              		@ frame_needed = 0, uses_anonymous_args = 0
 2167 0000 08B5     		push	{r3, lr}
 2168 0002 2D4B     		ldr	r3, .L205
 2169 0004 1A68     		ldr	r2, [r3]
 2170 0006 42F00402 		orr	r2, r2, #4
 2171 000a 1A60     		str	r2, [r3]
 2172 000c 1A68     		ldr	r2, [r3]
 2173 000e 42F00102 		orr	r2, r2, #1
 2174 0012 1A60     		str	r2, [r3]
 2175 0014 1B68     		ldr	r3, [r3]
 2176 0016 D807     		lsls	r0, r3, #31
 2177 0018 00D4     		bmi	.L195
 2178              	.L196:
 2179 001a FEE7     		b	.L196
 2180              	.L195:
 2181 001c 274A     		ldr	r2, .L205+4
 2182 001e 1368     		ldr	r3, [r2]
 2183 0020 23F4C053 		bic	r3, r3, #6144
 2184 0024 43F40063 		orr	r3, r3, #2048
 2185 0028 1360     		str	r3, [r2]
 2186 002a 254B     		ldr	r3, .L205+8
 2187 002c 1A68     		ldr	r2, [r3]
 2188 002e 42F00102 		orr	r2, r2, #1
 2189 0032 1A60     		str	r2, [r3]
 2190              	.L197:
 2191 0034 1A68     		ldr	r2, [r3]
 2192 0036 9107     		lsls	r1, r2, #30
 2193 0038 FCD5     		bpl	.L197
 2194 003a 5A68     		ldr	r2, [r3, #4]
 2195 003c 22F4F852 		bic	r2, r2, #7936
 2196 0040 42F48052 		orr	r2, r2, #4096
 2197 0044 5A60     		str	r2, [r3, #4]
 2198 0046 9A68     		ldr	r2, [r3, #8]
 2199 0048 22F47D02 		bic	r2, r2, #16580608
 2200 004c 42F40802 		orr	r2, r2, #8912896
 2201 0050 9A60     		str	r2, [r3, #8]
 2202 0052 1A68     		ldr	r2, [r3]
 2203 0054 42F08072 		orr	r2, r2, #16777216
 2204 0058 1A60     		str	r2, [r3]
 2205 005a 194B     		ldr	r3, .L205+8
 2206              	.L198:
 2207 005c 1A68     		ldr	r2, [r3]
 2208 005e 9201     		lsls	r2, r2, #6
 2209 0060 FCD5     		bpl	.L198
 2210 0062 9A68     		ldr	r2, [r3, #8]
 2211 0064 22F0F002 		bic	r2, r2, #240
 2212 0068 9A60     		str	r2, [r3, #8]
 2213 006a 9A68     		ldr	r2, [r3, #8]
 2214 006c 22F4E062 		bic	r2, r2, #1792
 2215 0070 9A60     		str	r2, [r3, #8]
 2216 0072 9A68     		ldr	r2, [r3, #8]
 2217 0074 22F46052 		bic	r2, r2, #14336
 2218 0078 9A60     		str	r2, [r3, #8]
ARM GAS  /tmp/cc49tyeU.s 			page 38


 2219 007a 9A68     		ldr	r2, [r3, #8]
 2220 007c 42F00302 		orr	r2, r2, #3
 2221 0080 9A60     		str	r2, [r3, #8]
 2222 0082 0F4A     		ldr	r2, .L205+8
 2223              	.L199:
 2224 0084 9368     		ldr	r3, [r2, #8]
 2225 0086 03F00C03 		and	r3, r3, #12
 2226 008a 0C2B     		cmp	r3, #12
 2227 008c FAD1     		bne	.L199
 2228 008e 0D48     		ldr	r0, .L205+12
 2229 0090 FFF7FEFF 		bl	LL_Init1msTick
 2230 0094 0C4A     		ldr	r2, .L205+16
 2231 0096 0B48     		ldr	r0, .L205+12
 2232 0098 1368     		ldr	r3, [r2]
 2233 009a 43F00403 		orr	r3, r3, #4
 2234 009e 1360     		str	r3, [r2]
 2235 00a0 FFF7FEFF 		bl	LL_SetSystemCoreClock
 2236 00a4 FFF7FEFF 		bl	NVIC_GetPriorityGrouping
 2237 00a8 FFF7FEFF 		bl	NVIC_EncodePriority.constprop.9
 2238 00ac 074B     		ldr	r3, .L205+20
 2239 00ae 0001     		lsls	r0, r0, #4
 2240 00b0 C0B2     		uxtb	r0, r0
 2241 00b2 83F82300 		strb	r0, [r3, #35]
 2242 00b6 08BD     		pop	{r3, pc}
 2243              	.L206:
 2244              		.align	2
 2245              	.L205:
 2246 00b8 003C0240 		.word	1073888256
 2247 00bc 00700040 		.word	1073770496
 2248 00c0 00380240 		.word	1073887232
 2249 00c4 0048E801 		.word	32000000
 2250 00c8 10E000E0 		.word	-536813552
 2251 00cc 00ED00E0 		.word	-536810240
 2253              		.section	.text.startup.main,"ax",%progbits
 2254              		.align	1
 2255              		.global	main
 2256              		.syntax unified
 2257              		.thumb
 2258              		.thumb_func
 2259              		.fpu softvfp
 2261              	main:
 2262              		@ args = 0, pretend = 0, frame = 72
 2263              		@ frame_needed = 0, uses_anonymous_args = 0
 2264 0000 D14B     		ldr	r3, .L223
 2265 0002 2DE9F04F 		push	{r4, r5, r6, r7, r8, r9, r10, fp, lr}
 2266 0006 5A6A     		ldr	r2, [r3, #36]
 2267 0008 99B0     		sub	sp, sp, #100
 2268 000a 42F00042 		orr	r2, r2, #-2147483648
 2269 000e 5A62     		str	r2, [r3, #36]
 2270 0010 5A6A     		ldr	r2, [r3, #36]
 2271 0012 CE4D     		ldr	r5, .L223+4
 2272 0014 02F00042 		and	r2, r2, #-2147483648
 2273 0018 0F92     		str	r2, [sp, #60]
 2274 001a 0F9A     		ldr	r2, [sp, #60]
 2275 001c 1A6A     		ldr	r2, [r3, #32]
 2276 001e DFF85C83 		ldr	r8, .L223+52
 2277 0022 42F00102 		orr	r2, r2, #1
ARM GAS  /tmp/cc49tyeU.s 			page 39


 2278 0026 1A62     		str	r2, [r3, #32]
 2279 0028 1A6A     		ldr	r2, [r3, #32]
 2280 002a 02F00102 		and	r2, r2, #1
 2281 002e 0E92     		str	r2, [sp, #56]
 2282 0030 0E9A     		ldr	r2, [sp, #56]
 2283 0032 5A6A     		ldr	r2, [r3, #36]
 2284 0034 42F08052 		orr	r2, r2, #268435456
 2285 0038 5A62     		str	r2, [r3, #36]
 2286 003a 5B6A     		ldr	r3, [r3, #36]
 2287 003c C44A     		ldr	r2, .L223+8
 2288 003e 03F08053 		and	r3, r3, #268435456
 2289 0042 0D93     		str	r3, [sp, #52]
 2290 0044 0D9B     		ldr	r3, [sp, #52]
 2291 0046 D168     		ldr	r1, [r2, #12]
 2292 0048 C24B     		ldr	r3, .L223+12
 2293 004a 21F4E061 		bic	r1, r1, #1792
 2294 004e 0904     		lsls	r1, r1, #16
 2295 0050 090C     		lsrs	r1, r1, #16
 2296 0052 0B43     		orrs	r3, r3, r1
 2297 0054 D360     		str	r3, [r2, #12]
 2298 0056 FFF7FEFF 		bl	NVIC_GetPriorityGrouping
 2299 005a FFF7FEFF 		bl	NVIC_EncodePriority.constprop.9
 2300 005e 0001     		lsls	r0, r0, #4
 2301 0060 C0B2     		uxtb	r0, r0
 2302 0062 1076     		strb	r0, [r2, #24]
 2303 0064 FFF7FEFF 		bl	NVIC_GetPriorityGrouping
 2304 0068 FFF7FEFF 		bl	NVIC_EncodePriority.constprop.9
 2305 006c 0001     		lsls	r0, r0, #4
 2306 006e C0B2     		uxtb	r0, r0
 2307 0070 5076     		strb	r0, [r2, #25]
 2308 0072 FFF7FEFF 		bl	NVIC_GetPriorityGrouping
 2309 0076 FFF7FEFF 		bl	NVIC_EncodePriority.constprop.9
 2310 007a 0001     		lsls	r0, r0, #4
 2311 007c C0B2     		uxtb	r0, r0
 2312 007e 9076     		strb	r0, [r2, #26]
 2313 0080 FFF7FEFF 		bl	NVIC_GetPriorityGrouping
 2314 0084 FFF7FEFF 		bl	NVIC_EncodePriority.constprop.9
 2315 0088 0001     		lsls	r0, r0, #4
 2316 008a C0B2     		uxtb	r0, r0
 2317 008c D077     		strb	r0, [r2, #31]
 2318 008e FFF7FEFF 		bl	NVIC_GetPriorityGrouping
 2319 0092 FFF7FEFF 		bl	NVIC_EncodePriority.constprop.9
 2320 0096 0001     		lsls	r0, r0, #4
 2321 0098 C0B2     		uxtb	r0, r0
 2322 009a 82F82000 		strb	r0, [r2, #32]
 2323 009e FFF7FEFF 		bl	NVIC_GetPriorityGrouping
 2324 00a2 FFF7FEFF 		bl	NVIC_EncodePriority.constprop.9
 2325 00a6 0001     		lsls	r0, r0, #4
 2326 00a8 C0B2     		uxtb	r0, r0
 2327 00aa 82F82200 		strb	r0, [r2, #34]
 2328 00ae FFF7FEFF 		bl	NVIC_GetPriorityGrouping
 2329 00b2 FFF7FEFF 		bl	NVIC_EncodePriority.constprop.9
 2330 00b6 0001     		lsls	r0, r0, #4
 2331 00b8 C0B2     		uxtb	r0, r0
 2332 00ba 82F82300 		strb	r0, [r2, #35]
 2333 00be FFF7FEFF 		bl	SystemClock_Config
 2334 00c2 0420     		movs	r0, #4
ARM GAS  /tmp/cc49tyeU.s 			page 40


 2335 00c4 FFF7FEFF 		bl	LL_AHB1_GRP1_EnableClock
 2336 00c8 2020     		movs	r0, #32
 2337 00ca FFF7FEFF 		bl	LL_AHB1_GRP1_EnableClock
 2338 00ce 0120     		movs	r0, #1
 2339 00d0 FFF7FEFF 		bl	LL_AHB1_GRP1_EnableClock
 2340 00d4 0220     		movs	r0, #2
 2341 00d6 FFF7FEFF 		bl	LL_AHB1_GRP1_EnableClock
 2342 00da 4FF4A463 		mov	r3, #1312
 2343 00de AB62     		str	r3, [r5, #40]
 2344 00e0 4FF48763 		mov	r3, #1080
 2345 00e4 9C49     		ldr	r1, .L223+16
 2346 00e6 C8F82830 		str	r3, [r8, #40]
 2347 00ea 4A69     		ldr	r2, [r1, #20]
 2348 00ec F023     		movs	r3, #240
 2349              		.syntax unified
 2350              	@ 531 "Drivers/CMSIS/Include/cmsis_gcc.h" 1
 2351 00ee 93FAA3F3 		rbit r3, r3
 2352              	@ 0 "" 2
 2353              		.thumb
 2354              		.syntax unified
 2355 00f2 4FF0040B 		mov	fp, #4
 2356 00f6 B3FA83F3 		clz	r3, r3
 2357 00fa 22F0F002 		bic	r2, r2, #240
 2358 00fe 0BFA03F3 		lsl	r3, fp, r3
 2359 0102 1343     		orrs	r3, r3, r2
 2360 0104 DFF87892 		ldr	r9, .L223+56
 2361 0108 4B61     		str	r3, [r1, #20]
 2362 010a D9F80C10 		ldr	r1, [r9, #12]
 2363 010e 4FF40052 		mov	r2, #8192
 2364              		.syntax unified
 2365              	@ 531 "Drivers/CMSIS/Include/cmsis_gcc.h" 1
 2366 0112 92FAA2F3 		rbit r3, r2
 2367              	@ 0 "" 2
 2368              		.thumb
 2369              		.syntax unified
 2370 0116 B3FA83F3 		clz	r3, r3
 2371 011a 4FF0030A 		mov	r10, #3
 2372 011e 5B00     		lsls	r3, r3, #1
 2373 0120 0AFA03F3 		lsl	r3, r10, r3
 2374 0124 21EA0303 		bic	r3, r1, r3
 2375              		.syntax unified
 2376              	@ 531 "Drivers/CMSIS/Include/cmsis_gcc.h" 1
 2377 0128 92FAA2F1 		rbit r1, r2
 2378              	@ 0 "" 2
 2379              		.thumb
 2380              		.syntax unified
 2381 012c C9F80C30 		str	r3, [r9, #12]
 2382 0130 D9F80010 		ldr	r1, [r9]
 2383              		.syntax unified
 2384              	@ 531 "Drivers/CMSIS/Include/cmsis_gcc.h" 1
 2385 0134 92FAA2F3 		rbit r3, r2
 2386              	@ 0 "" 2
 2387              		.thumb
 2388              		.syntax unified
 2389 0138 B3FA83F3 		clz	r3, r3
 2390 013c 5B00     		lsls	r3, r3, #1
 2391 013e 0AFA03F3 		lsl	r3, r10, r3
ARM GAS  /tmp/cc49tyeU.s 			page 41


 2392 0142 21EA0303 		bic	r3, r1, r3
 2393              		.syntax unified
 2394              	@ 531 "Drivers/CMSIS/Include/cmsis_gcc.h" 1
 2395 0146 92FAA2F1 		rbit r1, r2
 2396              	@ 0 "" 2
 2397              		.thumb
 2398              		.syntax unified
 2399 014a 0024     		movs	r4, #0
 2400 014c 0126     		movs	r6, #1
 2401 014e 0227     		movs	r7, #2
 2402 0150 C9F80030 		str	r3, [r9]
 2403 0154 10A8     		add	r0, sp, #64
 2404 0156 1092     		str	r2, [sp, #64]
 2405 0158 8DF84460 		strb	r6, [sp, #68]
 2406 015c 8DF84660 		strb	r6, [sp, #70]
 2407 0160 8DF84540 		strb	r4, [sp, #69]
 2408 0164 FFF7FEFF 		bl	LL_EXTI_Init
 2409 0168 12A9     		add	r1, sp, #72
 2410 016a 2846     		mov	r0, r5
 2411 016c CDE91274 		strd	r7, r4, [sp, #72]
 2412 0170 1696     		str	r6, [sp, #88]
 2413 0172 FFF7FEFF 		bl	LL_GPIO_Init
 2414 0176 CDE912B7 		strd	fp, r7, [sp, #72]
 2415 017a 4FF0070B 		mov	fp, #7
 2416 017e 12A9     		add	r1, sp, #72
 2417 0180 2846     		mov	r0, r5
 2418 0182 CDE914A4 		strd	r10, r4, [sp, #80]
 2419 0186 CDF85CB0 		str	fp, [sp, #92]
 2420 018a 1694     		str	r4, [sp, #88]
 2421 018c FFF7FEFF 		bl	LL_GPIO_Init
 2422 0190 0823     		movs	r3, #8
 2423 0192 CDF85CB0 		str	fp, [sp, #92]
 2424 0196 4FF0200B 		mov	fp, #32
 2425 019a 12A9     		add	r1, sp, #72
 2426 019c 2846     		mov	r0, r5
 2427 019e 1293     		str	r3, [sp, #72]
 2428 01a0 0893     		str	r3, [sp, #32]
 2429 01a2 CDE9137A 		strd	r7, r10, [sp, #76]
 2430 01a6 CDE91544 		strd	r4, r4, [sp, #84]
 2431 01aa FFF7FEFF 		bl	LL_GPIO_Init
 2432 01ae 12A9     		add	r1, sp, #72
 2433 01b0 2846     		mov	r0, r5
 2434 01b2 CDE912B6 		strd	fp, r6, [sp, #72]
 2435 01b6 CDE91444 		strd	r4, r4, [sp, #80]
 2436 01ba 1694     		str	r4, [sp, #88]
 2437 01bc FFF7FEFF 		bl	LL_GPIO_Init
 2438 01c0 4FF48062 		mov	r2, #1024
 2439 01c4 4FF4807A 		mov	r10, #256
 2440 01c8 12A9     		add	r1, sp, #72
 2441 01ca 4046     		mov	r0, r8
 2442 01cc 1292     		str	r2, [sp, #72]
 2443 01ce 0792     		str	r2, [sp, #28]
 2444 01d0 CDE91364 		strd	r6, r4, [sp, #76]
 2445 01d4 CDE91544 		strd	r4, r4, [sp, #84]
 2446 01d8 FFF7FEFF 		bl	LL_GPIO_Init
 2447 01dc 12A9     		add	r1, sp, #72
 2448 01de 2846     		mov	r0, r5
ARM GAS  /tmp/cc49tyeU.s 			page 42


 2449 01e0 CDE912A6 		strd	r10, r6, [sp, #72]
 2450 01e4 CDE91444 		strd	r4, r4, [sp, #80]
 2451 01e8 1694     		str	r4, [sp, #88]
 2452 01ea FFF7FEFF 		bl	LL_GPIO_Init
 2453 01ee 079A     		ldr	r2, [sp, #28]
 2454 01f0 12A9     		add	r1, sp, #72
 2455 01f2 2846     		mov	r0, r5
 2456 01f4 CDE91226 		strd	r2, r6, [sp, #72]
 2457 01f8 CDE91444 		strd	r4, r4, [sp, #80]
 2458 01fc 1694     		str	r4, [sp, #88]
 2459 01fe FFF7FEFF 		bl	LL_GPIO_Init
 2460 0202 089B     		ldr	r3, [sp, #32]
 2461 0204 12A9     		add	r1, sp, #72
 2462 0206 4046     		mov	r0, r8
 2463 0208 CDE91236 		strd	r3, r6, [sp, #72]
 2464 020c CDE91444 		strd	r4, r4, [sp, #80]
 2465 0210 1694     		str	r4, [sp, #88]
 2466 0212 FFF7FEFF 		bl	LL_GPIO_Init
 2467 0216 1023     		movs	r3, #16
 2468 0218 12A9     		add	r1, sp, #72
 2469 021a 4046     		mov	r0, r8
 2470 021c CDE91236 		strd	r3, r6, [sp, #72]
 2471 0220 CDE91444 		strd	r4, r4, [sp, #80]
 2472 0224 1694     		str	r4, [sp, #88]
 2473 0226 FFF7FEFF 		bl	LL_GPIO_Init
 2474 022a 12A9     		add	r1, sp, #72
 2475 022c 4046     		mov	r0, r8
 2476 022e CDE912B6 		strd	fp, r6, [sp, #72]
 2477 0232 CDE91444 		strd	r4, r4, [sp, #80]
 2478 0236 1694     		str	r4, [sp, #88]
 2479 0238 FFF7FEFF 		bl	LL_GPIO_Init
 2480 023c 12A9     		add	r1, sp, #72
 2481 023e 4046     		mov	r0, r8
 2482 0240 CDE912A4 		strd	r10, r4, [sp, #72]
 2483 0244 1694     		str	r4, [sp, #88]
 2484 0246 FFF7FEFF 		bl	LL_GPIO_Init
 2485 024a 4FF40073 		mov	r3, #512
 2486 024e 12A9     		add	r1, sp, #72
 2487 0250 4046     		mov	r0, r8
 2488 0252 CDE91234 		strd	r3, r4, [sp, #72]
 2489 0256 1694     		str	r4, [sp, #88]
 2490 0258 FFF7FEFF 		bl	LL_GPIO_Init
 2491 025c 2046     		mov	r0, r4
 2492 025e FFF7FEFF 		bl	lcd_init
 2493 0262 4FF03702 		mov	r2, #55
 2494 0266 3B21     		movs	r1, #59
 2495 0268 1720     		movs	r0, #23
 2496 026a 3C4B     		ldr	r3, .L223+20
 2497 026c 4FF0050C 		mov	ip, #5
 2498 0270 1A70     		strb	r2, [r3]
 2499 0272 3B4B     		ldr	r3, .L223+24
 2500 0274 3B4A     		ldr	r2, .L223+28
 2501 0276 1970     		strb	r1, [r3]
 2502 0278 3B4B     		ldr	r3, .L223+32
 2503 027a DFF8F480 		ldr	r8, .L223+40
 2504 027e 1870     		strb	r0, [r3]
 2505 0280 0D23     		movs	r3, #13
ARM GAS  /tmp/cc49tyeU.s 			page 43


 2506 0282 1370     		strb	r3, [r2]
 2507 0284 394A     		ldr	r2, .L223+36
 2508 0286 4FF0140E 		mov	lr, #20
 2509 028a 82F800C0 		strb	ip, [r2]
 2510 028e 4FF00E02 		mov	r2, #14
 2511 0292 88F80020 		strb	r2, [r8]
 2512 0296 0E22     		movs	r2, #14
 2513 0298 DFF8D8A0 		ldr	r10, .L223+44
 2514 029c DFF8E4B0 		ldr	fp, .L223+60
 2515 02a0 8AF80040 		strb	r4, [r10]
 2516 02a4 DFF8E0A0 		ldr	r10, .L223+64
 2517 02a8 8BF800E0 		strb	lr, [fp]
 2518 02ac 8AF80070 		strb	r7, [r10]
 2519 02b0 CDE903E2 		strd	lr, r2, [sp, #12]
 2520 02b4 CDE901C7 		strd	ip, r7, [sp, #4]
 2521 02b8 3722     		movs	r2, #55
 2522 02ba 0093     		str	r3, [sp]
 2523 02bc 2346     		mov	r3, r4
 2524 02be FFF7FEFF 		bl	pcf8583_set_datetime
 2525 02c2 3846     		mov	r0, r7
 2526 02c4 FFF7FEFF 		bl	pcf8583_en_dis_alarm
 2527 02c8 2246     		mov	r2, r4
 2528 02ca 2146     		mov	r1, r4
 2529 02cc 2046     		mov	r0, r4
 2530 02ce FFF7FEFF 		bl	pcf8583_set_alarm_time
 2531 02d2 3346     		mov	r3, r6
 2532 02d4 CDE90164 		strd	r6, r4, [sp, #4]
 2533 02d8 0096     		str	r6, [sp]
 2534 02da 3246     		mov	r2, r6
 2535 02dc 3146     		mov	r1, r6
 2536 02de 2646     		mov	r6, r4
 2537 02e0 2046     		mov	r0, r4
 2538 02e2 FFF7FEFF 		bl	pcf8583_set_alarm_weekdays
 2539 02e6 1E4B     		ldr	r3, .L223+24
 2540 02e8 CDF82490 		str	r9, [sp, #36]
 2541 02ec 0A93     		str	r3, [sp, #40]
 2542 02ee 1E4B     		ldr	r3, .L223+32
 2543 02f0 DFF86890 		ldr	r9, .L223+20
 2544 02f4 0B93     		str	r3, [sp, #44]
 2545 02f6 1D4B     		ldr	r3, .L223+36
 2546 02f8 1A4F     		ldr	r7, .L223+28
 2547 02fa CDE9073A 		strd	r3, r10, [sp, #28]
 2548              	.L208:
 2549 02fe 1C4B     		ldr	r3, .L223+40
 2550 0300 164A     		ldr	r2, .L223+20
 2551 0302 CDE903B3 		strd	fp, r3, [sp, #12]
 2552 0306 089B     		ldr	r3, [sp, #32]
 2553 0308 1549     		ldr	r1, .L223+24
 2554 030a 0293     		str	r3, [sp, #8]
 2555 030c 079B     		ldr	r3, [sp, #28]
 2556 030e 1648     		ldr	r0, .L223+32
 2557 0310 CDE90073 		strd	r7, r3, [sp]
 2558 0314 174B     		ldr	r3, .L223+44
 2559 0316 FFF7FEFF 		bl	pcf8583_get_datetime
 2560 031a 99F800A0 		ldrb	r10, [r9]	@ zero_extendqisi2
 2561 031e 5445     		cmp	r4, r10
 2562 0320 00F09780 		beq	.L209
ARM GAS  /tmp/cc49tyeU.s 			page 44


 2563 0324 0021     		movs	r1, #0
 2564 0326 0846     		mov	r0, r1
 2565 0328 134C     		ldr	r4, .L223+48
 2566 032a FFF7FEFF 		bl	lcd_cursor_position
 2567 032e 0B9B     		ldr	r3, [sp, #44]
 2568 0330 2146     		mov	r1, r4
 2569 0332 1878     		ldrb	r0, [r3]	@ zero_extendqisi2
 2570 0334 FFF7FEFF 		bl	byte2dec
 2571 0338 6078     		ldrb	r0, [r4, #1]	@ zero_extendqisi2
 2572 033a 2028     		cmp	r0, #32
 2573 033c 08BF     		it	eq
 2574 033e 3020     		moveq	r0, #48
 2575 0340 FFF7FEFF 		bl	_lcd_write_data
 2576 0344 22E0     		b	.L224
 2577              	.L225:
 2578 0346 00BF     		.align	2
 2579              	.L223:
 2580 0348 00380240 		.word	1073887232
 2581 034c 00000240 		.word	1073872896
 2582 0350 00ED00E0 		.word	-536810240
 2583 0354 0007FA05 		.word	100271872
 2584 0358 00000140 		.word	1073807360
 2585 035c 00000000 		.word	RTC_seconds
 2586 0360 00000000 		.word	RTC_minutes
 2587 0364 00000000 		.word	RTC_day
 2588 0368 00000000 		.word	RTC_hours
 2589 036c 00000000 		.word	RTC_month
 2590 0370 00000000 		.word	RTC_year
 2591 0374 00000000 		.word	RTC_dayofweek
 2592 0378 00000000 		.word	s
 2593 037c 00040240 		.word	1073873920
 2594 0380 00080240 		.word	1073874944
 2595 0384 00000000 		.word	RTC_century
 2596 0388 00000000 		.word	RTC_leapyear
 2597              	.L224:
 2598 038c A078     		ldrb	r0, [r4, #2]	@ zero_extendqisi2
 2599 038e FFF7FEFF 		bl	_lcd_write_data
 2600 0392 3A20     		movs	r0, #58
 2601 0394 FFF7FEFF 		bl	_lcd_write_data
 2602 0398 0A9B     		ldr	r3, [sp, #40]
 2603 039a 3849     		ldr	r1, .L226
 2604 039c 1878     		ldrb	r0, [r3]	@ zero_extendqisi2
 2605 039e FFF7FEFF 		bl	byte2dec
 2606 03a2 6078     		ldrb	r0, [r4, #1]	@ zero_extendqisi2
 2607 03a4 2028     		cmp	r0, #32
 2608 03a6 08BF     		it	eq
 2609 03a8 3020     		moveq	r0, #48
 2610 03aa FFF7FEFF 		bl	_lcd_write_data
 2611 03ae A078     		ldrb	r0, [r4, #2]	@ zero_extendqisi2
 2612 03b0 FFF7FEFF 		bl	_lcd_write_data
 2613 03b4 3A20     		movs	r0, #58
 2614 03b6 FFF7FEFF 		bl	_lcd_write_data
 2615 03ba 3049     		ldr	r1, .L226
 2616 03bc 99F80000 		ldrb	r0, [r9]	@ zero_extendqisi2
 2617 03c0 FFF7FEFF 		bl	byte2dec
 2618 03c4 6078     		ldrb	r0, [r4, #1]	@ zero_extendqisi2
 2619 03c6 2028     		cmp	r0, #32
ARM GAS  /tmp/cc49tyeU.s 			page 45


 2620 03c8 08BF     		it	eq
 2621 03ca 3020     		moveq	r0, #48
 2622 03cc FFF7FEFF 		bl	_lcd_write_data
 2623 03d0 A078     		ldrb	r0, [r4, #2]	@ zero_extendqisi2
 2624 03d2 FFF7FEFF 		bl	_lcd_write_data
 2625 03d6 0021     		movs	r1, #0
 2626 03d8 0120     		movs	r0, #1
 2627 03da FFF7FEFF 		bl	lcd_cursor_position
 2628 03de 2749     		ldr	r1, .L226
 2629 03e0 3878     		ldrb	r0, [r7]	@ zero_extendqisi2
 2630 03e2 FFF7FEFF 		bl	byte2dec
 2631 03e6 6078     		ldrb	r0, [r4, #1]	@ zero_extendqisi2
 2632 03e8 2028     		cmp	r0, #32
 2633 03ea 08BF     		it	eq
 2634 03ec 3020     		moveq	r0, #48
 2635 03ee FFF7FEFF 		bl	_lcd_write_data
 2636 03f2 A078     		ldrb	r0, [r4, #2]	@ zero_extendqisi2
 2637 03f4 FFF7FEFF 		bl	_lcd_write_data
 2638 03f8 2F20     		movs	r0, #47
 2639 03fa FFF7FEFF 		bl	_lcd_write_data
 2640 03fe 079B     		ldr	r3, [sp, #28]
 2641 0400 1E49     		ldr	r1, .L226
 2642 0402 1878     		ldrb	r0, [r3]	@ zero_extendqisi2
 2643 0404 FFF7FEFF 		bl	byte2dec
 2644 0408 6078     		ldrb	r0, [r4, #1]	@ zero_extendqisi2
 2645 040a 2028     		cmp	r0, #32
 2646 040c 08BF     		it	eq
 2647 040e 3020     		moveq	r0, #48
 2648 0410 FFF7FEFF 		bl	_lcd_write_data
 2649 0414 A078     		ldrb	r0, [r4, #2]	@ zero_extendqisi2
 2650 0416 FFF7FEFF 		bl	_lcd_write_data
 2651 041a 2F20     		movs	r0, #47
 2652 041c FFF7FEFF 		bl	_lcd_write_data
 2653 0420 1649     		ldr	r1, .L226
 2654 0422 9BF80000 		ldrb	r0, [fp]	@ zero_extendqisi2
 2655 0426 FFF7FEFF 		bl	byte2dec
 2656 042a 6078     		ldrb	r0, [r4, #1]	@ zero_extendqisi2
 2657 042c FFF7FEFF 		bl	_lcd_write_data
 2658 0430 A078     		ldrb	r0, [r4, #2]	@ zero_extendqisi2
 2659 0432 FFF7FEFF 		bl	_lcd_write_data
 2660 0436 1149     		ldr	r1, .L226
 2661 0438 98F80000 		ldrb	r0, [r8]	@ zero_extendqisi2
 2662 043c FFF7FEFF 		bl	byte2dec
 2663 0440 6078     		ldrb	r0, [r4, #1]	@ zero_extendqisi2
 2664 0442 FFF7FEFF 		bl	_lcd_write_data
 2665 0446 A078     		ldrb	r0, [r4, #2]	@ zero_extendqisi2
 2666 0448 FFF7FEFF 		bl	_lcd_write_data
 2667 044c 86B1     		cbz	r6, .L220
 2668 044e 2023     		movs	r3, #32
 2669 0450 AB61     		str	r3, [r5, #24]
 2670              	.L209:
 2671 0452 2B69     		ldr	r3, [r5, #16]
 2672 0454 13F0020F 		tst	r3, #2
 2673 0458 099B     		ldr	r3, [sp, #36]
 2674 045a 08BF     		it	eq
 2675 045c 0126     		moveq	r6, #1
 2676 045e 1C69     		ldr	r4, [r3, #16]
ARM GAS  /tmp/cc49tyeU.s 			page 46


 2677 0460 14F40054 		ands	r4, r4, #8192
 2678 0464 02D1     		bne	.L222
 2679 0466 FFF7FEFF 		bl	pcf8583_stop_alarm
 2680 046a 2646     		mov	r6, r4
 2681              	.L222:
 2682 046c 5446     		mov	r4, r10
 2683 046e 46E7     		b	.L208
 2684              	.L220:
 2685 0470 6B69     		ldr	r3, [r5, #20]
 2686 0472 83F02003 		eor	r3, r3, #32
 2687 0476 6B61     		str	r3, [r5, #20]
 2688 0478 EBE7     		b	.L209
 2689              	.L227:
 2690 047a 00BF     		.align	2
 2691              	.L226:
 2692 047c 00000000 		.word	s
 2694              		.section	.text._Error_Handler,"ax",%progbits
 2695              		.align	1
 2696              		.global	_Error_Handler
 2697              		.syntax unified
 2698              		.thumb
 2699              		.thumb_func
 2700              		.fpu softvfp
 2702              	_Error_Handler:
 2703              		@ Volatile: function does not return.
 2704              		@ args = 0, pretend = 0, frame = 0
 2705              		@ frame_needed = 0, uses_anonymous_args = 0
 2706              		@ link register save eliminated.
 2707              	.L229:
 2708 0000 FEE7     		b	.L229
 2710              		.comm	s,4,1
 2711              		.comm	RTC_alarm_status,1,1
 2712              		.comm	RTC_alarm_type,1,1
 2713              		.comm	RTC_leapyear,1,1
 2714              		.comm	RTC_dayofweek,1,1
 2715              		.comm	RTC_year,1,1
 2716              		.comm	RTC_century,1,1
 2717              		.comm	RTC_month,1,1
 2718              		.comm	RTC_day,1,1
 2719              		.comm	RTC_hours,1,1
 2720              		.comm	RTC_minutes,1,1
 2721              		.comm	RTC_seconds,1,1
 2722              		.comm	LCD_POS,1,1
 2723              		.ident	"GCC: (GNU Tools for Arm Embedded Processors 7-2017-q4-major) 7.2.1 20170904 (release) [ARM
ARM GAS  /tmp/cc49tyeU.s 			page 47


DEFINED SYMBOLS
                            *ABS*:0000000000000000 main.c
     /tmp/cc49tyeU.s:13     .text.NVIC_GetPriorityGrouping:0000000000000000 $t
     /tmp/cc49tyeU.s:19     .text.NVIC_GetPriorityGrouping:0000000000000000 NVIC_GetPriorityGrouping
     /tmp/cc49tyeU.s:30     .text.NVIC_GetPriorityGrouping:000000000000000c $d
     /tmp/cc49tyeU.s:33     .text.LL_AHB1_GRP1_EnableClock:0000000000000000 $t
     /tmp/cc49tyeU.s:39     .text.LL_AHB1_GRP1_EnableClock:0000000000000000 LL_AHB1_GRP1_EnableClock
     /tmp/cc49tyeU.s:58     .text.LL_AHB1_GRP1_EnableClock:0000000000000018 $d
     /tmp/cc49tyeU.s:61     .text.NVIC_EncodePriority.constprop.9:0000000000000000 $t
     /tmp/cc49tyeU.s:67     .text.NVIC_EncodePriority.constprop.9:0000000000000000 NVIC_EncodePriority.constprop.9
     /tmp/cc49tyeU.s:75     .text.dectobcd:0000000000000000 $t
     /tmp/cc49tyeU.s:82     .text.dectobcd:0000000000000000 dectobcd
     /tmp/cc49tyeU.s:94     .text.bcdtodec:0000000000000000 $t
     /tmp/cc49tyeU.s:101    .text.bcdtodec:0000000000000000 bcdtodec
     /tmp/cc49tyeU.s:113    .text.nibble2hex:0000000000000000 $t
     /tmp/cc49tyeU.s:120    .text.nibble2hex:0000000000000000 nibble2hex
     /tmp/cc49tyeU.s:132    .text.byte2dec:0000000000000000 $t
     /tmp/cc49tyeU.s:139    .text.byte2dec:0000000000000000 byte2dec
     /tmp/cc49tyeU.s:188    .text.word2dec:0000000000000000 $t
     /tmp/cc49tyeU.s:195    .text.word2dec:0000000000000000 word2dec
     /tmp/cc49tyeU.s:306    .text.double2dec:0000000000000000 $t
     /tmp/cc49tyeU.s:313    .text.double2dec:0000000000000000 double2dec
     /tmp/cc49tyeU.s:660    .text.double2dec:00000000000003a8 $d
     /tmp/cc49tyeU.s:671    .text.double2dec:00000000000003d0 $t
     /tmp/cc49tyeU.s:692    .text.double2hex:0000000000000000 $t
     /tmp/cc49tyeU.s:699    .text.double2hex:0000000000000000 double2hex
     /tmp/cc49tyeU.s:733    .text.word2hex:0000000000000000 $t
     /tmp/cc49tyeU.s:740    .text.word2hex:0000000000000000 word2hex
     /tmp/cc49tyeU.s:762    .text.byte2hex:0000000000000000 $t
     /tmp/cc49tyeU.s:769    .text.byte2hex:0000000000000000 byte2hex
     /tmp/cc49tyeU.s:785    .text.my_delay_us:0000000000000000 $t
     /tmp/cc49tyeU.s:792    .text.my_delay_us:0000000000000000 my_delay_us
     /tmp/cc49tyeU.s:810    .text.__lcd_write_nibble:0000000000000000 $t
     /tmp/cc49tyeU.s:817    .text.__lcd_write_nibble:0000000000000000 __lcd_write_nibble
     /tmp/cc49tyeU.s:852    .text.__lcd_write_nibble:0000000000000048 $d
     /tmp/cc49tyeU.s:856    .text.__lcd_write:0000000000000000 $t
     /tmp/cc49tyeU.s:863    .text.__lcd_write:0000000000000000 __lcd_write
     /tmp/cc49tyeU.s:877    .text._lcd_write_data:0000000000000000 $t
     /tmp/cc49tyeU.s:884    .text._lcd_write_data:0000000000000000 _lcd_write_data
     /tmp/cc49tyeU.s:895    .text._lcd_write_data:000000000000000c $d
     /tmp/cc49tyeU.s:898    .text._lcd_write_command:0000000000000000 $t
     /tmp/cc49tyeU.s:905    .text._lcd_write_command:0000000000000000 _lcd_write_command
     /tmp/cc49tyeU.s:916    .text._lcd_write_command:000000000000000c $d
     /tmp/cc49tyeU.s:919    .text._lcd_line2index:0000000000000000 $t
     /tmp/cc49tyeU.s:926    .text._lcd_line2index:0000000000000000 _lcd_line2index
     /tmp/cc49tyeU.s:937    .text._lcd_restore_cursor:0000000000000000 $t
     /tmp/cc49tyeU.s:944    .text._lcd_restore_cursor:0000000000000000 _lcd_restore_cursor
     /tmp/cc49tyeU.s:955    .text._lcd_restore_cursor:000000000000000c $d
                            *COM*:0000000000000001 LCD_POS
     /tmp/cc49tyeU.s:958    .text.lcd_write_char:0000000000000000 $t
     /tmp/cc49tyeU.s:965    .text.lcd_write_char:0000000000000000 lcd_write_char
     /tmp/cc49tyeU.s:972    .text.lcd_write_str:0000000000000000 $t
     /tmp/cc49tyeU.s:979    .text.lcd_write_str:0000000000000000 lcd_write_str
     /tmp/cc49tyeU.s:993    .text.lcd_write_strF:0000000000000000 $t
     /tmp/cc49tyeU.s:1000   .text.lcd_write_strF:0000000000000000 lcd_write_strF
     /tmp/cc49tyeU.s:1007   .text.lcd_cursor_position:0000000000000000 $t
     /tmp/cc49tyeU.s:1014   .text.lcd_cursor_position:0000000000000000 lcd_cursor_position
ARM GAS  /tmp/cc49tyeU.s 			page 48


     /tmp/cc49tyeU.s:1027   .text.lcd_cursor_position:0000000000000014 $d
     /tmp/cc49tyeU.s:1030   .text.lcd_shift_left:0000000000000000 $t
     /tmp/cc49tyeU.s:1037   .text.lcd_shift_left:0000000000000000 lcd_shift_left
     /tmp/cc49tyeU.s:1058   .text.lcd_shift_right:0000000000000000 $t
     /tmp/cc49tyeU.s:1065   .text.lcd_shift_right:0000000000000000 lcd_shift_right
     /tmp/cc49tyeU.s:1086   .text.lcd_cursor_shift_left:0000000000000000 $t
     /tmp/cc49tyeU.s:1093   .text.lcd_cursor_shift_left:0000000000000000 lcd_cursor_shift_left
     /tmp/cc49tyeU.s:1114   .text.lcd_cursor_shift_right:0000000000000000 $t
     /tmp/cc49tyeU.s:1121   .text.lcd_cursor_shift_right:0000000000000000 lcd_cursor_shift_right
     /tmp/cc49tyeU.s:1142   .text.lcd_clear_screen:0000000000000000 $t
     /tmp/cc49tyeU.s:1149   .text.lcd_clear_screen:0000000000000000 lcd_clear_screen
     /tmp/cc49tyeU.s:1162   .text.lcd_cursor_blink_display:0000000000000000 $t
     /tmp/cc49tyeU.s:1169   .text.lcd_cursor_blink_display:0000000000000000 lcd_cursor_blink_display
     /tmp/cc49tyeU.s:1188   .text.lcd_home:0000000000000000 $t
     /tmp/cc49tyeU.s:1195   .text.lcd_home:0000000000000000 lcd_home
     /tmp/cc49tyeU.s:1208   .text.lcd_clear_line:0000000000000000 $t
     /tmp/cc49tyeU.s:1215   .text.lcd_clear_line:0000000000000000 lcd_clear_line
     /tmp/cc49tyeU.s:1234   .text.lcd_clear_line:0000000000000024 $d
     /tmp/cc49tyeU.s:1237   .text.lcd_progress:0000000000000000 $t
     /tmp/cc49tyeU.s:1244   .text.lcd_progress:0000000000000000 lcd_progress
     /tmp/cc49tyeU.s:1277   .text.lcd_progress:0000000000000038 $d
     /tmp/cc49tyeU.s:1280   .text.lcd_init:0000000000000000 $t
     /tmp/cc49tyeU.s:1287   .text.lcd_init:0000000000000000 lcd_init
     /tmp/cc49tyeU.s:1386   .text.lcd_init:0000000000000110 $d
     /tmp/cc49tyeU.s:1390   .text.sw_i2c_init:0000000000000000 $t
     /tmp/cc49tyeU.s:1397   .text.sw_i2c_init:0000000000000000 sw_i2c_init
     /tmp/cc49tyeU.s:1404   .text.I2C_SDA_RD:0000000000000000 $t
     /tmp/cc49tyeU.s:1411   .text.I2C_SDA_RD:0000000000000000 I2C_SDA_RD
     /tmp/cc49tyeU.s:1428   .text.I2C_SDA_RD:000000000000001c $d
     /tmp/cc49tyeU.s:1431   .text.I2C_SDA_WR:0000000000000000 $t
     /tmp/cc49tyeU.s:1438   .text.I2C_SDA_WR:0000000000000000 I2C_SDA_WR
     /tmp/cc49tyeU.s:1458   .text.I2C_SDA_WR:0000000000000024 $d
     /tmp/cc49tyeU.s:1461   .text.sw_i2c_stop:0000000000000000 $t
     /tmp/cc49tyeU.s:1468   .text.sw_i2c_stop:0000000000000000 sw_i2c_stop
     /tmp/cc49tyeU.s:1486   .text.sw_i2c_stop:0000000000000024 $d
     /tmp/cc49tyeU.s:1489   .text.sw_i2c_write:0000000000000000 $t
     /tmp/cc49tyeU.s:1496   .text.sw_i2c_write:0000000000000000 sw_i2c_write
     /tmp/cc49tyeU.s:1550   .text.sw_i2c_write:0000000000000078 $d
     /tmp/cc49tyeU.s:1553   .text.sw_i2c_read:0000000000000000 $t
     /tmp/cc49tyeU.s:1560   .text.sw_i2c_read:0000000000000000 sw_i2c_read
     /tmp/cc49tyeU.s:1616   .text.sw_i2c_read:0000000000000080 $d
     /tmp/cc49tyeU.s:1619   .text.I2C_SCL_WR:0000000000000000 $t
     /tmp/cc49tyeU.s:1626   .text.I2C_SCL_WR:0000000000000000 I2C_SCL_WR
     /tmp/cc49tyeU.s:1646   .text.I2C_SCL_WR:0000000000000024 $d
     /tmp/cc49tyeU.s:1649   .text.sw_i2c_start:0000000000000000 $t
     /tmp/cc49tyeU.s:1656   .text.sw_i2c_start:0000000000000000 sw_i2c_start
     /tmp/cc49tyeU.s:1679   .text.sw_i2c_start:0000000000000034 $d
     /tmp/cc49tyeU.s:1682   .text.I2C_SDA_H:0000000000000000 $t
     /tmp/cc49tyeU.s:1689   .text.I2C_SDA_H:0000000000000000 I2C_SDA_H
     /tmp/cc49tyeU.s:1700   .text.I2C_SDA_H:000000000000000c $d
     /tmp/cc49tyeU.s:1703   .text.I2C_SDA_L:0000000000000000 $t
     /tmp/cc49tyeU.s:1710   .text.I2C_SDA_L:0000000000000000 I2C_SDA_L
     /tmp/cc49tyeU.s:1721   .text.I2C_SDA_L:000000000000000c $d
     /tmp/cc49tyeU.s:1724   .text.I2C_SCL_H:0000000000000000 $t
     /tmp/cc49tyeU.s:1731   .text.I2C_SCL_H:0000000000000000 I2C_SCL_H
     /tmp/cc49tyeU.s:1742   .text.I2C_SCL_H:000000000000000c $d
     /tmp/cc49tyeU.s:1745   .text.I2C_SCL_L:0000000000000000 $t
ARM GAS  /tmp/cc49tyeU.s 			page 49


     /tmp/cc49tyeU.s:1752   .text.I2C_SCL_L:0000000000000000 I2C_SCL_L
     /tmp/cc49tyeU.s:1763   .text.I2C_SCL_L:000000000000000c $d
     /tmp/cc49tyeU.s:1766   .text.pcf8583_getyear:0000000000000000 $t
     /tmp/cc49tyeU.s:1773   .text.pcf8583_getyear:0000000000000000 pcf8583_getyear
     /tmp/cc49tyeU.s:1797   .text.pcf8583_setyear:0000000000000000 $t
     /tmp/cc49tyeU.s:1804   .text.pcf8583_setyear:0000000000000000 pcf8583_setyear
     /tmp/cc49tyeU.s:1823   .text.pcf8583_set_datetime:0000000000000000 $t
     /tmp/cc49tyeU.s:1830   .text.pcf8583_set_datetime:0000000000000000 pcf8583_set_datetime
     /tmp/cc49tyeU.s:1902   .text.pcf8583_get_datetime:0000000000000000 $t
     /tmp/cc49tyeU.s:1909   .text.pcf8583_get_datetime:0000000000000000 pcf8583_get_datetime
     /tmp/cc49tyeU.s:1983   .text.pcf8583_read_reg:0000000000000000 $t
     /tmp/cc49tyeU.s:1990   .text.pcf8583_read_reg:0000000000000000 pcf8583_read_reg
     /tmp/cc49tyeU.s:2011   .text.pcf8583_en_dis_alarm:0000000000000000 $t
     /tmp/cc49tyeU.s:2018   .text.pcf8583_en_dis_alarm:0000000000000000 pcf8583_en_dis_alarm
     /tmp/cc49tyeU.s:2063   .text.pcf8583_set_alarm_weekdays:0000000000000000 $t
     /tmp/cc49tyeU.s:2070   .text.pcf8583_set_alarm_weekdays:0000000000000000 pcf8583_set_alarm_weekdays
     /tmp/cc49tyeU.s:2096   .text.pcf8583_set_alarm_time:0000000000000000 $t
     /tmp/cc49tyeU.s:2103   .text.pcf8583_set_alarm_time:0000000000000000 pcf8583_set_alarm_time
     /tmp/cc49tyeU.s:2130   .text.pcf8583_stop_alarm:0000000000000000 $t
     /tmp/cc49tyeU.s:2137   .text.pcf8583_stop_alarm:0000000000000000 pcf8583_stop_alarm
     /tmp/cc49tyeU.s:2157   .text.SystemClock_Config:0000000000000000 $t
     /tmp/cc49tyeU.s:2164   .text.SystemClock_Config:0000000000000000 SystemClock_Config
     /tmp/cc49tyeU.s:2246   .text.SystemClock_Config:00000000000000b8 $d
     /tmp/cc49tyeU.s:2254   .text.startup.main:0000000000000000 $t
     /tmp/cc49tyeU.s:2261   .text.startup.main:0000000000000000 main
     /tmp/cc49tyeU.s:2580   .text.startup.main:0000000000000348 $d
                            *COM*:0000000000000001 RTC_seconds
                            *COM*:0000000000000001 RTC_minutes
                            *COM*:0000000000000001 RTC_day
                            *COM*:0000000000000001 RTC_hours
                            *COM*:0000000000000001 RTC_month
                            *COM*:0000000000000001 RTC_year
                            *COM*:0000000000000001 RTC_dayofweek
                            *COM*:0000000000000004 s
                            *COM*:0000000000000001 RTC_century
                            *COM*:0000000000000001 RTC_leapyear
     /tmp/cc49tyeU.s:2598   .text.startup.main:000000000000038c $t
     /tmp/cc49tyeU.s:2692   .text.startup.main:000000000000047c $d
     /tmp/cc49tyeU.s:2695   .text._Error_Handler:0000000000000000 $t
     /tmp/cc49tyeU.s:2702   .text._Error_Handler:0000000000000000 _Error_Handler
                            *COM*:0000000000000001 RTC_alarm_status
                            *COM*:0000000000000001 RTC_alarm_type

UNDEFINED SYMBOLS
LL_mDelay
LL_GPIO_Init
LL_Init1msTick
LL_SetSystemCoreClock
LL_EXTI_Init
