ARM GAS  /tmp/cc1ImolX.s 			page 1


   1              		.cpu cortex-m3
   2              		.eabi_attribute 20, 1
   3              		.eabi_attribute 21, 1
   4              		.eabi_attribute 23, 3
   5              		.eabi_attribute 24, 1
   6              		.eabi_attribute 25, 1
   7              		.eabi_attribute 26, 1
   8              		.eabi_attribute 30, 4
   9              		.eabi_attribute 34, 1
  10              		.eabi_attribute 18, 4
  11              		.file	"stm32l1xx_ll_utils.c"
  12              		.section	.text.UTILS_SetFlashLatency.part.0,"ax",%progbits
  13              		.align	1
  14              		.syntax unified
  15              		.thumb
  16              		.thumb_func
  17              		.fpu softvfp
  19              	UTILS_SetFlashLatency.part.0:
  20              		@ args = 0, pretend = 0, frame = 0
  21              		@ frame_needed = 0, uses_anonymous_args = 0
  22              		@ link register save eliminated.
  23 0000 134A     		ldr	r2, .L12
  24 0002 1368     		ldr	r3, [r2]
  25 0004 03F4C053 		and	r3, r3, #6144
  26 0008 B3F5006F 		cmp	r3, #2048
  27 000c 17D1     		bne	.L2
  28 000e 114B     		ldr	r3, .L12+4
  29              	.L10:
  30 0010 9842     		cmp	r0, r3
  31 0012 8ABF     		itet	hi
  32 0014 104A     		ldrhi	r2, .L12+8
  33 0016 0023     		movls	r3, #0
  34 0018 1368     		ldrhi	r3, [r2]
  35 001a 0F49     		ldr	r1, .L12+8
  36 001c 82BF     		ittt	hi
  37 001e 43F00403 		orrhi	r3, r3, #4
  38 0022 1360     		strhi	r3, [r2]
  39 0024 0123     		movhi	r3, #1
  40 0026 0A68     		ldr	r2, [r1]
  41 0028 22F00102 		bic	r2, r2, #1
  42 002c 1A43     		orrs	r2, r2, r3
  43 002e 0A60     		str	r2, [r1]
  44 0030 0868     		ldr	r0, [r1]
  45 0032 00F00100 		and	r0, r0, #1
  46 0036 C31A     		subs	r3, r0, r3
  47 0038 5842     		rsbs	r0, r3, #0
  48 003a 5841     		adcs	r0, r0, r3
  49 003c 7047     		bx	lr
  50              	.L2:
  51 003e 1368     		ldr	r3, [r2]
  52 0040 03F4C053 		and	r3, r3, #6144
  53 0044 B3F5805F 		cmp	r3, #4096
  54 0048 0CBF     		ite	eq
  55 004a 044B     		ldreq	r3, .L12+12
  56 004c 044B     		ldrne	r3, .L12+16
  57 004e DFE7     		b	.L10
  58              	.L13:
ARM GAS  /tmp/cc1ImolX.s 			page 2


  59              		.align	2
  60              	.L12:
  61 0050 00700040 		.word	1073770496
  62 0054 0024F400 		.word	16000000
  63 0058 003C0240 		.word	1073888256
  64 005c 00127A00 		.word	8000000
  65 0060 80841E00 		.word	2000000
  67              		.section	.text.UTILS_EnablePLLAndSwitchSystem,"ax",%progbits
  68              		.align	1
  69              		.syntax unified
  70              		.thumb
  71              		.thumb_func
  72              		.fpu softvfp
  74              	UTILS_EnablePLLAndSwitchSystem:
  75              		@ args = 0, pretend = 0, frame = 0
  76              		@ frame_needed = 0, uses_anonymous_args = 0
  77 0000 0B68     		ldr	r3, [r1]
  78 0002 224A     		ldr	r2, .L30
  79 0004 70B5     		push	{r4, r5, r6, lr}
  80 0006 C3F30313 		ubfx	r3, r3, #4, #4
  81 000a 214D     		ldr	r5, .L30+4
  82 000c D45C     		ldrb	r4, [r2, r3]	@ zero_extendqisi2
  83 000e 2B68     		ldr	r3, [r5]
  84 0010 20FA04F4 		lsr	r4, r0, r4
  85 0014 9C42     		cmp	r4, r3
  86 0016 0E46     		mov	r6, r1
  87 0018 25D8     		bhi	.L15
  88              	.L18:
  89 001a 1E4B     		ldr	r3, .L30+8
  90 001c 1A68     		ldr	r2, [r3]
  91 001e 42F08072 		orr	r2, r2, #16777216
  92 0022 1A60     		str	r2, [r3]
  93              	.L16:
  94 0024 1A68     		ldr	r2, [r3]
  95 0026 9201     		lsls	r2, r2, #6
  96 0028 FCD5     		bpl	.L16
  97 002a 9A68     		ldr	r2, [r3, #8]
  98 002c 3168     		ldr	r1, [r6]
  99 002e 22F0F002 		bic	r2, r2, #240
 100 0032 0A43     		orrs	r2, r2, r1
 101 0034 9A60     		str	r2, [r3, #8]
 102 0036 9A68     		ldr	r2, [r3, #8]
 103 0038 42F00302 		orr	r2, r2, #3
 104 003c 9A60     		str	r2, [r3, #8]
 105 003e 154B     		ldr	r3, .L30+8
 106              	.L19:
 107 0040 9A68     		ldr	r2, [r3, #8]
 108 0042 02F00C02 		and	r2, r2, #12
 109 0046 0C2A     		cmp	r2, #12
 110 0048 FAD1     		bne	.L19
 111 004a 9A68     		ldr	r2, [r3, #8]
 112 004c 7168     		ldr	r1, [r6, #4]
 113 004e 22F4E062 		bic	r2, r2, #1792
 114 0052 0A43     		orrs	r2, r2, r1
 115 0054 9A60     		str	r2, [r3, #8]
 116 0056 9A68     		ldr	r2, [r3, #8]
 117 0058 B168     		ldr	r1, [r6, #8]
ARM GAS  /tmp/cc1ImolX.s 			page 3


 118 005a 22F46052 		bic	r2, r2, #14336
 119 005e 0A43     		orrs	r2, r2, r1
 120 0060 9A60     		str	r2, [r3, #8]
 121 0062 0120     		movs	r0, #1
 122 0064 05E0     		b	.L17
 123              	.L15:
 124 0066 2046     		mov	r0, r4
 125 0068 1CB1     		cbz	r4, .L17
 126 006a FFF7FEFF 		bl	UTILS_SetFlashLatency.part.0
 127 006e 0128     		cmp	r0, #1
 128 0070 D3D0     		beq	.L18
 129              	.L17:
 130 0072 2B68     		ldr	r3, [r5]
 131 0074 9C42     		cmp	r4, r3
 132 0076 03D2     		bcs	.L20
 133 0078 2046     		mov	r0, r4
 134 007a 2CB1     		cbz	r4, .L21
 135 007c FFF7FEFF 		bl	UTILS_SetFlashLatency.part.0
 136              	.L20:
 137 0080 0128     		cmp	r0, #1
 138 0082 01D1     		bne	.L21
 139 0084 2C60     		str	r4, [r5]
 140 0086 70BD     		pop	{r4, r5, r6, pc}
 141              	.L21:
 142 0088 70BD     		pop	{r4, r5, r6, pc}
 143              	.L31:
 144 008a 00BF     		.align	2
 145              	.L30:
 146 008c 00000000 		.word	AHBPrescTable
 147 0090 00000000 		.word	SystemCoreClock
 148 0094 00380240 		.word	1073887232
 150              		.section	.text.LL_Init1msTick,"ax",%progbits
 151              		.align	1
 152              		.global	LL_Init1msTick
 153              		.syntax unified
 154              		.thumb
 155              		.thumb_func
 156              		.fpu softvfp
 158              	LL_Init1msTick:
 159              		@ args = 0, pretend = 0, frame = 0
 160              		@ frame_needed = 0, uses_anonymous_args = 0
 161              		@ link register save eliminated.
 162 0000 4FF47A73 		mov	r3, #1000
 163 0004 B0FBF3F0 		udiv	r0, r0, r3
 164 0008 0022     		movs	r2, #0
 165 000a 034B     		ldr	r3, .L33
 166 000c 0138     		subs	r0, r0, #1
 167 000e 5860     		str	r0, [r3, #4]
 168 0010 9A60     		str	r2, [r3, #8]
 169 0012 0522     		movs	r2, #5
 170 0014 1A60     		str	r2, [r3]
 171 0016 7047     		bx	lr
 172              	.L34:
 173              		.align	2
 174              	.L33:
 175 0018 10E000E0 		.word	-536813552
 177              		.section	.text.LL_mDelay,"ax",%progbits
ARM GAS  /tmp/cc1ImolX.s 			page 4


 178              		.align	1
 179              		.global	LL_mDelay
 180              		.syntax unified
 181              		.thumb
 182              		.thumb_func
 183              		.fpu softvfp
 185              	LL_mDelay:
 186              		@ args = 0, pretend = 0, frame = 8
 187              		@ frame_needed = 0, uses_anonymous_args = 0
 188              		@ link register save eliminated.
 189 0000 084B     		ldr	r3, .L45
 190 0002 82B0     		sub	sp, sp, #8
 191 0004 1B68     		ldr	r3, [r3]
 192 0006 411C     		adds	r1, r0, #1
 193 0008 0193     		str	r3, [sp, #4]
 194 000a 019B     		ldr	r3, [sp, #4]
 195 000c 054B     		ldr	r3, .L45
 196 000e 18BF     		it	ne
 197 0010 0130     		addne	r0, r0, #1
 198              	.L38:
 199 0012 08B9     		cbnz	r0, .L39
 200 0014 02B0     		add	sp, sp, #8
 201              		@ sp needed
 202 0016 7047     		bx	lr
 203              	.L39:
 204 0018 1A68     		ldr	r2, [r3]
 205 001a D203     		lsls	r2, r2, #15
 206 001c 48BF     		it	mi
 207 001e 00F1FF30 		addmi	r0, r0, #-1
 208 0022 F6E7     		b	.L38
 209              	.L46:
 210              		.align	2
 211              	.L45:
 212 0024 10E000E0 		.word	-536813552
 214              		.section	.text.LL_SetSystemCoreClock,"ax",%progbits
 215              		.align	1
 216              		.global	LL_SetSystemCoreClock
 217              		.syntax unified
 218              		.thumb
 219              		.thumb_func
 220              		.fpu softvfp
 222              	LL_SetSystemCoreClock:
 223              		@ args = 0, pretend = 0, frame = 0
 224              		@ frame_needed = 0, uses_anonymous_args = 0
 225              		@ link register save eliminated.
 226 0000 014B     		ldr	r3, .L48
 227 0002 1860     		str	r0, [r3]
 228 0004 7047     		bx	lr
 229              	.L49:
 230 0006 00BF     		.align	2
 231              	.L48:
 232 0008 00000000 		.word	SystemCoreClock
 234              		.section	.text.LL_PLL_ConfigSystemClock_HSI,"ax",%progbits
 235              		.align	1
 236              		.global	LL_PLL_ConfigSystemClock_HSI
 237              		.syntax unified
 238              		.thumb
ARM GAS  /tmp/cc1ImolX.s 			page 5


 239              		.thumb_func
 240              		.fpu softvfp
 242              	LL_PLL_ConfigSystemClock_HSI:
 243              		@ args = 0, pretend = 0, frame = 0
 244              		@ frame_needed = 0, uses_anonymous_args = 0
 245              		@ link register save eliminated.
 246 0000 F0B4     		push	{r4, r5, r6, r7}
 247 0002 1A4C     		ldr	r4, .L60
 248 0004 2368     		ldr	r3, [r4]
 249 0006 9D01     		lsls	r5, r3, #6
 250 0008 2CD4     		bmi	.L57
 251 000a 0568     		ldr	r5, [r0]
 252 000c 4FF47013 		mov	r3, #3932160
 253              		.syntax unified
 254              	@ 531 "Drivers/CMSIS/Include/cmsis_gcc.h" 1
 255 0010 93FAA3F3 		rbit r3, r3
 256              	@ 0 "" 2
 257              		.thumb
 258              		.syntax unified
 259 0014 B3FA83F3 		clz	r3, r3
 260 0018 154A     		ldr	r2, .L60+4
 261 001a 25FA03F3 		lsr	r3, r5, r3
 262 001e D75C     		ldrb	r7, [r2, r3]	@ zero_extendqisi2
 263 0020 4668     		ldr	r6, [r0, #4]
 264 0022 4FF44002 		mov	r2, #12582912
 265              		.syntax unified
 266              	@ 531 "Drivers/CMSIS/Include/cmsis_gcc.h" 1
 267 0026 92FAA2F2 		rbit r2, r2
 268              	@ 0 "" 2
 269              		.thumb
 270              		.syntax unified
 271 002a 2368     		ldr	r3, [r4]
 272 002c B2FA82F2 		clz	r2, r2
 273 0030 9B07     		lsls	r3, r3, #30
 274 0032 06D4     		bmi	.L55
 275 0034 2368     		ldr	r3, [r4]
 276 0036 43F00103 		orr	r3, r3, #1
 277 003a 2360     		str	r3, [r4]
 278              	.L53:
 279 003c 2368     		ldr	r3, [r4]
 280 003e 9807     		lsls	r0, r3, #30
 281 0040 FCD5     		bpl	.L53
 282              	.L55:
 283 0042 0A48     		ldr	r0, .L60
 284 0044 3543     		orrs	r5, r5, r6
 285 0046 8368     		ldr	r3, [r0, #8]
 286 0048 26FA02F2 		lsr	r2, r6, r2
 287 004c 23F47D03 		bic	r3, r3, #16580608
 288 0050 2B43     		orrs	r3, r3, r5
 289 0052 8360     		str	r3, [r0, #8]
 290 0054 0748     		ldr	r0, .L60+8
 291 0056 0132     		adds	r2, r2, #1
 292 0058 7843     		muls	r0, r7, r0
 293 005a F0BC     		pop	{r4, r5, r6, r7}
 294 005c B0FBF2F0 		udiv	r0, r0, r2
 295 0060 FFF7FEBF 		b	UTILS_EnablePLLAndSwitchSystem
 296              	.L57:
ARM GAS  /tmp/cc1ImolX.s 			page 6


 297 0064 0020     		movs	r0, #0
 298 0066 F0BC     		pop	{r4, r5, r6, r7}
 299 0068 7047     		bx	lr
 300              	.L61:
 301 006a 00BF     		.align	2
 302              	.L60:
 303 006c 00380240 		.word	1073887232
 304 0070 00000000 		.word	PLLMulTable
 305 0074 0024F400 		.word	16000000
 307              		.section	.text.LL_PLL_ConfigSystemClock_HSE,"ax",%progbits
 308              		.align	1
 309              		.global	LL_PLL_ConfigSystemClock_HSE
 310              		.syntax unified
 311              		.thumb
 312              		.thumb_func
 313              		.fpu softvfp
 315              	LL_PLL_ConfigSystemClock_HSE:
 316              		@ args = 0, pretend = 0, frame = 0
 317              		@ frame_needed = 0, uses_anonymous_args = 0
 318 0000 F0B5     		push	{r4, r5, r6, r7, lr}
 319 0002 214E     		ldr	r6, .L75
 320 0004 3468     		ldr	r4, [r6]
 321 0006 A701     		lsls	r7, r4, #6
 322 0008 3CD4     		bmi	.L71
 323 000a 1768     		ldr	r7, [r2]
 324 000c 4FF47015 		mov	r5, #3932160
 325              		.syntax unified
 326              	@ 531 "Drivers/CMSIS/Include/cmsis_gcc.h" 1
 327 0010 95FAA5F5 		rbit r5, r5
 328              	@ 0 "" 2
 329              		.thumb
 330              		.syntax unified
 331 0014 B5FA85F5 		clz	r5, r5
 332 0018 1C4C     		ldr	r4, .L75+4
 333 001a 27FA05F5 		lsr	r5, r7, r5
 334 001e D2F804C0 		ldr	ip, [r2, #4]
 335 0022 14F805E0 		ldrb	lr, [r4, r5]	@ zero_extendqisi2
 336 0026 4FF44002 		mov	r2, #12582912
 337              		.syntax unified
 338              	@ 531 "Drivers/CMSIS/Include/cmsis_gcc.h" 1
 339 002a 92FAA2F2 		rbit r2, r2
 340              	@ 0 "" 2
 341              		.thumb
 342              		.syntax unified
 343 002e 3468     		ldr	r4, [r6]
 344 0030 B2FA82F2 		clz	r2, r2
 345 0034 A403     		lsls	r4, r4, #14
 346 0036 0FD4     		bmi	.L69
 347 0038 0129     		cmp	r1, #1
 348 003a 3168     		ldr	r1, [r6]
 349 003c 124D     		ldr	r5, .L75
 350 003e 0CBF     		ite	eq
 351 0040 41F48021 		orreq	r1, r1, #262144
 352 0044 21F48021 		bicne	r1, r1, #262144
 353 0048 3160     		str	r1, [r6]
 354 004a 2968     		ldr	r1, [r5]
 355 004c 41F48031 		orr	r1, r1, #65536
ARM GAS  /tmp/cc1ImolX.s 			page 7


 356 0050 2960     		str	r1, [r5]
 357              	.L67:
 358 0052 2968     		ldr	r1, [r5]
 359 0054 8E03     		lsls	r6, r1, #14
 360 0056 FCD5     		bpl	.L67
 361              	.L69:
 362 0058 0B49     		ldr	r1, .L75
 363 005a 00FB0EF0 		mul	r0, r0, lr
 364 005e 8C68     		ldr	r4, [r1, #8]
 365 0060 2CFA02F2 		lsr	r2, ip, r2
 366 0064 24F47D04 		bic	r4, r4, #16580608
 367 0068 44F48034 		orr	r4, r4, #65536
 368 006c 3C43     		orrs	r4, r4, r7
 369 006e 44EA0C04 		orr	r4, r4, ip
 370 0072 0132     		adds	r2, r2, #1
 371 0074 8C60     		str	r4, [r1, #8]
 372 0076 B0FBF2F0 		udiv	r0, r0, r2
 373 007a BDE8F040 		pop	{r4, r5, r6, r7, lr}
 374 007e 1946     		mov	r1, r3
 375 0080 FFF7FEBF 		b	UTILS_EnablePLLAndSwitchSystem
 376              	.L71:
 377 0084 0020     		movs	r0, #0
 378 0086 F0BD     		pop	{r4, r5, r6, r7, pc}
 379              	.L76:
 380              		.align	2
 381              	.L75:
 382 0088 00380240 		.word	1073887232
 383 008c 00000000 		.word	PLLMulTable
 385              		.ident	"GCC: (GNU Tools for ARM Embedded Processors 6-2017-q2-update) 6.3.1 20170620 (release) [AR
ARM GAS  /tmp/cc1ImolX.s 			page 8


DEFINED SYMBOLS
                            *ABS*:0000000000000000 stm32l1xx_ll_utils.c
     /tmp/cc1ImolX.s:13     .text.UTILS_SetFlashLatency.part.0:0000000000000000 $t
     /tmp/cc1ImolX.s:19     .text.UTILS_SetFlashLatency.part.0:0000000000000000 UTILS_SetFlashLatency.part.0
     /tmp/cc1ImolX.s:61     .text.UTILS_SetFlashLatency.part.0:0000000000000050 $d
     /tmp/cc1ImolX.s:68     .text.UTILS_EnablePLLAndSwitchSystem:0000000000000000 $t
     /tmp/cc1ImolX.s:74     .text.UTILS_EnablePLLAndSwitchSystem:0000000000000000 UTILS_EnablePLLAndSwitchSystem
     /tmp/cc1ImolX.s:146    .text.UTILS_EnablePLLAndSwitchSystem:000000000000008c $d
     /tmp/cc1ImolX.s:151    .text.LL_Init1msTick:0000000000000000 $t
     /tmp/cc1ImolX.s:158    .text.LL_Init1msTick:0000000000000000 LL_Init1msTick
     /tmp/cc1ImolX.s:175    .text.LL_Init1msTick:0000000000000018 $d
     /tmp/cc1ImolX.s:178    .text.LL_mDelay:0000000000000000 $t
     /tmp/cc1ImolX.s:185    .text.LL_mDelay:0000000000000000 LL_mDelay
     /tmp/cc1ImolX.s:212    .text.LL_mDelay:0000000000000024 $d
     /tmp/cc1ImolX.s:215    .text.LL_SetSystemCoreClock:0000000000000000 $t
     /tmp/cc1ImolX.s:222    .text.LL_SetSystemCoreClock:0000000000000000 LL_SetSystemCoreClock
     /tmp/cc1ImolX.s:232    .text.LL_SetSystemCoreClock:0000000000000008 $d
     /tmp/cc1ImolX.s:235    .text.LL_PLL_ConfigSystemClock_HSI:0000000000000000 $t
     /tmp/cc1ImolX.s:242    .text.LL_PLL_ConfigSystemClock_HSI:0000000000000000 LL_PLL_ConfigSystemClock_HSI
     /tmp/cc1ImolX.s:303    .text.LL_PLL_ConfigSystemClock_HSI:000000000000006c $d
     /tmp/cc1ImolX.s:308    .text.LL_PLL_ConfigSystemClock_HSE:0000000000000000 $t
     /tmp/cc1ImolX.s:315    .text.LL_PLL_ConfigSystemClock_HSE:0000000000000000 LL_PLL_ConfigSystemClock_HSE
     /tmp/cc1ImolX.s:382    .text.LL_PLL_ConfigSystemClock_HSE:0000000000000088 $d

UNDEFINED SYMBOLS
AHBPrescTable
SystemCoreClock
PLLMulTable
