Archive member included to satisfy reference by file (symbol)

/home/me/gcc-arm-none-eabi-7-2018-q2-update/bin/../lib/gcc/arm-none-eabi/7.3.1/../../../../arm-none-eabi/lib/thumb/v7-m/libc_nano.a(lib_a-exit.o)
                              /home/me/gcc-arm-none-eabi-7-2018-q2-update/bin/../lib/gcc/arm-none-eabi/7.3.1/../../../../arm-none-eabi/lib/thumb/v7-m/crt0.o (exit)
/home/me/gcc-arm-none-eabi-7-2018-q2-update/bin/../lib/gcc/arm-none-eabi/7.3.1/../../../../arm-none-eabi/lib/thumb/v7-m/libc_nano.a(lib_a-impure.o)
                              /home/me/gcc-arm-none-eabi-7-2018-q2-update/bin/../lib/gcc/arm-none-eabi/7.3.1/../../../../arm-none-eabi/lib/thumb/v7-m/libc_nano.a(lib_a-exit.o) (_global_impure_ptr)
/home/me/gcc-arm-none-eabi-7-2018-q2-update/bin/../lib/gcc/arm-none-eabi/7.3.1/../../../../arm-none-eabi/lib/thumb/v7-m/libc_nano.a(lib_a-init.o)
                              /home/me/gcc-arm-none-eabi-7-2018-q2-update/bin/../lib/gcc/arm-none-eabi/7.3.1/../../../../arm-none-eabi/lib/thumb/v7-m/crt0.o (__libc_init_array)
/home/me/gcc-arm-none-eabi-7-2018-q2-update/bin/../lib/gcc/arm-none-eabi/7.3.1/../../../../arm-none-eabi/lib/thumb/v7-m/libc_nano.a(lib_a-memset.o)
                              /home/me/gcc-arm-none-eabi-7-2018-q2-update/bin/../lib/gcc/arm-none-eabi/7.3.1/../../../../arm-none-eabi/lib/thumb/v7-m/crt0.o (memset)
/home/me/gcc-arm-none-eabi-7-2018-q2-update/bin/../lib/gcc/arm-none-eabi/7.3.1/../../../../arm-none-eabi/lib/thumb/v7-m/libnosys.a(_exit.o)
                              /home/me/gcc-arm-none-eabi-7-2018-q2-update/bin/../lib/gcc/arm-none-eabi/7.3.1/../../../../arm-none-eabi/lib/thumb/v7-m/libc_nano.a(lib_a-exit.o) (_exit)

Allocating common symbols
Common symbol       size              file

ds18b20_scratchpad  0x9               build/main.o
ds18b20_formated_temp
                    0x7               build/main.o
LCD_POS             0x1               build/main.o

Discarded input sections

 .text          0x0000000000000000        0x0 /home/me/gcc-arm-none-eabi-7-2018-q2-update/bin/../lib/gcc/arm-none-eabi/7.3.1/thumb/v7-m/crti.o
 .data          0x0000000000000000        0x0 /home/me/gcc-arm-none-eabi-7-2018-q2-update/bin/../lib/gcc/arm-none-eabi/7.3.1/thumb/v7-m/crti.o
 .bss           0x0000000000000000        0x0 /home/me/gcc-arm-none-eabi-7-2018-q2-update/bin/../lib/gcc/arm-none-eabi/7.3.1/thumb/v7-m/crti.o
 .data          0x0000000000000000        0x4 /home/me/gcc-arm-none-eabi-7-2018-q2-update/bin/../lib/gcc/arm-none-eabi/7.3.1/thumb/v7-m/crtbegin.o
 .text          0x0000000000000000       0x74 /home/me/gcc-arm-none-eabi-7-2018-q2-update/bin/../lib/gcc/arm-none-eabi/7.3.1/../../../../arm-none-eabi/lib/thumb/v7-m/crt0.o
 .data          0x0000000000000000        0x0 /home/me/gcc-arm-none-eabi-7-2018-q2-update/bin/../lib/gcc/arm-none-eabi/7.3.1/../../../../arm-none-eabi/lib/thumb/v7-m/crt0.o
 .bss           0x0000000000000000        0x0 /home/me/gcc-arm-none-eabi-7-2018-q2-update/bin/../lib/gcc/arm-none-eabi/7.3.1/../../../../arm-none-eabi/lib/thumb/v7-m/crt0.o
 .ARM.extab     0x0000000000000000        0x0 /home/me/gcc-arm-none-eabi-7-2018-q2-update/bin/../lib/gcc/arm-none-eabi/7.3.1/../../../../arm-none-eabi/lib/thumb/v7-m/crt0.o
 .ARM.exidx     0x0000000000000000        0x8 /home/me/gcc-arm-none-eabi-7-2018-q2-update/bin/../lib/gcc/arm-none-eabi/7.3.1/../../../../arm-none-eabi/lib/thumb/v7-m/crt0.o
 .ARM.attributes
                0x0000000000000000       0x1b /home/me/gcc-arm-none-eabi-7-2018-q2-update/bin/../lib/gcc/arm-none-eabi/7.3.1/../../../../arm-none-eabi/lib/thumb/v7-m/crt0.o
 .text          0x0000000000000000        0x0 build/stm32l1xx_ll_gpio.o
 .data          0x0000000000000000        0x0 build/stm32l1xx_ll_gpio.o
 .bss           0x0000000000000000        0x0 build/stm32l1xx_ll_gpio.o
 .text.LL_AHB1_GRP1_ForceReset
                0x0000000000000000       0x10 build/stm32l1xx_ll_gpio.o
 .text.LL_AHB1_GRP1_ReleaseReset
                0x0000000000000000       0x10 build/stm32l1xx_ll_gpio.o
Memory Configuration

Name             Origin             Length             Attributes
RAM              0x0000000020000000 0x0000000000014000 xrw
FLASH            0x0000000008000000 0x0000000000080000 xr
*default*        0x0000000000000000 0xffffffffffffffff

Linker script and memory map

LOAD /home/me/gcc-arm-none-eabi-7-2018-q2-update/bin/../lib/gcc/arm-none-eabi/7.3.1/thumb/v7-m/crti.o
LOAD /home/me/gcc-arm-none-eabi-7-2018-q2-update/bin/../lib/gcc/arm-none-eabi/7.3.1/thumb/v7-m/crtbegin.o
LOAD /home/me/gcc-arm-none-eabi-7-2018-q2-update/bin/../lib/gcc/arm-none-eabi/7.3.1/../../../../arm-none-eabi/lib/thumb/v7-m/crt0.o
LOAD build/stm32l1xx_ll_gpio.o
LOAD build/main.o
LOAD build/stm32l1xx_ll_pwr.o
LOAD build/stm32l1xx_ll_utils.o
LOAD build/system_stm32l1xx.o
LOAD build/stm32l1xx_it.o
LOAD build/stm32l1xx_ll_exti.o
LOAD build/startup_stm32l152xe.o
LOAD /home/me/gcc-arm-none-eabi-7-2018-q2-update/bin/../lib/gcc/arm-none-eabi/7.3.1/../../../../arm-none-eabi/lib/thumb/v7-m/libc_nano.a
LOAD /home/me/gcc-arm-none-eabi-7-2018-q2-update/bin/../lib/gcc/arm-none-eabi/7.3.1/../../../../arm-none-eabi/lib/thumb/v7-m/libm.a
LOAD /home/me/gcc-arm-none-eabi-7-2018-q2-update/bin/../lib/gcc/arm-none-eabi/7.3.1/../../../../arm-none-eabi/lib/thumb/v7-m/libnosys.a
START GROUP
LOAD /home/me/gcc-arm-none-eabi-7-2018-q2-update/bin/../lib/gcc/arm-none-eabi/7.3.1/thumb/v7-m/libgcc.a
LOAD /home/me/gcc-arm-none-eabi-7-2018-q2-update/bin/../lib/gcc/arm-none-eabi/7.3.1/../../../../arm-none-eabi/lib/thumb/v7-m/libc_nano.a
END GROUP
START GROUP
LOAD /home/me/gcc-arm-none-eabi-7-2018-q2-update/bin/../lib/gcc/arm-none-eabi/7.3.1/thumb/v7-m/libgcc.a
LOAD /home/me/gcc-arm-none-eabi-7-2018-q2-update/bin/../lib/gcc/arm-none-eabi/7.3.1/../../../../arm-none-eabi/lib/thumb/v7-m/libc_nano.a
END GROUP
LOAD /home/me/gcc-arm-none-eabi-7-2018-q2-update/bin/../lib/gcc/arm-none-eabi/7.3.1/thumb/v7-m/crtend.o
LOAD /home/me/gcc-arm-none-eabi-7-2018-q2-update/bin/../lib/gcc/arm-none-eabi/7.3.1/thumb/v7-m/crtn.o
                0x0000000020014000                _estack = 0x20014000
                0x0000000000000200                _Min_Heap_Size = 0x200
                0x0000000000000400                _Min_Stack_Size = 0x400

.isr_vector     0x0000000008000000      0x13c
                0x0000000008000000                . = ALIGN (0x4)
 *(.isr_vector)
 .isr_vector    0x0000000008000000      0x13c build/startup_stm32l152xe.o
                0x0000000008000000                g_pfnVectors
                0x000000000800013c                . = ALIGN (0x4)

.text           0x000000000800013c      0xe8c
                0x000000000800013c                . = ALIGN (0x4)
 *(.text)
 .text          0x000000000800013c       0x40 /home/me/gcc-arm-none-eabi-7-2018-q2-update/bin/../lib/gcc/arm-none-eabi/7.3.1/thumb/v7-m/crtbegin.o
 *(.text*)
 .text.LL_GPIO_Init
                0x000000000800017c      0x146 build/stm32l1xx_ll_gpio.o
                0x000000000800017c                LL_GPIO_Init
 *fill*         0x00000000080002c2        0x2 
 .text.NVIC_GetPriorityGrouping
                0x00000000080002c4       0x10 build/main.o
 .text.LL_AHB1_GRP1_EnableClock
                0x00000000080002d4       0x1c build/main.o
 .text.ow_bus_direction.part.1
                0x00000000080002f0       0x28 build/main.o
 .text.NVIC_EncodePriority.constprop.12
                0x0000000008000318        0x4 build/main.o
 .text.word2dec
                0x000000000800031c      0x106 build/main.o
                0x000000000800031c                word2dec
 .text.my_delay_us
                0x0000000008000422        0xc build/main.o
                0x0000000008000422                my_delay_us
 *fill*         0x000000000800042e        0x2 
 .text.ow_bus_rd
                0x0000000008000430       0x10 build/main.o
                0x0000000008000430                ow_bus_rd
 .text.ow_bus_direction
                0x0000000008000440       0x28 build/main.o
                0x0000000008000440                ow_bus_direction
 .text.ow_reset
                0x0000000008000468       0x40 build/main.o
                0x0000000008000468                ow_reset
 .text.ow_bit_wr
                0x00000000080004a8       0x4c build/main.o
                0x00000000080004a8                ow_bit_wr
 .text.ow_bit_rd
                0x00000000080004f4       0x38 build/main.o
                0x00000000080004f4                ow_bit_rd
 .text.ow_byte_wr
                0x000000000800052c       0x34 build/main.o
                0x000000000800052c                ow_byte_wr
 .text.ow_byte_rd
                0x0000000008000560       0x1c build/main.o
                0x0000000008000560                ow_byte_rd
 .text.__lcd_write_nibble
                0x000000000800057c       0x50 build/main.o
                0x000000000800057c                __lcd_write_nibble
 .text.__lcd_write
                0x00000000080005cc       0x1a build/main.o
                0x00000000080005cc                __lcd_write
 *fill*         0x00000000080005e6        0x2 
 .text._lcd_write_data
                0x00000000080005e8       0x10 build/main.o
                0x00000000080005e8                _lcd_write_data
 .text._lcd_write_command
                0x00000000080005f8       0x10 build/main.o
                0x00000000080005f8                _lcd_write_command
 .text._lcd_line2index
                0x0000000008000608        0xa build/main.o
                0x0000000008000608                _lcd_line2index
 *fill*         0x0000000008000612        0x2 
 .text._lcd_restore_cursor
                0x0000000008000614       0x10 build/main.o
                0x0000000008000614                _lcd_restore_cursor
 .text.lcd_write_str
                0x0000000008000624       0x12 build/main.o
                0x0000000008000624                lcd_write_str
 *fill*         0x0000000008000636        0x2 
 .text.lcd_cursor_position
                0x0000000008000638       0x18 build/main.o
                0x0000000008000638                lcd_cursor_position
 .text.lcd_clear_screen
                0x0000000008000650       0x1a build/main.o
                0x0000000008000650                lcd_clear_screen
 *fill*         0x000000000800066a        0x2 
 .text.lcd_init
                0x000000000800066c      0x118 build/main.o
                0x000000000800066c                lcd_init
 .text._ds18b20_match_rom
                0x0000000008000784       0x42 build/main.o
                0x0000000008000784                _ds18b20_match_rom
 .text._ds18b20_skip_rom
                0x00000000080007c6       0x10 build/main.o
                0x00000000080007c6                _ds18b20_skip_rom
 *fill*         0x00000000080007d6        0x2 
 .text._ds18b20_read
                0x00000000080007d8       0x8c build/main.o
                0x00000000080007d8                _ds18b20_read
 .text.ds18b20_set
                0x0000000008000864       0x3a build/main.o
                0x0000000008000864                ds18b20_set
 .text.ds18b20_convert
                0x000000000800089e       0x10 build/main.o
                0x000000000800089e                ds18b20_convert
 *fill*         0x00000000080008ae        0x2 
 .text.ds18b20_m_temp
                0x00000000080008b0       0x74 build/main.o
                0x00000000080008b0                ds18b20_m_temp
 .text.ds18b20_temp_format
                0x0000000008000924       0x48 build/main.o
                0x0000000008000924                ds18b20_temp_format
 .text.ds18b20_error
                0x000000000800096c       0x90 build/main.o
                0x000000000800096c                ds18b20_error
 .text.SystemClock_Config
                0x00000000080009fc       0xd0 build/main.o
                0x00000000080009fc                SystemClock_Config
 .text.startup.main
                0x0000000008000acc      0x308 build/main.o
                0x0000000008000acc                main
 .text.LL_Init1msTick
                0x0000000008000dd4       0x1c build/stm32l1xx_ll_utils.o
                0x0000000008000dd4                LL_Init1msTick
 .text.LL_mDelay
                0x0000000008000df0       0x28 build/stm32l1xx_ll_utils.o
                0x0000000008000df0                LL_mDelay
 .text.LL_SetSystemCoreClock
                0x0000000008000e18        0xc build/stm32l1xx_ll_utils.o
                0x0000000008000e18                LL_SetSystemCoreClock
 .text.SystemInit
                0x0000000008000e24       0x48 build/system_stm32l1xx.o
                0x0000000008000e24                SystemInit
 .text.SysTick_Handler
                0x0000000008000e6c        0x2 build/stm32l1xx_it.o
                0x0000000008000e6c                SysTick_Handler
 *fill*         0x0000000008000e6e        0x2 
 .text.LL_EXTI_Init
                0x0000000008000e70       0xac build/stm32l1xx_ll_exti.o
                0x0000000008000e70                LL_EXTI_Init
 .text.Reset_Handler
                0x0000000008000f1c       0x48 build/startup_stm32l152xe.o
                0x0000000008000f1c                Reset_Handler
 .text.Default_Handler
                0x0000000008000f64        0x2 build/startup_stm32l152xe.o
                0x0000000008000f64                RTC_Alarm_IRQHandler
                0x0000000008000f64                EXTI2_IRQHandler
                0x0000000008000f64                COMP_ACQ_IRQHandler
                0x0000000008000f64                DebugMon_Handler
                0x0000000008000f64                HardFault_Handler
                0x0000000008000f64                TIM10_IRQHandler
                0x0000000008000f64                USB_HP_IRQHandler
                0x0000000008000f64                TIM6_IRQHandler
                0x0000000008000f64                PVD_IRQHandler
                0x0000000008000f64                PendSV_Handler
                0x0000000008000f64                NMI_Handler
                0x0000000008000f64                EXTI3_IRQHandler
                0x0000000008000f64                EXTI0_IRQHandler
                0x0000000008000f64                I2C2_EV_IRQHandler
                0x0000000008000f64                UsageFault_Handler
                0x0000000008000f64                SPI1_IRQHandler
                0x0000000008000f64                USB_FS_WKUP_IRQHandler
                0x0000000008000f64                DMA2_Channel2_IRQHandler
                0x0000000008000f64                DMA1_Channel4_IRQHandler
                0x0000000008000f64                ADC1_IRQHandler
                0x0000000008000f64                USART3_IRQHandler
                0x0000000008000f64                DMA1_Channel7_IRQHandler
                0x0000000008000f64                LCD_IRQHandler
                0x0000000008000f64                UART5_IRQHandler
                0x0000000008000f64                TIM4_IRQHandler
                0x0000000008000f64                DMA2_Channel1_IRQHandler
                0x0000000008000f64                I2C1_EV_IRQHandler
                0x0000000008000f64                DMA1_Channel6_IRQHandler
                0x0000000008000f64                UART4_IRQHandler
                0x0000000008000f64                DMA2_Channel4_IRQHandler
                0x0000000008000f64                TIM3_IRQHandler
                0x0000000008000f64                RCC_IRQHandler
                0x0000000008000f64                DMA1_Channel1_IRQHandler
                0x0000000008000f64                Default_Handler
                0x0000000008000f64                EXTI15_10_IRQHandler
                0x0000000008000f64                TIM7_IRQHandler
                0x0000000008000f64                TIM5_IRQHandler
                0x0000000008000f64                EXTI9_5_IRQHandler
                0x0000000008000f64                TIM9_IRQHandler
                0x0000000008000f64                TAMPER_STAMP_IRQHandler
                0x0000000008000f64                RTC_WKUP_IRQHandler
                0x0000000008000f64                SPI2_IRQHandler
                0x0000000008000f64                MemManage_Handler
                0x0000000008000f64                SVC_Handler
                0x0000000008000f64                DMA2_Channel5_IRQHandler
                0x0000000008000f64                DMA1_Channel5_IRQHandler
                0x0000000008000f64                USB_LP_IRQHandler
                0x0000000008000f64                EXTI4_IRQHandler
                0x0000000008000f64                DMA1_Channel3_IRQHandler
                0x0000000008000f64                COMP_IRQHandler
                0x0000000008000f64                WWDG_IRQHandler
                0x0000000008000f64                TIM2_IRQHandler
                0x0000000008000f64                DAC_IRQHandler
                0x0000000008000f64                EXTI1_IRQHandler
                0x0000000008000f64                TIM11_IRQHandler
                0x0000000008000f64                USART2_IRQHandler
                0x0000000008000f64                I2C2_ER_IRQHandler
                0x0000000008000f64                DMA1_Channel2_IRQHandler
                0x0000000008000f64                FLASH_IRQHandler
                0x0000000008000f64                BusFault_Handler
                0x0000000008000f64                USART1_IRQHandler
                0x0000000008000f64                SPI3_IRQHandler
                0x0000000008000f64                I2C1_ER_IRQHandler
                0x0000000008000f64                DMA2_Channel3_IRQHandler
 *fill*         0x0000000008000f66        0x2 
 .text.__libc_init_array
                0x0000000008000f68       0x48 /home/me/gcc-arm-none-eabi-7-2018-q2-update/bin/../lib/gcc/arm-none-eabi/7.3.1/../../../../arm-none-eabi/lib/thumb/v7-m/libc_nano.a(lib_a-init.o)
                0x0000000008000f68                __libc_init_array
 *(.glue_7)
 .glue_7        0x0000000008000fb0        0x0 linker stubs
 *(.glue_7t)
 .glue_7t       0x0000000008000fb0        0x0 linker stubs
 *(.eh_frame)
 .eh_frame      0x0000000008000fb0        0x0 /home/me/gcc-arm-none-eabi-7-2018-q2-update/bin/../lib/gcc/arm-none-eabi/7.3.1/thumb/v7-m/crtbegin.o
 *(.init)
 .init          0x0000000008000fb0        0x4 /home/me/gcc-arm-none-eabi-7-2018-q2-update/bin/../lib/gcc/arm-none-eabi/7.3.1/thumb/v7-m/crti.o
                0x0000000008000fb0                _init
 .init          0x0000000008000fb4        0x8 /home/me/gcc-arm-none-eabi-7-2018-q2-update/bin/../lib/gcc/arm-none-eabi/7.3.1/thumb/v7-m/crtn.o
 *(.fini)
 .fini          0x0000000008000fbc        0x4 /home/me/gcc-arm-none-eabi-7-2018-q2-update/bin/../lib/gcc/arm-none-eabi/7.3.1/thumb/v7-m/crti.o
                0x0000000008000fbc                _fini
 .fini          0x0000000008000fc0        0x8 /home/me/gcc-arm-none-eabi-7-2018-q2-update/bin/../lib/gcc/arm-none-eabi/7.3.1/thumb/v7-m/crtn.o
                0x0000000008000fc8                . = ALIGN (0x4)
                0x0000000008000fc8                _etext = .

.vfp11_veneer   0x0000000008000fc8        0x0
 .vfp11_veneer  0x0000000008000fc8        0x0 linker stubs

.v4_bx          0x0000000008000fc8        0x0
 .v4_bx         0x0000000008000fc8        0x0 linker stubs

.iplt           0x0000000008000fc8        0x0
 .iplt          0x0000000008000fc8        0x0 /home/me/gcc-arm-none-eabi-7-2018-q2-update/bin/../lib/gcc/arm-none-eabi/7.3.1/thumb/v7-m/crtbegin.o

.rodata         0x0000000008000fc8       0x40
                0x0000000008000fc8                . = ALIGN (0x4)
 *(.rodata)
 *(.rodata*)
 .rodata.ds_all
                0x0000000008000fc8        0x6 build/main.o
                0x0000000008000fc8                ds_all
 .rodata.ds_err1
                0x0000000008000fce        0xc build/main.o
                0x0000000008000fce                ds_err1
 .rodata.ds_err2
                0x0000000008000fda        0xc build/main.o
                0x0000000008000fda                ds_err2
 .rodata.ds_t1  0x0000000008000fe6        0x6 build/main.o
                0x0000000008000fe6                ds_t1
 .rodata.ds_t1_id
                0x0000000008000fec        0x8 build/main.o
                0x0000000008000fec                ds_t1_id
 .rodata.ds_t2  0x0000000008000ff4        0x6 build/main.o
                0x0000000008000ff4                ds_t2
 .rodata.ds_t2_id
                0x0000000008000ffa        0x8 build/main.o
                0x0000000008000ffa                ds_t2_id
 .rodata.ds_temp1
                0x0000000008001002        0x3 build/main.o
                0x0000000008001002                ds_temp1
 .rodata.ds_temp2
                0x0000000008001005        0x3 build/main.o
                0x0000000008001005                ds_temp2
                0x0000000008001008                . = ALIGN (0x4)

.rel.dyn        0x0000000008001008        0x0
 .rel.iplt      0x0000000008001008        0x0 /home/me/gcc-arm-none-eabi-7-2018-q2-update/bin/../lib/gcc/arm-none-eabi/7.3.1/thumb/v7-m/crtbegin.o

.ARM.extab
 *(.ARM.extab* .gnu.linkonce.armextab.*)

.ARM            0x0000000008001008        0x0
                0x0000000008001008                __exidx_start = .
 *(.ARM.exidx*)
                0x0000000008001008                __exidx_end = .

.preinit_array  0x0000000008001008        0x0
                0x0000000008001008                PROVIDE (__preinit_array_start = .)
 *(.preinit_array*)
                0x0000000008001008                PROVIDE (__preinit_array_end = .)

.init_array     0x0000000008001008        0x4
                0x0000000008001008                PROVIDE (__init_array_start = .)
 *(SORT_BY_NAME(.init_array.*))
 *(.init_array*)
 .init_array    0x0000000008001008        0x4 /home/me/gcc-arm-none-eabi-7-2018-q2-update/bin/../lib/gcc/arm-none-eabi/7.3.1/thumb/v7-m/crtbegin.o
                0x000000000800100c                PROVIDE (__init_array_end = .)

.fini_array     0x000000000800100c        0x4
                [!provide]                        PROVIDE (__fini_array_start = .)
 *(SORT_BY_NAME(.fini_array.*))
 *(.fini_array*)
 .fini_array    0x000000000800100c        0x4 /home/me/gcc-arm-none-eabi-7-2018-q2-update/bin/../lib/gcc/arm-none-eabi/7.3.1/thumb/v7-m/crtbegin.o
                [!provide]                        PROVIDE (__fini_array_end = .)
                0x0000000008001010                _sidata = LOADADDR (.data)

.data           0x0000000020000000        0x4 load address 0x0000000008001010
                0x0000000020000000                . = ALIGN (0x4)
                0x0000000020000000                _sdata = .
 *(.data)
 *(.data*)
 .data.SystemCoreClock
                0x0000000020000000        0x4 build/system_stm32l1xx.o
                0x0000000020000000                SystemCoreClock
                0x0000000020000004                . = ALIGN (0x4)
                0x0000000020000004                _edata = .

.igot.plt       0x0000000020000004        0x0 load address 0x0000000008001014
 .igot.plt      0x0000000020000004        0x0 /home/me/gcc-arm-none-eabi-7-2018-q2-update/bin/../lib/gcc/arm-none-eabi/7.3.1/thumb/v7-m/crtbegin.o
                0x0000000020000004                . = ALIGN (0x4)

.bss            0x0000000020000004       0x30 load address 0x0000000008001014
                0x0000000020000004                _sbss = .
                0x0000000020000004                __bss_start__ = _sbss
 *(.bss)
 .bss           0x0000000020000004       0x1c /home/me/gcc-arm-none-eabi-7-2018-q2-update/bin/../lib/gcc/arm-none-eabi/7.3.1/thumb/v7-m/crtbegin.o
 *(.bss*)
 *(COMMON)
 COMMON         0x0000000020000020       0x11 build/main.o
                0x0000000020000020                ds18b20_scratchpad
                0x0000000020000029                ds18b20_formated_temp
                0x0000000020000030                LCD_POS
                0x0000000020000034                . = ALIGN (0x4)
 *fill*         0x0000000020000031        0x3 
                0x0000000020000034                _ebss = .
                0x0000000020000034                __bss_end__ = _ebss

._user_heap_stack
                0x0000000020000034      0x604 load address 0x0000000008001014
                0x0000000020000038                . = ALIGN (0x8)
 *fill*         0x0000000020000034        0x4 
                [!provide]                        PROVIDE (end = .)
                [!provide]                        PROVIDE (_end = .)
                0x0000000020000238                . = (. + _Min_Heap_Size)
 *fill*         0x0000000020000038      0x200 
                0x0000000020000638                . = (. + _Min_Stack_Size)
 *fill*         0x0000000020000238      0x400 
                0x0000000020000638                . = ALIGN (0x8)

/DISCARD/
 libc.a(*)
 libm.a(*)
 libgcc.a(*)

.ARM.attributes
                0x0000000000000000       0x29
 *(.ARM.attributes)
 .ARM.attributes
                0x0000000000000000       0x1d /home/me/gcc-arm-none-eabi-7-2018-q2-update/bin/../lib/gcc/arm-none-eabi/7.3.1/thumb/v7-m/crti.o
 .ARM.attributes
                0x000000000000001d       0x2d /home/me/gcc-arm-none-eabi-7-2018-q2-update/bin/../lib/gcc/arm-none-eabi/7.3.1/thumb/v7-m/crtbegin.o
 .ARM.attributes
                0x000000000000004a       0x33 build/stm32l1xx_ll_gpio.o
 .ARM.attributes
                0x000000000000007d       0x33 build/main.o
 .ARM.attributes
                0x00000000000000b0       0x33 build/stm32l1xx_ll_utils.o
 .ARM.attributes
                0x00000000000000e3       0x33 build/system_stm32l1xx.o
 .ARM.attributes
                0x0000000000000116       0x33 build/stm32l1xx_it.o
 .ARM.attributes
                0x0000000000000149       0x33 build/stm32l1xx_ll_exti.o
 .ARM.attributes
                0x000000000000017c       0x21 build/startup_stm32l152xe.o
 .ARM.attributes
                0x000000000000019d       0x2d /home/me/gcc-arm-none-eabi-7-2018-q2-update/bin/../lib/gcc/arm-none-eabi/7.3.1/../../../../arm-none-eabi/lib/thumb/v7-m/libc_nano.a(lib_a-init.o)
 .ARM.attributes
                0x00000000000001ca       0x1d /home/me/gcc-arm-none-eabi-7-2018-q2-update/bin/../lib/gcc/arm-none-eabi/7.3.1/thumb/v7-m/crtn.o
OUTPUT(build/ll_ds18b20_multiple_lcd.elf elf32-littlearm)

.comment        0x0000000000000000       0x7f
 .comment       0x0000000000000000       0x7f build/stm32l1xx_ll_gpio.o
                                         0x80 (size before relaxing)
 .comment       0x000000000000007f       0x80 build/main.o
 .comment       0x000000000000007f       0x80 build/stm32l1xx_ll_utils.o
 .comment       0x000000000000007f       0x80 build/system_stm32l1xx.o
 .comment       0x000000000000007f       0x80 build/stm32l1xx_it.o
 .comment       0x000000000000007f       0x80 build/stm32l1xx_ll_exti.o

.debug_frame    0x0000000000000000       0x2c
 .debug_frame   0x0000000000000000       0x2c /home/me/gcc-arm-none-eabi-7-2018-q2-update/bin/../lib/gcc/arm-none-eabi/7.3.1/../../../../arm-none-eabi/lib/thumb/v7-m/libc_nano.a(lib_a-init.o)

Cross Reference Table

Symbol                                            File
ADC1_IRQHandler                                   build/startup_stm32l152xe.o
AHBPrescTable                                     build/system_stm32l1xx.o
                                                  build/stm32l1xx_ll_utils.o
APBPrescTable                                     build/system_stm32l1xx.o
BusFault_Handler                                  build/startup_stm32l152xe.o
COMP_ACQ_IRQHandler                               build/startup_stm32l152xe.o
COMP_IRQHandler                                   build/startup_stm32l152xe.o
DAC_IRQHandler                                    build/startup_stm32l152xe.o
DMA1_Channel1_IRQHandler                          build/startup_stm32l152xe.o
DMA1_Channel2_IRQHandler                          build/startup_stm32l152xe.o
DMA1_Channel3_IRQHandler                          build/startup_stm32l152xe.o
DMA1_Channel4_IRQHandler                          build/startup_stm32l152xe.o
DMA1_Channel5_IRQHandler                          build/startup_stm32l152xe.o
DMA1_Channel6_IRQHandler                          build/startup_stm32l152xe.o
DMA1_Channel7_IRQHandler                          build/startup_stm32l152xe.o
DMA2_Channel1_IRQHandler                          build/startup_stm32l152xe.o
DMA2_Channel2_IRQHandler                          build/startup_stm32l152xe.o
DMA2_Channel3_IRQHandler                          build/startup_stm32l152xe.o
DMA2_Channel4_IRQHandler                          build/startup_stm32l152xe.o
DMA2_Channel5_IRQHandler                          build/startup_stm32l152xe.o
DebugMon_Handler                                  build/startup_stm32l152xe.o
Default_Handler                                   build/startup_stm32l152xe.o
EXTI0_IRQHandler                                  build/startup_stm32l152xe.o
EXTI15_10_IRQHandler                              build/startup_stm32l152xe.o
EXTI1_IRQHandler                                  build/startup_stm32l152xe.o
EXTI2_IRQHandler                                  build/startup_stm32l152xe.o
EXTI3_IRQHandler                                  build/startup_stm32l152xe.o
EXTI4_IRQHandler                                  build/startup_stm32l152xe.o
EXTI9_5_IRQHandler                                build/startup_stm32l152xe.o
FLASH_IRQHandler                                  build/startup_stm32l152xe.o
HardFault_Handler                                 build/startup_stm32l152xe.o
I2C1_ER_IRQHandler                                build/startup_stm32l152xe.o
I2C1_EV_IRQHandler                                build/startup_stm32l152xe.o
I2C2_ER_IRQHandler                                build/startup_stm32l152xe.o
I2C2_EV_IRQHandler                                build/startup_stm32l152xe.o
LCD_IRQHandler                                    build/startup_stm32l152xe.o
LCD_POS                                           build/main.o
LL_EXTI_DeInit                                    build/stm32l1xx_ll_exti.o
LL_EXTI_Init                                      build/stm32l1xx_ll_exti.o
                                                  build/main.o
LL_EXTI_StructInit                                build/stm32l1xx_ll_exti.o
LL_GPIO_DeInit                                    build/stm32l1xx_ll_gpio.o
LL_GPIO_Init                                      build/stm32l1xx_ll_gpio.o
                                                  build/main.o
LL_GPIO_StructInit                                build/stm32l1xx_ll_gpio.o
LL_Init1msTick                                    build/stm32l1xx_ll_utils.o
                                                  build/main.o
LL_PLL_ConfigSystemClock_HSE                      build/stm32l1xx_ll_utils.o
LL_PLL_ConfigSystemClock_HSI                      build/stm32l1xx_ll_utils.o
LL_PWR_DeInit                                     build/stm32l1xx_ll_pwr.o
LL_SetSystemCoreClock                             build/stm32l1xx_ll_utils.o
                                                  build/main.o
LL_mDelay                                         build/stm32l1xx_ll_utils.o
                                                  build/main.o
MemManage_Handler                                 build/startup_stm32l152xe.o
NMI_Handler                                       build/startup_stm32l152xe.o
PLLMulTable                                       build/system_stm32l1xx.o
                                                  build/stm32l1xx_ll_utils.o
PVD_IRQHandler                                    build/startup_stm32l152xe.o
PendSV_Handler                                    build/startup_stm32l152xe.o
RCC_IRQHandler                                    build/startup_stm32l152xe.o
RTC_Alarm_IRQHandler                              build/startup_stm32l152xe.o
RTC_WKUP_IRQHandler                               build/startup_stm32l152xe.o
Reset_Handler                                     build/startup_stm32l152xe.o
SPI1_IRQHandler                                   build/startup_stm32l152xe.o
SPI2_IRQHandler                                   build/startup_stm32l152xe.o
SPI3_IRQHandler                                   build/startup_stm32l152xe.o
SVC_Handler                                       build/startup_stm32l152xe.o
SysTick_Handler                                   build/stm32l1xx_it.o
SystemClock_Config                                build/main.o
SystemCoreClock                                   build/system_stm32l1xx.o
                                                  build/stm32l1xx_ll_utils.o
SystemCoreClockUpdate                             build/system_stm32l1xx.o
SystemInit                                        build/system_stm32l1xx.o
                                                  build/startup_stm32l152xe.o
TAMPER_STAMP_IRQHandler                           build/startup_stm32l152xe.o
TIM10_IRQHandler                                  build/startup_stm32l152xe.o
TIM11_IRQHandler                                  build/startup_stm32l152xe.o
TIM2_IRQHandler                                   build/startup_stm32l152xe.o
TIM3_IRQHandler                                   build/startup_stm32l152xe.o
TIM4_IRQHandler                                   build/startup_stm32l152xe.o
TIM5_IRQHandler                                   build/startup_stm32l152xe.o
TIM6_IRQHandler                                   build/startup_stm32l152xe.o
TIM7_IRQHandler                                   build/startup_stm32l152xe.o
TIM9_IRQHandler                                   build/startup_stm32l152xe.o
UART4_IRQHandler                                  build/startup_stm32l152xe.o
UART5_IRQHandler                                  build/startup_stm32l152xe.o
USART1_IRQHandler                                 build/startup_stm32l152xe.o
USART2_IRQHandler                                 build/startup_stm32l152xe.o
USART3_IRQHandler                                 build/startup_stm32l152xe.o
USB_FS_WKUP_IRQHandler                            build/startup_stm32l152xe.o
USB_HP_IRQHandler                                 build/startup_stm32l152xe.o
USB_LP_IRQHandler                                 build/startup_stm32l152xe.o
UsageFault_Handler                                build/startup_stm32l152xe.o
WWDG_IRQHandler                                   build/startup_stm32l152xe.o
_Error_Handler                                    build/main.o
__bss_end__                                       /home/me/gcc-arm-none-eabi-7-2018-q2-update/bin/../lib/gcc/arm-none-eabi/7.3.1/../../../../arm-none-eabi/lib/thumb/v7-m/crt0.o
__bss_start__                                     /home/me/gcc-arm-none-eabi-7-2018-q2-update/bin/../lib/gcc/arm-none-eabi/7.3.1/../../../../arm-none-eabi/lib/thumb/v7-m/crt0.o
__call_exitprocs                                  /home/me/gcc-arm-none-eabi-7-2018-q2-update/bin/../lib/gcc/arm-none-eabi/7.3.1/../../../../arm-none-eabi/lib/thumb/v7-m/libc_nano.a(lib_a-exit.o)
__deregister_frame_info                           /home/me/gcc-arm-none-eabi-7-2018-q2-update/bin/../lib/gcc/arm-none-eabi/7.3.1/thumb/v7-m/crtbegin.o
__dso_handle                                      /home/me/gcc-arm-none-eabi-7-2018-q2-update/bin/../lib/gcc/arm-none-eabi/7.3.1/thumb/v7-m/crtbegin.o
__init_array_end                                  /home/me/gcc-arm-none-eabi-7-2018-q2-update/bin/../lib/gcc/arm-none-eabi/7.3.1/../../../../arm-none-eabi/lib/thumb/v7-m/libc_nano.a(lib_a-init.o)
__init_array_start                                /home/me/gcc-arm-none-eabi-7-2018-q2-update/bin/../lib/gcc/arm-none-eabi/7.3.1/../../../../arm-none-eabi/lib/thumb/v7-m/libc_nano.a(lib_a-init.o)
__lcd_write                                       build/main.o
__lcd_write_nibble                                build/main.o
__libc_fini_array                                 /home/me/gcc-arm-none-eabi-7-2018-q2-update/bin/../lib/gcc/arm-none-eabi/7.3.1/../../../../arm-none-eabi/lib/thumb/v7-m/crt0.o
__libc_init_array                                 /home/me/gcc-arm-none-eabi-7-2018-q2-update/bin/../lib/gcc/arm-none-eabi/7.3.1/../../../../arm-none-eabi/lib/thumb/v7-m/libc_nano.a(lib_a-init.o)
                                                  build/startup_stm32l152xe.o
                                                  /home/me/gcc-arm-none-eabi-7-2018-q2-update/bin/../lib/gcc/arm-none-eabi/7.3.1/../../../../arm-none-eabi/lib/thumb/v7-m/crt0.o
__preinit_array_end                               /home/me/gcc-arm-none-eabi-7-2018-q2-update/bin/../lib/gcc/arm-none-eabi/7.3.1/../../../../arm-none-eabi/lib/thumb/v7-m/libc_nano.a(lib_a-init.o)
__preinit_array_start                             /home/me/gcc-arm-none-eabi-7-2018-q2-update/bin/../lib/gcc/arm-none-eabi/7.3.1/../../../../arm-none-eabi/lib/thumb/v7-m/libc_nano.a(lib_a-init.o)
__register_frame_info                             /home/me/gcc-arm-none-eabi-7-2018-q2-update/bin/../lib/gcc/arm-none-eabi/7.3.1/thumb/v7-m/crtbegin.o
__sf_fake_stderr                                  /home/me/gcc-arm-none-eabi-7-2018-q2-update/bin/../lib/gcc/arm-none-eabi/7.3.1/../../../../arm-none-eabi/lib/thumb/v7-m/libc_nano.a(lib_a-impure.o)
__sf_fake_stdin                                   /home/me/gcc-arm-none-eabi-7-2018-q2-update/bin/../lib/gcc/arm-none-eabi/7.3.1/../../../../arm-none-eabi/lib/thumb/v7-m/libc_nano.a(lib_a-impure.o)
__sf_fake_stdout                                  /home/me/gcc-arm-none-eabi-7-2018-q2-update/bin/../lib/gcc/arm-none-eabi/7.3.1/../../../../arm-none-eabi/lib/thumb/v7-m/libc_nano.a(lib_a-impure.o)
__stack                                           /home/me/gcc-arm-none-eabi-7-2018-q2-update/bin/../lib/gcc/arm-none-eabi/7.3.1/../../../../arm-none-eabi/lib/thumb/v7-m/crt0.o
_ds18b20_match_rom                                build/main.o
_ds18b20_read                                     build/main.o
_ds18b20_skip_rom                                 build/main.o
_ebss                                             build/startup_stm32l152xe.o
_edata                                            build/startup_stm32l152xe.o
_estack                                           build/startup_stm32l152xe.o
_exit                                             /home/me/gcc-arm-none-eabi-7-2018-q2-update/bin/../lib/gcc/arm-none-eabi/7.3.1/../../../../arm-none-eabi/lib/thumb/v7-m/libnosys.a(_exit.o)
                                                  /home/me/gcc-arm-none-eabi-7-2018-q2-update/bin/../lib/gcc/arm-none-eabi/7.3.1/../../../../arm-none-eabi/lib/thumb/v7-m/libc_nano.a(lib_a-exit.o)
_fini                                             /home/me/gcc-arm-none-eabi-7-2018-q2-update/bin/../lib/gcc/arm-none-eabi/7.3.1/thumb/v7-m/crti.o
_global_impure_ptr                                /home/me/gcc-arm-none-eabi-7-2018-q2-update/bin/../lib/gcc/arm-none-eabi/7.3.1/../../../../arm-none-eabi/lib/thumb/v7-m/libc_nano.a(lib_a-impure.o)
                                                  /home/me/gcc-arm-none-eabi-7-2018-q2-update/bin/../lib/gcc/arm-none-eabi/7.3.1/../../../../arm-none-eabi/lib/thumb/v7-m/libc_nano.a(lib_a-exit.o)
_impure_ptr                                       /home/me/gcc-arm-none-eabi-7-2018-q2-update/bin/../lib/gcc/arm-none-eabi/7.3.1/../../../../arm-none-eabi/lib/thumb/v7-m/libc_nano.a(lib_a-impure.o)
_init                                             /home/me/gcc-arm-none-eabi-7-2018-q2-update/bin/../lib/gcc/arm-none-eabi/7.3.1/thumb/v7-m/crti.o
                                                  /home/me/gcc-arm-none-eabi-7-2018-q2-update/bin/../lib/gcc/arm-none-eabi/7.3.1/../../../../arm-none-eabi/lib/thumb/v7-m/libc_nano.a(lib_a-init.o)
_lcd_line2index                                   build/main.o
_lcd_restore_cursor                               build/main.o
_lcd_write_command                                build/main.o
_lcd_write_data                                   build/main.o
_mainCRTStartup                                   /home/me/gcc-arm-none-eabi-7-2018-q2-update/bin/../lib/gcc/arm-none-eabi/7.3.1/../../../../arm-none-eabi/lib/thumb/v7-m/crt0.o
_sbss                                             build/startup_stm32l152xe.o
_sdata                                            build/startup_stm32l152xe.o
_sidata                                           build/startup_stm32l152xe.o
_start                                            /home/me/gcc-arm-none-eabi-7-2018-q2-update/bin/../lib/gcc/arm-none-eabi/7.3.1/../../../../arm-none-eabi/lib/thumb/v7-m/crt0.o
atexit                                            /home/me/gcc-arm-none-eabi-7-2018-q2-update/bin/../lib/gcc/arm-none-eabi/7.3.1/../../../../arm-none-eabi/lib/thumb/v7-m/crt0.o
bcdtodec                                          build/main.o
byte2dec                                          build/main.o
byte2hex                                          build/main.o
dectobcd                                          build/main.o
double2dec                                        build/main.o
double2hex                                        build/main.o
ds18b20_clear_scratchpad                          build/main.o
ds18b20_convert                                   build/main.o
ds18b20_error                                     build/main.o
ds18b20_formated_temp                             build/main.o
ds18b20_m_convert                                 build/main.o
ds18b20_m_temp                                    build/main.o
ds18b20_s_read_rom                                build/main.o
ds18b20_s_temp                                    build/main.o
ds18b20_scratchpad                                build/main.o
ds18b20_set                                       build/main.o
ds18b20_temp_format                               build/main.o
ds_all                                            build/main.o
ds_err1                                           build/main.o
ds_err2                                           build/main.o
ds_t1                                             build/main.o
ds_t1_id                                          build/main.o
ds_t2                                             build/main.o
ds_t2_id                                          build/main.o
ds_temp1                                          build/main.o
ds_temp2                                          build/main.o
exit                                              /home/me/gcc-arm-none-eabi-7-2018-q2-update/bin/../lib/gcc/arm-none-eabi/7.3.1/../../../../arm-none-eabi/lib/thumb/v7-m/libc_nano.a(lib_a-exit.o)
                                                  /home/me/gcc-arm-none-eabi-7-2018-q2-update/bin/../lib/gcc/arm-none-eabi/7.3.1/../../../../arm-none-eabi/lib/thumb/v7-m/crt0.o
g_pfnVectors                                      build/startup_stm32l152xe.o
hardware_init_hook                                /home/me/gcc-arm-none-eabi-7-2018-q2-update/bin/../lib/gcc/arm-none-eabi/7.3.1/../../../../arm-none-eabi/lib/thumb/v7-m/crt0.o
lcd_clear_line                                    build/main.o
lcd_clear_screen                                  build/main.o
lcd_cursor_blink_display                          build/main.o
lcd_cursor_position                               build/main.o
lcd_cursor_shift_left                             build/main.o
lcd_cursor_shift_right                            build/main.o
lcd_home                                          build/main.o
lcd_init                                          build/main.o
lcd_progress                                      build/main.o
lcd_shift_left                                    build/main.o
lcd_shift_right                                   build/main.o
lcd_write_char                                    build/main.o
lcd_write_str                                     build/main.o
lcd_write_strF                                    build/main.o
main                                              build/main.o
                                                  build/startup_stm32l152xe.o
                                                  /home/me/gcc-arm-none-eabi-7-2018-q2-update/bin/../lib/gcc/arm-none-eabi/7.3.1/../../../../arm-none-eabi/lib/thumb/v7-m/crt0.o
memset                                            /home/me/gcc-arm-none-eabi-7-2018-q2-update/bin/../lib/gcc/arm-none-eabi/7.3.1/../../../../arm-none-eabi/lib/thumb/v7-m/libc_nano.a(lib_a-memset.o)
                                                  /home/me/gcc-arm-none-eabi-7-2018-q2-update/bin/../lib/gcc/arm-none-eabi/7.3.1/../../../../arm-none-eabi/lib/thumb/v7-m/crt0.o
my_delay_us                                       build/main.o
nibble2hex                                        build/main.o
ow_bit_rd                                         build/main.o
ow_bit_wr                                         build/main.o
ow_bus_direction                                  build/main.o
ow_bus_rd                                         build/main.o
ow_bus_wr                                         build/main.o
ow_byte_rd                                        build/main.o
ow_byte_wr                                        build/main.o
ow_command                                        build/main.o
ow_command_intern                                 build/main.o
ow_crc8                                           build/main.o
ow_reset                                          build/main.o
software_init_hook                                /home/me/gcc-arm-none-eabi-7-2018-q2-update/bin/../lib/gcc/arm-none-eabi/7.3.1/../../../../arm-none-eabi/lib/thumb/v7-m/crt0.o
word2dec                                          build/main.o
word2hex                                          build/main.o
