ARM GAS  /tmp/ccqpznur.s 			page 1


   1              		.cpu cortex-m3
   2              		.eabi_attribute 20, 1
   3              		.eabi_attribute 21, 1
   4              		.eabi_attribute 23, 3
   5              		.eabi_attribute 24, 1
   6              		.eabi_attribute 25, 1
   7              		.eabi_attribute 26, 1
   8              		.eabi_attribute 30, 4
   9              		.eabi_attribute 34, 1
  10              		.eabi_attribute 18, 4
  11              		.file	"main.c"
  12              		.text
  13              		.section	.text.NVIC_GetPriorityGrouping,"ax",%progbits
  14              		.align	1
  15              		.syntax unified
  16              		.thumb
  17              		.thumb_func
  18              		.fpu softvfp
  20              	NVIC_GetPriorityGrouping:
  21              		@ args = 0, pretend = 0, frame = 0
  22              		@ frame_needed = 0, uses_anonymous_args = 0
  23              		@ link register save eliminated.
  24 0000 024B     		ldr	r3, .L2
  25 0002 D868     		ldr	r0, [r3, #12]
  26 0004 C0F30220 		ubfx	r0, r0, #8, #3
  27 0008 7047     		bx	lr
  28              	.L3:
  29 000a 00BF     		.align	2
  30              	.L2:
  31 000c 00ED00E0 		.word	-536810240
  33              		.section	.text.LL_AHB1_GRP1_EnableClock,"ax",%progbits
  34              		.align	1
  35              		.syntax unified
  36              		.thumb
  37              		.thumb_func
  38              		.fpu softvfp
  40              	LL_AHB1_GRP1_EnableClock:
  41              		@ args = 0, pretend = 0, frame = 8
  42              		@ frame_needed = 0, uses_anonymous_args = 0
  43              		@ link register save eliminated.
  44 0000 054B     		ldr	r3, .L5
  45 0002 82B0     		sub	sp, sp, #8
  46 0004 DA69     		ldr	r2, [r3, #28]
  47 0006 0243     		orrs	r2, r2, r0
  48 0008 DA61     		str	r2, [r3, #28]
  49 000a DB69     		ldr	r3, [r3, #28]
  50 000c 1840     		ands	r0, r0, r3
  51 000e 0190     		str	r0, [sp, #4]
  52 0010 019B     		ldr	r3, [sp, #4]
  53 0012 02B0     		add	sp, sp, #8
  54              		@ sp needed
  55 0014 7047     		bx	lr
  56              	.L6:
  57 0016 00BF     		.align	2
  58              	.L5:
  59 0018 00380240 		.word	1073887232
  61              		.section	.text.ow_bus_direction.part.1,"ax",%progbits
ARM GAS  /tmp/ccqpznur.s 			page 2


  62              		.align	1
  63              		.syntax unified
  64              		.thumb
  65              		.thumb_func
  66              		.fpu softvfp
  68              	ow_bus_direction.part.1:
  69              		@ args = 0, pretend = 0, frame = 24
  70              		@ frame_needed = 0, uses_anonymous_args = 0
  71 0000 7FB5     		push	{r0, r1, r2, r3, r4, r5, r6, lr}
  72 0002 0223     		movs	r3, #2
  73 0004 0748     		ldr	r0, .L8
  74 0006 0122     		movs	r2, #1
  75 0008 8362     		str	r3, [r0, #40]
  76 000a 0093     		str	r3, [sp]
  77 000c 0023     		movs	r3, #0
  78 000e 6946     		mov	r1, sp
  79 0010 CDE90123 		strd	r2, r3, [sp, #4]
  80 0014 CDE90333 		strd	r3, r3, [sp, #12]
  81 0018 FFF7FEFF 		bl	LL_GPIO_Init
  82 001c 07B0     		add	sp, sp, #28
  83              		@ sp needed
  84 001e 5DF804FB 		ldr	pc, [sp], #4
  85              	.L9:
  86 0022 00BF     		.align	2
  87              	.L8:
  88 0024 00000240 		.word	1073872896
  90              		.section	.text.NVIC_EncodePriority.constprop.12,"ax",%progbits
  91              		.align	1
  92              		.syntax unified
  93              		.thumb
  94              		.thumb_func
  95              		.fpu softvfp
  97              	NVIC_EncodePriority.constprop.12:
  98              		@ args = 0, pretend = 0, frame = 0
  99              		@ frame_needed = 0, uses_anonymous_args = 0
 100              		@ link register save eliminated.
 101 0000 0020     		movs	r0, #0
 102 0002 7047     		bx	lr
 104              		.section	.text.dectobcd,"ax",%progbits
 105              		.align	1
 106              		.global	dectobcd
 107              		.syntax unified
 108              		.thumb
 109              		.thumb_func
 110              		.fpu softvfp
 112              	dectobcd:
 113              		@ args = 0, pretend = 0, frame = 0
 114              		@ frame_needed = 0, uses_anonymous_args = 0
 115              		@ link register save eliminated.
 116 0000 0A23     		movs	r3, #10
 117 0002 B0FBF3F2 		udiv	r2, r0, r3
 118 0006 03FB1200 		mls	r0, r3, r2, r0
 119 000a 40EA0210 		orr	r0, r0, r2, lsl #4
 120 000e C0B2     		uxtb	r0, r0
 121 0010 7047     		bx	lr
 123              		.section	.text.bcdtodec,"ax",%progbits
 124              		.align	1
ARM GAS  /tmp/ccqpznur.s 			page 3


 125              		.global	bcdtodec
 126              		.syntax unified
 127              		.thumb
 128              		.thumb_func
 129              		.fpu softvfp
 131              	bcdtodec:
 132              		@ args = 0, pretend = 0, frame = 0
 133              		@ frame_needed = 0, uses_anonymous_args = 0
 134              		@ link register save eliminated.
 135 0000 0309     		lsrs	r3, r0, #4
 136 0002 03EB8303 		add	r3, r3, r3, lsl #2
 137 0006 00F00F00 		and	r0, r0, #15
 138 000a 00EB4300 		add	r0, r0, r3, lsl #1
 139 000e C0B2     		uxtb	r0, r0
 140 0010 7047     		bx	lr
 142              		.section	.text.nibble2hex,"ax",%progbits
 143              		.align	1
 144              		.global	nibble2hex
 145              		.syntax unified
 146              		.thumb
 147              		.thumb_func
 148              		.fpu softvfp
 150              	nibble2hex:
 151              		@ args = 0, pretend = 0, frame = 0
 152              		@ frame_needed = 0, uses_anonymous_args = 0
 153              		@ link register save eliminated.
 154 0000 00F00F03 		and	r3, r0, #15
 155 0004 03F13000 		add	r0, r3, #48
 156 0008 3928     		cmp	r0, #57
 157 000a 88BF     		it	hi
 158 000c 03F13700 		addhi	r0, r3, #55
 159 0010 7047     		bx	lr
 161              		.section	.text.byte2dec,"ax",%progbits
 162              		.align	1
 163              		.global	byte2dec
 164              		.syntax unified
 165              		.thumb
 166              		.thumb_func
 167              		.fpu softvfp
 169              	byte2dec:
 170              		@ args = 0, pretend = 0, frame = 0
 171              		@ frame_needed = 0, uses_anonymous_args = 0
 172 0000 6328     		cmp	r0, #99
 173 0002 10B5     		push	{r4, lr}
 174 0004 14D9     		bls	.L16
 175 0006 0A23     		movs	r3, #10
 176 0008 B0FBF3F2 		udiv	r2, r0, r3
 177 000c 03FB1204 		mls	r4, r3, r2, r0
 178 0010 3034     		adds	r4, r4, #48
 179 0012 8C70     		strb	r4, [r1, #2]
 180 0014 B2FBF3F4 		udiv	r4, r2, r3
 181 0018 04FB1323 		mls	r3, r4, r3, r2
 182 001c 3033     		adds	r3, r3, #48
 183 001e 4B70     		strb	r3, [r1, #1]
 184 0020 6423     		movs	r3, #100
 185 0022 B0FBF3F0 		udiv	r0, r0, r3
 186 0026 0023     		movs	r3, #0
ARM GAS  /tmp/ccqpznur.s 			page 4


 187 0028 3030     		adds	r0, r0, #48
 188 002a 0870     		strb	r0, [r1]
 189 002c CB70     		strb	r3, [r1, #3]
 190              	.L15:
 191 002e 10BD     		pop	{r4, pc}
 192              	.L16:
 193 0030 0928     		cmp	r0, #9
 194 0032 0DD9     		bls	.L18
 195 0034 0A23     		movs	r3, #10
 196 0036 B0FBF3F2 		udiv	r2, r0, r3
 197 003a 03FB1200 		mls	r0, r3, r2, r0
 198 003e 2023     		movs	r3, #32
 199 0040 0B70     		strb	r3, [r1]
 200 0042 0023     		movs	r3, #0
 201 0044 3030     		adds	r0, r0, #48
 202 0046 3032     		adds	r2, r2, #48
 203 0048 8870     		strb	r0, [r1, #2]
 204 004a 4A70     		strb	r2, [r1, #1]
 205 004c CB70     		strb	r3, [r1, #3]
 206 004e EEE7     		b	.L15
 207              	.L18:
 208 0050 2023     		movs	r3, #32
 209 0052 4B70     		strb	r3, [r1, #1]
 210 0054 0B70     		strb	r3, [r1]
 211 0056 0023     		movs	r3, #0
 212 0058 3030     		adds	r0, r0, #48
 213 005a 8870     		strb	r0, [r1, #2]
 214 005c CB70     		strb	r3, [r1, #3]
 215 005e E6E7     		b	.L15
 217              		.section	.text.word2dec,"ax",%progbits
 218              		.align	1
 219              		.global	word2dec
 220              		.syntax unified
 221              		.thumb
 222              		.thumb_func
 223              		.fpu softvfp
 225              	word2dec:
 226              		@ args = 0, pretend = 0, frame = 0
 227              		@ frame_needed = 0, uses_anonymous_args = 0
 228 0000 42F20F73 		movw	r3, #9999
 229 0004 9842     		cmp	r0, r3
 230 0006 10B5     		push	{r4, lr}
 231 0008 28D9     		bls	.L20
 232 000a 0A23     		movs	r3, #10
 233 000c B0FBF3F4 		udiv	r4, r0, r3
 234 0010 03FB1402 		mls	r2, r3, r4, r0
 235 0014 3032     		adds	r2, r2, #48
 236 0016 0A71     		strb	r2, [r1, #4]
 237 0018 B4FBF3F2 		udiv	r2, r4, r3
 238 001c 02FB1342 		mls	r2, r2, r3, r4
 239 0020 3032     		adds	r2, r2, #48
 240 0022 CA70     		strb	r2, [r1, #3]
 241 0024 6422     		movs	r2, #100
 242 0026 B0FBF2F4 		udiv	r4, r0, r2
 243 002a B4FBF3F2 		udiv	r2, r4, r3
 244 002e 03FB1242 		mls	r2, r3, r2, r4
 245 0032 4FF47A74 		mov	r4, #1000
ARM GAS  /tmp/ccqpznur.s 			page 5


 246 0036 B0FBF4F4 		udiv	r4, r0, r4
 247 003a 3032     		adds	r2, r2, #48
 248 003c 8A70     		strb	r2, [r1, #2]
 249 003e B4FBF3F2 		udiv	r2, r4, r3
 250 0042 03FB1243 		mls	r3, r3, r2, r4
 251 0046 3033     		adds	r3, r3, #48
 252 0048 4B70     		strb	r3, [r1, #1]
 253 004a 42F21073 		movw	r3, #10000
 254 004e B0FBF3F0 		udiv	r0, r0, r3
 255 0052 0023     		movs	r3, #0
 256 0054 3030     		adds	r0, r0, #48
 257 0056 0870     		strb	r0, [r1]
 258 0058 4B71     		strb	r3, [r1, #5]
 259              	.L19:
 260 005a 10BD     		pop	{r4, pc}
 261              	.L20:
 262 005c B0F57A7F 		cmp	r0, #1000
 263 0060 20D3     		bcc	.L22
 264 0062 0A23     		movs	r3, #10
 265 0064 B0FBF3F4 		udiv	r4, r0, r3
 266 0068 03FB1402 		mls	r2, r3, r4, r0
 267 006c 3032     		adds	r2, r2, #48
 268 006e 0A71     		strb	r2, [r1, #4]
 269 0070 B4FBF3F2 		udiv	r2, r4, r3
 270 0074 02FB1342 		mls	r2, r2, r3, r4
 271 0078 6424     		movs	r4, #100
 272 007a B0FBF4F4 		udiv	r4, r0, r4
 273 007e 3032     		adds	r2, r2, #48
 274 0080 CA70     		strb	r2, [r1, #3]
 275 0082 B4FBF3F2 		udiv	r2, r4, r3
 276 0086 03FB1243 		mls	r3, r3, r2, r4
 277 008a 3033     		adds	r3, r3, #48
 278 008c 8B70     		strb	r3, [r1, #2]
 279 008e 4FF47A73 		mov	r3, #1000
 280 0092 B0FBF3F0 		udiv	r0, r0, r3
 281 0096 2023     		movs	r3, #32
 282 0098 0B70     		strb	r3, [r1]
 283 009a 0023     		movs	r3, #0
 284 009c 3030     		adds	r0, r0, #48
 285 009e 4870     		strb	r0, [r1, #1]
 286 00a0 4B71     		strb	r3, [r1, #5]
 287 00a2 DAE7     		b	.L19
 288              	.L22:
 289 00a4 6328     		cmp	r0, #99
 290 00a6 17D9     		bls	.L23
 291 00a8 0A23     		movs	r3, #10
 292 00aa B0FBF3F2 		udiv	r2, r0, r3
 293 00ae 03FB1204 		mls	r4, r3, r2, r0
 294 00b2 3034     		adds	r4, r4, #48
 295 00b4 0C71     		strb	r4, [r1, #4]
 296 00b6 B2FBF3F4 		udiv	r4, r2, r3
 297 00ba 04FB1323 		mls	r3, r4, r3, r2
 298 00be 3033     		adds	r3, r3, #48
 299 00c0 CB70     		strb	r3, [r1, #3]
 300 00c2 6423     		movs	r3, #100
 301 00c4 B0FBF3F0 		udiv	r0, r0, r3
 302 00c8 2023     		movs	r3, #32
ARM GAS  /tmp/ccqpznur.s 			page 6


 303 00ca 4B70     		strb	r3, [r1, #1]
 304 00cc 0B70     		strb	r3, [r1]
 305 00ce 0023     		movs	r3, #0
 306 00d0 3030     		adds	r0, r0, #48
 307 00d2 8870     		strb	r0, [r1, #2]
 308 00d4 4B71     		strb	r3, [r1, #5]
 309 00d6 C0E7     		b	.L19
 310              	.L23:
 311 00d8 0928     		cmp	r0, #9
 312 00da 0FD9     		bls	.L24
 313 00dc 0A23     		movs	r3, #10
 314 00de B0FBF3F2 		udiv	r2, r0, r3
 315 00e2 03FB1200 		mls	r0, r3, r2, r0
 316 00e6 2023     		movs	r3, #32
 317 00e8 3030     		adds	r0, r0, #48
 318 00ea 3032     		adds	r2, r2, #48
 319 00ec 0871     		strb	r0, [r1, #4]
 320 00ee CA70     		strb	r2, [r1, #3]
 321              	.L25:
 322 00f0 8B70     		strb	r3, [r1, #2]
 323 00f2 4B70     		strb	r3, [r1, #1]
 324 00f4 0B70     		strb	r3, [r1]
 325 00f6 0023     		movs	r3, #0
 326 00f8 4B71     		strb	r3, [r1, #5]
 327 00fa AEE7     		b	.L19
 328              	.L24:
 329 00fc 2023     		movs	r3, #32
 330 00fe 3030     		adds	r0, r0, #48
 331 0100 0871     		strb	r0, [r1, #4]
 332 0102 CB70     		strb	r3, [r1, #3]
 333 0104 F4E7     		b	.L25
 335              		.section	.text.double2dec,"ax",%progbits
 336              		.align	1
 337              		.global	double2dec
 338              		.syntax unified
 339              		.thumb
 340              		.thumb_func
 341              		.fpu softvfp
 343              	double2dec:
 344              		@ args = 0, pretend = 0, frame = 0
 345              		@ frame_needed = 0, uses_anonymous_args = 0
 346 0000 E94B     		ldr	r3, .L43
 347 0002 10B5     		push	{r4, lr}
 348 0004 9842     		cmp	r0, r3
 349 0006 55D9     		bls	.L27
 350 0008 0A23     		movs	r3, #10
 351 000a B0FBF3F4 		udiv	r4, r0, r3
 352 000e 03FB1402 		mls	r2, r3, r4, r0
 353 0012 3032     		adds	r2, r2, #48
 354 0014 4A72     		strb	r2, [r1, #9]
 355 0016 B4FBF3F2 		udiv	r2, r4, r3
 356 001a 03FB1242 		mls	r2, r3, r2, r4
 357 001e 3032     		adds	r2, r2, #48
 358 0020 0A72     		strb	r2, [r1, #8]
 359 0022 6422     		movs	r2, #100
 360 0024 B0FBF2F4 		udiv	r4, r0, r2
 361 0028 B4FBF3F2 		udiv	r2, r4, r3
ARM GAS  /tmp/ccqpznur.s 			page 7


 362 002c 03FB1242 		mls	r2, r3, r2, r4
 363 0030 3032     		adds	r2, r2, #48
 364 0032 CA71     		strb	r2, [r1, #7]
 365 0034 4FF47A72 		mov	r2, #1000
 366 0038 B0FBF2F4 		udiv	r4, r0, r2
 367 003c B4FBF3F2 		udiv	r2, r4, r3
 368 0040 03FB1242 		mls	r2, r3, r2, r4
 369 0044 3032     		adds	r2, r2, #48
 370 0046 8A71     		strb	r2, [r1, #6]
 371 0048 42F21072 		movw	r2, #10000
 372 004c B0FBF2F4 		udiv	r4, r0, r2
 373 0050 B4FBF3F2 		udiv	r2, r4, r3
 374 0054 03FB1242 		mls	r2, r3, r2, r4
 375 0058 D44C     		ldr	r4, .L43+4
 376 005a 3032     		adds	r2, r2, #48
 377 005c B0FBF4F4 		udiv	r4, r0, r4
 378 0060 4A71     		strb	r2, [r1, #5]
 379 0062 B4FBF3F2 		udiv	r2, r4, r3
 380 0066 03FB1242 		mls	r2, r3, r2, r4
 381 006a D14C     		ldr	r4, .L43+8
 382 006c 3032     		adds	r2, r2, #48
 383 006e B0FBF4F4 		udiv	r4, r0, r4
 384 0072 0A71     		strb	r2, [r1, #4]
 385 0074 B4FBF3F2 		udiv	r2, r4, r3
 386 0078 03FB1242 		mls	r2, r3, r2, r4
 387 007c CD4C     		ldr	r4, .L43+12
 388 007e 3032     		adds	r2, r2, #48
 389 0080 B0FBF4F4 		udiv	r4, r0, r4
 390 0084 CA70     		strb	r2, [r1, #3]
 391 0086 B4FBF3F2 		udiv	r2, r4, r3
 392 008a 03FB1242 		mls	r2, r3, r2, r4
 393 008e CA4C     		ldr	r4, .L43+16
 394 0090 3032     		adds	r2, r2, #48
 395 0092 B0FBF4F4 		udiv	r4, r0, r4
 396 0096 8A70     		strb	r2, [r1, #2]
 397 0098 B4FBF3F2 		udiv	r2, r4, r3
 398 009c 03FB1243 		mls	r3, r3, r2, r4
 399 00a0 3033     		adds	r3, r3, #48
 400 00a2 4B70     		strb	r3, [r1, #1]
 401 00a4 C54B     		ldr	r3, .L43+20
 402 00a6 B0FBF3F0 		udiv	r0, r0, r3
 403 00aa 0023     		movs	r3, #0
 404 00ac 3030     		adds	r0, r0, #48
 405 00ae 0870     		strb	r0, [r1]
 406 00b0 8B72     		strb	r3, [r1, #10]
 407              	.L26:
 408 00b2 10BD     		pop	{r4, pc}
 409              	.L27:
 410 00b4 C24B     		ldr	r3, .L43+24
 411 00b6 9842     		cmp	r0, r3
 412 00b8 4ED9     		bls	.L29
 413 00ba 0A23     		movs	r3, #10
 414 00bc B0FBF3F4 		udiv	r4, r0, r3
 415 00c0 03FB1402 		mls	r2, r3, r4, r0
 416 00c4 3032     		adds	r2, r2, #48
 417 00c6 4A72     		strb	r2, [r1, #9]
 418 00c8 B4FBF3F2 		udiv	r2, r4, r3
ARM GAS  /tmp/ccqpznur.s 			page 8


 419 00cc 03FB1242 		mls	r2, r3, r2, r4
 420 00d0 3032     		adds	r2, r2, #48
 421 00d2 0A72     		strb	r2, [r1, #8]
 422 00d4 6422     		movs	r2, #100
 423 00d6 B0FBF2F4 		udiv	r4, r0, r2
 424 00da B4FBF3F2 		udiv	r2, r4, r3
 425 00de 03FB1242 		mls	r2, r3, r2, r4
 426 00e2 3032     		adds	r2, r2, #48
 427 00e4 CA71     		strb	r2, [r1, #7]
 428 00e6 4FF47A72 		mov	r2, #1000
 429 00ea B0FBF2F4 		udiv	r4, r0, r2
 430 00ee B4FBF3F2 		udiv	r2, r4, r3
 431 00f2 03FB1242 		mls	r2, r3, r2, r4
 432 00f6 3032     		adds	r2, r2, #48
 433 00f8 8A71     		strb	r2, [r1, #6]
 434 00fa 42F21072 		movw	r2, #10000
 435 00fe B0FBF2F4 		udiv	r4, r0, r2
 436 0102 B4FBF3F2 		udiv	r2, r4, r3
 437 0106 03FB1242 		mls	r2, r3, r2, r4
 438 010a A84C     		ldr	r4, .L43+4
 439 010c 3032     		adds	r2, r2, #48
 440 010e B0FBF4F4 		udiv	r4, r0, r4
 441 0112 4A71     		strb	r2, [r1, #5]
 442 0114 B4FBF3F2 		udiv	r2, r4, r3
 443 0118 03FB1242 		mls	r2, r3, r2, r4
 444 011c A44C     		ldr	r4, .L43+8
 445 011e 3032     		adds	r2, r2, #48
 446 0120 B0FBF4F4 		udiv	r4, r0, r4
 447 0124 0A71     		strb	r2, [r1, #4]
 448 0126 B4FBF3F2 		udiv	r2, r4, r3
 449 012a 03FB1242 		mls	r2, r3, r2, r4
 450 012e A14C     		ldr	r4, .L43+12
 451 0130 3032     		adds	r2, r2, #48
 452 0132 B0FBF4F4 		udiv	r4, r0, r4
 453 0136 CA70     		strb	r2, [r1, #3]
 454 0138 B4FBF3F2 		udiv	r2, r4, r3
 455 013c 03FB1243 		mls	r3, r3, r2, r4
 456 0140 3033     		adds	r3, r3, #48
 457 0142 8B70     		strb	r3, [r1, #2]
 458 0144 9C4B     		ldr	r3, .L43+16
 459 0146 B0FBF3F0 		udiv	r0, r0, r3
 460 014a 2023     		movs	r3, #32
 461 014c 0B70     		strb	r3, [r1]
 462 014e 0023     		movs	r3, #0
 463 0150 3030     		adds	r0, r0, #48
 464 0152 4870     		strb	r0, [r1, #1]
 465 0154 8B72     		strb	r3, [r1, #10]
 466 0156 ACE7     		b	.L26
 467              	.L29:
 468 0158 9A4B     		ldr	r3, .L43+28
 469 015a 9842     		cmp	r0, r3
 470 015c 46D9     		bls	.L30
 471 015e 0A23     		movs	r3, #10
 472 0160 B0FBF3F4 		udiv	r4, r0, r3
 473 0164 03FB1402 		mls	r2, r3, r4, r0
 474 0168 3032     		adds	r2, r2, #48
 475 016a 4A72     		strb	r2, [r1, #9]
ARM GAS  /tmp/ccqpznur.s 			page 9


 476 016c B4FBF3F2 		udiv	r2, r4, r3
 477 0170 03FB1242 		mls	r2, r3, r2, r4
 478 0174 3032     		adds	r2, r2, #48
 479 0176 0A72     		strb	r2, [r1, #8]
 480 0178 6422     		movs	r2, #100
 481 017a B0FBF2F4 		udiv	r4, r0, r2
 482 017e B4FBF3F2 		udiv	r2, r4, r3
 483 0182 03FB1242 		mls	r2, r3, r2, r4
 484 0186 3032     		adds	r2, r2, #48
 485 0188 CA71     		strb	r2, [r1, #7]
 486 018a 4FF47A72 		mov	r2, #1000
 487 018e B0FBF2F4 		udiv	r4, r0, r2
 488 0192 B4FBF3F2 		udiv	r2, r4, r3
 489 0196 03FB1242 		mls	r2, r3, r2, r4
 490 019a 3032     		adds	r2, r2, #48
 491 019c 8A71     		strb	r2, [r1, #6]
 492 019e 42F21072 		movw	r2, #10000
 493 01a2 B0FBF2F4 		udiv	r4, r0, r2
 494 01a6 B4FBF3F2 		udiv	r2, r4, r3
 495 01aa 03FB1242 		mls	r2, r3, r2, r4
 496 01ae 7F4C     		ldr	r4, .L43+4
 497 01b0 3032     		adds	r2, r2, #48
 498 01b2 B0FBF4F4 		udiv	r4, r0, r4
 499 01b6 4A71     		strb	r2, [r1, #5]
 500 01b8 B4FBF3F2 		udiv	r2, r4, r3
 501 01bc 03FB1242 		mls	r2, r3, r2, r4
 502 01c0 7B4C     		ldr	r4, .L43+8
 503 01c2 3032     		adds	r2, r2, #48
 504 01c4 B0FBF4F4 		udiv	r4, r0, r4
 505 01c8 0A71     		strb	r2, [r1, #4]
 506 01ca B4FBF3F2 		udiv	r2, r4, r3
 507 01ce 03FB1243 		mls	r3, r3, r2, r4
 508 01d2 3033     		adds	r3, r3, #48
 509 01d4 CB70     		strb	r3, [r1, #3]
 510 01d6 774B     		ldr	r3, .L43+12
 511 01d8 B0FBF3F0 		udiv	r0, r0, r3
 512 01dc 2023     		movs	r3, #32
 513 01de 4B70     		strb	r3, [r1, #1]
 514 01e0 0B70     		strb	r3, [r1]
 515 01e2 0023     		movs	r3, #0
 516 01e4 3030     		adds	r0, r0, #48
 517 01e6 8870     		strb	r0, [r1, #2]
 518 01e8 8B72     		strb	r3, [r1, #10]
 519 01ea 62E7     		b	.L26
 520              	.L30:
 521 01ec 764B     		ldr	r3, .L43+32
 522 01ee 9842     		cmp	r0, r3
 523 01f0 3ED9     		bls	.L31
 524 01f2 0A23     		movs	r3, #10
 525 01f4 B0FBF3F4 		udiv	r4, r0, r3
 526 01f8 03FB1402 		mls	r2, r3, r4, r0
 527 01fc 3032     		adds	r2, r2, #48
 528 01fe 4A72     		strb	r2, [r1, #9]
 529 0200 B4FBF3F2 		udiv	r2, r4, r3
 530 0204 03FB1242 		mls	r2, r3, r2, r4
 531 0208 3032     		adds	r2, r2, #48
 532 020a 0A72     		strb	r2, [r1, #8]
ARM GAS  /tmp/ccqpznur.s 			page 10


 533 020c 6422     		movs	r2, #100
 534 020e B0FBF2F4 		udiv	r4, r0, r2
 535 0212 B4FBF3F2 		udiv	r2, r4, r3
 536 0216 03FB1242 		mls	r2, r3, r2, r4
 537 021a 3032     		adds	r2, r2, #48
 538 021c CA71     		strb	r2, [r1, #7]
 539 021e 4FF47A72 		mov	r2, #1000
 540 0222 B0FBF2F4 		udiv	r4, r0, r2
 541 0226 B4FBF3F2 		udiv	r2, r4, r3
 542 022a 03FB1242 		mls	r2, r3, r2, r4
 543 022e 3032     		adds	r2, r2, #48
 544 0230 8A71     		strb	r2, [r1, #6]
 545 0232 42F21072 		movw	r2, #10000
 546 0236 B0FBF2F4 		udiv	r4, r0, r2
 547 023a B4FBF3F2 		udiv	r2, r4, r3
 548 023e 03FB1242 		mls	r2, r3, r2, r4
 549 0242 5A4C     		ldr	r4, .L43+4
 550 0244 3032     		adds	r2, r2, #48
 551 0246 B0FBF4F4 		udiv	r4, r0, r4
 552 024a 4A71     		strb	r2, [r1, #5]
 553 024c B4FBF3F2 		udiv	r2, r4, r3
 554 0250 03FB1243 		mls	r3, r3, r2, r4
 555 0254 3033     		adds	r3, r3, #48
 556 0256 0B71     		strb	r3, [r1, #4]
 557 0258 554B     		ldr	r3, .L43+8
 558 025a B0FBF3F0 		udiv	r0, r0, r3
 559 025e 2023     		movs	r3, #32
 560 0260 3030     		adds	r0, r0, #48
 561 0262 C870     		strb	r0, [r1, #3]
 562              	.L42:
 563 0264 8B70     		strb	r3, [r1, #2]
 564 0266 4B70     		strb	r3, [r1, #1]
 565 0268 0B70     		strb	r3, [r1]
 566 026a 0023     		movs	r3, #0
 567 026c 8B72     		strb	r3, [r1, #10]
 568 026e 20E7     		b	.L26
 569              	.L31:
 570 0270 564B     		ldr	r3, .L43+36
 571 0272 9842     		cmp	r0, r3
 572 0274 31D9     		bls	.L32
 573 0276 0A23     		movs	r3, #10
 574 0278 B0FBF3F4 		udiv	r4, r0, r3
 575 027c 03FB1402 		mls	r2, r3, r4, r0
 576 0280 3032     		adds	r2, r2, #48
 577 0282 4A72     		strb	r2, [r1, #9]
 578 0284 B4FBF3F2 		udiv	r2, r4, r3
 579 0288 03FB1242 		mls	r2, r3, r2, r4
 580 028c 3032     		adds	r2, r2, #48
 581 028e 0A72     		strb	r2, [r1, #8]
 582 0290 6422     		movs	r2, #100
 583 0292 B0FBF2F4 		udiv	r4, r0, r2
 584 0296 B4FBF3F2 		udiv	r2, r4, r3
 585 029a 03FB1242 		mls	r2, r3, r2, r4
 586 029e 3032     		adds	r2, r2, #48
 587 02a0 CA71     		strb	r2, [r1, #7]
 588 02a2 4FF47A72 		mov	r2, #1000
 589 02a6 B0FBF2F4 		udiv	r4, r0, r2
ARM GAS  /tmp/ccqpznur.s 			page 11


 590 02aa B4FBF3F2 		udiv	r2, r4, r3
 591 02ae 03FB1242 		mls	r2, r3, r2, r4
 592 02b2 42F21074 		movw	r4, #10000
 593 02b6 B0FBF4F4 		udiv	r4, r0, r4
 594 02ba 3032     		adds	r2, r2, #48
 595 02bc 8A71     		strb	r2, [r1, #6]
 596 02be B4FBF3F2 		udiv	r2, r4, r3
 597 02c2 03FB1243 		mls	r3, r3, r2, r4
 598 02c6 3033     		adds	r3, r3, #48
 599 02c8 4B71     		strb	r3, [r1, #5]
 600 02ca 384B     		ldr	r3, .L43+4
 601 02cc B0FBF3F0 		udiv	r0, r0, r3
 602 02d0 2023     		movs	r3, #32
 603 02d2 3030     		adds	r0, r0, #48
 604 02d4 0871     		strb	r0, [r1, #4]
 605              	.L41:
 606 02d6 CB70     		strb	r3, [r1, #3]
 607 02d8 C4E7     		b	.L42
 608              	.L32:
 609 02da 42F20F73 		movw	r3, #9999
 610 02de 9842     		cmp	r0, r3
 611 02e0 28D9     		bls	.L33
 612 02e2 0A23     		movs	r3, #10
 613 02e4 B0FBF3F4 		udiv	r4, r0, r3
 614 02e8 03FB1402 		mls	r2, r3, r4, r0
 615 02ec 3032     		adds	r2, r2, #48
 616 02ee 4A72     		strb	r2, [r1, #9]
 617 02f0 B4FBF3F2 		udiv	r2, r4, r3
 618 02f4 03FB1242 		mls	r2, r3, r2, r4
 619 02f8 3032     		adds	r2, r2, #48
 620 02fa 0A72     		strb	r2, [r1, #8]
 621 02fc 6422     		movs	r2, #100
 622 02fe B0FBF2F4 		udiv	r4, r0, r2
 623 0302 B4FBF3F2 		udiv	r2, r4, r3
 624 0306 03FB1242 		mls	r2, r3, r2, r4
 625 030a 4FF47A74 		mov	r4, #1000
 626 030e B0FBF4F4 		udiv	r4, r0, r4
 627 0312 3032     		adds	r2, r2, #48
 628 0314 CA71     		strb	r2, [r1, #7]
 629 0316 B4FBF3F2 		udiv	r2, r4, r3
 630 031a 03FB1243 		mls	r3, r3, r2, r4
 631 031e 3033     		adds	r3, r3, #48
 632 0320 8B71     		strb	r3, [r1, #6]
 633 0322 42F21073 		movw	r3, #10000
 634 0326 B0FBF3F0 		udiv	r0, r0, r3
 635 032a 2023     		movs	r3, #32
 636 032c 3030     		adds	r0, r0, #48
 637 032e 4871     		strb	r0, [r1, #5]
 638              	.L40:
 639 0330 0B71     		strb	r3, [r1, #4]
 640 0332 D0E7     		b	.L41
 641              	.L33:
 642 0334 B0F57A7F 		cmp	r0, #1000
 643 0338 1ED3     		bcc	.L34
 644 033a 0A23     		movs	r3, #10
 645 033c B0FBF3F4 		udiv	r4, r0, r3
 646 0340 03FB1402 		mls	r2, r3, r4, r0
ARM GAS  /tmp/ccqpznur.s 			page 12


 647 0344 3032     		adds	r2, r2, #48
 648 0346 4A72     		strb	r2, [r1, #9]
 649 0348 B4FBF3F2 		udiv	r2, r4, r3
 650 034c 03FB1242 		mls	r2, r3, r2, r4
 651 0350 6424     		movs	r4, #100
 652 0352 B0FBF4F4 		udiv	r4, r0, r4
 653 0356 3032     		adds	r2, r2, #48
 654 0358 0A72     		strb	r2, [r1, #8]
 655 035a B4FBF3F2 		udiv	r2, r4, r3
 656 035e 03FB1243 		mls	r3, r3, r2, r4
 657 0362 3033     		adds	r3, r3, #48
 658 0364 CB71     		strb	r3, [r1, #7]
 659 0366 4FF47A73 		mov	r3, #1000
 660 036a B0FBF3F0 		udiv	r0, r0, r3
 661 036e 2023     		movs	r3, #32
 662 0370 3030     		adds	r0, r0, #48
 663 0372 8871     		strb	r0, [r1, #6]
 664              	.L39:
 665 0374 4B71     		strb	r3, [r1, #5]
 666 0376 DBE7     		b	.L40
 667              	.L34:
 668 0378 6328     		cmp	r0, #99
 669 037a 29D9     		bls	.L35
 670 037c 0A22     		movs	r2, #10
 671 037e B0FBF2F4 		udiv	r4, r0, r2
 672 0382 02FB1403 		mls	r3, r2, r4, r0
 673 0386 3033     		adds	r3, r3, #48
 674 0388 4B72     		strb	r3, [r1, #9]
 675 038a B4FBF2F3 		udiv	r3, r4, r2
 676 038e 02FB1343 		mls	r3, r2, r3, r4
 677 0392 3033     		adds	r3, r3, #48
 678 0394 0B72     		strb	r3, [r1, #8]
 679 0396 6423     		movs	r3, #100
 680 0398 B0FBF3F0 		udiv	r0, r0, r3
 681 039c 2023     		movs	r3, #32
 682 039e 3030     		adds	r0, r0, #48
 683 03a0 C871     		strb	r0, [r1, #7]
 684              	.L37:
 685 03a2 8B71     		strb	r3, [r1, #6]
 686 03a4 E6E7     		b	.L39
 687              	.L44:
 688 03a6 00BF     		.align	2
 689              	.L43:
 690 03a8 FFC99A3B 		.word	999999999
 691 03ac A0860100 		.word	100000
 692 03b0 40420F00 		.word	1000000
 693 03b4 80969800 		.word	10000000
 694 03b8 00E1F505 		.word	100000000
 695 03bc 00CA9A3B 		.word	1000000000
 696 03c0 FFE0F505 		.word	99999999
 697 03c4 7F969800 		.word	9999999
 698 03c8 3F420F00 		.word	999999
 699 03cc 9F860100 		.word	99999
 700              	.L35:
 701 03d0 0928     		cmp	r0, #9
 702 03d2 0BD9     		bls	.L36
 703 03d4 0A23     		movs	r3, #10
ARM GAS  /tmp/ccqpznur.s 			page 13


 704 03d6 B0FBF3F2 		udiv	r2, r0, r3
 705 03da 03FB1200 		mls	r0, r3, r2, r0
 706 03de 2023     		movs	r3, #32
 707 03e0 3030     		adds	r0, r0, #48
 708 03e2 3032     		adds	r2, r2, #48
 709 03e4 4872     		strb	r0, [r1, #9]
 710 03e6 0A72     		strb	r2, [r1, #8]
 711              	.L38:
 712 03e8 CB71     		strb	r3, [r1, #7]
 713 03ea DAE7     		b	.L37
 714              	.L36:
 715 03ec 2023     		movs	r3, #32
 716 03ee 3030     		adds	r0, r0, #48
 717 03f0 4872     		strb	r0, [r1, #9]
 718 03f2 0B72     		strb	r3, [r1, #8]
 719 03f4 F8E7     		b	.L38
 721 03f6 00BF     		.section	.text.double2hex,"ax",%progbits
 722              		.align	1
 723              		.global	double2hex
 724              		.syntax unified
 725              		.thumb
 726              		.thumb_func
 727              		.fpu softvfp
 729              	double2hex:
 730              		@ args = 0, pretend = 0, frame = 0
 731              		@ frame_needed = 0, uses_anonymous_args = 0
 732 0000 0246     		mov	r2, r0
 733 0002 08B5     		push	{r3, lr}
 734 0004 000F     		lsrs	r0, r0, #28
 735 0006 FFF7FEFF 		bl	nibble2hex
 736 000a 0870     		strb	r0, [r1]
 737 000c 100E     		lsrs	r0, r2, #24
 738 000e FFF7FEFF 		bl	nibble2hex
 739 0012 4870     		strb	r0, [r1, #1]
 740 0014 C2F30750 		ubfx	r0, r2, #20, #8
 741 0018 FFF7FEFF 		bl	nibble2hex
 742 001c 8870     		strb	r0, [r1, #2]
 743 001e C2F30740 		ubfx	r0, r2, #16, #8
 744 0022 FFF7FEFF 		bl	nibble2hex
 745 0026 C870     		strb	r0, [r1, #3]
 746 0028 C2F30730 		ubfx	r0, r2, #12, #8
 747 002c FFF7FEFF 		bl	nibble2hex
 748 0030 0871     		strb	r0, [r1, #4]
 749 0032 C2F30720 		ubfx	r0, r2, #8, #8
 750 0036 FFF7FEFF 		bl	nibble2hex
 751 003a 4871     		strb	r0, [r1, #5]
 752 003c C2F30710 		ubfx	r0, r2, #4, #8
 753 0040 FFF7FEFF 		bl	nibble2hex
 754 0044 8871     		strb	r0, [r1, #6]
 755 0046 D0B2     		uxtb	r0, r2
 756 0048 FFF7FEFF 		bl	nibble2hex
 757 004c 0023     		movs	r3, #0
 758 004e C871     		strb	r0, [r1, #7]
 759 0050 0B72     		strb	r3, [r1, #8]
 760 0052 08BD     		pop	{r3, pc}
 762              		.section	.text.word2hex,"ax",%progbits
 763              		.align	1
ARM GAS  /tmp/ccqpznur.s 			page 14


 764              		.global	word2hex
 765              		.syntax unified
 766              		.thumb
 767              		.thumb_func
 768              		.fpu softvfp
 770              	word2hex:
 771              		@ args = 0, pretend = 0, frame = 0
 772              		@ frame_needed = 0, uses_anonymous_args = 0
 773 0000 0246     		mov	r2, r0
 774 0002 08B5     		push	{r3, lr}
 775 0004 000B     		lsrs	r0, r0, #12
 776 0006 FFF7FEFF 		bl	nibble2hex
 777 000a 0870     		strb	r0, [r1]
 778 000c 100A     		lsrs	r0, r2, #8
 779 000e FFF7FEFF 		bl	nibble2hex
 780 0012 4870     		strb	r0, [r1, #1]
 781 0014 C2F30710 		ubfx	r0, r2, #4, #8
 782 0018 FFF7FEFF 		bl	nibble2hex
 783 001c 8870     		strb	r0, [r1, #2]
 784 001e D0B2     		uxtb	r0, r2
 785 0020 FFF7FEFF 		bl	nibble2hex
 786 0024 0023     		movs	r3, #0
 787 0026 C870     		strb	r0, [r1, #3]
 788 0028 0B71     		strb	r3, [r1, #4]
 789 002a 08BD     		pop	{r3, pc}
 791              		.section	.text.byte2hex,"ax",%progbits
 792              		.align	1
 793              		.global	byte2hex
 794              		.syntax unified
 795              		.thumb
 796              		.thumb_func
 797              		.fpu softvfp
 799              	byte2hex:
 800              		@ args = 0, pretend = 0, frame = 0
 801              		@ frame_needed = 0, uses_anonymous_args = 0
 802 0000 0246     		mov	r2, r0
 803 0002 08B5     		push	{r3, lr}
 804 0004 0009     		lsrs	r0, r0, #4
 805 0006 FFF7FEFF 		bl	nibble2hex
 806 000a 0870     		strb	r0, [r1]
 807 000c 1046     		mov	r0, r2
 808 000e FFF7FEFF 		bl	nibble2hex
 809 0012 0023     		movs	r3, #0
 810 0014 4870     		strb	r0, [r1, #1]
 811 0016 8B70     		strb	r3, [r1, #2]
 812 0018 08BD     		pop	{r3, pc}
 814              		.section	.text.my_delay_us,"ax",%progbits
 815              		.align	1
 816              		.global	my_delay_us
 817              		.syntax unified
 818              		.thumb
 819              		.thumb_func
 820              		.fpu softvfp
 822              	my_delay_us:
 823              		@ args = 0, pretend = 0, frame = 0
 824              		@ frame_needed = 0, uses_anonymous_args = 0
 825              		@ link register save eliminated.
ARM GAS  /tmp/ccqpznur.s 			page 15


 826 0000 4001     		lsls	r0, r0, #5
 827 0002 431E     		subs	r3, r0, #1
 828              		.syntax unified
 829              	@ 49 "../ll_library/ll_my_delay_us.h" 1
 830 0004 1846     		   mov r0, r3     
 831 0006 0538     		1: subs r0, #5            
 832 0008 FDD8     		   bhi 1b                 
 833              		
 834              	@ 0 "" 2
 835              		.thumb
 836              		.syntax unified
 837 000a 7047     		bx	lr
 839              		.section	.text.ow_bus_rd,"ax",%progbits
 840              		.align	1
 841              		.global	ow_bus_rd
 842              		.syntax unified
 843              		.thumb
 844              		.thumb_func
 845              		.fpu softvfp
 847              	ow_bus_rd:
 848              		@ args = 0, pretend = 0, frame = 0
 849              		@ frame_needed = 0, uses_anonymous_args = 0
 850              		@ link register save eliminated.
 851 0000 024B     		ldr	r3, .L51
 852 0002 1869     		ldr	r0, [r3, #16]
 853 0004 C0F34000 		ubfx	r0, r0, #1, #1
 854 0008 7047     		bx	lr
 855              	.L52:
 856 000a 00BF     		.align	2
 857              	.L51:
 858 000c 00000240 		.word	1073872896
 860              		.section	.text.ow_bus_wr,"ax",%progbits
 861              		.align	1
 862              		.global	ow_bus_wr
 863              		.syntax unified
 864              		.thumb
 865              		.thumb_func
 866              		.fpu softvfp
 868              	ow_bus_wr:
 869              		@ args = 0, pretend = 0, frame = 0
 870              		@ frame_needed = 0, uses_anonymous_args = 0
 871              		@ link register save eliminated.
 872 0000 034B     		ldr	r3, .L56
 873 0002 0222     		movs	r2, #2
 874 0004 08B1     		cbz	r0, .L54
 875 0006 9A61     		str	r2, [r3, #24]
 876 0008 7047     		bx	lr
 877              	.L54:
 878 000a 9A62     		str	r2, [r3, #40]
 879 000c 7047     		bx	lr
 880              	.L57:
 881 000e 00BF     		.align	2
 882              	.L56:
 883 0010 00000240 		.word	1073872896
 885              		.section	.text.ow_bus_direction,"ax",%progbits
 886              		.align	1
 887              		.global	ow_bus_direction
ARM GAS  /tmp/ccqpznur.s 			page 16


 888              		.syntax unified
 889              		.thumb
 890              		.thumb_func
 891              		.fpu softvfp
 893              	ow_bus_direction:
 894              		@ args = 0, pretend = 0, frame = 24
 895              		@ frame_needed = 0, uses_anonymous_args = 0
 896 0000 7FB5     		push	{r0, r1, r2, r3, r4, r5, r6, lr}
 897 0002 20B9     		cbnz	r0, .L59
 898 0004 FFF7FEFF 		bl	ow_bus_direction.part.1
 899              	.L58:
 900 0008 07B0     		add	sp, sp, #28
 901              		@ sp needed
 902 000a 5DF804FB 		ldr	pc, [sp], #4
 903              	.L59:
 904 000e 0023     		movs	r3, #0
 905 0010 0222     		movs	r2, #2
 906 0012 6946     		mov	r1, sp
 907 0014 0348     		ldr	r0, .L61
 908 0016 CDE90023 		strd	r2, r3, [sp]
 909 001a 0493     		str	r3, [sp, #16]
 910 001c FFF7FEFF 		bl	LL_GPIO_Init
 911 0020 F2E7     		b	.L58
 912              	.L62:
 913 0022 00BF     		.align	2
 914              	.L61:
 915 0024 00000240 		.word	1073872896
 917              		.section	.text.ow_reset,"ax",%progbits
 918              		.align	1
 919              		.global	ow_reset
 920              		.syntax unified
 921              		.thumb
 922              		.thumb_func
 923              		.fpu softvfp
 925              	ow_reset:
 926              		@ args = 0, pretend = 0, frame = 0
 927              		@ frame_needed = 0, uses_anonymous_args = 0
 928 0000 08B5     		push	{r3, lr}
 929              		.syntax unified
 930              	@ 79 "../ll_library/ll_onewire1.h" 1
 931 0002 72B6     		cpsid i
 932              	@ 0 "" 2
 933              		.thumb
 934              		.syntax unified
 935 0004 0222     		movs	r2, #2
 936 0006 0D4B     		ldr	r3, .L64
 937 0008 9A62     		str	r2, [r3, #40]
 938 000a FFF7FEFF 		bl	ow_bus_direction.part.1
 939              		.syntax unified
 940              	@ 83 "../ll_library/ll_onewire1.h" 1
 941 000e 62B6     		cpsie i
 942              	@ 0 "" 2
 943              		.thumb
 944              		.syntax unified
 945 0010 4FF4FA70 		mov	r0, #500
 946 0014 FFF7FEFF 		bl	my_delay_us
 947              		.syntax unified
ARM GAS  /tmp/ccqpznur.s 			page 17


 948              	@ 79 "../ll_library/ll_onewire1.h" 1
 949 0018 72B6     		cpsid i
 950              	@ 0 "" 2
 951              		.thumb
 952              		.syntax unified
 953 001a 0120     		movs	r0, #1
 954 001c FFF7FEFF 		bl	ow_bus_direction
 955 0020 5020     		movs	r0, #80
 956 0022 FFF7FEFF 		bl	my_delay_us
 957 0026 FFF7FEFF 		bl	ow_bus_rd
 958 002a 0246     		mov	r2, r0
 959              		.syntax unified
 960              	@ 83 "../ll_library/ll_onewire1.h" 1
 961 002c 62B6     		cpsie i
 962              	@ 0 "" 2
 963              		.thumb
 964              		.syntax unified
 965 002e 4FF4D270 		mov	r0, #420
 966 0032 FFF7FEFF 		bl	my_delay_us
 967 0036 1046     		mov	r0, r2
 968 0038 08BD     		pop	{r3, pc}
 969              	.L65:
 970 003a 00BF     		.align	2
 971              	.L64:
 972 003c 00000240 		.word	1073872896
 974              		.section	.text.ow_bit_wr,"ax",%progbits
 975              		.align	1
 976              		.global	ow_bit_wr
 977              		.syntax unified
 978              		.thumb
 979              		.thumb_func
 980              		.fpu softvfp
 982              	ow_bit_wr:
 983              		@ args = 0, pretend = 0, frame = 0
 984              		@ frame_needed = 0, uses_anonymous_args = 0
 985 0000 10F0010F 		tst	r0, #1
 986 0004 38B5     		push	{r3, r4, r5, lr}
 987 0006 104C     		ldr	r4, .L68
 988 0008 4FF00205 		mov	r5, #2
 989 000c 0DD0     		beq	.L67
 990              		.syntax unified
 991              	@ 79 "../ll_library/ll_onewire1.h" 1
 992 000e 72B6     		cpsid i
 993              	@ 0 "" 2
 994              		.thumb
 995              		.syntax unified
 996 0010 A562     		str	r5, [r4, #40]
 997 0012 FFF7FEFF 		bl	ow_bus_direction.part.1
 998 0016 0A20     		movs	r0, #10
 999 0018 FFF7FEFF 		bl	my_delay_us
 1000 001c A561     		str	r5, [r4, #24]
 1001              		.syntax unified
 1002              	@ 83 "../ll_library/ll_onewire1.h" 1
 1003 001e 62B6     		cpsie i
 1004              	@ 0 "" 2
 1005              		.thumb
 1006              		.syntax unified
ARM GAS  /tmp/ccqpznur.s 			page 18


 1007 0020 3720     		movs	r0, #55
 1008 0022 BDE83840 		pop	{r3, r4, r5, lr}
 1009 0026 FFF7FEBF 		b	my_delay_us
 1010              	.L67:
 1011              		.syntax unified
 1012              	@ 79 "../ll_library/ll_onewire1.h" 1
 1013 002a 72B6     		cpsid i
 1014              	@ 0 "" 2
 1015              		.thumb
 1016              		.syntax unified
 1017 002c A562     		str	r5, [r4, #40]
 1018 002e FFF7FEFF 		bl	ow_bus_direction.part.1
 1019 0032 4120     		movs	r0, #65
 1020 0034 FFF7FEFF 		bl	my_delay_us
 1021 0038 A561     		str	r5, [r4, #24]
 1022              		.syntax unified
 1023              	@ 83 "../ll_library/ll_onewire1.h" 1
 1024 003a 62B6     		cpsie i
 1025              	@ 0 "" 2
 1026              		.thumb
 1027              		.syntax unified
 1028 003c 0520     		movs	r0, #5
 1029 003e BDE83840 		pop	{r3, r4, r5, lr}
 1030 0042 FFF7FEBF 		b	my_delay_us
 1031              	.L69:
 1032 0046 00BF     		.align	2
 1033              	.L68:
 1034 0048 00000240 		.word	1073872896
 1036              		.section	.text.ow_bit_rd,"ax",%progbits
 1037              		.align	1
 1038              		.global	ow_bit_rd
 1039              		.syntax unified
 1040              		.thumb
 1041              		.thumb_func
 1042              		.fpu softvfp
 1044              	ow_bit_rd:
 1045              		@ args = 0, pretend = 0, frame = 0
 1046              		@ frame_needed = 0, uses_anonymous_args = 0
 1047 0000 08B5     		push	{r3, lr}
 1048              		.syntax unified
 1049              	@ 79 "../ll_library/ll_onewire1.h" 1
 1050 0002 72B6     		cpsid i
 1051              	@ 0 "" 2
 1052              		.thumb
 1053              		.syntax unified
 1054 0004 0222     		movs	r2, #2
 1055 0006 0B4B     		ldr	r3, .L71
 1056 0008 9A62     		str	r2, [r3, #40]
 1057 000a FFF7FEFF 		bl	ow_bus_direction.part.1
 1058 000e 0320     		movs	r0, #3
 1059 0010 FFF7FEFF 		bl	my_delay_us
 1060 0014 0120     		movs	r0, #1
 1061 0016 FFF7FEFF 		bl	ow_bus_direction
 1062 001a 0A20     		movs	r0, #10
 1063 001c FFF7FEFF 		bl	my_delay_us
 1064 0020 FFF7FEFF 		bl	ow_bus_rd
 1065 0024 0246     		mov	r2, r0
ARM GAS  /tmp/ccqpznur.s 			page 19


 1066              		.syntax unified
 1067              	@ 83 "../ll_library/ll_onewire1.h" 1
 1068 0026 62B6     		cpsie i
 1069              	@ 0 "" 2
 1070              		.thumb
 1071              		.syntax unified
 1072 0028 3520     		movs	r0, #53
 1073 002a FFF7FEFF 		bl	my_delay_us
 1074 002e 1046     		mov	r0, r2
 1075 0030 08BD     		pop	{r3, pc}
 1076              	.L72:
 1077 0032 00BF     		.align	2
 1078              	.L71:
 1079 0034 00000240 		.word	1073872896
 1081              		.section	.text.ow_byte_wr,"ax",%progbits
 1082              		.align	1
 1083              		.global	ow_byte_wr
 1084              		.syntax unified
 1085              		.thumb
 1086              		.thumb_func
 1087              		.fpu softvfp
 1089              	ow_byte_wr:
 1090              		@ args = 0, pretend = 0, frame = 0
 1091              		@ frame_needed = 0, uses_anonymous_args = 0
 1092 0000 70B5     		push	{r4, r5, r6, lr}
 1093 0002 0646     		mov	r6, r0
 1094 0004 0825     		movs	r5, #8
 1095 0006 0124     		movs	r4, #1
 1096              	.L74:
 1097 0008 2642     		tst	r6, r4
 1098 000a 14BF     		ite	ne
 1099 000c 0120     		movne	r0, #1
 1100 000e 0020     		moveq	r0, #0
 1101 0010 FFF7FEFF 		bl	ow_bit_wr
 1102 0014 6400     		lsls	r4, r4, #1
 1103 0016 013D     		subs	r5, r5, #1
 1104 0018 E4B2     		uxtb	r4, r4
 1105 001a F5D1     		bne	.L74
 1106              		.syntax unified
 1107              	@ 79 "../ll_library/ll_onewire1.h" 1
 1108 001c 72B6     		cpsid i
 1109              	@ 0 "" 2
 1110              		.thumb
 1111              		.syntax unified
 1112 001e 0120     		movs	r0, #1
 1113 0020 FFF7FEFF 		bl	ow_bus_direction
 1114 0024 0222     		movs	r2, #2
 1115 0026 024B     		ldr	r3, .L76
 1116 0028 9A62     		str	r2, [r3, #40]
 1117              		.syntax unified
 1118              	@ 83 "../ll_library/ll_onewire1.h" 1
 1119 002a 62B6     		cpsie i
 1120              	@ 0 "" 2
 1121              		.thumb
 1122              		.syntax unified
 1123 002c 70BD     		pop	{r4, r5, r6, pc}
 1124              	.L77:
ARM GAS  /tmp/ccqpznur.s 			page 20


 1125 002e 00BF     		.align	2
 1126              	.L76:
 1127 0030 00000240 		.word	1073872896
 1129              		.section	.text.ow_byte_rd,"ax",%progbits
 1130              		.align	1
 1131              		.global	ow_byte_rd
 1132              		.syntax unified
 1133              		.thumb
 1134              		.thumb_func
 1135              		.fpu softvfp
 1137              	ow_byte_rd:
 1138              		@ args = 0, pretend = 0, frame = 0
 1139              		@ frame_needed = 0, uses_anonymous_args = 0
 1140 0000 70B5     		push	{r4, r5, r6, lr}
 1141 0002 0826     		movs	r6, #8
 1142 0004 0025     		movs	r5, #0
 1143 0006 0124     		movs	r4, #1
 1144              	.L80:
 1145 0008 FFF7FEFF 		bl	ow_bit_rd
 1146 000c 00B1     		cbz	r0, .L79
 1147 000e 2543     		orrs	r5, r5, r4
 1148              	.L79:
 1149 0010 6400     		lsls	r4, r4, #1
 1150 0012 013E     		subs	r6, r6, #1
 1151 0014 E4B2     		uxtb	r4, r4
 1152 0016 F7D1     		bne	.L80
 1153 0018 2846     		mov	r0, r5
 1154 001a 70BD     		pop	{r4, r5, r6, pc}
 1156              		.section	.text.ow_command_intern,"ax",%progbits
 1157              		.align	1
 1158              		.global	ow_command_intern
 1159              		.syntax unified
 1160              		.thumb
 1161              		.thumb_func
 1162              		.fpu softvfp
 1164              	ow_command_intern:
 1165              		@ args = 0, pretend = 0, frame = 0
 1166              		@ frame_needed = 0, uses_anonymous_args = 0
 1167 0000 70B5     		push	{r4, r5, r6, lr}
 1168 0002 0C46     		mov	r4, r1
 1169 0004 0546     		mov	r5, r0
 1170 0006 FFF7FEFF 		bl	ow_reset
 1171 000a 7CB1     		cbz	r4, .L86
 1172 000c 5520     		movs	r0, #85
 1173 000e FFF7FEFF 		bl	ow_byte_wr
 1174 0012 04F10806 		add	r6, r4, #8
 1175              	.L87:
 1176 0016 14F8010B 		ldrb	r0, [r4], #1	@ zero_extendqisi2
 1177 001a FFF7FEFF 		bl	ow_byte_wr
 1178 001e B442     		cmp	r4, r6
 1179 0020 F9D1     		bne	.L87
 1180              	.L88:
 1181 0022 2846     		mov	r0, r5
 1182 0024 BDE87040 		pop	{r4, r5, r6, lr}
 1183 0028 FFF7FEBF 		b	ow_byte_wr
 1184              	.L86:
 1185 002c CC20     		movs	r0, #204
ARM GAS  /tmp/ccqpznur.s 			page 21


 1186 002e FFF7FEFF 		bl	ow_byte_wr
 1187 0032 F6E7     		b	.L88
 1189              		.section	.text.ow_command,"ax",%progbits
 1190              		.align	1
 1191              		.global	ow_command
 1192              		.syntax unified
 1193              		.thumb
 1194              		.thumb_func
 1195              		.fpu softvfp
 1197              	ow_command:
 1198              		@ args = 0, pretend = 0, frame = 0
 1199              		@ frame_needed = 0, uses_anonymous_args = 0
 1200              		@ link register save eliminated.
 1201 0000 FFF7FEBF 		b	ow_command_intern
 1203              		.section	.text.ow_crc8,"ax",%progbits
 1204              		.align	1
 1205              		.global	ow_crc8
 1206              		.syntax unified
 1207              		.thumb
 1208              		.thumb_func
 1209              		.fpu softvfp
 1211              	ow_crc8:
 1212              		@ args = 0, pretend = 0, frame = 0
 1213              		@ frame_needed = 0, uses_anonymous_args = 0
 1214 0000 0023     		movs	r3, #0
 1215 0002 30B5     		push	{r4, r5, lr}
 1216 0004 0144     		add	r1, r1, r0
 1217              	.L92:
 1218 0006 8842     		cmp	r0, r1
 1219 0008 01D1     		bne	.L95
 1220 000a 1846     		mov	r0, r3
 1221 000c 30BD     		pop	{r4, r5, pc}
 1222              	.L95:
 1223 000e 0822     		movs	r2, #8
 1224 0010 10F8014B 		ldrb	r4, [r0], #1	@ zero_extendqisi2
 1225              	.L94:
 1226 0014 83EA0405 		eor	r5, r3, r4
 1227 0018 15F0010F 		tst	r5, #1
 1228 001c 4FEA5303 		lsr	r3, r3, #1
 1229 0020 18BF     		it	ne
 1230 0022 83F08C03 		eorne	r3, r3, #140
 1231 0026 02F1FF32 		add	r2, r2, #-1
 1232 002a 18BF     		it	ne
 1233 002c DBB2     		uxtbne	r3, r3
 1234 002e 12F0FF02 		ands	r2, r2, #255
 1235 0032 4FEA5404 		lsr	r4, r4, #1
 1236 0036 EDD1     		bne	.L94
 1237 0038 E5E7     		b	.L92
 1239              		.section	.text.__lcd_write_nibble,"ax",%progbits
 1240              		.align	1
 1241              		.global	__lcd_write_nibble
 1242              		.syntax unified
 1243              		.thumb
 1244              		.thumb_func
 1245              		.fpu softvfp
 1247              	__lcd_write_nibble:
 1248              		@ args = 0, pretend = 0, frame = 0
ARM GAS  /tmp/ccqpznur.s 			page 22


 1249              		@ frame_needed = 0, uses_anonymous_args = 0
 1250 0000 08B5     		push	{r3, lr}
 1251 0002 2023     		movs	r3, #32
 1252 0004 104A     		ldr	r2, .L109
 1253 0006 10F0010F 		tst	r0, #1
 1254 000a 14BF     		ite	ne
 1255 000c 9361     		strne	r3, [r2, #24]
 1256 000e 9362     		streq	r3, [r2, #40]
 1257 0010 1023     		movs	r3, #16
 1258 0012 10F0020F 		tst	r0, #2
 1259 0016 14BF     		ite	ne
 1260 0018 9361     		strne	r3, [r2, #24]
 1261 001a 9362     		streq	r3, [r2, #40]
 1262 001c 4FF48063 		mov	r3, #1024
 1263 0020 4FF48071 		mov	r1, #256
 1264 0024 10F0040F 		tst	r0, #4
 1265 0028 14BF     		ite	ne
 1266 002a 9361     		strne	r3, [r2, #24]
 1267 002c 9362     		streq	r3, [r2, #40]
 1268 002e 074B     		ldr	r3, .L109+4
 1269 0030 10F0080F 		tst	r0, #8
 1270 0034 14BF     		ite	ne
 1271 0036 9961     		strne	r1, [r3, #24]
 1272 0038 9962     		streq	r1, [r3, #40]
 1273 003a 0821     		movs	r1, #8
 1274 003c 0120     		movs	r0, #1
 1275 003e 9161     		str	r1, [r2, #24]
 1276 0040 FFF7FEFF 		bl	my_delay_us
 1277 0044 9162     		str	r1, [r2, #40]
 1278 0046 08BD     		pop	{r3, pc}
 1279              	.L110:
 1280              		.align	2
 1281              	.L109:
 1282 0048 00040240 		.word	1073873920
 1283 004c 00000240 		.word	1073872896
 1285              		.section	.text.__lcd_write,"ax",%progbits
 1286              		.align	1
 1287              		.global	__lcd_write
 1288              		.syntax unified
 1289              		.thumb
 1290              		.thumb_func
 1291              		.fpu softvfp
 1293              	__lcd_write:
 1294              		@ args = 0, pretend = 0, frame = 0
 1295              		@ frame_needed = 0, uses_anonymous_args = 0
 1296 0000 10B5     		push	{r4, lr}
 1297 0002 0446     		mov	r4, r0
 1298 0004 0009     		lsrs	r0, r0, #4
 1299 0006 FFF7FEFF 		bl	__lcd_write_nibble
 1300 000a 2046     		mov	r0, r4
 1301 000c FFF7FEFF 		bl	__lcd_write_nibble
 1302 0010 BDE81040 		pop	{r4, lr}
 1303 0014 2620     		movs	r0, #38
 1304 0016 FFF7FEBF 		b	my_delay_us
 1306              		.section	.text._lcd_write_data,"ax",%progbits
 1307              		.align	1
 1308              		.global	_lcd_write_data
ARM GAS  /tmp/ccqpznur.s 			page 23


 1309              		.syntax unified
 1310              		.thumb
 1311              		.thumb_func
 1312              		.fpu softvfp
 1314              	_lcd_write_data:
 1315              		@ args = 0, pretend = 0, frame = 0
 1316              		@ frame_needed = 0, uses_anonymous_args = 0
 1317              		@ link register save eliminated.
 1318 0000 4FF48062 		mov	r2, #1024
 1319 0004 014B     		ldr	r3, .L113
 1320 0006 9A61     		str	r2, [r3, #24]
 1321 0008 FFF7FEBF 		b	__lcd_write
 1322              	.L114:
 1323              		.align	2
 1324              	.L113:
 1325 000c 00000240 		.word	1073872896
 1327              		.section	.text._lcd_write_command,"ax",%progbits
 1328              		.align	1
 1329              		.global	_lcd_write_command
 1330              		.syntax unified
 1331              		.thumb
 1332              		.thumb_func
 1333              		.fpu softvfp
 1335              	_lcd_write_command:
 1336              		@ args = 0, pretend = 0, frame = 0
 1337              		@ frame_needed = 0, uses_anonymous_args = 0
 1338              		@ link register save eliminated.
 1339 0000 4FF48062 		mov	r2, #1024
 1340 0004 014B     		ldr	r3, .L116
 1341 0006 9A62     		str	r2, [r3, #40]
 1342 0008 FFF7FEBF 		b	__lcd_write
 1343              	.L117:
 1344              		.align	2
 1345              	.L116:
 1346 000c 00000240 		.word	1073872896
 1348              		.section	.text._lcd_line2index,"ax",%progbits
 1349              		.align	1
 1350              		.global	_lcd_line2index
 1351              		.syntax unified
 1352              		.thumb
 1353              		.thumb_func
 1354              		.fpu softvfp
 1356              	_lcd_line2index:
 1357              		@ args = 0, pretend = 0, frame = 0
 1358              		@ frame_needed = 0, uses_anonymous_args = 0
 1359              		@ link register save eliminated.
 1360 0000 0128     		cmp	r0, #1
 1361 0002 0CBF     		ite	eq
 1362 0004 4020     		moveq	r0, #64
 1363 0006 0020     		movne	r0, #0
 1364 0008 7047     		bx	lr
 1366              		.section	.text._lcd_restore_cursor,"ax",%progbits
 1367              		.align	1
 1368              		.global	_lcd_restore_cursor
 1369              		.syntax unified
 1370              		.thumb
 1371              		.thumb_func
ARM GAS  /tmp/ccqpznur.s 			page 24


 1372              		.fpu softvfp
 1374              	_lcd_restore_cursor:
 1375              		@ args = 0, pretend = 0, frame = 0
 1376              		@ frame_needed = 0, uses_anonymous_args = 0
 1377              		@ link register save eliminated.
 1378 0000 024B     		ldr	r3, .L122
 1379 0002 1878     		ldrb	r0, [r3]	@ zero_extendqisi2
 1380 0004 40F08000 		orr	r0, r0, #128
 1381 0008 FFF7FEBF 		b	_lcd_write_command
 1382              	.L123:
 1383              		.align	2
 1384              	.L122:
 1385 000c 00000000 		.word	LCD_POS
 1387              		.section	.text.lcd_write_char,"ax",%progbits
 1388              		.align	1
 1389              		.global	lcd_write_char
 1390              		.syntax unified
 1391              		.thumb
 1392              		.thumb_func
 1393              		.fpu softvfp
 1395              	lcd_write_char:
 1396              		@ args = 0, pretend = 0, frame = 0
 1397              		@ frame_needed = 0, uses_anonymous_args = 0
 1398              		@ link register save eliminated.
 1399 0000 FFF7FEBF 		b	_lcd_write_data
 1401              		.section	.text.lcd_write_str,"ax",%progbits
 1402              		.align	1
 1403              		.global	lcd_write_str
 1404              		.syntax unified
 1405              		.thumb
 1406              		.thumb_func
 1407              		.fpu softvfp
 1409              	lcd_write_str:
 1410              		@ args = 0, pretend = 0, frame = 0
 1411              		@ frame_needed = 0, uses_anonymous_args = 0
 1412 0000 10B5     		push	{r4, lr}
 1413 0002 0446     		mov	r4, r0
 1414              	.L126:
 1415 0004 14F8010B 		ldrb	r0, [r4], #1	@ zero_extendqisi2
 1416 0008 00B9     		cbnz	r0, .L127
 1417 000a 10BD     		pop	{r4, pc}
 1418              	.L127:
 1419 000c FFF7FEFF 		bl	_lcd_write_data
 1420 0010 F8E7     		b	.L126
 1422              		.section	.text.lcd_write_strF,"ax",%progbits
 1423              		.align	1
 1424              		.global	lcd_write_strF
 1425              		.syntax unified
 1426              		.thumb
 1427              		.thumb_func
 1428              		.fpu softvfp
 1430              	lcd_write_strF:
 1431              		@ args = 0, pretend = 0, frame = 0
 1432              		@ frame_needed = 0, uses_anonymous_args = 0
 1433              		@ link register save eliminated.
 1434 0000 FFF7FEBF 		b	lcd_write_str
 1436              		.section	.text.lcd_cursor_position,"ax",%progbits
ARM GAS  /tmp/ccqpznur.s 			page 25


 1437              		.align	1
 1438              		.global	lcd_cursor_position
 1439              		.syntax unified
 1440              		.thumb
 1441              		.thumb_func
 1442              		.fpu softvfp
 1444              	lcd_cursor_position:
 1445              		@ args = 0, pretend = 0, frame = 0
 1446              		@ frame_needed = 0, uses_anonymous_args = 0
 1447 0000 08B5     		push	{r3, lr}
 1448 0002 FFF7FEFF 		bl	_lcd_line2index
 1449 0006 034B     		ldr	r3, .L130
 1450 0008 0144     		add	r1, r1, r0
 1451 000a 1970     		strb	r1, [r3]
 1452 000c BDE80840 		pop	{r3, lr}
 1453 0010 FFF7FEBF 		b	_lcd_restore_cursor
 1454              	.L131:
 1455              		.align	2
 1456              	.L130:
 1457 0014 00000000 		.word	LCD_POS
 1459              		.section	.text.lcd_shift_left,"ax",%progbits
 1460              		.align	1
 1461              		.global	lcd_shift_left
 1462              		.syntax unified
 1463              		.thumb
 1464              		.thumb_func
 1465              		.fpu softvfp
 1467              	lcd_shift_left:
 1468              		@ args = 0, pretend = 0, frame = 0
 1469              		@ frame_needed = 0, uses_anonymous_args = 0
 1470 0000 38B5     		push	{r3, r4, r5, lr}
 1471 0002 0546     		mov	r5, r0
 1472 0004 38B9     		cbnz	r0, .L136
 1473              	.L132:
 1474 0006 38BD     		pop	{r3, r4, r5, pc}
 1475              	.L134:
 1476 0008 1820     		movs	r0, #24
 1477 000a FFF7FEFF 		bl	_lcd_write_command
 1478 000e 0134     		adds	r4, r4, #1
 1479              	.L133:
 1480 0010 A542     		cmp	r5, r4
 1481 0012 F9D8     		bhi	.L134
 1482 0014 F7E7     		b	.L132
 1483              	.L136:
 1484 0016 0024     		movs	r4, #0
 1485 0018 FAE7     		b	.L133
 1487              		.section	.text.lcd_shift_right,"ax",%progbits
 1488              		.align	1
 1489              		.global	lcd_shift_right
 1490              		.syntax unified
 1491              		.thumb
 1492              		.thumb_func
 1493              		.fpu softvfp
 1495              	lcd_shift_right:
 1496              		@ args = 0, pretend = 0, frame = 0
 1497              		@ frame_needed = 0, uses_anonymous_args = 0
 1498 0000 38B5     		push	{r3, r4, r5, lr}
ARM GAS  /tmp/ccqpznur.s 			page 26


 1499 0002 0546     		mov	r5, r0
 1500 0004 38B9     		cbnz	r0, .L141
 1501              	.L137:
 1502 0006 38BD     		pop	{r3, r4, r5, pc}
 1503              	.L139:
 1504 0008 1C20     		movs	r0, #28
 1505 000a FFF7FEFF 		bl	_lcd_write_command
 1506 000e 0134     		adds	r4, r4, #1
 1507              	.L138:
 1508 0010 A542     		cmp	r5, r4
 1509 0012 F9D8     		bhi	.L139
 1510 0014 F7E7     		b	.L137
 1511              	.L141:
 1512 0016 0024     		movs	r4, #0
 1513 0018 FAE7     		b	.L138
 1515              		.section	.text.lcd_cursor_shift_left,"ax",%progbits
 1516              		.align	1
 1517              		.global	lcd_cursor_shift_left
 1518              		.syntax unified
 1519              		.thumb
 1520              		.thumb_func
 1521              		.fpu softvfp
 1523              	lcd_cursor_shift_left:
 1524              		@ args = 0, pretend = 0, frame = 0
 1525              		@ frame_needed = 0, uses_anonymous_args = 0
 1526 0000 38B5     		push	{r3, r4, r5, lr}
 1527 0002 0546     		mov	r5, r0
 1528 0004 38B9     		cbnz	r0, .L146
 1529              	.L142:
 1530 0006 38BD     		pop	{r3, r4, r5, pc}
 1531              	.L144:
 1532 0008 1020     		movs	r0, #16
 1533 000a FFF7FEFF 		bl	_lcd_write_command
 1534 000e 0134     		adds	r4, r4, #1
 1535              	.L143:
 1536 0010 A542     		cmp	r5, r4
 1537 0012 F9D8     		bhi	.L144
 1538 0014 F7E7     		b	.L142
 1539              	.L146:
 1540 0016 0024     		movs	r4, #0
 1541 0018 FAE7     		b	.L143
 1543              		.section	.text.lcd_cursor_shift_right,"ax",%progbits
 1544              		.align	1
 1545              		.global	lcd_cursor_shift_right
 1546              		.syntax unified
 1547              		.thumb
 1548              		.thumb_func
 1549              		.fpu softvfp
 1551              	lcd_cursor_shift_right:
 1552              		@ args = 0, pretend = 0, frame = 0
 1553              		@ frame_needed = 0, uses_anonymous_args = 0
 1554 0000 38B5     		push	{r3, r4, r5, lr}
 1555 0002 0546     		mov	r5, r0
 1556 0004 38B9     		cbnz	r0, .L151
 1557              	.L147:
 1558 0006 38BD     		pop	{r3, r4, r5, pc}
 1559              	.L149:
ARM GAS  /tmp/ccqpznur.s 			page 27


 1560 0008 1420     		movs	r0, #20
 1561 000a FFF7FEFF 		bl	_lcd_write_command
 1562 000e 0134     		adds	r4, r4, #1
 1563              	.L148:
 1564 0010 A542     		cmp	r5, r4
 1565 0012 F9D8     		bhi	.L149
 1566 0014 F7E7     		b	.L147
 1567              	.L151:
 1568 0016 0024     		movs	r4, #0
 1569 0018 FAE7     		b	.L148
 1571              		.section	.text.lcd_clear_screen,"ax",%progbits
 1572              		.align	1
 1573              		.global	lcd_clear_screen
 1574              		.syntax unified
 1575              		.thumb
 1576              		.thumb_func
 1577              		.fpu softvfp
 1579              	lcd_clear_screen:
 1580              		@ args = 0, pretend = 0, frame = 0
 1581              		@ frame_needed = 0, uses_anonymous_args = 0
 1582 0000 08B5     		push	{r3, lr}
 1583 0002 0120     		movs	r0, #1
 1584 0004 FFF7FEFF 		bl	_lcd_write_command
 1585 0008 0120     		movs	r0, #1
 1586 000a FFF7FEFF 		bl	LL_mDelay
 1587 000e BDE80840 		pop	{r3, lr}
 1588 0012 4FF44870 		mov	r0, #800
 1589 0016 FFF7FEBF 		b	my_delay_us
 1591              		.section	.text.lcd_cursor_blink_display,"ax",%progbits
 1592              		.align	1
 1593              		.global	lcd_cursor_blink_display
 1594              		.syntax unified
 1595              		.thumb
 1596              		.thumb_func
 1597              		.fpu softvfp
 1599              	lcd_cursor_blink_display:
 1600              		@ args = 0, pretend = 0, frame = 0
 1601              		@ frame_needed = 0, uses_anonymous_args = 0
 1602              		@ link register save eliminated.
 1603 0000 002A     		cmp	r2, #0
 1604 0002 0CBF     		ite	eq
 1605 0004 0823     		moveq	r3, #8
 1606 0006 0C23     		movne	r3, #12
 1607 0008 00B1     		cbz	r0, .L155
 1608 000a 0233     		adds	r3, r3, #2
 1609              	.L155:
 1610 000c 09B1     		cbz	r1, .L156
 1611 000e 0133     		adds	r3, r3, #1
 1612 0010 DBB2     		uxtb	r3, r3
 1613              	.L156:
 1614 0012 1846     		mov	r0, r3
 1615 0014 FFF7FEBF 		b	_lcd_write_command
 1617              		.section	.text.lcd_home,"ax",%progbits
 1618              		.align	1
 1619              		.global	lcd_home
 1620              		.syntax unified
 1621              		.thumb
ARM GAS  /tmp/ccqpznur.s 			page 28


 1622              		.thumb_func
 1623              		.fpu softvfp
 1625              	lcd_home:
 1626              		@ args = 0, pretend = 0, frame = 0
 1627              		@ frame_needed = 0, uses_anonymous_args = 0
 1628 0000 08B5     		push	{r3, lr}
 1629 0002 0220     		movs	r0, #2
 1630 0004 FFF7FEFF 		bl	_lcd_write_command
 1631 0008 0120     		movs	r0, #1
 1632 000a FFF7FEFF 		bl	LL_mDelay
 1633 000e BDE80840 		pop	{r3, lr}
 1634 0012 4FF44870 		mov	r0, #800
 1635 0016 FFF7FEBF 		b	my_delay_us
 1637              		.section	.text.lcd_clear_line,"ax",%progbits
 1638              		.align	1
 1639              		.global	lcd_clear_line
 1640              		.syntax unified
 1641              		.thumb
 1642              		.thumb_func
 1643              		.fpu softvfp
 1645              	lcd_clear_line:
 1646              		@ args = 0, pretend = 0, frame = 0
 1647              		@ frame_needed = 0, uses_anonymous_args = 0
 1648 0000 10B5     		push	{r4, lr}
 1649 0002 FFF7FEFF 		bl	_lcd_line2index
 1650 0006 074B     		ldr	r3, .L168
 1651 0008 1024     		movs	r4, #16
 1652 000a 1870     		strb	r0, [r3]
 1653 000c FFF7FEFF 		bl	_lcd_restore_cursor
 1654              	.L166:
 1655 0010 2020     		movs	r0, #32
 1656 0012 FFF7FEFF 		bl	_lcd_write_data
 1657 0016 013C     		subs	r4, r4, #1
 1658 0018 FAD1     		bne	.L166
 1659 001a BDE81040 		pop	{r4, lr}
 1660 001e FFF7FEBF 		b	_lcd_restore_cursor
 1661              	.L169:
 1662 0022 00BF     		.align	2
 1663              	.L168:
 1664 0024 00000000 		.word	LCD_POS
 1666              		.section	.text.lcd_progress,"ax",%progbits
 1667              		.align	1
 1668              		.global	lcd_progress
 1669              		.syntax unified
 1670              		.thumb
 1671              		.thumb_func
 1672              		.fpu softvfp
 1674              	lcd_progress:
 1675              		@ args = 0, pretend = 0, frame = 0
 1676              		@ frame_needed = 0, uses_anonymous_args = 0
 1677 0000 70B5     		push	{r4, r5, r6, lr}
 1678 0002 0C46     		mov	r4, r1
 1679 0004 1646     		mov	r6, r2
 1680 0006 FFF7FEFF 		bl	_lcd_line2index
 1681 000a 0B4B     		ldr	r3, .L175
 1682 000c 0025     		movs	r5, #0
 1683 000e 1870     		strb	r0, [r3]
ARM GAS  /tmp/ccqpznur.s 			page 29


 1684 0010 FFF7FEFF 		bl	_lcd_restore_cursor
 1685              	.L171:
 1686 0014 AC42     		cmp	r4, r5
 1687 0016 05D8     		bhi	.L172
 1688 0018 0025     		movs	r5, #0
 1689 001a C4F11004 		rsb	r4, r4, #16
 1690              	.L173:
 1691 001e AC42     		cmp	r4, r5
 1692 0020 05D8     		bhi	.L174
 1693 0022 70BD     		pop	{r4, r5, r6, pc}
 1694              	.L172:
 1695 0024 3046     		mov	r0, r6
 1696 0026 FFF7FEFF 		bl	_lcd_write_data
 1697 002a 0135     		adds	r5, r5, #1
 1698 002c F2E7     		b	.L171
 1699              	.L174:
 1700 002e 2020     		movs	r0, #32
 1701 0030 FFF7FEFF 		bl	_lcd_write_data
 1702 0034 0135     		adds	r5, r5, #1
 1703 0036 F2E7     		b	.L173
 1704              	.L176:
 1705              		.align	2
 1706              	.L175:
 1707 0038 00000000 		.word	LCD_POS
 1709              		.section	.text.lcd_init,"ax",%progbits
 1710              		.align	1
 1711              		.global	lcd_init
 1712              		.syntax unified
 1713              		.thumb
 1714              		.thumb_func
 1715              		.fpu softvfp
 1717              	lcd_init:
 1718              		@ args = 0, pretend = 0, frame = 0
 1719              		@ frame_needed = 0, uses_anonymous_args = 0
 1720 0000 38B5     		push	{r3, r4, r5, lr}
 1721 0002 0025     		movs	r5, #0
 1722 0004 4FF48062 		mov	r2, #1024
 1723 0008 414B     		ldr	r3, .L180
 1724 000a 0446     		mov	r4, r0
 1725 000c 1D70     		strb	r5, [r3]
 1726 000e 414B     		ldr	r3, .L180+4
 1727 0010 9A62     		str	r2, [r3, #40]
 1728 0012 68BB     		cbnz	r0, .L178
 1729 0014 1020     		movs	r0, #16
 1730 0016 FFF7FEFF 		bl	LL_mDelay
 1731 001a 0320     		movs	r0, #3
 1732 001c FFF7FEFF 		bl	__lcd_write_nibble
 1733 0020 0420     		movs	r0, #4
 1734 0022 FFF7FEFF 		bl	LL_mDelay
 1735 0026 C820     		movs	r0, #200
 1736 0028 FFF7FEFF 		bl	my_delay_us
 1737 002c 0320     		movs	r0, #3
 1738 002e FFF7FEFF 		bl	__lcd_write_nibble
 1739 0032 6920     		movs	r0, #105
 1740 0034 FFF7FEFF 		bl	my_delay_us
 1741 0038 0320     		movs	r0, #3
 1742 003a FFF7FEFF 		bl	__lcd_write_nibble
ARM GAS  /tmp/ccqpznur.s 			page 30


 1743 003e 2620     		movs	r0, #38
 1744 0040 FFF7FEFF 		bl	my_delay_us
 1745 0044 0220     		movs	r0, #2
 1746 0046 FFF7FEFF 		bl	__lcd_write_nibble
 1747 004a 2620     		movs	r0, #38
 1748 004c FFF7FEFF 		bl	my_delay_us
 1749 0050 2820     		movs	r0, #40
 1750 0052 FFF7FEFF 		bl	_lcd_write_command
 1751 0056 1C20     		movs	r0, #28
 1752 0058 FFF7FEFF 		bl	_lcd_write_command
 1753 005c 0C20     		movs	r0, #12
 1754 005e FFF7FEFF 		bl	_lcd_write_command
 1755 0062 0620     		movs	r0, #6
 1756 0064 FFF7FEFF 		bl	_lcd_write_command
 1757 0068 BDE83840 		pop	{r3, r4, r5, lr}
 1758 006c FFF7FEBF 		b	lcd_clear_screen
 1759              	.L178:
 1760 0070 0128     		cmp	r0, #1
 1761 0072 4BD1     		bne	.L177
 1762 0074 0320     		movs	r0, #3
 1763 0076 FFF7FEFF 		bl	__lcd_write_nibble
 1764 007a 2820     		movs	r0, #40
 1765 007c FFF7FEFF 		bl	my_delay_us
 1766 0080 0220     		movs	r0, #2
 1767 0082 FFF7FEFF 		bl	__lcd_write_nibble
 1768 0086 0C20     		movs	r0, #12
 1769 0088 FFF7FEFF 		bl	__lcd_write_nibble
 1770 008c 2820     		movs	r0, #40
 1771 008e FFF7FEFF 		bl	my_delay_us
 1772 0092 0220     		movs	r0, #2
 1773 0094 FFF7FEFF 		bl	__lcd_write_nibble
 1774 0098 0C20     		movs	r0, #12
 1775 009a FFF7FEFF 		bl	__lcd_write_nibble
 1776 009e 2620     		movs	r0, #38
 1777 00a0 FFF7FEFF 		bl	my_delay_us
 1778 00a4 2846     		mov	r0, r5
 1779 00a6 FFF7FEFF 		bl	__lcd_write_nibble
 1780 00aa 0C20     		movs	r0, #12
 1781 00ac FFF7FEFF 		bl	__lcd_write_nibble
 1782 00b0 2620     		movs	r0, #38
 1783 00b2 FFF7FEFF 		bl	my_delay_us
 1784 00b6 2846     		mov	r0, r5
 1785 00b8 FFF7FEFF 		bl	__lcd_write_nibble
 1786 00bc 2046     		mov	r0, r4
 1787 00be FFF7FEFF 		bl	__lcd_write_nibble
 1788 00c2 2046     		mov	r0, r4
 1789 00c4 FFF7FEFF 		bl	LL_mDelay
 1790 00c8 4FF4FA70 		mov	r0, #500
 1791 00cc FFF7FEFF 		bl	my_delay_us
 1792 00d0 2820     		movs	r0, #40
 1793 00d2 FFF7FEFF 		bl	my_delay_us
 1794 00d6 2846     		mov	r0, r5
 1795 00d8 FFF7FEFF 		bl	__lcd_write_nibble
 1796 00dc 0620     		movs	r0, #6
 1797 00de FFF7FEFF 		bl	__lcd_write_nibble
 1798 00e2 2620     		movs	r0, #38
 1799 00e4 FFF7FEFF 		bl	my_delay_us
ARM GAS  /tmp/ccqpznur.s 			page 31


 1800 00e8 2846     		mov	r0, r5
 1801 00ea FFF7FEFF 		bl	__lcd_write_nibble
 1802 00ee 2046     		mov	r0, r4
 1803 00f0 FFF7FEFF 		bl	__lcd_write_nibble
 1804 00f4 2046     		mov	r0, r4
 1805 00f6 FFF7FEFF 		bl	LL_mDelay
 1806 00fa 4FF4FA70 		mov	r0, #500
 1807 00fe FFF7FEFF 		bl	my_delay_us
 1808 0102 BDE83840 		pop	{r3, r4, r5, lr}
 1809 0106 2820     		movs	r0, #40
 1810 0108 FFF7FEBF 		b	my_delay_us
 1811              	.L177:
 1812 010c 38BD     		pop	{r3, r4, r5, pc}
 1813              	.L181:
 1814 010e 00BF     		.align	2
 1815              	.L180:
 1816 0110 00000000 		.word	LCD_POS
 1817 0114 00000240 		.word	1073872896
 1819              		.section	.text.ds18b20_clear_scratchpad,"ax",%progbits
 1820              		.align	1
 1821              		.global	ds18b20_clear_scratchpad
 1822              		.syntax unified
 1823              		.thumb
 1824              		.thumb_func
 1825              		.fpu softvfp
 1827              	ds18b20_clear_scratchpad:
 1828              		@ args = 0, pretend = 0, frame = 0
 1829              		@ frame_needed = 0, uses_anonymous_args = 0
 1830              		@ link register save eliminated.
 1831 0000 7047     		bx	lr
 1833              		.section	.text._ds18b20_match_rom,"ax",%progbits
 1834              		.align	1
 1835              		.global	_ds18b20_match_rom
 1836              		.syntax unified
 1837              		.thumb
 1838              		.thumb_func
 1839              		.fpu softvfp
 1841              	_ds18b20_match_rom:
 1842              		@ args = 0, pretend = 0, frame = 0
 1843              		@ frame_needed = 0, uses_anonymous_args = 0
 1844 0000 10B5     		push	{r4, lr}
 1845 0002 0446     		mov	r4, r0
 1846 0004 FFF7FEFF 		bl	ow_reset
 1847 0008 5520     		movs	r0, #85
 1848 000a FFF7FEFF 		bl	ow_byte_wr
 1849 000e 2078     		ldrb	r0, [r4]	@ zero_extendqisi2
 1850 0010 FFF7FEFF 		bl	ow_byte_wr
 1851 0014 6078     		ldrb	r0, [r4, #1]	@ zero_extendqisi2
 1852 0016 FFF7FEFF 		bl	ow_byte_wr
 1853 001a A078     		ldrb	r0, [r4, #2]	@ zero_extendqisi2
 1854 001c FFF7FEFF 		bl	ow_byte_wr
 1855 0020 E078     		ldrb	r0, [r4, #3]	@ zero_extendqisi2
 1856 0022 FFF7FEFF 		bl	ow_byte_wr
 1857 0026 2079     		ldrb	r0, [r4, #4]	@ zero_extendqisi2
 1858 0028 FFF7FEFF 		bl	ow_byte_wr
 1859 002c 6079     		ldrb	r0, [r4, #5]	@ zero_extendqisi2
 1860 002e FFF7FEFF 		bl	ow_byte_wr
ARM GAS  /tmp/ccqpznur.s 			page 32


 1861 0032 A079     		ldrb	r0, [r4, #6]	@ zero_extendqisi2
 1862 0034 FFF7FEFF 		bl	ow_byte_wr
 1863 0038 E079     		ldrb	r0, [r4, #7]	@ zero_extendqisi2
 1864 003a BDE81040 		pop	{r4, lr}
 1865 003e FFF7FEBF 		b	ow_byte_wr
 1867              		.section	.text._ds18b20_skip_rom,"ax",%progbits
 1868              		.align	1
 1869              		.global	_ds18b20_skip_rom
 1870              		.syntax unified
 1871              		.thumb
 1872              		.thumb_func
 1873              		.fpu softvfp
 1875              	_ds18b20_skip_rom:
 1876              		@ args = 0, pretend = 0, frame = 0
 1877              		@ frame_needed = 0, uses_anonymous_args = 0
 1878 0000 08B5     		push	{r3, lr}
 1879 0002 FFF7FEFF 		bl	ow_reset
 1880 0006 BDE80840 		pop	{r3, lr}
 1881 000a CC20     		movs	r0, #204
 1882 000c FFF7FEBF 		b	ow_byte_wr
 1884              		.section	.text._ds18b20_read,"ax",%progbits
 1885              		.align	1
 1886              		.global	_ds18b20_read
 1887              		.syntax unified
 1888              		.thumb
 1889              		.thumb_func
 1890              		.fpu softvfp
 1892              	_ds18b20_read:
 1893              		@ args = 0, pretend = 0, frame = 0
 1894              		@ frame_needed = 0, uses_anonymous_args = 0
 1895 0000 F8B5     		push	{r3, r4, r5, r6, r7, lr}
 1896 0002 0646     		mov	r6, r0
 1897 0004 4FF00004 		mov	r4, #0
 1898 0008 1E4D     		ldr	r5, .L192
 1899 000a 2F18     		adds	r7, r5, r0
 1900              	.L186:
 1901 000c BD42     		cmp	r5, r7
 1902 000e 15D1     		bne	.L188
 1903 0010 092E     		cmp	r6, #9
 1904 0012 32D1     		bne	.L189
 1905 0014 1C4B     		ldr	r3, .L192+4
 1906 0016 1A79     		ldrb	r2, [r3, #4]	@ zero_extendqisi2
 1907 0018 FF2A     		cmp	r2, #255
 1908 001a 2ED1     		bne	.L189
 1909 001c 5A79     		ldrb	r2, [r3, #5]	@ zero_extendqisi2
 1910 001e FF2A     		cmp	r2, #255
 1911 0020 2BD1     		bne	.L189
 1912 0022 9A79     		ldrb	r2, [r3, #6]	@ zero_extendqisi2
 1913 0024 FF2A     		cmp	r2, #255
 1914 0026 28D1     		bne	.L189
 1915 0028 DA79     		ldrb	r2, [r3, #7]	@ zero_extendqisi2
 1916 002a FF2A     		cmp	r2, #255
 1917 002c 25D1     		bne	.L189
 1918 002e 1A7A     		ldrb	r2, [r3, #8]	@ zero_extendqisi2
 1919 0030 FF2A     		cmp	r2, #255
 1920 0032 22D1     		bne	.L189
 1921 0034 C622     		movs	r2, #198
ARM GAS  /tmp/ccqpznur.s 			page 33


 1922 0036 0020     		movs	r0, #0
 1923 0038 1A70     		strb	r2, [r3]
 1924              	.L190:
 1925 003a F8BD     		pop	{r3, r4, r5, r6, r7, pc}
 1926              	.L188:
 1927 003c FFF7FEFF 		bl	ow_byte_rd
 1928 0040 0822     		movs	r2, #8
 1929 0042 0146     		mov	r1, r0
 1930 0044 05F8010F 		strb	r0, [r5, #1]!
 1931              	.L187:
 1932 0048 81EA0403 		eor	r3, r1, r4
 1933 004c 03F00103 		and	r3, r3, #1
 1934 0050 C4F34604 		ubfx	r4, r4, #1, #7
 1935 0054 63F3C714 		bfi	r4, r3, #7, #1
 1936 0058 C4F38000 		ubfx	r0, r4, #2, #1
 1937 005c 5840     		eors	r0, r0, r3
 1938 005e 60F38204 		bfi	r4, r0, #2, #1
 1939 0062 C4F3C000 		ubfx	r0, r4, #3, #1
 1940 0066 4340     		eors	r3, r3, r0
 1941 0068 63F3C304 		bfi	r4, r3, #3, #1
 1942 006c 531E     		subs	r3, r2, #1
 1943 006e 13F0FF02 		ands	r2, r3, #255
 1944 0072 C1F34601 		ubfx	r1, r1, #1, #7
 1945 0076 E7D1     		bne	.L187
 1946 0078 C8E7     		b	.L186
 1947              	.L189:
 1948 007a E0B2     		uxtb	r0, r4
 1949 007c B0FA80F0 		clz	r0, r0
 1950 0080 4009     		lsrs	r0, r0, #5
 1951 0082 DAE7     		b	.L190
 1952              	.L193:
 1953              		.align	2
 1954              	.L192:
 1955 0084 FFFFFFFF 		.word	ds18b20_scratchpad-1
 1956 0088 00000000 		.word	ds18b20_scratchpad
 1958              		.section	.text.ds18b20_set,"ax",%progbits
 1959              		.align	1
 1960              		.global	ds18b20_set
 1961              		.syntax unified
 1962              		.thumb
 1963              		.thumb_func
 1964              		.fpu softvfp
 1966              	ds18b20_set:
 1967              		@ args = 0, pretend = 0, frame = 0
 1968              		@ frame_needed = 0, uses_anonymous_args = 0
 1969 0000 092A     		cmp	r2, #9
 1970 0002 70B5     		push	{r4, r5, r6, lr}
 1971 0004 0646     		mov	r6, r0
 1972 0006 0D46     		mov	r5, r1
 1973 0008 13D0     		beq	.L196
 1974 000a 0A2A     		cmp	r2, #10
 1975 000c 13D0     		beq	.L197
 1976 000e 0B2A     		cmp	r2, #11
 1977 0010 14BF     		ite	ne
 1978 0012 7F24     		movne	r4, #127
 1979 0014 5F24     		moveq	r4, #95
 1980              	.L195:
ARM GAS  /tmp/ccqpznur.s 			page 34


 1981 0016 4E20     		movs	r0, #78
 1982 0018 FFF7FEFF 		bl	ow_byte_wr
 1983 001c F0B2     		uxtb	r0, r6
 1984 001e FFF7FEFF 		bl	ow_byte_wr
 1985 0022 E8B2     		uxtb	r0, r5
 1986 0024 FFF7FEFF 		bl	ow_byte_wr
 1987 0028 2046     		mov	r0, r4
 1988 002a BDE87040 		pop	{r4, r5, r6, lr}
 1989 002e FFF7FEBF 		b	ow_byte_wr
 1990              	.L196:
 1991 0032 1F24     		movs	r4, #31
 1992 0034 EFE7     		b	.L195
 1993              	.L197:
 1994 0036 3F24     		movs	r4, #63
 1995 0038 EDE7     		b	.L195
 1997              		.section	.text.ds18b20_convert,"ax",%progbits
 1998              		.align	1
 1999              		.global	ds18b20_convert
 2000              		.syntax unified
 2001              		.thumb
 2002              		.thumb_func
 2003              		.fpu softvfp
 2005              	ds18b20_convert:
 2006              		@ args = 0, pretend = 0, frame = 0
 2007              		@ frame_needed = 0, uses_anonymous_args = 0
 2008 0000 08B5     		push	{r3, lr}
 2009 0002 FFF7FEFF 		bl	_ds18b20_skip_rom
 2010 0006 BDE80840 		pop	{r3, lr}
 2011 000a 4420     		movs	r0, #68
 2012 000c FFF7FEBF 		b	ow_byte_wr
 2014              		.section	.text.ds18b20_m_convert,"ax",%progbits
 2015              		.align	1
 2016              		.global	ds18b20_m_convert
 2017              		.syntax unified
 2018              		.thumb
 2019              		.thumb_func
 2020              		.fpu softvfp
 2022              	ds18b20_m_convert:
 2023              		@ args = 0, pretend = 0, frame = 0
 2024              		@ frame_needed = 0, uses_anonymous_args = 0
 2025 0000 08B5     		push	{r3, lr}
 2026 0002 FFF7FEFF 		bl	_ds18b20_match_rom
 2027 0006 BDE80840 		pop	{r3, lr}
 2028 000a 4420     		movs	r0, #68
 2029 000c FFF7FEBF 		b	ow_byte_wr
 2031              		.section	.text.ds18b20_s_read_rom,"ax",%progbits
 2032              		.align	1
 2033              		.global	ds18b20_s_read_rom
 2034              		.syntax unified
 2035              		.thumb
 2036              		.thumb_func
 2037              		.fpu softvfp
 2039              	ds18b20_s_read_rom:
 2040              		@ args = 0, pretend = 0, frame = 0
 2041              		@ frame_needed = 0, uses_anonymous_args = 0
 2042 0000 38B5     		push	{r3, r4, r5, lr}
 2043 0002 FFF7FEFF 		bl	ow_reset
ARM GAS  /tmp/ccqpznur.s 			page 35


 2044 0006 0546     		mov	r5, r0
 2045 0008 80B9     		cbnz	r0, .L204
 2046 000a 0324     		movs	r4, #3
 2047              	.L203:
 2048 000c FFF7FEFF 		bl	ow_reset
 2049 0010 3320     		movs	r0, #51
 2050 0012 FFF7FEFF 		bl	ow_byte_wr
 2051 0016 0820     		movs	r0, #8
 2052 0018 FFF7FEFF 		bl	_ds18b20_read
 2053 001c 20B9     		cbnz	r0, .L202
 2054 001e 013C     		subs	r4, r4, #1
 2055 0020 14F0FF04 		ands	r4, r4, #255
 2056 0024 F2D1     		bne	.L203
 2057 0026 0225     		movs	r5, #2
 2058              	.L202:
 2059 0028 2846     		mov	r0, r5
 2060 002a 38BD     		pop	{r3, r4, r5, pc}
 2061              	.L204:
 2062 002c 0125     		movs	r5, #1
 2063 002e FBE7     		b	.L202
 2065              		.section	.text.ds18b20_s_temp,"ax",%progbits
 2066              		.align	1
 2067              		.global	ds18b20_s_temp
 2068              		.syntax unified
 2069              		.thumb
 2070              		.thumb_func
 2071              		.fpu softvfp
 2073              	ds18b20_s_temp:
 2074              		@ args = 0, pretend = 0, frame = 0
 2075              		@ frame_needed = 0, uses_anonymous_args = 0
 2076 0000 F8B5     		push	{r3, r4, r5, r6, r7, lr}
 2077 0002 0546     		mov	r5, r0
 2078 0004 0F46     		mov	r7, r1
 2079 0006 FFF7FEFF 		bl	ow_reset
 2080 000a 0646     		mov	r6, r0
 2081 000c C8B9     		cbnz	r0, .L213
 2082 000e 0324     		movs	r4, #3
 2083              	.L209:
 2084 0010 FFF7FEFF 		bl	_ds18b20_skip_rom
 2085 0014 BE20     		movs	r0, #190
 2086 0016 FFF7FEFF 		bl	ow_byte_wr
 2087 001a 0920     		movs	r0, #9
 2088 001c FFF7FEFF 		bl	_ds18b20_read
 2089 0020 88B9     		cbnz	r0, .L208
 2090 0022 013C     		subs	r4, r4, #1
 2091 0024 14F0FF04 		ands	r4, r4, #255
 2092 0028 F2D1     		bne	.L209
 2093 002a 0226     		movs	r6, #2
 2094              	.L215:
 2095 002c 3046     		mov	r0, r6
 2096 002e F8BD     		pop	{r3, r4, r5, r6, r7, pc}
 2097              	.L216:
 2098 0030 022F     		cmp	r7, #2
 2099 0032 02BF     		ittt	eq
 2100 0034 03EBC303 		addeq	r3, r3, r3, lsl #3
 2101 0038 DB10     		asreq	r3, r3, #3
 2102 003a 03F5A073 		addeq	r3, r3, #320
ARM GAS  /tmp/ccqpznur.s 			page 36


 2103 003e 2B80     		strh	r3, [r5]	@ movhi
 2104 0040 F4E7     		b	.L215
 2105              	.L213:
 2106 0042 0126     		movs	r6, #1
 2107 0044 F2E7     		b	.L215
 2108              	.L208:
 2109 0046 4FF00003 		mov	r3, #0	@ movhi
 2110 004a 074A     		ldr	r2, .L218
 2111 004c 012F     		cmp	r7, #1
 2112 004e 1178     		ldrb	r1, [r2]	@ zero_extendqisi2
 2113 0050 5278     		ldrb	r2, [r2, #1]	@ zero_extendqisi2
 2114 0052 61F30703 		bfi	r3, r1, #0, #8
 2115 0056 62F30F23 		bfi	r3, r2, #8, #8
 2116 005a 1BB2     		sxth	r3, r3
 2117 005c E8D1     		bne	.L216
 2118 005e 0A22     		movs	r2, #10
 2119 0060 5343     		muls	r3, r2, r3
 2120 0062 1B11     		asrs	r3, r3, #4
 2121 0064 2B80     		strh	r3, [r5]	@ movhi
 2122 0066 E1E7     		b	.L215
 2123              	.L219:
 2124              		.align	2
 2125              	.L218:
 2126 0068 00000000 		.word	ds18b20_scratchpad
 2128              		.section	.text.ds18b20_m_temp,"ax",%progbits
 2129              		.align	1
 2130              		.global	ds18b20_m_temp
 2131              		.syntax unified
 2132              		.thumb
 2133              		.thumb_func
 2134              		.fpu softvfp
 2136              	ds18b20_m_temp:
 2137              		@ args = 0, pretend = 0, frame = 0
 2138              		@ frame_needed = 0, uses_anonymous_args = 0
 2139 0000 2DE9F041 		push	{r4, r5, r6, r7, r8, lr}
 2140 0004 8046     		mov	r8, r0
 2141 0006 0D46     		mov	r5, r1
 2142 0008 1746     		mov	r7, r2
 2143 000a FFF7FEFF 		bl	ow_reset
 2144 000e 0646     		mov	r6, r0
 2145 0010 D8B9     		cbnz	r0, .L227
 2146 0012 0324     		movs	r4, #3
 2147              	.L223:
 2148 0014 4046     		mov	r0, r8
 2149 0016 FFF7FEFF 		bl	_ds18b20_match_rom
 2150 001a BE20     		movs	r0, #190
 2151 001c FFF7FEFF 		bl	ow_byte_wr
 2152 0020 0920     		movs	r0, #9
 2153 0022 FFF7FEFF 		bl	_ds18b20_read
 2154 0026 90B9     		cbnz	r0, .L222
 2155 0028 013C     		subs	r4, r4, #1
 2156 002a 14F0FF04 		ands	r4, r4, #255
 2157 002e F1D1     		bne	.L223
 2158 0030 0226     		movs	r6, #2
 2159              	.L229:
 2160 0032 3046     		mov	r0, r6
 2161 0034 BDE8F081 		pop	{r4, r5, r6, r7, r8, pc}
ARM GAS  /tmp/ccqpznur.s 			page 37


 2162              	.L230:
 2163 0038 022F     		cmp	r7, #2
 2164 003a 02BF     		ittt	eq
 2165 003c 03EBC303 		addeq	r3, r3, r3, lsl #3
 2166 0040 DB10     		asreq	r3, r3, #3
 2167 0042 03F5A073 		addeq	r3, r3, #320
 2168 0046 2B80     		strh	r3, [r5]	@ movhi
 2169 0048 F3E7     		b	.L229
 2170              	.L227:
 2171 004a 0126     		movs	r6, #1
 2172 004c F1E7     		b	.L229
 2173              	.L222:
 2174 004e 4FF00003 		mov	r3, #0	@ movhi
 2175 0052 074A     		ldr	r2, .L232
 2176 0054 012F     		cmp	r7, #1
 2177 0056 1178     		ldrb	r1, [r2]	@ zero_extendqisi2
 2178 0058 5278     		ldrb	r2, [r2, #1]	@ zero_extendqisi2
 2179 005a 61F30703 		bfi	r3, r1, #0, #8
 2180 005e 62F30F23 		bfi	r3, r2, #8, #8
 2181 0062 1BB2     		sxth	r3, r3
 2182 0064 E8D1     		bne	.L230
 2183 0066 0A22     		movs	r2, #10
 2184 0068 5343     		muls	r3, r2, r3
 2185 006a 1B11     		asrs	r3, r3, #4
 2186 006c 2B80     		strh	r3, [r5]	@ movhi
 2187 006e E0E7     		b	.L229
 2188              	.L233:
 2189              		.align	2
 2190              	.L232:
 2191 0070 00000000 		.word	ds18b20_scratchpad
 2193              		.section	.text.ds18b20_temp_format,"ax",%progbits
 2194              		.align	1
 2195              		.global	ds18b20_temp_format
 2196              		.syntax unified
 2197              		.thumb
 2198              		.thumb_func
 2199              		.fpu softvfp
 2201              	ds18b20_temp_format:
 2202              		@ args = 0, pretend = 0, frame = 8
 2203              		@ frame_needed = 0, uses_anonymous_args = 0
 2204 0000 13B5     		push	{r0, r1, r4, lr}
 2205 0002 0028     		cmp	r0, #0
 2206 0004 B6BF     		itet	lt
 2207 0006 2D23     		movlt	r3, #45
 2208 0008 2B23     		movge	r3, #43
 2209 000a 4042     		rsblt	r0, r0, #0
 2210 000c 0D4C     		ldr	r4, .L237
 2211 000e B8BF     		it	lt
 2212 0010 00B2     		sxthlt	r0, r0
 2213 0012 6946     		mov	r1, sp
 2214 0014 80B2     		uxth	r0, r0
 2215 0016 B4BF     		ite	lt
 2216 0018 2370     		strblt	r3, [r4]
 2217 001a 2370     		strbge	r3, [r4]
 2218 001c FFF7FEFF 		bl	word2dec
 2219 0020 0023     		movs	r3, #0
 2220 0022 A371     		strb	r3, [r4, #6]
ARM GAS  /tmp/ccqpznur.s 			page 38


 2221 0024 9DF80430 		ldrb	r3, [sp, #4]	@ zero_extendqisi2
 2222 0028 6371     		strb	r3, [r4, #5]
 2223 002a 2E23     		movs	r3, #46
 2224 002c 2371     		strb	r3, [r4, #4]
 2225 002e 9DF80330 		ldrb	r3, [sp, #3]	@ zero_extendqisi2
 2226 0032 E370     		strb	r3, [r4, #3]
 2227 0034 9DF80230 		ldrb	r3, [sp, #2]	@ zero_extendqisi2
 2228 0038 A370     		strb	r3, [r4, #2]
 2229 003a 9DF80130 		ldrb	r3, [sp, #1]	@ zero_extendqisi2
 2230 003e 6370     		strb	r3, [r4, #1]
 2231 0040 02B0     		add	sp, sp, #8
 2232              		@ sp needed
 2233 0042 10BD     		pop	{r4, pc}
 2234              	.L238:
 2235              		.align	2
 2236              	.L237:
 2237 0044 00000000 		.word	ds18b20_formated_temp
 2239              		.section	.text.ds18b20_error,"ax",%progbits
 2240              		.align	1
 2241              		.global	ds18b20_error
 2242              		.syntax unified
 2243              		.thumb
 2244              		.thumb_func
 2245              		.fpu softvfp
 2247              	ds18b20_error:
 2248              		@ Volatile: function does not return.
 2249              		@ args = 0, pretend = 0, frame = 0
 2250              		@ frame_needed = 0, uses_anonymous_args = 0
 2251 0000 0D46     		mov	r5, r1
 2252 0002 08B5     		push	{r3, lr}
 2253 0004 0446     		mov	r4, r0
 2254 0006 0021     		movs	r1, #0
 2255 0008 0120     		movs	r0, #1
 2256 000a FFF7FEFF 		bl	lcd_cursor_position
 2257 000e 022D     		cmp	r5, #2
 2258 0010 1BD1     		bne	.L240
 2259 0012 74B9     		cbnz	r4, .L241
 2260 0014 1848     		ldr	r0, .L249
 2261 0016 FFF7FEFF 		bl	lcd_write_str
 2262              	.L242:
 2263 001a 1848     		ldr	r0, .L249+4
 2264 001c FFF7FEFF 		bl	lcd_write_str
 2265              	.L244:
 2266 0020 174C     		ldr	r4, .L249+8
 2267              	.L248:
 2268 0022 6369     		ldr	r3, [r4, #20]
 2269 0024 3220     		movs	r0, #50
 2270 0026 83F02003 		eor	r3, r3, #32
 2271 002a 6361     		str	r3, [r4, #20]
 2272 002c FFF7FEFF 		bl	LL_mDelay
 2273 0030 F7E7     		b	.L248
 2274              	.L241:
 2275 0032 012C     		cmp	r4, #1
 2276 0034 03D1     		bne	.L243
 2277 0036 1348     		ldr	r0, .L249+12
 2278 0038 FFF7FEFF 		bl	lcd_write_str
 2279 003c EDE7     		b	.L242
ARM GAS  /tmp/ccqpznur.s 			page 39


 2280              	.L243:
 2281 003e 022C     		cmp	r4, #2
 2282 0040 EBD1     		bne	.L242
 2283 0042 1148     		ldr	r0, .L249+16
 2284 0044 FFF7FEFF 		bl	lcd_write_str
 2285 0048 E7E7     		b	.L242
 2286              	.L240:
 2287 004a 012D     		cmp	r5, #1
 2288 004c E8D1     		bne	.L244
 2289 004e 34B9     		cbnz	r4, .L245
 2290 0050 0948     		ldr	r0, .L249
 2291 0052 FFF7FEFF 		bl	lcd_write_str
 2292              	.L246:
 2293 0056 0D48     		ldr	r0, .L249+20
 2294 0058 FFF7FEFF 		bl	lcd_write_str
 2295 005c E0E7     		b	.L244
 2296              	.L245:
 2297 005e 012C     		cmp	r4, #1
 2298 0060 03D1     		bne	.L247
 2299 0062 0848     		ldr	r0, .L249+12
 2300 0064 FFF7FEFF 		bl	lcd_write_str
 2301 0068 F5E7     		b	.L246
 2302              	.L247:
 2303 006a 022C     		cmp	r4, #2
 2304 006c F3D1     		bne	.L246
 2305 006e 0648     		ldr	r0, .L249+16
 2306 0070 FFF7FEFF 		bl	lcd_write_str
 2307 0074 EFE7     		b	.L246
 2308              	.L250:
 2309 0076 00BF     		.align	2
 2310              	.L249:
 2311 0078 00000000 		.word	.LANCHOR0
 2312 007c 00000000 		.word	.LANCHOR3
 2313 0080 00000240 		.word	1073872896
 2314 0084 00000000 		.word	.LANCHOR1
 2315 0088 00000000 		.word	.LANCHOR2
 2316 008c 00000000 		.word	.LANCHOR4
 2318              		.section	.text.SystemClock_Config,"ax",%progbits
 2319              		.align	1
 2320              		.global	SystemClock_Config
 2321              		.syntax unified
 2322              		.thumb
 2323              		.thumb_func
 2324              		.fpu softvfp
 2326              	SystemClock_Config:
 2327              		@ args = 0, pretend = 0, frame = 0
 2328              		@ frame_needed = 0, uses_anonymous_args = 0
 2329 0000 08B5     		push	{r3, lr}
 2330 0002 2D4B     		ldr	r3, .L262
 2331 0004 1A68     		ldr	r2, [r3]
 2332 0006 42F00402 		orr	r2, r2, #4
 2333 000a 1A60     		str	r2, [r3]
 2334 000c 1A68     		ldr	r2, [r3]
 2335 000e 42F00102 		orr	r2, r2, #1
 2336 0012 1A60     		str	r2, [r3]
 2337 0014 1B68     		ldr	r3, [r3]
 2338 0016 D807     		lsls	r0, r3, #31
ARM GAS  /tmp/ccqpznur.s 			page 40


 2339 0018 00D4     		bmi	.L252
 2340              	.L253:
 2341 001a FEE7     		b	.L253
 2342              	.L252:
 2343 001c 274A     		ldr	r2, .L262+4
 2344 001e 1368     		ldr	r3, [r2]
 2345 0020 23F4C053 		bic	r3, r3, #6144
 2346 0024 43F40063 		orr	r3, r3, #2048
 2347 0028 1360     		str	r3, [r2]
 2348 002a 254B     		ldr	r3, .L262+8
 2349 002c 1A68     		ldr	r2, [r3]
 2350 002e 42F00102 		orr	r2, r2, #1
 2351 0032 1A60     		str	r2, [r3]
 2352              	.L254:
 2353 0034 1A68     		ldr	r2, [r3]
 2354 0036 9107     		lsls	r1, r2, #30
 2355 0038 FCD5     		bpl	.L254
 2356 003a 5A68     		ldr	r2, [r3, #4]
 2357 003c 22F4F852 		bic	r2, r2, #7936
 2358 0040 42F48052 		orr	r2, r2, #4096
 2359 0044 5A60     		str	r2, [r3, #4]
 2360 0046 9A68     		ldr	r2, [r3, #8]
 2361 0048 22F47D02 		bic	r2, r2, #16580608
 2362 004c 42F40802 		orr	r2, r2, #8912896
 2363 0050 9A60     		str	r2, [r3, #8]
 2364 0052 1A68     		ldr	r2, [r3]
 2365 0054 42F08072 		orr	r2, r2, #16777216
 2366 0058 1A60     		str	r2, [r3]
 2367 005a 194B     		ldr	r3, .L262+8
 2368              	.L255:
 2369 005c 1A68     		ldr	r2, [r3]
 2370 005e 9201     		lsls	r2, r2, #6
 2371 0060 FCD5     		bpl	.L255
 2372 0062 9A68     		ldr	r2, [r3, #8]
 2373 0064 22F0F002 		bic	r2, r2, #240
 2374 0068 9A60     		str	r2, [r3, #8]
 2375 006a 9A68     		ldr	r2, [r3, #8]
 2376 006c 22F4E062 		bic	r2, r2, #1792
 2377 0070 9A60     		str	r2, [r3, #8]
 2378 0072 9A68     		ldr	r2, [r3, #8]
 2379 0074 22F46052 		bic	r2, r2, #14336
 2380 0078 9A60     		str	r2, [r3, #8]
 2381 007a 9A68     		ldr	r2, [r3, #8]
 2382 007c 42F00302 		orr	r2, r2, #3
 2383 0080 9A60     		str	r2, [r3, #8]
 2384 0082 0F4A     		ldr	r2, .L262+8
 2385              	.L256:
 2386 0084 9368     		ldr	r3, [r2, #8]
 2387 0086 03F00C03 		and	r3, r3, #12
 2388 008a 0C2B     		cmp	r3, #12
 2389 008c FAD1     		bne	.L256
 2390 008e 0D48     		ldr	r0, .L262+12
 2391 0090 FFF7FEFF 		bl	LL_Init1msTick
 2392 0094 0C4A     		ldr	r2, .L262+16
 2393 0096 0B48     		ldr	r0, .L262+12
 2394 0098 1368     		ldr	r3, [r2]
 2395 009a 43F00403 		orr	r3, r3, #4
ARM GAS  /tmp/ccqpznur.s 			page 41


 2396 009e 1360     		str	r3, [r2]
 2397 00a0 FFF7FEFF 		bl	LL_SetSystemCoreClock
 2398 00a4 FFF7FEFF 		bl	NVIC_GetPriorityGrouping
 2399 00a8 FFF7FEFF 		bl	NVIC_EncodePriority.constprop.12
 2400 00ac 074B     		ldr	r3, .L262+20
 2401 00ae 0001     		lsls	r0, r0, #4
 2402 00b0 C0B2     		uxtb	r0, r0
 2403 00b2 83F82300 		strb	r0, [r3, #35]
 2404 00b6 08BD     		pop	{r3, pc}
 2405              	.L263:
 2406              		.align	2
 2407              	.L262:
 2408 00b8 003C0240 		.word	1073888256
 2409 00bc 00700040 		.word	1073770496
 2410 00c0 00380240 		.word	1073887232
 2411 00c4 0048E801 		.word	32000000
 2412 00c8 10E000E0 		.word	-536813552
 2413 00cc 00ED00E0 		.word	-536810240
 2415              		.section	.text.startup.main,"ax",%progbits
 2416              		.align	1
 2417              		.global	main
 2418              		.syntax unified
 2419              		.thumb
 2420              		.thumb_func
 2421              		.fpu softvfp
 2423              	main:
 2424              		@ args = 0, pretend = 0, frame = 48
 2425              		@ frame_needed = 0, uses_anonymous_args = 0
 2426 0000 B64B     		ldr	r3, .L271
 2427 0002 2DE9F04F 		push	{r4, r5, r6, r7, r8, r9, r10, fp, lr}
 2428 0006 5A6A     		ldr	r2, [r3, #36]
 2429 0008 8DB0     		sub	sp, sp, #52
 2430 000a 42F00042 		orr	r2, r2, #-2147483648
 2431 000e 5A62     		str	r2, [r3, #36]
 2432 0010 5A6A     		ldr	r2, [r3, #36]
 2433 0012 B34E     		ldr	r6, .L271+4
 2434 0014 02F00042 		and	r2, r2, #-2147483648
 2435 0018 0392     		str	r2, [sp, #12]
 2436 001a 039A     		ldr	r2, [sp, #12]
 2437 001c 1A6A     		ldr	r2, [r3, #32]
 2438 001e B14F     		ldr	r7, .L271+8
 2439 0020 42F00102 		orr	r2, r2, #1
 2440 0024 1A62     		str	r2, [r3, #32]
 2441 0026 1A6A     		ldr	r2, [r3, #32]
 2442 0028 02F00102 		and	r2, r2, #1
 2443 002c 0292     		str	r2, [sp, #8]
 2444 002e 029A     		ldr	r2, [sp, #8]
 2445 0030 5A6A     		ldr	r2, [r3, #36]
 2446 0032 42F08052 		orr	r2, r2, #268435456
 2447 0036 5A62     		str	r2, [r3, #36]
 2448 0038 5B6A     		ldr	r3, [r3, #36]
 2449 003a AB4A     		ldr	r2, .L271+12
 2450 003c 03F08053 		and	r3, r3, #268435456
 2451 0040 0193     		str	r3, [sp, #4]
 2452 0042 019B     		ldr	r3, [sp, #4]
 2453 0044 D168     		ldr	r1, [r2, #12]
 2454 0046 A94B     		ldr	r3, .L271+16
ARM GAS  /tmp/ccqpznur.s 			page 42


 2455 0048 21F4E061 		bic	r1, r1, #1792
 2456 004c 0904     		lsls	r1, r1, #16
 2457 004e 090C     		lsrs	r1, r1, #16
 2458 0050 0B43     		orrs	r3, r3, r1
 2459 0052 D360     		str	r3, [r2, #12]
 2460 0054 FFF7FEFF 		bl	NVIC_GetPriorityGrouping
 2461 0058 FFF7FEFF 		bl	NVIC_EncodePriority.constprop.12
 2462 005c 0001     		lsls	r0, r0, #4
 2463 005e C0B2     		uxtb	r0, r0
 2464 0060 1076     		strb	r0, [r2, #24]
 2465 0062 FFF7FEFF 		bl	NVIC_GetPriorityGrouping
 2466 0066 FFF7FEFF 		bl	NVIC_EncodePriority.constprop.12
 2467 006a 0001     		lsls	r0, r0, #4
 2468 006c C0B2     		uxtb	r0, r0
 2469 006e 5076     		strb	r0, [r2, #25]
 2470 0070 FFF7FEFF 		bl	NVIC_GetPriorityGrouping
 2471 0074 FFF7FEFF 		bl	NVIC_EncodePriority.constprop.12
 2472 0078 0001     		lsls	r0, r0, #4
 2473 007a C0B2     		uxtb	r0, r0
 2474 007c 9076     		strb	r0, [r2, #26]
 2475 007e FFF7FEFF 		bl	NVIC_GetPriorityGrouping
 2476 0082 FFF7FEFF 		bl	NVIC_EncodePriority.constprop.12
 2477 0086 0001     		lsls	r0, r0, #4
 2478 0088 C0B2     		uxtb	r0, r0
 2479 008a D077     		strb	r0, [r2, #31]
 2480 008c FFF7FEFF 		bl	NVIC_GetPriorityGrouping
 2481 0090 FFF7FEFF 		bl	NVIC_EncodePriority.constprop.12
 2482 0094 0001     		lsls	r0, r0, #4
 2483 0096 C0B2     		uxtb	r0, r0
 2484 0098 82F82000 		strb	r0, [r2, #32]
 2485 009c FFF7FEFF 		bl	NVIC_GetPriorityGrouping
 2486 00a0 FFF7FEFF 		bl	NVIC_EncodePriority.constprop.12
 2487 00a4 0001     		lsls	r0, r0, #4
 2488 00a6 C0B2     		uxtb	r0, r0
 2489 00a8 82F82200 		strb	r0, [r2, #34]
 2490 00ac FFF7FEFF 		bl	NVIC_GetPriorityGrouping
 2491 00b0 FFF7FEFF 		bl	NVIC_EncodePriority.constprop.12
 2492 00b4 0001     		lsls	r0, r0, #4
 2493 00b6 C0B2     		uxtb	r0, r0
 2494 00b8 82F82300 		strb	r0, [r2, #35]
 2495 00bc FFF7FEFF 		bl	SystemClock_Config
 2496 00c0 0420     		movs	r0, #4
 2497 00c2 FFF7FEFF 		bl	LL_AHB1_GRP1_EnableClock
 2498 00c6 2020     		movs	r0, #32
 2499 00c8 FFF7FEFF 		bl	LL_AHB1_GRP1_EnableClock
 2500 00cc 0120     		movs	r0, #1
 2501 00ce FFF7FEFF 		bl	LL_AHB1_GRP1_EnableClock
 2502 00d2 0220     		movs	r0, #2
 2503 00d4 FFF7FEFF 		bl	LL_AHB1_GRP1_EnableClock
 2504 00d8 4FF4A463 		mov	r3, #1312
 2505 00dc B362     		str	r3, [r6, #40]
 2506 00de 4FF48763 		mov	r3, #1080
 2507 00e2 8349     		ldr	r1, .L271+20
 2508 00e4 BB62     		str	r3, [r7, #40]
 2509 00e6 4A69     		ldr	r2, [r1, #20]
 2510 00e8 F023     		movs	r3, #240
 2511              		.syntax unified
ARM GAS  /tmp/ccqpznur.s 			page 43


 2512              	@ 531 "Drivers/CMSIS/Include/cmsis_gcc.h" 1
 2513 00ea 93FAA3F3 		rbit r3, r3
 2514              	@ 0 "" 2
 2515              		.thumb
 2516              		.syntax unified
 2517 00ee 4FF00409 		mov	r9, #4
 2518 00f2 B3FA83F3 		clz	r3, r3
 2519 00f6 22F0F002 		bic	r2, r2, #240
 2520 00fa 09FA03F3 		lsl	r3, r9, r3
 2521 00fe 1343     		orrs	r3, r3, r2
 2522 0100 4B61     		str	r3, [r1, #20]
 2523 0102 01F58431 		add	r1, r1, #67584
 2524 0106 C868     		ldr	r0, [r1, #12]
 2525 0108 4FF40052 		mov	r2, #8192
 2526              		.syntax unified
 2527              	@ 531 "Drivers/CMSIS/Include/cmsis_gcc.h" 1
 2528 010c 92FAA2F3 		rbit r3, r2
 2529              	@ 0 "" 2
 2530              		.thumb
 2531              		.syntax unified
 2532 0110 B3FA83F3 		clz	r3, r3
 2533 0114 4FF00308 		mov	r8, #3
 2534 0118 5B00     		lsls	r3, r3, #1
 2535 011a 08FA03F3 		lsl	r3, r8, r3
 2536 011e 20EA0303 		bic	r3, r0, r3
 2537              		.syntax unified
 2538              	@ 531 "Drivers/CMSIS/Include/cmsis_gcc.h" 1
 2539 0122 92FAA2F0 		rbit r0, r2
 2540              	@ 0 "" 2
 2541              		.thumb
 2542              		.syntax unified
 2543 0126 CB60     		str	r3, [r1, #12]
 2544 0128 0868     		ldr	r0, [r1]
 2545              		.syntax unified
 2546              	@ 531 "Drivers/CMSIS/Include/cmsis_gcc.h" 1
 2547 012a 92FAA2F3 		rbit r3, r2
 2548              	@ 0 "" 2
 2549              		.thumb
 2550              		.syntax unified
 2551 012e B3FA83F3 		clz	r3, r3
 2552 0132 5B00     		lsls	r3, r3, #1
 2553 0134 08FA03F3 		lsl	r3, r8, r3
 2554 0138 20EA0303 		bic	r3, r0, r3
 2555              		.syntax unified
 2556              	@ 531 "Drivers/CMSIS/Include/cmsis_gcc.h" 1
 2557 013c 92FAA2F0 		rbit r0, r2
 2558              	@ 0 "" 2
 2559              		.thumb
 2560              		.syntax unified
 2561 0140 0024     		movs	r4, #0
 2562 0142 0125     		movs	r5, #1
 2563 0144 4FF0020A 		mov	r10, #2
 2564 0148 0B60     		str	r3, [r1]
 2565 014a 04A8     		add	r0, sp, #16
 2566 014c 0492     		str	r2, [sp, #16]
 2567 014e 4FF0070B 		mov	fp, #7
 2568 0152 8DF81450 		strb	r5, [sp, #20]
ARM GAS  /tmp/ccqpznur.s 			page 44


 2569 0156 8DF81540 		strb	r4, [sp, #21]
 2570 015a 8DF81650 		strb	r5, [sp, #22]
 2571 015e FFF7FEFF 		bl	LL_EXTI_Init
 2572 0162 06A9     		add	r1, sp, #24
 2573 0164 3046     		mov	r0, r6
 2574 0166 CDE906A4 		strd	r10, r4, [sp, #24]
 2575 016a 0A94     		str	r4, [sp, #40]
 2576 016c FFF7FEFF 		bl	LL_GPIO_Init
 2577 0170 CDE9069A 		strd	r9, r10, [sp, #24]
 2578 0174 4FF00809 		mov	r9, #8
 2579 0178 06A9     		add	r1, sp, #24
 2580 017a 3046     		mov	r0, r6
 2581 017c CDE90884 		strd	r8, r4, [sp, #32]
 2582 0180 0A94     		str	r4, [sp, #40]
 2583 0182 CDF82CB0 		str	fp, [sp, #44]
 2584 0186 FFF7FEFF 		bl	LL_GPIO_Init
 2585 018a CDE90884 		strd	r8, r4, [sp, #32]
 2586 018e 4FF02008 		mov	r8, #32
 2587 0192 CDE9069A 		strd	r9, r10, [sp, #24]
 2588 0196 4FF4806A 		mov	r10, #1024
 2589 019a 06A9     		add	r1, sp, #24
 2590 019c 3046     		mov	r0, r6
 2591 019e CDE90A4B 		strd	r4, fp, [sp, #40]
 2592 01a2 FFF7FEFF 		bl	LL_GPIO_Init
 2593 01a6 06A9     		add	r1, sp, #24
 2594 01a8 3046     		mov	r0, r6
 2595 01aa CDE90685 		strd	r8, r5, [sp, #24]
 2596 01ae CDE90844 		strd	r4, r4, [sp, #32]
 2597 01b2 0A94     		str	r4, [sp, #40]
 2598 01b4 FFF7FEFF 		bl	LL_GPIO_Init
 2599 01b8 06A9     		add	r1, sp, #24
 2600 01ba 3846     		mov	r0, r7
 2601 01bc CDE906A5 		strd	r10, r5, [sp, #24]
 2602 01c0 CDE90844 		strd	r4, r4, [sp, #32]
 2603 01c4 0A94     		str	r4, [sp, #40]
 2604 01c6 FFF7FEFF 		bl	LL_GPIO_Init
 2605 01ca 4FF48073 		mov	r3, #256
 2606 01ce 06A9     		add	r1, sp, #24
 2607 01d0 3046     		mov	r0, r6
 2608 01d2 CDE90635 		strd	r3, r5, [sp, #24]
 2609 01d6 CDE90844 		strd	r4, r4, [sp, #32]
 2610 01da 0A94     		str	r4, [sp, #40]
 2611 01dc FFF7FEFF 		bl	LL_GPIO_Init
 2612 01e0 06A9     		add	r1, sp, #24
 2613 01e2 3046     		mov	r0, r6
 2614 01e4 CDE906A5 		strd	r10, r5, [sp, #24]
 2615 01e8 CDE90844 		strd	r4, r4, [sp, #32]
 2616 01ec 0A94     		str	r4, [sp, #40]
 2617 01ee FFF7FEFF 		bl	LL_GPIO_Init
 2618 01f2 06A9     		add	r1, sp, #24
 2619 01f4 3846     		mov	r0, r7
 2620 01f6 CDE90695 		strd	r9, r5, [sp, #24]
 2621 01fa CDE90844 		strd	r4, r4, [sp, #32]
 2622 01fe 0A94     		str	r4, [sp, #40]
 2623 0200 FFF7FEFF 		bl	LL_GPIO_Init
 2624 0204 1023     		movs	r3, #16
 2625 0206 06A9     		add	r1, sp, #24
ARM GAS  /tmp/ccqpznur.s 			page 45


 2626 0208 3846     		mov	r0, r7
 2627 020a CDE90635 		strd	r3, r5, [sp, #24]
 2628 020e CDE90844 		strd	r4, r4, [sp, #32]
 2629 0212 0A94     		str	r4, [sp, #40]
 2630 0214 FFF7FEFF 		bl	LL_GPIO_Init
 2631 0218 06A9     		add	r1, sp, #24
 2632 021a 3846     		mov	r0, r7
 2633 021c CDE90685 		strd	r8, r5, [sp, #24]
 2634 0220 CDE90844 		strd	r4, r4, [sp, #32]
 2635 0224 0A94     		str	r4, [sp, #40]
 2636 0226 FFF7FEFF 		bl	LL_GPIO_Init
 2637 022a 2046     		mov	r0, r4
 2638 022c FFF7FEFF 		bl	lcd_init
 2639 0230 4FF47A70 		mov	r0, #1000
 2640 0234 FFF7FEFF 		bl	LL_mDelay
 2641 0238 2146     		mov	r1, r4
 2642 023a 2046     		mov	r0, r4
 2643 023c FFF7FEFF 		bl	lcd_cursor_position
 2644 0240 2C48     		ldr	r0, .L271+24
 2645 0242 FFF7FEFF 		bl	lcd_write_str
 2646 0246 4946     		mov	r1, r9
 2647 0248 2046     		mov	r0, r4
 2648 024a FFF7FEFF 		bl	lcd_cursor_position
 2649 024e 2A48     		ldr	r0, .L271+28
 2650 0250 FFF7FEFF 		bl	lcd_write_str
 2651 0254 FFF7FEFF 		bl	ow_reset
 2652 0258 0146     		mov	r1, r0
 2653 025a 10B1     		cbz	r0, .L265
 2654 025c 2046     		mov	r0, r4
 2655 025e FFF7FEFF 		bl	ds18b20_error
 2656              	.L265:
 2657 0262 0C22     		movs	r2, #12
 2658 0264 6FF02701 		mvn	r1, #39
 2659 0268 5520     		movs	r0, #85
 2660 026a FFF7FEFF 		bl	ds18b20_set
 2661 026e 234D     		ldr	r5, .L271+32
 2662 0270 234C     		ldr	r4, .L271+36
 2663 0272 244E     		ldr	r6, .L271+40
 2664              	.L269:
 2665 0274 FFF7FEFF 		bl	ds18b20_convert
 2666 0278 4FF43E70 		mov	r0, #760
 2667 027c FFF7FEFF 		bl	LL_mDelay
 2668 0280 06A9     		add	r1, sp, #24
 2669 0282 0122     		movs	r2, #1
 2670 0284 2846     		mov	r0, r5
 2671 0286 FFF7FEFF 		bl	ds18b20_m_temp
 2672 028a 0146     		mov	r1, r0
 2673 028c 98B9     		cbnz	r0, .L266
 2674 028e 0221     		movs	r1, #2
 2675 0290 FFF7FEFF 		bl	lcd_cursor_position
 2676 0294 BDF91800 		ldrsh	r0, [sp, #24]
 2677 0298 FFF7FEFF 		bl	ds18b20_temp_format
 2678 029c 2046     		mov	r0, r4
 2679 029e FFF7FEFF 		bl	lcd_write_str
 2680 02a2 06A9     		add	r1, sp, #24
 2681 02a4 0122     		movs	r2, #1
 2682 02a6 3046     		mov	r0, r6
ARM GAS  /tmp/ccqpznur.s 			page 46


 2683 02a8 FFF7FEFF 		bl	ds18b20_m_temp
 2684 02ac 0146     		mov	r1, r0
 2685 02ae 28B1     		cbz	r0, .L267
 2686 02b0 0220     		movs	r0, #2
 2687 02b2 FFF7FEFF 		bl	ds18b20_error
 2688              	.L266:
 2689 02b6 0120     		movs	r0, #1
 2690 02b8 FFF7FEFF 		bl	ds18b20_error
 2691              	.L267:
 2692 02bc 0A21     		movs	r1, #10
 2693 02be FFF7FEFF 		bl	lcd_cursor_position
 2694 02c2 BDF91800 		ldrsh	r0, [sp, #24]
 2695 02c6 FFF7FEFF 		bl	ds18b20_temp_format
 2696 02ca 2046     		mov	r0, r4
 2697 02cc FFF7FEFF 		bl	lcd_write_str
 2698 02d0 034A     		ldr	r2, .L271+4
 2699 02d2 5369     		ldr	r3, [r2, #20]
 2700 02d4 83F02003 		eor	r3, r3, #32
 2701 02d8 5361     		str	r3, [r2, #20]
 2702 02da CBE7     		b	.L269
 2703              	.L272:
 2704              		.align	2
 2705              	.L271:
 2706 02dc 00380240 		.word	1073887232
 2707 02e0 00000240 		.word	1073872896
 2708 02e4 00040240 		.word	1073873920
 2709 02e8 00ED00E0 		.word	-536810240
 2710 02ec 0007FA05 		.word	100271872
 2711 02f0 00000140 		.word	1073807360
 2712 02f4 00000000 		.word	.LANCHOR5
 2713 02f8 00000000 		.word	.LANCHOR6
 2714 02fc 00000000 		.word	.LANCHOR7
 2715 0300 00000000 		.word	ds18b20_formated_temp
 2716 0304 00000000 		.word	.LANCHOR8
 2718              		.section	.text._Error_Handler,"ax",%progbits
 2719              		.align	1
 2720              		.global	_Error_Handler
 2721              		.syntax unified
 2722              		.thumb
 2723              		.thumb_func
 2724              		.fpu softvfp
 2726              	_Error_Handler:
 2727              		@ Volatile: function does not return.
 2728              		@ args = 0, pretend = 0, frame = 0
 2729              		@ frame_needed = 0, uses_anonymous_args = 0
 2730              		@ link register save eliminated.
 2731              	.L274:
 2732 0000 FEE7     		b	.L274
 2734              		.global	ds_t2_id
 2735              		.global	ds_t1_id
 2736              		.global	ds_temp2
 2737              		.global	ds_temp1
 2738              		.global	ds_err2
 2739              		.global	ds_err1
 2740              		.global	ds_t2
 2741              		.global	ds_t1
 2742              		.global	ds_all
ARM GAS  /tmp/ccqpznur.s 			page 47


 2743              		.comm	ds18b20_formated_temp,7,1
 2744              		.comm	ds18b20_scratchpad,9,1
 2745              		.comm	LCD_POS,1,1
 2746              		.section	.rodata.ds_all,"a",%progbits
 2747              		.set	.LANCHOR0,. + 0
 2750              	ds_all:
 2751 0000 45727221 		.ascii	"Err! \000"
 2751      2000
 2752              		.section	.rodata.ds_err1,"a",%progbits
 2753              		.set	.LANCHOR4,. + 0
 2756              	ds_err1:
 2757 0000 4E6F2073 		.ascii	"No sensor! \000"
 2757      656E736F 
 2757      72212000 
 2758              		.section	.rodata.ds_err2,"a",%progbits
 2759              		.set	.LANCHOR3,. + 0
 2762              	ds_err2:
 2763 0000 42616420 		.ascii	"Bad Data!  \000"
 2763      44617461 
 2763      21202000 
 2764              		.section	.rodata.ds_t1,"a",%progbits
 2765              		.set	.LANCHOR1,. + 0
 2768              	ds_t1:
 2769 0000 5453313A 		.ascii	"TS1: \000"
 2769      2000
 2770              		.section	.rodata.ds_t1_id,"a",%progbits
 2771              		.set	.LANCHOR7,. + 0
 2774              	ds_t1_id:
 2775 0000 28       		.byte	40
 2776 0001 98       		.byte	-104
 2777 0002 85       		.byte	-123
 2778 0003 8B       		.byte	-117
 2779 0004 02       		.byte	2
 2780 0005 00       		.byte	0
 2781 0006 00       		.byte	0
 2782 0007 15       		.byte	21
 2783              		.section	.rodata.ds_t2,"a",%progbits
 2784              		.set	.LANCHOR2,. + 0
 2787              	ds_t2:
 2788 0000 5453323A 		.ascii	"TS2: \000"
 2788      2000
 2789              		.section	.rodata.ds_t2_id,"a",%progbits
 2790              		.set	.LANCHOR8,. + 0
 2793              	ds_t2_id:
 2794 0000 28       		.byte	40
 2795 0001 94       		.byte	-108
 2796 0002 19       		.byte	25
 2797 0003 21       		.byte	33
 2798 0004 06       		.byte	6
 2799 0005 00       		.byte	0
 2800 0006 00       		.byte	0
 2801 0007 D2       		.byte	-46
 2802              		.section	.rodata.ds_temp1,"a",%progbits
 2803              		.set	.LANCHOR5,. + 0
 2806              	ds_temp1:
 2807 0000 413A00   		.ascii	"A:\000"
 2808              		.section	.rodata.ds_temp2,"a",%progbits
ARM GAS  /tmp/ccqpznur.s 			page 48


 2809              		.set	.LANCHOR6,. + 0
 2812              	ds_temp2:
 2813 0000 423A00   		.ascii	"B:\000"
 2814              		.ident	"GCC: (GNU Tools for Arm Embedded Processors 7-2018-q2-update) 7.3.1 20180622 (release) [AR
ARM GAS  /tmp/ccqpznur.s 			page 49


DEFINED SYMBOLS
                            *ABS*:0000000000000000 main.c
     /tmp/ccqpznur.s:14     .text.NVIC_GetPriorityGrouping:0000000000000000 $t
     /tmp/ccqpznur.s:20     .text.NVIC_GetPriorityGrouping:0000000000000000 NVIC_GetPriorityGrouping
     /tmp/ccqpznur.s:31     .text.NVIC_GetPriorityGrouping:000000000000000c $d
     /tmp/ccqpznur.s:34     .text.LL_AHB1_GRP1_EnableClock:0000000000000000 $t
     /tmp/ccqpznur.s:40     .text.LL_AHB1_GRP1_EnableClock:0000000000000000 LL_AHB1_GRP1_EnableClock
     /tmp/ccqpznur.s:59     .text.LL_AHB1_GRP1_EnableClock:0000000000000018 $d
     /tmp/ccqpznur.s:62     .text.ow_bus_direction.part.1:0000000000000000 $t
     /tmp/ccqpznur.s:68     .text.ow_bus_direction.part.1:0000000000000000 ow_bus_direction.part.1
     /tmp/ccqpznur.s:88     .text.ow_bus_direction.part.1:0000000000000024 $d
     /tmp/ccqpznur.s:91     .text.NVIC_EncodePriority.constprop.12:0000000000000000 $t
     /tmp/ccqpznur.s:97     .text.NVIC_EncodePriority.constprop.12:0000000000000000 NVIC_EncodePriority.constprop.12
     /tmp/ccqpznur.s:105    .text.dectobcd:0000000000000000 $t
     /tmp/ccqpznur.s:112    .text.dectobcd:0000000000000000 dectobcd
     /tmp/ccqpznur.s:124    .text.bcdtodec:0000000000000000 $t
     /tmp/ccqpznur.s:131    .text.bcdtodec:0000000000000000 bcdtodec
     /tmp/ccqpznur.s:143    .text.nibble2hex:0000000000000000 $t
     /tmp/ccqpznur.s:150    .text.nibble2hex:0000000000000000 nibble2hex
     /tmp/ccqpznur.s:162    .text.byte2dec:0000000000000000 $t
     /tmp/ccqpznur.s:169    .text.byte2dec:0000000000000000 byte2dec
     /tmp/ccqpznur.s:218    .text.word2dec:0000000000000000 $t
     /tmp/ccqpznur.s:225    .text.word2dec:0000000000000000 word2dec
     /tmp/ccqpznur.s:336    .text.double2dec:0000000000000000 $t
     /tmp/ccqpznur.s:343    .text.double2dec:0000000000000000 double2dec
     /tmp/ccqpznur.s:690    .text.double2dec:00000000000003a8 $d
     /tmp/ccqpznur.s:701    .text.double2dec:00000000000003d0 $t
     /tmp/ccqpznur.s:722    .text.double2hex:0000000000000000 $t
     /tmp/ccqpznur.s:729    .text.double2hex:0000000000000000 double2hex
     /tmp/ccqpznur.s:763    .text.word2hex:0000000000000000 $t
     /tmp/ccqpznur.s:770    .text.word2hex:0000000000000000 word2hex
     /tmp/ccqpznur.s:792    .text.byte2hex:0000000000000000 $t
     /tmp/ccqpznur.s:799    .text.byte2hex:0000000000000000 byte2hex
     /tmp/ccqpznur.s:815    .text.my_delay_us:0000000000000000 $t
     /tmp/ccqpznur.s:822    .text.my_delay_us:0000000000000000 my_delay_us
     /tmp/ccqpznur.s:840    .text.ow_bus_rd:0000000000000000 $t
     /tmp/ccqpznur.s:847    .text.ow_bus_rd:0000000000000000 ow_bus_rd
     /tmp/ccqpznur.s:858    .text.ow_bus_rd:000000000000000c $d
     /tmp/ccqpznur.s:861    .text.ow_bus_wr:0000000000000000 $t
     /tmp/ccqpznur.s:868    .text.ow_bus_wr:0000000000000000 ow_bus_wr
     /tmp/ccqpznur.s:883    .text.ow_bus_wr:0000000000000010 $d
     /tmp/ccqpznur.s:886    .text.ow_bus_direction:0000000000000000 $t
     /tmp/ccqpznur.s:893    .text.ow_bus_direction:0000000000000000 ow_bus_direction
     /tmp/ccqpznur.s:915    .text.ow_bus_direction:0000000000000024 $d
     /tmp/ccqpznur.s:918    .text.ow_reset:0000000000000000 $t
     /tmp/ccqpznur.s:925    .text.ow_reset:0000000000000000 ow_reset
     /tmp/ccqpznur.s:972    .text.ow_reset:000000000000003c $d
     /tmp/ccqpznur.s:975    .text.ow_bit_wr:0000000000000000 $t
     /tmp/ccqpznur.s:982    .text.ow_bit_wr:0000000000000000 ow_bit_wr
     /tmp/ccqpznur.s:1034   .text.ow_bit_wr:0000000000000048 $d
     /tmp/ccqpznur.s:1037   .text.ow_bit_rd:0000000000000000 $t
     /tmp/ccqpznur.s:1044   .text.ow_bit_rd:0000000000000000 ow_bit_rd
     /tmp/ccqpznur.s:1079   .text.ow_bit_rd:0000000000000034 $d
     /tmp/ccqpznur.s:1082   .text.ow_byte_wr:0000000000000000 $t
     /tmp/ccqpznur.s:1089   .text.ow_byte_wr:0000000000000000 ow_byte_wr
     /tmp/ccqpznur.s:1127   .text.ow_byte_wr:0000000000000030 $d
     /tmp/ccqpznur.s:1130   .text.ow_byte_rd:0000000000000000 $t
ARM GAS  /tmp/ccqpznur.s 			page 50


     /tmp/ccqpznur.s:1137   .text.ow_byte_rd:0000000000000000 ow_byte_rd
     /tmp/ccqpznur.s:1157   .text.ow_command_intern:0000000000000000 $t
     /tmp/ccqpznur.s:1164   .text.ow_command_intern:0000000000000000 ow_command_intern
     /tmp/ccqpznur.s:1190   .text.ow_command:0000000000000000 $t
     /tmp/ccqpznur.s:1197   .text.ow_command:0000000000000000 ow_command
     /tmp/ccqpznur.s:1204   .text.ow_crc8:0000000000000000 $t
     /tmp/ccqpznur.s:1211   .text.ow_crc8:0000000000000000 ow_crc8
     /tmp/ccqpznur.s:1240   .text.__lcd_write_nibble:0000000000000000 $t
     /tmp/ccqpznur.s:1247   .text.__lcd_write_nibble:0000000000000000 __lcd_write_nibble
     /tmp/ccqpznur.s:1282   .text.__lcd_write_nibble:0000000000000048 $d
     /tmp/ccqpznur.s:1286   .text.__lcd_write:0000000000000000 $t
     /tmp/ccqpznur.s:1293   .text.__lcd_write:0000000000000000 __lcd_write
     /tmp/ccqpznur.s:1307   .text._lcd_write_data:0000000000000000 $t
     /tmp/ccqpznur.s:1314   .text._lcd_write_data:0000000000000000 _lcd_write_data
     /tmp/ccqpznur.s:1325   .text._lcd_write_data:000000000000000c $d
     /tmp/ccqpznur.s:1328   .text._lcd_write_command:0000000000000000 $t
     /tmp/ccqpznur.s:1335   .text._lcd_write_command:0000000000000000 _lcd_write_command
     /tmp/ccqpznur.s:1346   .text._lcd_write_command:000000000000000c $d
     /tmp/ccqpznur.s:1349   .text._lcd_line2index:0000000000000000 $t
     /tmp/ccqpznur.s:1356   .text._lcd_line2index:0000000000000000 _lcd_line2index
     /tmp/ccqpznur.s:1367   .text._lcd_restore_cursor:0000000000000000 $t
     /tmp/ccqpznur.s:1374   .text._lcd_restore_cursor:0000000000000000 _lcd_restore_cursor
     /tmp/ccqpznur.s:1385   .text._lcd_restore_cursor:000000000000000c $d
                            *COM*:0000000000000001 LCD_POS
     /tmp/ccqpznur.s:1388   .text.lcd_write_char:0000000000000000 $t
     /tmp/ccqpznur.s:1395   .text.lcd_write_char:0000000000000000 lcd_write_char
     /tmp/ccqpznur.s:1402   .text.lcd_write_str:0000000000000000 $t
     /tmp/ccqpznur.s:1409   .text.lcd_write_str:0000000000000000 lcd_write_str
     /tmp/ccqpznur.s:1423   .text.lcd_write_strF:0000000000000000 $t
     /tmp/ccqpznur.s:1430   .text.lcd_write_strF:0000000000000000 lcd_write_strF
     /tmp/ccqpznur.s:1437   .text.lcd_cursor_position:0000000000000000 $t
     /tmp/ccqpznur.s:1444   .text.lcd_cursor_position:0000000000000000 lcd_cursor_position
     /tmp/ccqpznur.s:1457   .text.lcd_cursor_position:0000000000000014 $d
     /tmp/ccqpznur.s:1460   .text.lcd_shift_left:0000000000000000 $t
     /tmp/ccqpznur.s:1467   .text.lcd_shift_left:0000000000000000 lcd_shift_left
     /tmp/ccqpznur.s:1488   .text.lcd_shift_right:0000000000000000 $t
     /tmp/ccqpznur.s:1495   .text.lcd_shift_right:0000000000000000 lcd_shift_right
     /tmp/ccqpznur.s:1516   .text.lcd_cursor_shift_left:0000000000000000 $t
     /tmp/ccqpznur.s:1523   .text.lcd_cursor_shift_left:0000000000000000 lcd_cursor_shift_left
     /tmp/ccqpznur.s:1544   .text.lcd_cursor_shift_right:0000000000000000 $t
     /tmp/ccqpznur.s:1551   .text.lcd_cursor_shift_right:0000000000000000 lcd_cursor_shift_right
     /tmp/ccqpznur.s:1572   .text.lcd_clear_screen:0000000000000000 $t
     /tmp/ccqpznur.s:1579   .text.lcd_clear_screen:0000000000000000 lcd_clear_screen
     /tmp/ccqpznur.s:1592   .text.lcd_cursor_blink_display:0000000000000000 $t
     /tmp/ccqpznur.s:1599   .text.lcd_cursor_blink_display:0000000000000000 lcd_cursor_blink_display
     /tmp/ccqpznur.s:1618   .text.lcd_home:0000000000000000 $t
     /tmp/ccqpznur.s:1625   .text.lcd_home:0000000000000000 lcd_home
     /tmp/ccqpznur.s:1638   .text.lcd_clear_line:0000000000000000 $t
     /tmp/ccqpznur.s:1645   .text.lcd_clear_line:0000000000000000 lcd_clear_line
     /tmp/ccqpznur.s:1664   .text.lcd_clear_line:0000000000000024 $d
     /tmp/ccqpznur.s:1667   .text.lcd_progress:0000000000000000 $t
     /tmp/ccqpznur.s:1674   .text.lcd_progress:0000000000000000 lcd_progress
     /tmp/ccqpznur.s:1707   .text.lcd_progress:0000000000000038 $d
     /tmp/ccqpznur.s:1710   .text.lcd_init:0000000000000000 $t
     /tmp/ccqpznur.s:1717   .text.lcd_init:0000000000000000 lcd_init
     /tmp/ccqpznur.s:1816   .text.lcd_init:0000000000000110 $d
     /tmp/ccqpznur.s:1820   .text.ds18b20_clear_scratchpad:0000000000000000 $t
ARM GAS  /tmp/ccqpznur.s 			page 51


     /tmp/ccqpznur.s:1827   .text.ds18b20_clear_scratchpad:0000000000000000 ds18b20_clear_scratchpad
     /tmp/ccqpznur.s:1834   .text._ds18b20_match_rom:0000000000000000 $t
     /tmp/ccqpznur.s:1841   .text._ds18b20_match_rom:0000000000000000 _ds18b20_match_rom
     /tmp/ccqpznur.s:1868   .text._ds18b20_skip_rom:0000000000000000 $t
     /tmp/ccqpznur.s:1875   .text._ds18b20_skip_rom:0000000000000000 _ds18b20_skip_rom
     /tmp/ccqpznur.s:1885   .text._ds18b20_read:0000000000000000 $t
     /tmp/ccqpznur.s:1892   .text._ds18b20_read:0000000000000000 _ds18b20_read
     /tmp/ccqpznur.s:1955   .text._ds18b20_read:0000000000000084 $d
                            *COM*:0000000000000009 ds18b20_scratchpad
     /tmp/ccqpznur.s:1959   .text.ds18b20_set:0000000000000000 $t
     /tmp/ccqpznur.s:1966   .text.ds18b20_set:0000000000000000 ds18b20_set
     /tmp/ccqpznur.s:1998   .text.ds18b20_convert:0000000000000000 $t
     /tmp/ccqpznur.s:2005   .text.ds18b20_convert:0000000000000000 ds18b20_convert
     /tmp/ccqpznur.s:2015   .text.ds18b20_m_convert:0000000000000000 $t
     /tmp/ccqpznur.s:2022   .text.ds18b20_m_convert:0000000000000000 ds18b20_m_convert
     /tmp/ccqpznur.s:2032   .text.ds18b20_s_read_rom:0000000000000000 $t
     /tmp/ccqpznur.s:2039   .text.ds18b20_s_read_rom:0000000000000000 ds18b20_s_read_rom
     /tmp/ccqpznur.s:2066   .text.ds18b20_s_temp:0000000000000000 $t
     /tmp/ccqpznur.s:2073   .text.ds18b20_s_temp:0000000000000000 ds18b20_s_temp
     /tmp/ccqpznur.s:2126   .text.ds18b20_s_temp:0000000000000068 $d
     /tmp/ccqpznur.s:2129   .text.ds18b20_m_temp:0000000000000000 $t
     /tmp/ccqpznur.s:2136   .text.ds18b20_m_temp:0000000000000000 ds18b20_m_temp
     /tmp/ccqpznur.s:2191   .text.ds18b20_m_temp:0000000000000070 $d
     /tmp/ccqpznur.s:2194   .text.ds18b20_temp_format:0000000000000000 $t
     /tmp/ccqpznur.s:2201   .text.ds18b20_temp_format:0000000000000000 ds18b20_temp_format
     /tmp/ccqpznur.s:2237   .text.ds18b20_temp_format:0000000000000044 $d
                            *COM*:0000000000000007 ds18b20_formated_temp
     /tmp/ccqpznur.s:2240   .text.ds18b20_error:0000000000000000 $t
     /tmp/ccqpznur.s:2247   .text.ds18b20_error:0000000000000000 ds18b20_error
     /tmp/ccqpznur.s:2311   .text.ds18b20_error:0000000000000078 $d
     /tmp/ccqpznur.s:2319   .text.SystemClock_Config:0000000000000000 $t
     /tmp/ccqpznur.s:2326   .text.SystemClock_Config:0000000000000000 SystemClock_Config
     /tmp/ccqpznur.s:2408   .text.SystemClock_Config:00000000000000b8 $d
     /tmp/ccqpznur.s:2416   .text.startup.main:0000000000000000 $t
     /tmp/ccqpznur.s:2423   .text.startup.main:0000000000000000 main
     /tmp/ccqpznur.s:2706   .text.startup.main:00000000000002dc $d
     /tmp/ccqpznur.s:2719   .text._Error_Handler:0000000000000000 $t
     /tmp/ccqpznur.s:2726   .text._Error_Handler:0000000000000000 _Error_Handler
     /tmp/ccqpznur.s:2793   .rodata.ds_t2_id:0000000000000000 ds_t2_id
     /tmp/ccqpznur.s:2774   .rodata.ds_t1_id:0000000000000000 ds_t1_id
     /tmp/ccqpznur.s:2812   .rodata.ds_temp2:0000000000000000 ds_temp2
     /tmp/ccqpznur.s:2806   .rodata.ds_temp1:0000000000000000 ds_temp1
     /tmp/ccqpznur.s:2762   .rodata.ds_err2:0000000000000000 ds_err2
     /tmp/ccqpznur.s:2756   .rodata.ds_err1:0000000000000000 ds_err1
     /tmp/ccqpznur.s:2787   .rodata.ds_t2:0000000000000000 ds_t2
     /tmp/ccqpznur.s:2768   .rodata.ds_t1:0000000000000000 ds_t1
     /tmp/ccqpznur.s:2750   .rodata.ds_all:0000000000000000 ds_all

UNDEFINED SYMBOLS
LL_GPIO_Init
LL_mDelay
LL_Init1msTick
LL_SetSystemCoreClock
LL_EXTI_Init
