ARM GAS  /tmp/cc7QJHkO.s 			page 1


   1              		.cpu cortex-m3
   2              		.eabi_attribute 20, 1
   3              		.eabi_attribute 21, 1
   4              		.eabi_attribute 23, 3
   5              		.eabi_attribute 24, 1
   6              		.eabi_attribute 25, 1
   7              		.eabi_attribute 26, 1
   8              		.eabi_attribute 30, 4
   9              		.eabi_attribute 34, 1
  10              		.eabi_attribute 18, 4
  11              		.file	"stm32l1xx_ll_pwr.c"
  12              		.section	.text.LL_PWR_DeInit,"ax",%progbits
  13              		.align	1
  14              		.global	LL_PWR_DeInit
  15              		.syntax unified
  16              		.thumb
  17              		.thumb_func
  18              		.fpu softvfp
  20              	LL_PWR_DeInit:
  21              		@ args = 0, pretend = 0, frame = 0
  22              		@ frame_needed = 0, uses_anonymous_args = 0
  23              		@ link register save eliminated.
  24 0000 054B     		ldr	r3, .L2
  25 0002 0120     		movs	r0, #1
  26 0004 9A69     		ldr	r2, [r3, #24]
  27 0006 42F08052 		orr	r2, r2, #268435456
  28 000a 9A61     		str	r2, [r3, #24]
  29 000c 9A69     		ldr	r2, [r3, #24]
  30 000e 22F08052 		bic	r2, r2, #268435456
  31 0012 9A61     		str	r2, [r3, #24]
  32 0014 7047     		bx	lr
  33              	.L3:
  34 0016 00BF     		.align	2
  35              	.L2:
  36 0018 00380240 		.word	1073887232
  38              		.ident	"GCC: (GNU Tools for Arm Embedded Processors 7-2017-q4-major) 7.2.1 20170904 (release) [ARM
ARM GAS  /tmp/cc7QJHkO.s 			page 2


DEFINED SYMBOLS
                            *ABS*:0000000000000000 stm32l1xx_ll_pwr.c
     /tmp/cc7QJHkO.s:13     .text.LL_PWR_DeInit:0000000000000000 $t
     /tmp/cc7QJHkO.s:20     .text.LL_PWR_DeInit:0000000000000000 LL_PWR_DeInit
     /tmp/cc7QJHkO.s:36     .text.LL_PWR_DeInit:0000000000000018 $d

NO UNDEFINED SYMBOLS
