ARM GAS  /tmp/cc0d2stF.s 			page 1


   1              		.cpu cortex-m3
   2              		.eabi_attribute 20, 1
   3              		.eabi_attribute 21, 1
   4              		.eabi_attribute 23, 3
   5              		.eabi_attribute 24, 1
   6              		.eabi_attribute 25, 1
   7              		.eabi_attribute 26, 1
   8              		.eabi_attribute 30, 4
   9              		.eabi_attribute 34, 1
  10              		.eabi_attribute 18, 4
  11              		.file	"stm32l1xx_ll_gpio.c"
  12              		.section	.text.LL_AHB1_GRP1_ForceReset,"ax",%progbits
  13              		.align	1
  14              		.syntax unified
  15              		.thumb
  16              		.thumb_func
  17              		.fpu softvfp
  19              	LL_AHB1_GRP1_ForceReset:
  20              		@ args = 0, pretend = 0, frame = 0
  21              		@ frame_needed = 0, uses_anonymous_args = 0
  22              		@ link register save eliminated.
  23 0000 024A     		ldr	r2, .L2
  24 0002 1369     		ldr	r3, [r2, #16]
  25 0004 1843     		orrs	r0, r0, r3
  26 0006 1061     		str	r0, [r2, #16]
  27 0008 7047     		bx	lr
  28              	.L3:
  29 000a 00BF     		.align	2
  30              	.L2:
  31 000c 00380240 		.word	1073887232
  33              		.section	.text.LL_AHB1_GRP1_ReleaseReset,"ax",%progbits
  34              		.align	1
  35              		.syntax unified
  36              		.thumb
  37              		.thumb_func
  38              		.fpu softvfp
  40              	LL_AHB1_GRP1_ReleaseReset:
  41              		@ args = 0, pretend = 0, frame = 0
  42              		@ frame_needed = 0, uses_anonymous_args = 0
  43              		@ link register save eliminated.
  44 0000 024A     		ldr	r2, .L5
  45 0002 1369     		ldr	r3, [r2, #16]
  46 0004 23EA0000 		bic	r0, r3, r0
  47 0008 1061     		str	r0, [r2, #16]
  48 000a 7047     		bx	lr
  49              	.L6:
  50              		.align	2
  51              	.L5:
  52 000c 00380240 		.word	1073887232
  54              		.section	.text.LL_GPIO_DeInit,"ax",%progbits
  55              		.align	1
  56              		.global	LL_GPIO_DeInit
  57              		.syntax unified
  58              		.thumb
  59              		.thumb_func
  60              		.fpu softvfp
  62              	LL_GPIO_DeInit:
ARM GAS  /tmp/cc0d2stF.s 			page 2


  63              		@ args = 0, pretend = 0, frame = 0
  64              		@ frame_needed = 0, uses_anonymous_args = 0
  65 0000 08B5     		push	{r3, lr}
  66 0002 224B     		ldr	r3, .L18
  67 0004 9842     		cmp	r0, r3
  68 0006 07D1     		bne	.L8
  69 0008 0120     		movs	r0, #1
  70 000a FFF7FEFF 		bl	LL_AHB1_GRP1_ForceReset
  71 000e 0120     		movs	r0, #1
  72              	.L17:
  73 0010 FFF7FEFF 		bl	LL_AHB1_GRP1_ReleaseReset
  74 0014 0120     		movs	r0, #1
  75              	.L9:
  76 0016 08BD     		pop	{r3, pc}
  77              	.L8:
  78 0018 1D4B     		ldr	r3, .L18+4
  79 001a 9842     		cmp	r0, r3
  80 001c 04D1     		bne	.L10
  81 001e 0220     		movs	r0, #2
  82 0020 FFF7FEFF 		bl	LL_AHB1_GRP1_ForceReset
  83 0024 0220     		movs	r0, #2
  84 0026 F3E7     		b	.L17
  85              	.L10:
  86 0028 1A4B     		ldr	r3, .L18+8
  87 002a 9842     		cmp	r0, r3
  88 002c 04D1     		bne	.L11
  89 002e 0420     		movs	r0, #4
  90 0030 FFF7FEFF 		bl	LL_AHB1_GRP1_ForceReset
  91 0034 0420     		movs	r0, #4
  92 0036 EBE7     		b	.L17
  93              	.L11:
  94 0038 174B     		ldr	r3, .L18+12
  95 003a 9842     		cmp	r0, r3
  96 003c 04D1     		bne	.L12
  97 003e 0820     		movs	r0, #8
  98 0040 FFF7FEFF 		bl	LL_AHB1_GRP1_ForceReset
  99 0044 0820     		movs	r0, #8
 100 0046 E3E7     		b	.L17
 101              	.L12:
 102 0048 144B     		ldr	r3, .L18+16
 103 004a 9842     		cmp	r0, r3
 104 004c 04D1     		bne	.L13
 105 004e 1020     		movs	r0, #16
 106 0050 FFF7FEFF 		bl	LL_AHB1_GRP1_ForceReset
 107 0054 1020     		movs	r0, #16
 108 0056 DBE7     		b	.L17
 109              	.L13:
 110 0058 114B     		ldr	r3, .L18+20
 111 005a 9842     		cmp	r0, r3
 112 005c 04D1     		bne	.L14
 113 005e 4020     		movs	r0, #64
 114 0060 FFF7FEFF 		bl	LL_AHB1_GRP1_ForceReset
 115 0064 4020     		movs	r0, #64
 116 0066 D3E7     		b	.L17
 117              	.L14:
 118 0068 0E4B     		ldr	r3, .L18+24
 119 006a 9842     		cmp	r0, r3
ARM GAS  /tmp/cc0d2stF.s 			page 3


 120 006c 04D1     		bne	.L15
 121 006e 8020     		movs	r0, #128
 122 0070 FFF7FEFF 		bl	LL_AHB1_GRP1_ForceReset
 123 0074 8020     		movs	r0, #128
 124 0076 CBE7     		b	.L17
 125              	.L15:
 126 0078 0B4B     		ldr	r3, .L18+28
 127 007a 9842     		cmp	r0, r3
 128 007c 04D1     		bne	.L16
 129 007e 2020     		movs	r0, #32
 130 0080 FFF7FEFF 		bl	LL_AHB1_GRP1_ForceReset
 131 0084 2020     		movs	r0, #32
 132 0086 C3E7     		b	.L17
 133              	.L16:
 134 0088 0020     		movs	r0, #0
 135 008a C4E7     		b	.L9
 136              	.L19:
 137              		.align	2
 138              	.L18:
 139 008c 00000240 		.word	1073872896
 140 0090 00040240 		.word	1073873920
 141 0094 00080240 		.word	1073874944
 142 0098 000C0240 		.word	1073875968
 143 009c 00100240 		.word	1073876992
 144 00a0 00180240 		.word	1073879040
 145 00a4 001C0240 		.word	1073880064
 146 00a8 00140240 		.word	1073878016
 148              		.section	.text.LL_GPIO_Init,"ax",%progbits
 149              		.align	1
 150              		.global	LL_GPIO_Init
 151              		.syntax unified
 152              		.thumb
 153              		.thumb_func
 154              		.fpu softvfp
 156              	LL_GPIO_Init:
 157              		@ args = 0, pretend = 0, frame = 0
 158              		@ frame_needed = 0, uses_anonymous_args = 0
 159 0000 2DE9F04F 		push	{r4, r5, r6, r7, r8, r9, r10, fp, lr}
 160 0004 0A68     		ldr	r2, [r1]
 161              		.syntax unified
 162              	@ 531 "Drivers/CMSIS/Include/cmsis_gcc.h" 1
 163 0006 92FAA2F4 		rbit r4, r2
 164              	@ 0 "" 2
 165              		.thumb
 166              		.syntax unified
 167 000a 4FF00108 		mov	r8, #1
 168 000e B4FA84F4 		clz	r4, r4
 169 0012 0326     		movs	r6, #3
 170 0014 4FF00F0E 		mov	lr, #15
 171 0018 4D68     		ldr	r5, [r1, #4]
 172 001a 05F1FF3C 		add	ip, r5, #-1
 173              	.L21:
 174 001e 32FA04F3 		lsrs	r3, r2, r4
 175 0022 0CD1     		bne	.L27
 176 0024 BCF1010F 		cmp	ip, #1
 177 0028 06D8     		bhi	.L28
 178 002a 4368     		ldr	r3, [r0, #4]
ARM GAS  /tmp/cc0d2stF.s 			page 4


 179 002c C968     		ldr	r1, [r1, #12]
 180 002e 23EA0203 		bic	r3, r3, r2
 181 0032 4A43     		muls	r2, r1, r2
 182 0034 1A43     		orrs	r2, r2, r3
 183 0036 4260     		str	r2, [r0, #4]
 184              	.L28:
 185 0038 0120     		movs	r0, #1
 186 003a BDE8F08F 		pop	{r4, r5, r6, r7, r8, r9, r10, fp, pc}
 187              	.L27:
 188 003e 08FA04F3 		lsl	r3, r8, r4
 189 0042 1340     		ands	r3, r3, r2
 190 0044 66D0     		beq	.L23
 191 0046 D0F800A0 		ldr	r10, [r0]
 192              		.syntax unified
 193              	@ 531 "Drivers/CMSIS/Include/cmsis_gcc.h" 1
 194 004a 93FAA3F9 		rbit r9, r3
 195              	@ 0 "" 2
 196              		.thumb
 197              		.syntax unified
 198 004e B9FA89F9 		clz	r9, r9
 199              		.syntax unified
 200              	@ 531 "Drivers/CMSIS/Include/cmsis_gcc.h" 1
 201 0052 93FAA3F7 		rbit r7, r3
 202              	@ 0 "" 2
 203              		.thumb
 204              		.syntax unified
 205 0056 B7FA87F7 		clz	r7, r7
 206 005a 4FEA4909 		lsl	r9, r9, #1
 207 005e 06FA09F9 		lsl	r9, r6, r9
 208 0062 7F00     		lsls	r7, r7, #1
 209 0064 2AEA0909 		bic	r9, r10, r9
 210 0068 05FA07F7 		lsl	r7, r5, r7
 211 006c 49EA0707 		orr	r7, r9, r7
 212 0070 BCF1010F 		cmp	ip, #1
 213 0074 0760     		str	r7, [r0]
 214 0076 16D8     		bhi	.L24
 215 0078 8768     		ldr	r7, [r0, #8]
 216              		.syntax unified
 217              	@ 531 "Drivers/CMSIS/Include/cmsis_gcc.h" 1
 218 007a 93FAA3F9 		rbit r9, r3
 219              	@ 0 "" 2
 220              		.thumb
 221              		.syntax unified
 222 007e B9FA89F9 		clz	r9, r9
 223              		.syntax unified
 224              	@ 531 "Drivers/CMSIS/Include/cmsis_gcc.h" 1
 225 0082 93FAA3FA 		rbit r10, r3
 226              	@ 0 "" 2
 227              		.thumb
 228              		.syntax unified
 229 0086 BAFA8AFA 		clz	r10, r10
 230 008a 4FEA4909 		lsl	r9, r9, #1
 231 008e 06FA09F9 		lsl	r9, r6, r9
 232 0092 27EA0909 		bic	r9, r7, r9
 233 0096 8F68     		ldr	r7, [r1, #8]
 234 0098 4FEA4A0A 		lsl	r10, r10, #1
 235 009c 07FA0AF7 		lsl	r7, r7, r10
ARM GAS  /tmp/cc0d2stF.s 			page 5


 236 00a0 49EA0707 		orr	r7, r9, r7
 237 00a4 8760     		str	r7, [r0, #8]
 238              	.L24:
 239 00a6 C768     		ldr	r7, [r0, #12]
 240              		.syntax unified
 241              	@ 531 "Drivers/CMSIS/Include/cmsis_gcc.h" 1
 242 00a8 93FAA3F9 		rbit r9, r3
 243              	@ 0 "" 2
 244              		.thumb
 245              		.syntax unified
 246 00ac B9FA89F9 		clz	r9, r9
 247              		.syntax unified
 248              	@ 531 "Drivers/CMSIS/Include/cmsis_gcc.h" 1
 249 00b0 93FAA3FA 		rbit r10, r3
 250              	@ 0 "" 2
 251              		.thumb
 252              		.syntax unified
 253 00b4 BAFA8AFA 		clz	r10, r10
 254 00b8 4FEA4909 		lsl	r9, r9, #1
 255 00bc 06FA09F9 		lsl	r9, r6, r9
 256 00c0 27EA0909 		bic	r9, r7, r9
 257 00c4 0F69     		ldr	r7, [r1, #16]
 258 00c6 4FEA4A0A 		lsl	r10, r10, #1
 259 00ca 07FA0AF7 		lsl	r7, r7, r10
 260 00ce 49EA0707 		orr	r7, r9, r7
 261 00d2 022D     		cmp	r5, #2
 262 00d4 C760     		str	r7, [r0, #12]
 263 00d6 1DD1     		bne	.L23
 264              		.syntax unified
 265              	@ 531 "Drivers/CMSIS/Include/cmsis_gcc.h" 1
 266 00d8 93FAA3F7 		rbit r7, r3
 267              	@ 0 "" 2
 268              		.thumb
 269              		.syntax unified
 270 00dc B7FA87F7 		clz	r7, r7
 271 00e0 072F     		cmp	r7, #7
 272 00e2 D1F81490 		ldr	r9, [r1, #20]
 273 00e6 17DC     		bgt	.L26
 274 00e8 D0F820A0 		ldr	r10, [r0, #32]
 275              		.syntax unified
 276              	@ 531 "Drivers/CMSIS/Include/cmsis_gcc.h" 1
 277 00ec 93FAA3FB 		rbit fp, r3
 278              	@ 0 "" 2
 279              		.thumb
 280              		.syntax unified
 281 00f0 BBFA8BFB 		clz	fp, fp
 282              		.syntax unified
 283              	@ 531 "Drivers/CMSIS/Include/cmsis_gcc.h" 1
 284 00f4 93FAA3F7 		rbit r7, r3
 285              	@ 0 "" 2
 286              		.thumb
 287              		.syntax unified
 288 00f8 B7FA87F7 		clz	r7, r7
 289 00fc 4FEA8B03 		lsl	r3, fp, #2
 290 0100 0EFA03F3 		lsl	r3, lr, r3
 291 0104 BF00     		lsls	r7, r7, #2
 292 0106 2AEA0303 		bic	r3, r10, r3
ARM GAS  /tmp/cc0d2stF.s 			page 6


 293 010a 09FA07F9 		lsl	r9, r9, r7
 294 010e 43EA0903 		orr	r3, r3, r9
 295 0112 0362     		str	r3, [r0, #32]
 296              	.L23:
 297 0114 0134     		adds	r4, r4, #1
 298 0116 82E7     		b	.L21
 299              	.L26:
 300 0118 476A     		ldr	r7, [r0, #36]
 301 011a 1B0A     		lsrs	r3, r3, #8
 302              		.syntax unified
 303              	@ 531 "Drivers/CMSIS/Include/cmsis_gcc.h" 1
 304 011c 93FAA3FA 		rbit r10, r3
 305              	@ 0 "" 2
 306              		.thumb
 307              		.syntax unified
 308 0120 BAFA8AFA 		clz	r10, r10
 309              		.syntax unified
 310              	@ 531 "Drivers/CMSIS/Include/cmsis_gcc.h" 1
 311 0124 93FAA3F3 		rbit r3, r3
 312              	@ 0 "" 2
 313              		.thumb
 314              		.syntax unified
 315 0128 B3FA83F3 		clz	r3, r3
 316 012c 4FEA8A0A 		lsl	r10, r10, #2
 317 0130 0EFA0AFA 		lsl	r10, lr, r10
 318 0134 9B00     		lsls	r3, r3, #2
 319 0136 27EA0A07 		bic	r7, r7, r10
 320 013a 09FA03F9 		lsl	r9, r9, r3
 321 013e 47EA0907 		orr	r7, r7, r9
 322 0142 4762     		str	r7, [r0, #36]
 323 0144 E6E7     		b	.L23
 325              		.section	.text.LL_GPIO_StructInit,"ax",%progbits
 326              		.align	1
 327              		.global	LL_GPIO_StructInit
 328              		.syntax unified
 329              		.thumb
 330              		.thumb_func
 331              		.fpu softvfp
 333              	LL_GPIO_StructInit:
 334              		@ args = 0, pretend = 0, frame = 0
 335              		@ frame_needed = 0, uses_anonymous_args = 0
 336              		@ link register save eliminated.
 337 0000 0323     		movs	r3, #3
 338 0002 4FF6FF72 		movw	r2, #65535
 339 0006 C0E90023 		strd	r2, r3, [r0]
 340 000a 0023     		movs	r3, #0
 341 000c C0E90233 		strd	r3, r3, [r0, #8]
 342 0010 C0E90433 		strd	r3, r3, [r0, #16]
 343 0014 7047     		bx	lr
 345              		.ident	"GCC: (GNU Tools for Arm Embedded Processors 7-2017-q4-major) 7.2.1 20170904 (release) [ARM
ARM GAS  /tmp/cc0d2stF.s 			page 7


DEFINED SYMBOLS
                            *ABS*:0000000000000000 stm32l1xx_ll_gpio.c
     /tmp/cc0d2stF.s:13     .text.LL_AHB1_GRP1_ForceReset:0000000000000000 $t
     /tmp/cc0d2stF.s:19     .text.LL_AHB1_GRP1_ForceReset:0000000000000000 LL_AHB1_GRP1_ForceReset
     /tmp/cc0d2stF.s:31     .text.LL_AHB1_GRP1_ForceReset:000000000000000c $d
     /tmp/cc0d2stF.s:34     .text.LL_AHB1_GRP1_ReleaseReset:0000000000000000 $t
     /tmp/cc0d2stF.s:40     .text.LL_AHB1_GRP1_ReleaseReset:0000000000000000 LL_AHB1_GRP1_ReleaseReset
     /tmp/cc0d2stF.s:52     .text.LL_AHB1_GRP1_ReleaseReset:000000000000000c $d
     /tmp/cc0d2stF.s:55     .text.LL_GPIO_DeInit:0000000000000000 $t
     /tmp/cc0d2stF.s:62     .text.LL_GPIO_DeInit:0000000000000000 LL_GPIO_DeInit
     /tmp/cc0d2stF.s:139    .text.LL_GPIO_DeInit:000000000000008c $d
     /tmp/cc0d2stF.s:149    .text.LL_GPIO_Init:0000000000000000 $t
     /tmp/cc0d2stF.s:156    .text.LL_GPIO_Init:0000000000000000 LL_GPIO_Init
     /tmp/cc0d2stF.s:326    .text.LL_GPIO_StructInit:0000000000000000 $t
     /tmp/cc0d2stF.s:333    .text.LL_GPIO_StructInit:0000000000000000 LL_GPIO_StructInit

NO UNDEFINED SYMBOLS
