ARM GAS  /tmp/cc2fNJVA.s 			page 1


   1              		.cpu cortex-m3
   2              		.eabi_attribute 20, 1
   3              		.eabi_attribute 21, 1
   4              		.eabi_attribute 23, 3
   5              		.eabi_attribute 24, 1
   6              		.eabi_attribute 25, 1
   7              		.eabi_attribute 26, 1
   8              		.eabi_attribute 30, 4
   9              		.eabi_attribute 34, 1
  10              		.eabi_attribute 18, 4
  11              		.file	"system_stm32l1xx.c"
  12              		.section	.text.SystemInit,"ax",%progbits
  13              		.align	1
  14              		.global	SystemInit
  15              		.syntax unified
  16              		.thumb
  17              		.thumb_func
  18              		.fpu softvfp
  20              	SystemInit:
  21              		@ args = 0, pretend = 0, frame = 0
  22              		@ frame_needed = 0, uses_anonymous_args = 0
  23              		@ link register save eliminated.
  24 0000 0E4B     		ldr	r3, .L2
  25 0002 1A68     		ldr	r2, [r3]
  26 0004 42F48072 		orr	r2, r2, #256
  27 0008 1A60     		str	r2, [r3]
  28 000a 9968     		ldr	r1, [r3, #8]
  29 000c 0C4A     		ldr	r2, .L2+4
  30 000e 0A40     		ands	r2, r2, r1
  31 0010 9A60     		str	r2, [r3, #8]
  32 0012 1A68     		ldr	r2, [r3]
  33 0014 22F08852 		bic	r2, r2, #285212672
  34 0018 22F00112 		bic	r2, r2, #65537
  35 001c 1A60     		str	r2, [r3]
  36 001e 1A68     		ldr	r2, [r3]
  37 0020 22F48022 		bic	r2, r2, #262144
  38 0024 1A60     		str	r2, [r3]
  39 0026 9A68     		ldr	r2, [r3, #8]
  40 0028 22F47D02 		bic	r2, r2, #16580608
  41 002c 9A60     		str	r2, [r3, #8]
  42 002e 0022     		movs	r2, #0
  43 0030 DA60     		str	r2, [r3, #12]
  44 0032 4FF00062 		mov	r2, #134217728
  45 0036 034B     		ldr	r3, .L2+8
  46 0038 9A60     		str	r2, [r3, #8]
  47 003a 7047     		bx	lr
  48              	.L3:
  49              		.align	2
  50              	.L2:
  51 003c 00380240 		.word	1073887232
  52 0040 0CC0FF88 		.word	-1996505076
  53 0044 00ED00E0 		.word	-536810240
  55              		.section	.text.SystemCoreClockUpdate,"ax",%progbits
  56              		.align	1
  57              		.global	SystemCoreClockUpdate
  58              		.syntax unified
  59              		.thumb
ARM GAS  /tmp/cc2fNJVA.s 			page 2


  60              		.thumb_func
  61              		.fpu softvfp
  63              	SystemCoreClockUpdate:
  64              		@ args = 0, pretend = 0, frame = 0
  65              		@ frame_needed = 0, uses_anonymous_args = 0
  66              		@ link register save eliminated.
  67 0000 194B     		ldr	r3, .L12
  68 0002 1A4A     		ldr	r2, .L12+4
  69 0004 9968     		ldr	r1, [r3, #8]
  70 0006 01F00C01 		and	r1, r1, #12
  71 000a 0C29     		cmp	r1, #12
  72 000c 23D8     		bhi	.L5
  73 000e DFE801F0 		tbb	[pc, r1]
  74              	.L7:
  75 0012 22       		.byte	(.L5-.L7)/2
  76 0013 22       		.byte	(.L5-.L7)/2
  77 0014 22       		.byte	(.L5-.L7)/2
  78 0015 22       		.byte	(.L5-.L7)/2
  79 0016 07       		.byte	(.L8-.L7)/2
  80 0017 22       		.byte	(.L5-.L7)/2
  81 0018 22       		.byte	(.L5-.L7)/2
  82 0019 22       		.byte	(.L5-.L7)/2
  83 001a 07       		.byte	(.L8-.L7)/2
  84 001b 22       		.byte	(.L5-.L7)/2
  85 001c 22       		.byte	(.L5-.L7)/2
  86 001d 22       		.byte	(.L5-.L7)/2
  87 001e 13       		.byte	(.L9-.L7)/2
  88 001f 00       		.p2align 1
  89              	.L8:
  90 0020 134B     		ldr	r3, .L12+8
  91              	.L11:
  92 0022 1360     		str	r3, [r2]
  93 0024 104B     		ldr	r3, .L12
  94 0026 1349     		ldr	r1, .L12+12
  95 0028 9B68     		ldr	r3, [r3, #8]
  96 002a C3F30313 		ubfx	r3, r3, #4, #4
  97 002e C95C     		ldrb	r1, [r1, r3]	@ zero_extendqisi2
  98 0030 1368     		ldr	r3, [r2]
  99 0032 CB40     		lsrs	r3, r3, r1
 100 0034 1360     		str	r3, [r2]
 101 0036 7047     		bx	lr
 102              	.L9:
 103 0038 9868     		ldr	r0, [r3, #8]
 104 003a 9968     		ldr	r1, [r3, #8]
 105 003c 9B68     		ldr	r3, [r3, #8]
 106 003e C0F38343 		ubfx	r3, r0, #18, #4
 107 0042 0D48     		ldr	r0, .L12+16
 108 0044 C1F38151 		ubfx	r1, r1, #22, #2
 109 0048 C05C     		ldrb	r0, [r0, r3]	@ zero_extendqisi2
 110 004a 094B     		ldr	r3, .L12+8
 111 004c 0131     		adds	r1, r1, #1
 112 004e 4343     		muls	r3, r0, r3
 113 0050 B3FBF1F3 		udiv	r3, r3, r1
 114 0054 E5E7     		b	.L11
 115              	.L5:
 116 0056 4FF40041 		mov	r1, #32768
 117 005a 5B68     		ldr	r3, [r3, #4]
ARM GAS  /tmp/cc2fNJVA.s 			page 3


 118 005c C3F34233 		ubfx	r3, r3, #13, #3
 119 0060 0133     		adds	r3, r3, #1
 120 0062 01FA03F3 		lsl	r3, r1, r3
 121 0066 DCE7     		b	.L11
 122              	.L13:
 123              		.align	2
 124              	.L12:
 125 0068 00380240 		.word	1073887232
 126 006c 00000000 		.word	.LANCHOR0
 127 0070 00127A00 		.word	8000000
 128 0074 00000000 		.word	.LANCHOR2
 129 0078 00000000 		.word	.LANCHOR1
 131              		.global	APBPrescTable
 132              		.global	AHBPrescTable
 133              		.global	PLLMulTable
 134              		.global	SystemCoreClock
 135              		.section	.data.SystemCoreClock,"aw",%progbits
 136              		.align	2
 137              		.set	.LANCHOR0,. + 0
 140              	SystemCoreClock:
 141 0000 68FF1F00 		.word	2097000
 142              		.section	.rodata.AHBPrescTable,"a",%progbits
 143              		.set	.LANCHOR2,. + 0
 146              	AHBPrescTable:
 147 0000 00       		.byte	0
 148 0001 00       		.byte	0
 149 0002 00       		.byte	0
 150 0003 00       		.byte	0
 151 0004 00       		.byte	0
 152 0005 00       		.byte	0
 153 0006 00       		.byte	0
 154 0007 00       		.byte	0
 155 0008 01       		.byte	1
 156 0009 02       		.byte	2
 157 000a 03       		.byte	3
 158 000b 04       		.byte	4
 159 000c 06       		.byte	6
 160 000d 07       		.byte	7
 161 000e 08       		.byte	8
 162 000f 09       		.byte	9
 163              		.section	.rodata.APBPrescTable,"a",%progbits
 166              	APBPrescTable:
 167 0000 00       		.byte	0
 168 0001 00       		.byte	0
 169 0002 00       		.byte	0
 170 0003 00       		.byte	0
 171 0004 01       		.byte	1
 172 0005 02       		.byte	2
 173 0006 03       		.byte	3
 174 0007 04       		.byte	4
 175              		.section	.rodata.PLLMulTable,"a",%progbits
 176              		.set	.LANCHOR1,. + 0
 179              	PLLMulTable:
 180 0000 03       		.byte	3
 181 0001 04       		.byte	4
 182 0002 06       		.byte	6
 183 0003 08       		.byte	8
ARM GAS  /tmp/cc2fNJVA.s 			page 4


 184 0004 0C       		.byte	12
 185 0005 10       		.byte	16
 186 0006 18       		.byte	24
 187 0007 20       		.byte	32
 188 0008 30       		.byte	48
 189              		.ident	"GCC: (GNU Tools for Arm Embedded Processors 7-2017-q4-major) 7.2.1 20170904 (release) [ARM
ARM GAS  /tmp/cc2fNJVA.s 			page 5


DEFINED SYMBOLS
                            *ABS*:0000000000000000 system_stm32l1xx.c
     /tmp/cc2fNJVA.s:13     .text.SystemInit:0000000000000000 $t
     /tmp/cc2fNJVA.s:20     .text.SystemInit:0000000000000000 SystemInit
     /tmp/cc2fNJVA.s:51     .text.SystemInit:000000000000003c $d
     /tmp/cc2fNJVA.s:56     .text.SystemCoreClockUpdate:0000000000000000 $t
     /tmp/cc2fNJVA.s:63     .text.SystemCoreClockUpdate:0000000000000000 SystemCoreClockUpdate
     /tmp/cc2fNJVA.s:75     .text.SystemCoreClockUpdate:0000000000000012 $d
     /tmp/cc2fNJVA.s:125    .text.SystemCoreClockUpdate:0000000000000068 $d
     /tmp/cc2fNJVA.s:166    .rodata.APBPrescTable:0000000000000000 APBPrescTable
     /tmp/cc2fNJVA.s:146    .rodata.AHBPrescTable:0000000000000000 AHBPrescTable
     /tmp/cc2fNJVA.s:179    .rodata.PLLMulTable:0000000000000000 PLLMulTable
     /tmp/cc2fNJVA.s:140    .data.SystemCoreClock:0000000000000000 SystemCoreClock
     /tmp/cc2fNJVA.s:136    .data.SystemCoreClock:0000000000000000 $d
     /tmp/cc2fNJVA.s:88     .text.SystemCoreClockUpdate:000000000000001f $d
     /tmp/cc2fNJVA.s:88     .text.SystemCoreClockUpdate:0000000000000020 $t

NO UNDEFINED SYMBOLS
